{
  "contractName": "Control",
  "abi": [
    {
      "constant": true,
      "inputs": [],
      "name": "cmo",
      "outputs": [
        {
          "name": "",
          "type": "address"
        }
      ],
      "payable": false,
      "stateMutability": "view",
      "type": "function"
    },
    {
      "constant": true,
      "inputs": [],
      "name": "cfo",
      "outputs": [
        {
          "name": "",
          "type": "address"
        }
      ],
      "payable": false,
      "stateMutability": "view",
      "type": "function"
    },
    {
      "constant": true,
      "inputs": [],
      "name": "paused",
      "outputs": [
        {
          "name": "",
          "type": "bool"
        }
      ],
      "payable": false,
      "stateMutability": "view",
      "type": "function"
    },
    {
      "constant": true,
      "inputs": [
        {
          "name": "",
          "type": "address"
        }
      ],
      "name": "shopModerators",
      "outputs": [
        {
          "name": "",
          "type": "bool"
        }
      ],
      "payable": false,
      "stateMutability": "view",
      "type": "function"
    },
    {
      "constant": true,
      "inputs": [],
      "name": "cso",
      "outputs": [
        {
          "name": "",
          "type": "address"
        }
      ],
      "payable": false,
      "stateMutability": "view",
      "type": "function"
    },
    {
      "constant": true,
      "inputs": [],
      "name": "ceo",
      "outputs": [
        {
          "name": "",
          "type": "address"
        }
      ],
      "payable": false,
      "stateMutability": "view",
      "type": "function"
    },
    {
      "constant": true,
      "inputs": [
        {
          "name": "",
          "type": "address"
        }
      ],
      "name": "tellerModerators",
      "outputs": [
        {
          "name": "",
          "type": "bool"
        }
      ],
      "payable": false,
      "stateMutability": "view",
      "type": "function"
    },
    {
      "inputs": [],
      "payable": false,
      "stateMutability": "nonpayable",
      "type": "constructor"
    },
    {
      "constant": false,
      "inputs": [
        {
          "name": "_who",
          "type": "address"
        }
      ],
      "name": "setCEO",
      "outputs": [],
      "payable": false,
      "stateMutability": "nonpayable",
      "type": "function"
    },
    {
      "constant": false,
      "inputs": [
        {
          "name": "_who",
          "type": "address"
        }
      ],
      "name": "setCSO",
      "outputs": [],
      "payable": false,
      "stateMutability": "nonpayable",
      "type": "function"
    },
    {
      "constant": false,
      "inputs": [
        {
          "name": "_who",
          "type": "address"
        }
      ],
      "name": "setCMO",
      "outputs": [],
      "payable": false,
      "stateMutability": "nonpayable",
      "type": "function"
    },
    {
      "constant": false,
      "inputs": [
        {
          "name": "_who",
          "type": "address"
        }
      ],
      "name": "setCFO",
      "outputs": [],
      "payable": false,
      "stateMutability": "nonpayable",
      "type": "function"
    },
    {
      "constant": false,
      "inputs": [
        {
          "name": "_who",
          "type": "address"
        }
      ],
      "name": "setShopModerator",
      "outputs": [],
      "payable": false,
      "stateMutability": "nonpayable",
      "type": "function"
    },
    {
      "constant": false,
      "inputs": [
        {
          "name": "_who",
          "type": "address"
        }
      ],
      "name": "removeShopModerator",
      "outputs": [],
      "payable": false,
      "stateMutability": "nonpayable",
      "type": "function"
    },
    {
      "constant": false,
      "inputs": [
        {
          "name": "_who",
          "type": "address"
        }
      ],
      "name": "setTellerModerator",
      "outputs": [],
      "payable": false,
      "stateMutability": "nonpayable",
      "type": "function"
    },
    {
      "constant": false,
      "inputs": [
        {
          "name": "_who",
          "type": "address"
        }
      ],
      "name": "removeTellerModerator",
      "outputs": [],
      "payable": false,
      "stateMutability": "nonpayable",
      "type": "function"
    },
    {
      "constant": false,
      "inputs": [],
      "name": "pause",
      "outputs": [],
      "payable": false,
      "stateMutability": "nonpayable",
      "type": "function"
    },
    {
      "constant": false,
      "inputs": [],
      "name": "unpause",
      "outputs": [],
      "payable": false,
      "stateMutability": "nonpayable",
      "type": "function"
    },
    {
      "constant": true,
      "inputs": [
        {
          "name": "_who",
          "type": "address"
        }
      ],
      "name": "isCEO",
      "outputs": [
        {
          "name": "",
          "type": "bool"
        }
      ],
      "payable": false,
      "stateMutability": "view",
      "type": "function"
    },
    {
      "constant": true,
      "inputs": [
        {
          "name": "_who",
          "type": "address"
        }
      ],
      "name": "isCSO",
      "outputs": [
        {
          "name": "",
          "type": "bool"
        }
      ],
      "payable": false,
      "stateMutability": "view",
      "type": "function"
    },
    {
      "constant": true,
      "inputs": [
        {
          "name": "_who",
          "type": "address"
        }
      ],
      "name": "isCMO",
      "outputs": [
        {
          "name": "",
          "type": "bool"
        }
      ],
      "payable": false,
      "stateMutability": "view",
      "type": "function"
    },
    {
      "constant": true,
      "inputs": [
        {
          "name": "_who",
          "type": "address"
        }
      ],
      "name": "isCFO",
      "outputs": [
        {
          "name": "",
          "type": "bool"
        }
      ],
      "payable": false,
      "stateMutability": "view",
      "type": "function"
    },
    {
      "constant": true,
      "inputs": [
        {
          "name": "_who",
          "type": "address"
        }
      ],
      "name": "isTellerModerator",
      "outputs": [
        {
          "name": "",
          "type": "bool"
        }
      ],
      "payable": false,
      "stateMutability": "view",
      "type": "function"
    },
    {
      "constant": true,
      "inputs": [
        {
          "name": "_who",
          "type": "address"
        }
      ],
      "name": "isShopModerator",
      "outputs": [
        {
          "name": "",
          "type": "bool"
        }
      ],
      "payable": false,
      "stateMutability": "view",
      "type": "function"
    }
  ],
  "bytecode": "0x608060405234801561001057600080fd5b5060008054336101008102600160a860020a03199092169190911790915560018054600160a060020a0319908116831790915560028054821683179055600380549091169091179055610da3806100686000396000f3006080604052600436106101325763ffffffff7c0100000000000000000000000000000000000000000000000000000000600035041663032d6ddd811461013757806306911400146101685780630c9f980f1461019d5780631ed20347146101be5780632072863b146101d35780632105c049146101f657806327d7874c146102175780633f4ba83a146102385780634e0a33791461024d578063529e65e11461026e5780635c975abb1461028f57806367bb15ad146102a45780637587e4c7146102c55780637fc126bd146102da578063809ffb20146102fb5780638456cb591461031c5780638900bd2214610331578063908921fc1461035257806398cbc89214610367578063aa5a11c514610388578063b4ff232e146103a9578063c640ee3d146103ca578063d0a4a81b146103eb575b600080fd5b34801561014357600080fd5b5061014c61040c565b60408051600160a060020a039092168252519081900360200190f35b34801561017457600080fd5b50610189600160a060020a036004351661041b565b604080519115158252519081900360200190f35b3480156101a957600080fd5b50610189600160a060020a036004351661042f565b3480156101ca57600080fd5b5061014c610443565b3480156101df57600080fd5b506101f4600160a060020a0360043516610452565b005b34801561020257600080fd5b506101f4600160a060020a0360043516610526565b34801561022357600080fd5b506101f4600160a060020a03600435166105fa565b34801561024457600080fd5b506101f46106d4565b34801561025957600080fd5b506101f4600160a060020a0360043516610794565b34801561027a57600080fd5b506101f4600160a060020a0360043516610868565b34801561029b57600080fd5b5061018961092e565b3480156102b057600080fd5b50610189600160a060020a0360043516610937565b3480156102d157600080fd5b5061014c61094c565b3480156102e657600080fd5b50610189600160a060020a036004351661095b565b34801561030757600080fd5b506101f4600160a060020a036004351661097e565b34801561032857600080fd5b506101f4610a47565b34801561033d57600080fd5b50610189600160a060020a0360043516610b2c565b34801561035e57600080fd5b5061014c610b48565b34801561037357600080fd5b50610189600160a060020a0360043516610b5c565b34801561039457600080fd5b506101f4600160a060020a0360043516610b7f565b3480156103b557600080fd5b50610189600160a060020a0360043516610c45565b3480156103d657600080fd5b50610189600160a060020a0360043516610c59565b3480156103f757600080fd5b506101f4600160a060020a0360043516610c6e565b600254600160a060020a031681565b600254600160a060020a0391821691161490565b600154600160a060020a0391821691161490565b600354600160a060020a031681565b6000546101009004600160a060020a031633146104a7576040805160e560020a62461bcd0281526020600482015260166024820152600080516020610d58833981519152604482015290519081900360640190fd5b80600160a060020a03811615156104f6576040805160e560020a62461bcd0281526020600482015260156024820152600080516020610d38833981519152604482015290519081900360640190fd5b506002805473ffffffffffffffffffffffffffffffffffffffff1916600160a060020a0392909216919091179055565b6000546101009004600160a060020a0316331461057b576040805160e560020a62461bcd0281526020600482015260166024820152600080516020610d58833981519152604482015290519081900360640190fd5b80600160a060020a03811615156105ca576040805160e560020a62461bcd0281526020600482015260156024820152600080516020610d38833981519152604482015290519081900360640190fd5b506001805473ffffffffffffffffffffffffffffffffffffffff1916600160a060020a0392909216919091179055565b6000546101009004600160a060020a0316331461064f576040805160e560020a62461bcd0281526020600482015260166024820152600080516020610d58833981519152604482015290519081900360640190fd5b80600160a060020a038116151561069e576040805160e560020a62461bcd0281526020600482015260156024820152600080516020610d38833981519152604482015290519081900360640190fd5b5060008054600160a060020a039092166101000274ffffffffffffffffffffffffffffffffffffffff0019909216919091179055565b6000546101009004600160a060020a03163314610729576040805160e560020a62461bcd0281526020600482015260166024820152600080516020610d58833981519152604482015290519081900360640190fd5b60005460ff161515600114610788576040805160e560020a62461bcd02815260206004820152601e60248201527f63616e206f6e6c792062652063616c6c6564207768656e207061757365640000604482015290519081900360640190fd5b6000805460ff19169055565b6000546101009004600160a060020a031633146107e9576040805160e560020a62461bcd0281526020600482015260166024820152600080516020610d58833981519152604482015290519081900360640190fd5b80600160a060020a0381161515610838576040805160e560020a62461bcd0281526020600482015260156024820152600080516020610d38833981519152604482015290519081900360640190fd5b506003805473ffffffffffffffffffffffffffffffffffffffff1916600160a060020a0392909216919091179055565b6000546101009004600160a060020a031633146108bd576040805160e560020a62461bcd0281526020600482015260166024820152600080516020610d58833981519152604482015290519081900360640190fd5b80600160a060020a038116151561090c576040805160e560020a62461bcd0281526020600482015260156024820152600080516020610d38833981519152604482015290519081900360640190fd5b50600160a060020a03166000908152600460205260409020805460ff19169055565b60005460ff1681565b60046020526000908152604090205460ff1681565b600154600160a060020a031681565b600160a060020a031660009081526004602052604090205460ff16151560011490565b6000546101009004600160a060020a031633146109d3576040805160e560020a62461bcd0281526020600482015260166024820152600080516020610d58833981519152604482015290519081900360640190fd5b80600160a060020a0381161515610a22576040805160e560020a62461bcd0281526020600482015260156024820152600080516020610d38833981519152604482015290519081900360640190fd5b50600160a060020a03166000908152600460205260409020805460ff19166001179055565b6000546101009004600160a060020a03163314610a9c576040805160e560020a62461bcd0281526020600482015260166024820152600080516020610d58833981519152604482015290519081900360640190fd5b60005460ff1615610b1d576040805160e560020a62461bcd02815260206004820152602260248201527f63616e206f6e6c792062652063616c6c6564207768656e206e6f74207061757360448201527f6564000000000000000000000000000000000000000000000000000000000000606482015290519081900360840190fd5b6000805460ff19166001179055565b6000546101009004600160a060020a0390811690821614919050565b6000546101009004600160a060020a031681565b600160a060020a031660009081526005602052604090205460ff16151560011490565b6000546101009004600160a060020a03163314610bd4576040805160e560020a62461bcd0281526020600482015260166024820152600080516020610d58833981519152604482015290519081900360640190fd5b80600160a060020a0381161515610c23576040805160e560020a62461bcd0281526020600482015260156024820152600080516020610d38833981519152604482015290519081900360640190fd5b50600160a060020a03166000908152600560205260409020805460ff19169055565b600354600160a060020a0391821691161490565b60056020526000908152604090205460ff1681565b6000546101009004600160a060020a03163314610cc3576040805160e560020a62461bcd0281526020600482015260166024820152600080516020610d58833981519152604482015290519081900360640190fd5b80600160a060020a0381161515610d12576040805160e560020a62461bcd0281526020600482015260156024820152600080516020610d38833981519152604482015290519081900360640190fd5b50600160a060020a03166000908152600560205260409020805460ff191660011790555600616464726573732063616e6e6f7420626520307830000000000000000000000063616c6c6572206e6565647320746f2062652063656f00000000000000000000a165627a7a723058205fb27e3b14a81bcdb3e59481cb260f94ed12a47a24698e4bb95dcb64d19d10eb0029",
  "source": "pragma solidity ^0.4.24;\n\ncontract Control {\n  // ------------------------------------------------\n  //\n  // Variables Public\n  //\n  // ------------------------------------------------\n\n  bool public paused;\n\n  address public ceo;\n  address public cso;\n  address public cmo;\n  address public cfo;\n\n  // TODO: centralised moderator, would become decentralised\n  mapping (address => bool) public shopModerators;\n  mapping (address => bool) public tellerModerators;\n\n  // ------------------------------------------------\n  //\n  // Modifiers\n  //\n  // ------------------------------------------------\n\n\n  /// @dev Access modifier for CEO-only functionality\n  modifier onlyCEO() {\n      require(msg.sender == ceo, \"caller needs to be ceo\");\n      _;\n  }\n\n  /// @dev Access modifier for CMO-only functionality\n  modifier onlyCMO() {\n      require(msg.sender == cmo, \"caller needs to be cmo\");\n      _;\n  }\n\n  modifier onlyCSO() {\n      require(msg.sender == cso, \"caller needs to be cso\");\n      _;\n  }\n\n  modifier onlyCFO() {\n      require(msg.sender == cfo, \"caller needs to be cfo\");\n      _;\n  }\n\n  modifier isValidAddress(address _addr) {\n    require(_addr != address(0), \"address cannot be 0x0\");\n    _;\n  }\n\n  modifier whenPaused() {\n    require(paused == true, \"can only be called when paused\");\n    _;\n  }\n\n  modifier whenNotPaused() {\n    require(paused == false, \"can only be called when not paused\");\n    _;\n  }\n\n  // ------------------------------------------------\n  //\n  // Constructor\n  //\n  // ------------------------------------------------\n\n  constructor()\n    public\n  {\n    paused = false;\n    ceo = msg.sender;\n    cso = msg.sender;\n    cmo = msg.sender;\n    cfo = msg.sender;\n  }\n\n  // ------------------------------------------------\n  //\n  // Functions Setters Public\n  //\n  // ------------------------------------------------\n\n  function setCEO(address _who) external onlyCEO isValidAddress(_who) { ceo = _who; }\n  function setCSO(address _who) external onlyCEO isValidAddress(_who) { cso = _who; }\n  function setCMO(address _who) external onlyCEO isValidAddress(_who) { cmo = _who; }\n  function setCFO(address _who) external onlyCEO isValidAddress(_who) { cfo = _who; }\n  function setShopModerator(address _who) external onlyCEO isValidAddress(_who) { shopModerators[_who] = true; }\n  function removeShopModerator(address _who) external onlyCEO isValidAddress(_who) { shopModerators[_who] = false; }\n  function setTellerModerator(address _who) external onlyCEO isValidAddress(_who) { tellerModerators[_who] = true; }\n  function removeTellerModerator(address _who) external onlyCEO isValidAddress(_who) { tellerModerators[_who] = false; }\n  function pause() external onlyCEO whenNotPaused { paused = true; }\n  function unpause() external onlyCEO whenPaused { paused = false; }\n\n  // ------------------------------------------------\n  //\n  // Functions Getters\n  //\n  // ------------------------------------------------\n\n  function isCEO(address _who) external view returns (bool) { return ceo == _who; }\n  function isCSO(address _who) external view returns (bool) { return cso == _who; }\n  function isCMO(address _who) external view returns (bool) { return cmo == _who; }\n  function isCFO(address _who) external view returns (bool) { return cfo == _who; }\n  function isTellerModerator(address _who) external view returns (bool) { return tellerModerators[_who] == true; }\n  function isShopModerator(address _who) external view returns (bool) { return shopModerators[_who] == true; }\n}",
  "sourcePath": "/Users/trip/Projects/detherContracts/contracts/core/Control.sol",
  "compiler": {
    "name": "solc",
    "version": "0.4.24+commit.e67f0147.Emscripten.clang"
  },
  "schemaVersion": "2.0.1",
  "updatedAt": "2019-01-10T09:36:39.980Z"
}