{
  "contractName": "GeoRegistry",
  "abi": [
    {
      "constant": true,
      "inputs": [
        {
          "name": "",
          "type": "bytes2"
        }
      ],
      "name": "countryIsEnabled",
      "outputs": [
        {
          "name": "",
          "type": "bool"
        }
      ],
      "payable": false,
      "stateMutability": "view",
      "type": "function"
    },
    {
      "constant": true,
      "inputs": [
        {
          "name": "",
          "type": "uint256"
        }
      ],
      "name": "enabledCountries",
      "outputs": [
        {
          "name": "",
          "type": "bytes2"
        }
      ],
      "payable": false,
      "stateMutability": "view",
      "type": "function"
    },
    {
      "constant": true,
      "inputs": [
        {
          "name": "",
          "type": "bytes2"
        },
        {
          "name": "",
          "type": "bytes3"
        }
      ],
      "name": "level_2",
      "outputs": [
        {
          "name": "",
          "type": "bytes4"
        }
      ],
      "payable": false,
      "stateMutability": "view",
      "type": "function"
    },
    {
      "constant": true,
      "inputs": [
        {
          "name": "",
          "type": "bytes2"
        }
      ],
      "name": "shopLicensePrice",
      "outputs": [
        {
          "name": "",
          "type": "uint256"
        }
      ],
      "payable": false,
      "stateMutability": "view",
      "type": "function"
    },
    {
      "constant": true,
      "inputs": [],
      "name": "control",
      "outputs": [
        {
          "name": "",
          "type": "address"
        }
      ],
      "payable": false,
      "stateMutability": "view",
      "type": "function"
    },
    {
      "constant": true,
      "inputs": [
        {
          "name": "",
          "type": "bytes2"
        },
        {
          "name": "",
          "type": "uint256"
        }
      ],
      "name": "countryTierDailyLimit",
      "outputs": [
        {
          "name": "",
          "type": "uint256"
        }
      ],
      "payable": false,
      "stateMutability": "view",
      "type": "function"
    },
    {
      "inputs": [
        {
          "name": "_control",
          "type": "address"
        }
      ],
      "payable": false,
      "stateMutability": "nonpayable",
      "type": "constructor"
    },
    {
      "anonymous": false,
      "inputs": [
        {
          "indexed": true,
          "name": "country",
          "type": "bytes2"
        }
      ],
      "name": "GeoRegistryCountryEnabled",
      "type": "event"
    },
    {
      "anonymous": false,
      "inputs": [
        {
          "indexed": true,
          "name": "country",
          "type": "bytes2"
        }
      ],
      "name": "GeoRegistryCountryDisabled",
      "type": "event"
    },
    {
      "constant": false,
      "inputs": [
        {
          "name": "_bytes",
          "type": "bytes"
        }
      ],
      "name": "validGeohashChars",
      "outputs": [
        {
          "name": "",
          "type": "bool"
        }
      ],
      "payable": false,
      "stateMutability": "nonpayable",
      "type": "function"
    },
    {
      "constant": false,
      "inputs": [
        {
          "name": "_bytes",
          "type": "bytes12"
        }
      ],
      "name": "validGeohashChars12",
      "outputs": [
        {
          "name": "",
          "type": "bool"
        }
      ],
      "payable": false,
      "stateMutability": "nonpayable",
      "type": "function"
    },
    {
      "constant": true,
      "inputs": [
        {
          "name": "_countryCode",
          "type": "bytes2"
        },
        {
          "name": "_zone",
          "type": "bytes4"
        }
      ],
      "name": "zoneInsideCountry",
      "outputs": [
        {
          "name": "",
          "type": "bool"
        }
      ],
      "payable": false,
      "stateMutability": "view",
      "type": "function"
    },
    {
      "constant": false,
      "inputs": [
        {
          "name": "_countryCode",
          "type": "bytes2"
        },
        {
          "name": "_tier",
          "type": "uint256"
        },
        {
          "name": "_limitUsd",
          "type": "uint256"
        }
      ],
      "name": "setCountryTierDailyLimit",
      "outputs": [],
      "payable": false,
      "stateMutability": "nonpayable",
      "type": "function"
    },
    {
      "constant": false,
      "inputs": [
        {
          "name": "_countryCode",
          "type": "bytes2"
        },
        {
          "name": "_letter",
          "type": "bytes3"
        },
        {
          "name": "_subLetters",
          "type": "bytes4"
        }
      ],
      "name": "updateLevel2",
      "outputs": [],
      "payable": false,
      "stateMutability": "nonpayable",
      "type": "function"
    },
    {
      "constant": false,
      "inputs": [
        {
          "name": "_countryCode",
          "type": "bytes2"
        },
        {
          "name": "_letters",
          "type": "bytes3[]"
        },
        {
          "name": "_subLetters",
          "type": "bytes4[]"
        }
      ],
      "name": "updateLevel2batch",
      "outputs": [],
      "payable": false,
      "stateMutability": "nonpayable",
      "type": "function"
    },
    {
      "constant": false,
      "inputs": [
        {
          "name": "_country",
          "type": "bytes2"
        }
      ],
      "name": "enableCountry",
      "outputs": [],
      "payable": false,
      "stateMutability": "nonpayable",
      "type": "function"
    },
    {
      "constant": false,
      "inputs": [
        {
          "name": "_country",
          "type": "bytes2"
        }
      ],
      "name": "disableCountry",
      "outputs": [],
      "payable": false,
      "stateMutability": "nonpayable",
      "type": "function"
    }
  ],
  "bytecode": "0x608060405234801561001057600080fd5b506040516020806115e3833981016040908152905160018054600160a060020a031916600160a060020a03909216919091178155600060208181527f679134a32d18ee372bf5450b224b074cf4199be9219de3931b2e5c79318ca9b9805463ffffffff199081166380000000179091557f8e550f0db1621154c31c2b4144d84ebb91bf7f49fd61401298632d99a5afb97e8054821663400000001790557f01d351b0614ff59f95fb5d9b8dacfc11ffbd9f7cfa4b6dd9571894d81d5378c78054821663200000001790557f0c882dac84d8e55efe0ca1bf6a95821add9a9286cef5684796dfa8479a5acf508054821663100000001790557f80fe9664b703ea64ff051c698face87da24f0fc1ca1bbfba247e052b9e22b1cd8054821663080000001790557f45d751bdb3234077c436e69da0c2553539d67957fca13c824a71dfa83bc7f7cc8054821663040000001790557fbcbdbf0b174e46e532e33783ea6ec5d091fc9c696bb1ed67cabdcf906b4caa1a8054821663020000001790557f7eb63a9a6312080781cf6c86231c14efc22dbb0cf924f9f44436589b12923b728054821663010000001790557f042cd147a24746afc0eab48fe0b6328d55762c1e052e6390a74b21064764c0aa80548216628000001790557f6168743329109f0ed77ce5fb799dc00f2beea728d3e38529f9d50cc382646f8080548216624000001790557fdaad195f08dc2a50e3e0b550371f161f6bc0cbaf9e66266ff60097764a790aa480548216622000001790557fa4a07079731f98b2a3e2af86c1ee7aa61cde63b35114059846f6c13abed730a980548216621000001790557f132b81066091044b1d9039301277e4533583fed3caa2abe6a4b71be7e35c534a80548216620800001790557f5112c58372f7e791bd805c2e37912770ef6d26958cacc35b3f5493eaf3b7faaa80548216620400001790557f9b831b44e32060d3f0e7d204e26c62fcd69020fcf577dfacba8c68992d81167980548216620200001790557fd26c0582b13ec287b181d069bbc84339d2bd47ec9e6b8897d91b9b43dd5e22d880548216620100001790557f5d4ed03f841dab619d641572f8352d60d65e4c997d59b4f6669e18e742395818805482166180001790557f72f75a4b8fc893beb65c38502496ad4738c61455db457837549a4734a39e073c805482166140001790557fea802e08328acd19e66423c24c69e703fd29f127ff25a3ba63c2c7258aa0a1f0805482166120001790557fa7be8287e4e9bc31fc11378699d5d12799df4a3833f54039e2eb7e4345a80318805482166110001790557fcae7054605de4b6f97cb6baf9ef67c2642f6ddcdadbff75dacf2e277d7d8aa86805482166108001790557fb4da00f7c768e8becf105b7396fcfa85c8be8ee32b9f4984a74db415cbcd84fd805482166104001790557f20b578c3b0e80f07dbef2b14135c92bf6c944be7e914c316371f12f05b6db067805482166102001790557ffe5d57dfbc64504662b0eee227463fd26cd3b148a155efc5109909cf7f6a088680546101009083161790557f8845ef6fced8943556ae32135aeb67ec99ebaff613a2df9d2c6c63e0ee7be9e48054821660801790557f4a3ae41970610d4b95b1ebef85e9d0b218c04f3a32642995885747f06e2eea12805482169095179094557f0823e2abfa4c37edc9118799acdab47de3411d40f86179b29dd934debcb53e038054851690911790557f42179043842e62f33f24ea282c5b628dcae0b9aea130996adfaee59f9cf4627a8054841660101790557fa1cf62fa0d95d8eeee4c409ad79cecceb916bc269e2baeace39036c2d9dda8e88054841660081790557fa6ef7e53137a89efc98458f21ac30f8715e634098a2a98ba75f9f584b1fb81338054841660041790557f4159903ee0f51dd422045a9951c9a3c72eff0b61d4ef89a6622e8cb59501aa8d8054841660021790557f680000000000000000000000000000000000000000000000000000000000000081527f221fa30d307e911343a31720f4d972e10a6f8cdd908e8b96b0394c673f6396948054909316909117909155610fe99081906105fa90396000f3006080604052600436106100b65763ffffffff60e060020a6000350416630dc210aa81146100bb5780631d0a4831146100f15780634a99d2741461014a578063580fa6081461016e578063694a53d7146101a357806381b0bb9c146101ef5780638355d49e1461022b578063bf922fe21461025f578063cd05115c1461028e578063d8de65871461032b578063de49bdaa1461035c578063df6b2c2c14610381578063e1f542a3146103b0578063fb83dbab146103d8575b600080fd5b3480156100c757600080fd5b506100dd600160f060020a0319600435166103fa565b604080519115158252519081900360200190f35b3480156100fd57600080fd5b506040805160206004803580820135601f81018490048402850184019095528484526100dd94369492936024939284019190819084018382808284375094975061040f9650505050505050565b34801561015657600080fd5b5061016c600160f060020a031960043516610513565b005b34801561017a57600080fd5b506101866004356106ee565b60408051600160f060020a03199092168252519081900360200190f35b3480156101af57600080fd5b506101d2600160f060020a031960043516600160e860020a031960243516610726565b60408051600160e060020a03199092168252519081900360200190f35b3480156101fb57600080fd5b5061016c600160f060020a031960043516600160e860020a031960243516600160e060020a031960443516610749565b34801561023757600080fd5b5061024d600160f060020a031960043516610853565b60408051918252519081900360200190f35b34801561026b57600080fd5b506100dd73ffffffffffffffffffffffffffffffffffffffff1960043516610865565b34801561029a57600080fd5b5060408051602060046024803582810135848102808701860190975280865261016c968435600160f060020a03191696369660449591949091019291829185019084908082843750506040805187358901803560208181028481018201909552818452989b9a9989019892975090820195509350839250850190849080828437509497506108ff9650505050505050565b34801561033757600080fd5b50610340610a58565b60408051600160a060020a039092168252519081900360200190f35b34801561036857600080fd5b5061024d600160f060020a031960043516602435610a67565b34801561038d57600080fd5b506100dd600160f060020a031960043516600160e060020a031960243516610a84565b3480156103bc57600080fd5b5061016c600160f060020a031960043516602435604435610b3f565b3480156103e457600080fd5b5061016c600160f060020a031960043516610c26565b60046020526000908152604090205460ff1681565b60008060008351111515610493576040805160e560020a62461bcd02815260206004820152602360248201527f5f62797465732067656f6861736820636861727320697320656d70747920617260448201527f7261790000000000000000000000000000000000000000000000000000000000606482015290519081900360840190fd5b5060005b825181101561050857600080806104ae8685610ed8565b7fff0000000000000000000000000000000000000000000000000000000000000016815260208101919091526040016000205460e060020a02600160e060020a0319161415610500576000915061050d565b600101610497565b600191505b50919050565b6001546040805160e160020a6344805e910281523360048201529051600160a060020a0390921691638900bd22916024808201926020929091908290030181600087803b15801561056357600080fd5b505af1158015610577573d6000803e3d6000fd5b505050506040513d602081101561058d57600080fd5b505115156105d3576040805160e560020a62461bcd0281526020600482015260166024820152600080516020610f9e833981519152604482015290519081900360640190fd5b600160f060020a0319811660009081526004602052604090205460ff1615610645576040805160e560020a62461bcd02815260206004820152601760248201527f636f756e74727920616c726561647920656e61626c6564000000000000000000604482015290519081900360640190fd5b600160f060020a031981166000818152600460205260408082208054600160ff19909116811790915560058054918201815583527f036b6384b5eca791c62761152d0c79bb0604c104a5fb6f4eb0703f3154bb3db06010820401805461ffff600f9093166002026101000a928302191660f060020a870492909202919091179055517f8e0967533cd3a78b3f8cbe41a8355c9a41846dfcb571b787fb7380459905e5ba9190a250565b60058054829081106106fc57fe5b9060005260206000209060109182820401919006600202915054906101000a900460f060020a0281565b600660209081526000928352604080842090915290825290205460e060020a0281565b6001546040805160e160020a6344805e910281523360048201529051600160a060020a0390921691638900bd22916024808201926020929091908290030181600087803b15801561079957600080fd5b505af11580156107ad573d6000803e3d6000fd5b505050506040513d60208110156107c357600080fd5b50511515610809576040805160e560020a62461bcd0281526020600482015260166024820152600080516020610f9e833981519152604482015290519081900360640190fd5b600160f060020a03199092166000908152600660209081526040808320600160e860020a0319909416835292905220805460e060020a90920463ffffffff19909216919091179055565b60036020526000908152604090205481565b6000805b600c81101561050857600080808584600c811061088257fe5b1a7f0100000000000000000000000000000000000000000000000000000000000000027fff0000000000000000000000000000000000000000000000000000000000000016815260208101919091526040016000205460e060020a02600160e060020a03191614156108f7576000915061050d565b600101610869565b6001546040805160e160020a6344805e910281523360048201529051600092600160a060020a031691638900bd2291602480830192602092919082900301818787803b15801561094e57600080fd5b505af1158015610962573d6000803e3d6000fd5b505050506040513d602081101561097857600080fd5b505115156109be576040805160e560020a62461bcd0281526020600482015260166024820152600080516020610f9e833981519152604482015290519081900360640190fd5b5060005b8251811015610a525781818151811015156109d957fe5b6020908102909101810151600160f060020a031986166000908152600690925260408220855191929091869085908110610a0f57fe5b602090810291909101810151600160e860020a0319168252810191909152604001600020805463ffffffff191660e060020a9092049190911790556001016109c2565b50505050565b600154600160a060020a031681565b600260209081526000928352604080842090915290825290205481565b600160f060020a031982166000908152600660209081526040808320600160e860020a031985168452825280832054600385901a7f0100000000000000000000000000000000000000000000000000000000000000027fff00000000000000000000000000000000000000000000000000000000000000811685529284905290832054849260e060020a92830292909102808316600160e060020a03191615610b305760019450610b35565b600094505b5050505092915050565b6001546040805160e160020a6344805e910281523360048201529051600160a060020a0390921691638900bd22916024808201926020929091908290030181600087803b158015610b8f57600080fd5b505af1158015610ba3573d6000803e3d6000fd5b505050506040513d6020811015610bb957600080fd5b50511515610bff576040805160e560020a62461bcd0281526020600482015260166024820152600080516020610f9e833981519152604482015290519081900360640190fd5b600160f060020a031990921660009081526002602090815260408083209383529290522055565b6001546040805160e160020a6344805e910281523360048201529051600092600160a060020a031691638900bd2291602480830192602092919082900301818787803b158015610c7557600080fd5b505af1158015610c89573d6000803e3d6000fd5b505050506040513d6020811015610c9f57600080fd5b50511515610ce5576040805160e560020a62461bcd0281526020600482015260166024820152600080516020610f9e833981519152604482015290519081900360640190fd5b600160f060020a0319821660009081526004602052604090205460ff161515610d58576040805160e560020a62461bcd02815260206004820152601860248201527f636f756e74727920616c72656164792064697361626c65640000000000000000604482015290519081900360640190fd5b50600160f060020a031981166000908152600460205260408120805460ff191690555b600554811015610e9f57817dffffffffffffffffffffffffffffffffffffffffffffffffffffffffffff1916600582815481101515610db657fe5b90600052602060002090601091828204019190066002029054906101000a900460f060020a027dffffffffffffffffffffffffffffffffffffffffffffffffffffffffffff19161415610e9757600580546000198101908110610e1557fe5b90600052602060002090601091828204019190066002029054906101000a900460f060020a02600582815481101515610e4a57fe5b90600052602060002090601091828204019190066002026101000a81548161ffff021916908360f060020a900402179055506005805480919060019003610e919190610f43565b50610e9f565b600101610d7b565b604051600160f060020a03198316907fc2cca0a5f1c2e809f2ff6aab657dd9c7ee136c937ff229ce11ced8720862761e90600090a25050565b60008082600101845110151515610f39576040805160e560020a62461bcd02815260206004820152601060248201527f206e6f74206c6f6e6720656e6f75676800000000000000000000000000000000604482015290519081900360640190fd5b5050016020015190565b815481835581811115610f7757600f016010900481600f01601090048360005260206000209182019101610f779190610f7c565b505050565b610f9a91905b80821115610f965760008155600101610f82565b5090565b90560063616c6c6572206e6565647320746f2062652043454f00000000000000000000a165627a7a72305820e3009c5d02f8c00b059ed741151e3d8e595fa4038eae98908c3e0c75159f82880029",
  "source": "pragma solidity ^0.4.24;\n\nimport \"../core/IControl.sol\";\n\ncontract GeoRegistry {\n\n  // ------------------------------------------------\n  //\n  // Variables Private\n  //\n  // ------------------------------------------------\n\n  // set once in constructor()\n  //      geohashChar bitmask\n  mapping(bytes1 => bytes4) private charToBitmask;\n  //\n  // mapping(bytes2 => bool) private validGeohashChars;\n\n  // ------------------------------------------------\n  //\n  // Variables Public\n  //\n  // ------------------------------------------------\n\n  IControl public control;\n\n  // mapping for limiting the sell amount for tellers, per tier\n  //      countryCode        tier    usdDailyLimit\n  mapping(bytes2 => mapping (uint => uint)) public countryTierDailyLimit;\n\n  //      countryCode licensePriceUSD\n  mapping(bytes2 => uint) public shopLicensePrice;\n\n  //      countryCode isEnabled\n  mapping(bytes2 => bool) public countryIsEnabled;\n  bytes2[] public enabledCountries;\n\n  //      countryCode       geohashFirst3 bitmaskLevel4\n  mapping(bytes2 => mapping(bytes3 => bytes4)) public level_2;\n\n  // ------------------------------------------------\n  //\n  // Events\n  //\n  // ------------------------------------------------\n\n  event GeoRegistryCountryEnabled(bytes2 indexed country);\n  event GeoRegistryCountryDisabled(bytes2 indexed country);\n\n  // ------------------------------------------------\n  //\n  // Constructor\n  //\n  // ------------------------------------------------\n\n  constructor(address _control)\n    public\n  {\n    control = IControl(_control);\n\n    // TODO: improve below code? https://medium.com/@imolfar/bitwise-operations-and-bit-manipulation-in-solidity-ethereum-1751f3d2e216\n    charToBitmask[bytes1(\"v\")] = hex\"80000000\"; // 2147483648\n    charToBitmask[bytes1(\"y\")] = hex\"40000000\"; // 1073741824\n    charToBitmask[bytes1(\"z\")] = hex\"20000000\"; // 536870912\n    charToBitmask[bytes1(\"b\")] = hex\"10000000\"; // 268435456\n    charToBitmask[bytes1(\"c\")] = hex\"08000000\"; // 134217728\n    charToBitmask[bytes1(\"f\")] = hex\"04000000\"; // 67108864\n    charToBitmask[bytes1(\"g\")] = hex\"02000000\"; // 33554432\n    charToBitmask[bytes1(\"u\")] = hex\"01000000\"; // 16777216\n    charToBitmask[bytes1(\"t\")] = hex\"00800000\"; // 8388608\n    charToBitmask[bytes1(\"w\")] = hex\"00400000\"; // 4194304\n    charToBitmask[bytes1(\"x\")] = hex\"00200000\"; // 2097152\n    charToBitmask[bytes1(\"8\")] = hex\"00100000\"; // 1048576\n    charToBitmask[bytes1(\"9\")] = hex\"00080000\"; // 524288\n    charToBitmask[bytes1(\"d\")] = hex\"00040000\"; // 262144\n    charToBitmask[bytes1(\"e\")] = hex\"00020000\"; // 131072\n    charToBitmask[bytes1(\"s\")] = hex\"00010000\"; // 65536\n    charToBitmask[bytes1(\"m\")] = hex\"00008000\"; // 32768\n    charToBitmask[bytes1(\"q\")] = hex\"00004000\"; // 16384\n    charToBitmask[bytes1(\"r\")] = hex\"00002000\"; // 8192\n    charToBitmask[bytes1(\"2\")] = hex\"00001000\"; // 4096\n    charToBitmask[bytes1(\"3\")] = hex\"00000800\"; // 2048\n    charToBitmask[bytes1(\"6\")] = hex\"00000400\"; // 1024\n    charToBitmask[bytes1(\"7\")] = hex\"00000200\"; // 512\n    charToBitmask[bytes1(\"k\")] = hex\"00000100\"; // 256\n    charToBitmask[bytes1(\"j\")] = hex\"00000080\"; // 128\n    charToBitmask[bytes1(\"n\")] = hex\"00000040\"; // 64\n    charToBitmask[bytes1(\"p\")] = hex\"00000020\"; // 32\n    charToBitmask[bytes1(\"0\")] = hex\"00000010\"; // 16\n    charToBitmask[bytes1(\"1\")] = hex\"00000008\"; // 8\n    charToBitmask[bytes1(\"4\")] = hex\"00000004\"; // 4\n    charToBitmask[bytes1(\"5\")] = hex\"00000002\"; // 2\n    charToBitmask[bytes1(\"h\")] = hex\"00000001\"; // 1\n  }\n\n  // ------------------------------------------------\n  //\n  // Functions Private Getters\n  //\n  // ------------------------------------------------\n\n  function toBytes1(bytes _bytes, uint _start)\n    private\n    pure\n    returns (bytes1)\n  {\n    require(_bytes.length >= (_start + 1), \" not long enough\");\n    bytes1 tempBytes1;\n\n    assembly {\n        tempBytes1 := mload(add(add(_bytes, 0x20), _start))\n    }\n\n    return tempBytes1;\n  }\n\n  function toBytes3(bytes _bytes, uint _start)\n    private\n    pure\n    returns (bytes3)\n  {\n    require(_bytes.length >= (_start + 3), \" not long enough\");\n    bytes3 tempBytes3;\n\n    assembly {\n        tempBytes3 := mload(add(add(_bytes, 0x20), _start))\n    }\n\n    return tempBytes3;\n  }\n\n  // ------------------------------------------------\n  //\n  // Functions Public Getters\n  //\n  // ------------------------------------------------\n\n  function validGeohashChars(bytes _bytes)\n    public\n    returns (bool)\n  {\n    require(_bytes.length > 0, \"_bytes geohash chars is empty array\");\n\n    for (uint i = 0; i < _bytes.length; i += 1) {\n      // find the first occurence of a byte which is not valid geohash character\n      if (charToBitmask[toBytes1(_bytes, i)] == bytes4(0)) {\n        return false;\n      }\n    }\n    return true;\n  }\n  function validGeohashChars12(bytes12 _bytes)\n    public\n    returns (bool)\n  {\n    for (uint i = 0; i < 12; i += 1) {\n      // find the first occurence of a byte which is not valid geohash character\n      if (charToBitmask[bytes1(_bytes[i])] == bytes4(0)) {\n        return false;\n      }\n    }\n    return true;\n  }\n\n  // @NOTE: _zone can be any length of bytes\n  function zoneInsideCountry(bytes2 _countryCode, bytes4 _zone)\n    public\n    view\n    returns (bool)\n  {\n    bytes3 level2key = bytes3(_zone);\n    bytes4 level3bits = level_2[_countryCode][level2key];\n\n    bytes1 fourthByte = bytes1(_zone[3]);\n    bytes4 fourthByteBitPosMask = charToBitmask[fourthByte];\n\n    if (level3bits & fourthByteBitPosMask != 0) {\n      return true;\n    } else {\n      return false;\n    }\n  }\n\n  // ------------------------------------------------\n  //\n  // Functions Setters Public\n  //\n  // ------------------------------------------------\n\n  function setCountryTierDailyLimit(bytes2 _countryCode, uint _tier, uint _limitUsd)\n    public\n  {\n    // can exec while paused\n    require(control.isCEO(msg.sender), \"caller needs to be CEO\");\n    countryTierDailyLimit[_countryCode][_tier] = _limitUsd;\n  }\n\n  function updateLevel2(bytes2 _countryCode, bytes3 _letter, bytes4 _subLetters)\n    public\n  {\n    // can exec while paused\n    require(control.isCEO(msg.sender), \"caller needs to be CEO\");\n    level_2[_countryCode][_letter] = _subLetters;\n  }\n  function updateLevel2batch(bytes2 _countryCode, bytes3[] _letters, bytes4[] _subLetters)\n    public\n  {\n\n    // can exec while paused\n    require(control.isCEO(msg.sender), \"caller needs to be CEO\");\n    for (uint i = 0; i < _letters.length; i++) {\n      level_2[_countryCode][_letters[i]] = _subLetters[i];\n    }\n  }\n\n  function enableCountry(bytes2 _country)\n    external\n  {\n    // can exec while paused\n    require(control.isCEO(msg.sender), \"caller needs to be CEO\");\n    require(!countryIsEnabled[_country], \"country already enabled\");\n\n    countryIsEnabled[_country] = true;\n    enabledCountries.push(_country);\n\n    emit GeoRegistryCountryEnabled(_country);\n  }\n\n  function disableCountry(bytes2 _country)\n    external\n  {\n    // can exec while paused\n    require(control.isCEO(msg.sender), \"caller needs to be CEO\");\n    require(countryIsEnabled[_country], \"country already disabled\");\n\n    countryIsEnabled[_country] = false;\n\n    for (uint i = 0; i < enabledCountries.length; i++) {\n      if (enabledCountries[i] == _country) {\n        // replace the to-be-deleted country with the last country in the list\n        enabledCountries[i] = enabledCountries[enabledCountries.length - 1];\n        enabledCountries.length--;\n        break;\n      }\n    }\n\n    emit GeoRegistryCountryDisabled(_country);\n  }\n}\n",
  "sourcePath": "/Users/trip/Projects/detherContracts/contracts/map/GeoRegistry.sol",
  "compiler": {
    "name": "solc",
    "version": "0.4.24+commit.e67f0147.Emscripten.clang"
  },
  "schemaVersion": "2.0.1",
  "updatedAt": "2019-01-10T09:36:39.988Z"
}