{
  "contractName": "ZoneFactory",
  "abi": [
    {
      "constant": true,
      "inputs": [],
      "name": "dth",
      "outputs": [
        {
          "name": "",
          "type": "address"
        }
      ],
      "payable": false,
      "stateMutability": "view",
      "type": "function"
    },
    {
      "constant": true,
      "inputs": [
        {
          "name": "",
          "type": "address"
        }
      ],
      "name": "zoneToGeohash",
      "outputs": [
        {
          "name": "",
          "type": "bytes7"
        }
      ],
      "payable": false,
      "stateMutability": "view",
      "type": "function"
    },
    {
      "constant": true,
      "inputs": [
        {
          "name": "",
          "type": "bytes7"
        }
      ],
      "name": "geohashToZone",
      "outputs": [
        {
          "name": "",
          "type": "address"
        }
      ],
      "payable": false,
      "stateMutability": "view",
      "type": "function"
    },
    {
      "constant": false,
      "inputs": [],
      "name": "renounceOwnership",
      "outputs": [],
      "payable": false,
      "stateMutability": "nonpayable",
      "type": "function"
    },
    {
      "constant": true,
      "inputs": [],
      "name": "owner",
      "outputs": [
        {
          "name": "",
          "type": "address"
        }
      ],
      "payable": false,
      "stateMutability": "view",
      "type": "function"
    },
    {
      "constant": true,
      "inputs": [],
      "name": "isOwner",
      "outputs": [
        {
          "name": "",
          "type": "bool"
        }
      ],
      "payable": false,
      "stateMutability": "view",
      "type": "function"
    },
    {
      "constant": true,
      "inputs": [],
      "name": "control",
      "outputs": [
        {
          "name": "",
          "type": "address"
        }
      ],
      "payable": false,
      "stateMutability": "view",
      "type": "function"
    },
    {
      "constant": true,
      "inputs": [],
      "name": "geo",
      "outputs": [
        {
          "name": "",
          "type": "address"
        }
      ],
      "payable": false,
      "stateMutability": "view",
      "type": "function"
    },
    {
      "constant": true,
      "inputs": [],
      "name": "users",
      "outputs": [
        {
          "name": "",
          "type": "address"
        }
      ],
      "payable": false,
      "stateMutability": "view",
      "type": "function"
    },
    {
      "constant": false,
      "inputs": [
        {
          "name": "newOwner",
          "type": "address"
        }
      ],
      "name": "transferOwnership",
      "outputs": [],
      "payable": false,
      "stateMutability": "nonpayable",
      "type": "function"
    },
    {
      "inputs": [
        {
          "name": "_dth",
          "type": "address"
        },
        {
          "name": "_geo",
          "type": "address"
        },
        {
          "name": "_users",
          "type": "address"
        },
        {
          "name": "_control",
          "type": "address"
        }
      ],
      "payable": false,
      "stateMutability": "nonpayable",
      "type": "constructor"
    },
    {
      "anonymous": false,
      "inputs": [
        {
          "indexed": true,
          "name": "zoneAddress",
          "type": "address"
        },
        {
          "indexed": true,
          "name": "zoneGeohash",
          "type": "bytes7"
        },
        {
          "indexed": true,
          "name": "zoneOwner",
          "type": "address"
        },
        {
          "indexed": false,
          "name": "dthStake",
          "type": "uint256"
        }
      ],
      "name": "ZoneFactoryCreatedZone",
      "type": "event"
    },
    {
      "anonymous": false,
      "inputs": [
        {
          "indexed": true,
          "name": "previousOwner",
          "type": "address"
        },
        {
          "indexed": true,
          "name": "newOwner",
          "type": "address"
        }
      ],
      "name": "OwnershipTransferred",
      "type": "event"
    },
    {
      "constant": true,
      "inputs": [
        {
          "name": "_geohash",
          "type": "bytes7"
        }
      ],
      "name": "zoneExists",
      "outputs": [
        {
          "name": "",
          "type": "bool"
        }
      ],
      "payable": false,
      "stateMutability": "view",
      "type": "function"
    },
    {
      "constant": false,
      "inputs": [
        {
          "name": "_countryCode",
          "type": "bytes2"
        },
        {
          "name": "_from",
          "type": "address"
        },
        {
          "name": "_to",
          "type": "address"
        },
        {
          "name": "_amount",
          "type": "uint256"
        }
      ],
      "name": "updateUserDailySold",
      "outputs": [],
      "payable": false,
      "stateMutability": "nonpayable",
      "type": "function"
    },
    {
      "constant": false,
      "inputs": [
        {
          "name": "_from",
          "type": "address"
        },
        {
          "name": "_value",
          "type": "uint256"
        },
        {
          "name": "_data",
          "type": "bytes"
        }
      ],
      "name": "tokenFallback",
      "outputs": [],
      "payable": false,
      "stateMutability": "nonpayable",
      "type": "function"
    }
  ],
  "bytecode": "0x608060405234801561001057600080fd5b50604051608080616328833981016040818152825160208401519184015160609094015160008054600160a060020a0319163317808255929593949192600160a060020a0316917f8be0079c531659141344cd1fd0a4f28419497f9722a3daafe3b4186f6b6457e0908290a3600160a060020a03841615156100f357604080517f08c379a000000000000000000000000000000000000000000000000000000000815260206004820152601960248201527f64746820616464726573732063616e6e6f742062652030783000000000000000604482015290519081900360640190fd5b600160a060020a038316151561016a57604080517f08c379a000000000000000000000000000000000000000000000000000000000815260206004820152601960248201527f67656f20616464726573732063616e6e6f742062652030783000000000000000604482015290519081900360640190fd5b600160a060020a03821615156101e157604080517f08c379a000000000000000000000000000000000000000000000000000000000815260206004820152601b60248201527f757365727320616464726573732063616e6e6f74206265203078300000000000604482015290519081900360640190fd5b600160a060020a038116151561025857604080517f08c379a000000000000000000000000000000000000000000000000000000000815260206004820152601d60248201527f636f6e74726f6c20616464726573732063616e6e6f7420626520307830000000604482015290519081900360640190fd5b60038054600160a060020a03958616600160a060020a0319918216179091556004805494861694821694909417909355600580549285169284169290921790915560068054919093169116179055616073806102b56000396000f3006080604052600436106100c45763ffffffff7c010000000000000000000000000000000000000000000000000000000060003504166301e57a3781146100c957806313f54caa146100fa5780631b4dab7314610138578063715018a61461015a5780638da5cb5b146101715780638f32d59b14610186578063c0ee0b8a146101af578063c6fcb00814610218578063cde603331461023a578063d8de658714610271578063d944e6a314610286578063f20202751461029b578063f2fde38b146102b0575b600080fd5b3480156100d557600080fd5b506100de6102d1565b60408051600160a060020a039092168252519081900360200190f35b34801561010657600080fd5b5061011b600160a060020a03600435166102e0565b60408051600160c860020a03199092168252519081900360200190f35b34801561014457600080fd5b506100de600160c860020a03196004351661030e565b34801561016657600080fd5b5061016f610329565b005b34801561017d57600080fd5b506100de610393565b34801561019257600080fd5b5061019b6103a2565b604080519115158252519081900360200190f35b3480156101bb57600080fd5b50604080516020600460443581810135601f810184900484028501840190955284845261016f948235600160a060020a03169460248035953695946064949201919081908401838280828437509497506103b39650505050505050565b34801561022457600080fd5b5061019b600160c860020a031960043516610b7f565b34801561024657600080fd5b5061016f600160f060020a031960043516600160a060020a0360243581169060443516606435610ba6565b34801561027d57600080fd5b506100de610cfc565b34801561029257600080fd5b506100de610d0b565b3480156102a757600080fd5b506100de610d1a565b3480156102bc57600080fd5b5061016f600160a060020a0360043516610d29565b600354600160a060020a031681565b6002602052600090815260409020547901000000000000000000000000000000000000000000000000000281565b600160205260009081526040902054600160a060020a031681565b6103316103a2565b151561033c57600080fd5b60008054604051600160a060020a03909116907f8be0079c531659141344cd1fd0a4f28419497f9722a3daafe3b4186f6b6457e0908390a36000805473ffffffffffffffffffffffffffffffffffffffff19169055565b600054600160a060020a031690565b600054600160a060020a0316331490565b600354600090819081908190600160a060020a03163314610444576040805160e560020a62461bcd02815260206004820152602260248201527f63616e206f6e6c792062652063616c6c65642062792064746820636f6e74726160448201527f6374000000000000000000000000000000000000000000000000000000000000606482015290519081900360840190fd5b600660009054906101000a9004600160a060020a0316600160a060020a0316635c975abb6040518163ffffffff167c0100000000000000000000000000000000000000000000000000000000028152600401602060405180830381600087803b1580156104b057600080fd5b505af11580156104c4573d6000803e3d6000fd5b505050506040513d60208110156104da57600080fd5b505115610531576040805160e560020a62461bcd02815260206004820152601260248201527f636f6e7472616374206973207061757365640000000000000000000000000000604482015290519081900360640190fd5b8451600a146105b0576040805160e560020a62461bcd02815260206004820152602760248201527f637265617465416e64436c61696d20657870656374732031302062797465732060448201527f6173206461746100000000000000000000000000000000000000000000000000606482015290519081900360840190fd5b7f40000000000000000000000000000000000000000000000000000000000000006105dc866000610d48565b7fff000000000000000000000000000000000000000000000000000000000000001614610679576040805160e560020a62461bcd02815260206004820152602b60248201527f696e636f7272656374206669727374206279746520696e20646174612c20657860448201527f7065637465642030783430000000000000000000000000000000000000000000606482015290519081900360840190fd5b86935085925061068a856001610db3565b9150610697856003610e14565b60048054604080517f0dc210aa000000000000000000000000000000000000000000000000000000008152600160f060020a031987169381019390935251929350600160a060020a031691630dc210aa916024808201926020929091908290030181600087803b15801561070a57600080fd5b505af115801561071e573d6000803e3d6000fd5b505050506040513d602081101561073457600080fd5b5051151561078c576040805160e560020a62461bcd02815260206004820152601360248201527f636f756e7472792069732064697361626c656400000000000000000000000000604482015290519081900360640190fd5b60048054604080517fdf6b2c2c000000000000000000000000000000000000000000000000000000008152600160f060020a03198616938101939093527fffffffff000000000000000000000000000000000000000000000000000000008416602484015251600160a060020a039091169163df6b2c2c9160448083019260209291908290030181600087803b15801561082557600080fd5b505af1158015610839573d6000803e3d6000fd5b505050506040513d602081101561084f57600080fd5b505115156108a7576040805160e560020a62461bcd02815260206004820152601a60248201527f7a6f6e65206973206e6f7420696e7369646520636f756e747279000000000000604482015290519081900360640190fd5b600160c860020a03198116600090815260016020526040902054600160a060020a03161561091f576040805160e560020a62461bcd02815260206004820152601360248201527f7a6f6e6520616c72656164792065786973747300000000000000000000000000604482015290519081900360640190fd5b6003546004546005546006548593859389938993600160a060020a039384169392831692918216911630610951610ef2565b600160f060020a03199099168952600160c860020a03199097166020890152600160a060020a039586166040808a01919091526060890195909552928516608088015290841660a0870152831660c0860152821660e08501529116610100830152519081900361012001906000f0801580156109d1573d6000803e3d6000fd5b50600160c860020a031982166000818152600160208181526040808420805473ffffffffffffffffffffffffffffffffffffffff1916600160a060020a03978816178082558716855260028352818520805466ffffffffffffff19167901000000000000000000000000000000000000000000000000008a041790556003549585528383525481517fbe45fd620000000000000000000000000000000000000000000000000000000081529087166004820152602481018a90526060604482015260648101939093527f4000000000000000000000000000000000000000000000000000000000000000608484015251939094169363be45fd629360a48084019492939192918390030190829087803b158015610aed57600080fd5b505af1158015610b01573d6000803e3d6000fd5b505050506040513d6020811015610b1757600080fd5b5050600160c860020a031981166000818152600160209081526040918290205482518781529251600160a060020a03808a1695949216927fc193d4e9a746fdc66bc534f0841cda7adfc97419f44b616421cb122d8670e7be928290030190a450505050505050565b600160c860020a031916600090815260016020526040902054600160a060020a0316151590565b3360009081526002602052604090205479010000000000000000000000000000000000000000000000000002600160c860020a0319161515610c58576040805160e560020a62461bcd02815260206004820152602760248201527f63616e206f6e6c792062652063616c6c6564206279206120726567697374657260448201527f6564207a6f6e6500000000000000000000000000000000000000000000000000606482015290519081900360840190fd5b600554604080517ffb89df53000000000000000000000000000000000000000000000000000000008152600160f060020a031987166004820152600160a060020a0386811660248301528581166044830152606482018590529151919092169163fb89df5391608480830192600092919082900301818387803b158015610cde57600080fd5b505af1158015610cf2573d6000803e3d6000fd5b5050505050505050565b600654600160a060020a031681565b600454600160a060020a031681565b600554600160a060020a031681565b610d316103a2565b1515610d3c57600080fd5b610d4581610e75565b50565b60008082600101845110151515610da9576040805160e560020a62461bcd02815260206004820152601060248201527f206e6f74206c6f6e6720656e6f75676800000000000000000000000000000000604482015290519081900360640190fd5b5050016020015190565b60008082600201845110151515610da9576040805160e560020a62461bcd02815260206004820152601060248201527f206e6f74206c6f6e6720656e6f75676800000000000000000000000000000000604482015290519081900360640190fd5b60008082600701845110151515610da9576040805160e560020a62461bcd02815260206004820152601060248201527f206e6f74206c6f6e6720656e6f75676800000000000000000000000000000000604482015290519081900360640190fd5b600160a060020a0381161515610e8a57600080fd5b60008054604051600160a060020a03808516939216917f8be0079c531659141344cd1fd0a4f28419497f9722a3daafe3b4186f6b6457e091a36000805473ffffffffffffffffffffffffffffffffffffffff1916600160a060020a0392909216919091179055565b60405161514580610f03833901905600608060405234801561001057600080fd5b50604051610120806200514583398101604090815281516020830151918301516060840151608085015160a086015160c087015160e08801516101009098015195979495939492939192909168056bc75e2d631000008610156100fa57604080517f08c379a000000000000000000000000000000000000000000000000000000000815260206004820152603360248201527f7a6f6e6520647468207374616b652073686f756c6c64206265206174206c656160448201527f7374206d696e696d756d20283130304454482900000000000000000000000000606482015290519081900360840190fd5b88600d60146101000a81548161ffff02191690837e010000000000000000000000000000000000000000000000000000000000009004021790555087600d60166101000a81548166ffffffffffffff02191690837901000000000000000000000000000000000000000000000000009004021790555084600960006101000a815481600160a060020a030219169083600160a060020a0316021790555083600a60006101000a815481600160a060020a030219169083600160a060020a0316021790555082600b60006101000a815481600160a060020a030219169083600160a060020a0316021790555081600c60006101000a815481600160a060020a030219169083600160a060020a0316021790555080600d60006101000a815481600160a060020a030219169083600160a060020a03160217905550866000800160006101000a815481600160a060020a030219169083600160a060020a03160217905550426000600101819055508560006002018190555085600060030181905550426000600401819055506000806005018190555087600160c860020a03191689600160f060020a03191630600160a060020a03167f7aff75f95b7d4af318f0d9d8bd9e9e4d8874626e860baa8cd01b3ab7190753d7896040518082815260200191505060405180910390a4604051600160a060020a0388169060009030907f1d12264c14fc566e86950ff90e2b320c449b6b0a4f1afa0f1b0cd202e054bf13908390a4505050505050505050614e0f80620003366000396000f3006080604052600436106101be5763ffffffff60e060020a60003504166301e57a3781146101c357806308e44f88146101f457806309948da5146102385780630c0b86ca1461029d5780630d624914146102c45780631504ceed146103155780631ecb0f67146103395780632c2f3d131461037057806335ecec8f146103915780633c0868f0146103b5578063400f7684146103e1578063422927ad146104055780636496a4411461041f5780636cea244b1461043f57806378bd7935146104575780637b9a73011461046f57806386d1a69f146104845780638b9c09a51461049957806391f3410c146104b15780639787d107146104c657806399640c8114610555578063a0ef91df146105a7578063a26759cb146105bc578063a74255b0146105c4578063ab5b8f1b146105dc578063aeaffbc514610639578063c0ee0b8a1461069e578063c732ff3e14610707578063d8b0b4991461071c578063d8de65871461074e578063d944e6a314610763578063dd955c4414610778578063e0df216c1461079c578063e2ae93fb146107bd578063e3653b49146107de578063efcb5ba614610805578063f20202751461081a578063fb01bb511461082f575b600080fd5b3480156101cf57600080fd5b506101d8610847565b60408051600160a060020a039092168252519081900360200190f35b34801561020057600080fd5b50610209610856565b6040805178ffffffffffffffffffffffffffffffffffffffffffffffffff199092168252519081900360200190f35b34801561024457600080fd5b5061024d610892565b60408051602080825283518183015283519192839290830191858101910280838360005b83811015610289578181015183820152602001610271565b505050509050019250505060405180910390f35b3480156102a957600080fd5b506102b26108fe565b60408051918252519081900360200190f35b3480156102d057600080fd5b506102d9610904565b604080519687526020870195909552858501939093526060850191909152600160a060020a0316608084015260a0830152519081900360c00190f35b34801561032157600080fd5b506102b2600435600160a060020a036024351661092b565b34801561034557600080fd5b50610357600435602435604435610948565b6040805192835260208301919091528051918290030190f35b34801561037c57600080fd5b506102b2600160a060020a03600435166109ae565b34801561039d57600080fd5b506102b2600160a060020a03600435166024356109c0565b3480156103c157600080fd5b506103cd6004356109f0565b604080519115158252519081900360200190f35b3480156103ed57600080fd5b506102b2600160a060020a0360043516602435610a03565b34801561041157600080fd5b5061041d600435610a1e565b005b34801561042b57600080fd5b5061041d6004803560248101910135610d75565b34801561044b57600080fd5b506102b2600435611244565b34801561046357600080fd5b506102d9600435611263565b34801561047b57600080fd5b506101d861135c565b34801561049057600080fd5b5061041d61136b565b3480156104a557600080fd5b5061041d6004356115e9565b3480156104bd57600080fd5b5061024d611a81565b3480156104d257600080fd5b506104db611aea565b6040805160ff90991689526fffffffffffffffffffffffffffffffff199097166020890152600160a060020a031990951687870152600160f860020a03199093166060870152600191820b820b6080870152810b900b60a085015260c0840152600160a060020a031660e083015251908190036101000190f35b34801561056157600080fd5b5061056a611b90565b60408051600160a060020a0390971687526020870195909552858501939093526060850191909152608084015260a0830152519081900360c00190f35b3480156105b357600080fd5b5061041d611bb6565b61041d611c54565b3480156105d057600080fd5b5061041d600435611f3f565b3480156105e857600080fd5b5061061c78ffffffffffffffffffffffffffffffffffffffffffffffffff1960043516600160a060020a0360243516612317565b60408051600160a060020a03199092168252519081900360200190f35b34801561064557600080fd5b5061041d602460048035828101929101359060ff9035166fffffffffffffffffffffffffffffffff1960443516606435600190810b90608435900b600160f860020a031960a43516600160a060020a0360c435166123d4565b3480156106aa57600080fd5b50604080516020600460443581810135601f810184900484028501840190955284845261041d948235600160a060020a0316946024803595369594606494920191908190840183828082843750949750612d2c9650505050505050565b34801561071357600080fd5b5061041d613176565b34801561072857600080fd5b5061073161323c565b60408051600160f060020a03199092168252519081900360200190f35b34801561075a57600080fd5b506101d861324f565b34801561076f57600080fd5b506101d861325e565b34801561078457600080fd5b5061041d600160a060020a036004351660243561326d565b3480156107a857600080fd5b506102b2600160a060020a0360043516613867565b3480156107c957600080fd5b506102b2600160a060020a0360043516613879565b3480156107ea57600080fd5b506102b2600160a060020a036004358116906024351661388b565b34801561081157600080fd5b5061041d6138a8565b34801561082657600080fd5b506101d8613a04565b34801561083b57600080fd5b50610357600435613a13565b600954600160a060020a031681565b600d5476010000000000000000000000000000000000000000000090047901000000000000000000000000000000000000000000000000000281565b60008054600160a060020a03168152601560209081526040918290208054835181840281018401909452808452606093928301828280156108f357602002820191906000526020600020905b815481526001909101906020018083116108de575b505050505090505b90565b60105481565b600080600080600080610918601054611263565b949b939a50919850965094509092509050565b601160209081526000928352604080842090915290825290205481565b60008061099262015180610986606481600161097a61096d8b8d63ffffffff613a4516565b8a9063ffffffff613a6316565b9063ffffffff613a6316565b9063ffffffff613a9816565b91506109a4838363ffffffff613a4516565b9050935093915050565b600e6020526000908152604090205481565b6014602052816000526040600020818154811015156109db57fe5b90600052602060002001600091509150505481565b6000908152600660205260408120541190565b6015602052816000526040600020818154811015156109db57fe5b600c54604080517f5c975abb0000000000000000000000000000000000000000000000000000000081529051600092600160a060020a031691635c975abb91600480830192602092919082900301818787803b158015610a7d57600080fd5b505af1158015610a91573d6000803e3d6000fd5b505050506040513d6020811015610aa757600080fd5b505115610aec576040805160e560020a62461bcd0281526020600482015260126024820152600080516020614d84833981519152604482015290519081900360640190fd5b600082118015610afe57506010548211155b1515610b54576040805160e560020a62461bcd02815260206004820152601860248201527f61756374696f6e496420646f6573206e6f742065786973740000000000000000604482015290519081900360640190fd5b610b5c613abb565b600160008381526006602052604090206002015460ff166001811115610b7e57fe5b14610bf9576040805160e560020a62461bcd02815260206004820152602760248201527f63616e6e6f74207769746864726177207768696c652061756374696f6e20697360448201527f2061637469766500000000000000000000000000000000000000000000000000606482015290519081900360840190fd5b6000828152600660205260409020600201546101009004600160a060020a0316331415610c70576040805160e560020a62461bcd02815260206004820152601f60248201527f61756374696f6e2077696e6e65722063616e206e6f7420776974686472617700604482015290519081900360640190fd5b600082815260116020908152604080832033845290915281205411610ccd576040805160e560020a62461bcd0281526020600482015260136024820152600080516020614dc4833981519152604482015290519081900360640190fd5b50600081815260116020908152604080832033808552908352818420805490859055600954835160e060020a63a9059cbb02815260048101939093526024830182905292519094600160a060020a039093169363a9059cbb936044808501949293928390030190829087803b158015610d4557600080fd5b505af1158015610d59573d6000803e3d6000fd5b505050506040513d6020811015610d6f57600080fd5b50505050565b600080600080600c60009054906101000a9004600160a060020a0316600160a060020a0316635c975abb6040518163ffffffff1660e060020a028152600401602060405180830381600087803b158015610dce57600080fd5b505af1158015610de2573d6000803e3d6000fd5b505050506040513d6020811015610df857600080fd5b505115610e3d576040805160e560020a62461bcd0281526020600482015260126024820152600080516020614d84833981519152604482015290519081900360640190fd5b601054600010610e97576040805160e560020a62461bcd02815260206004820152601560248201527f746865726520617265206e6f2061756374696f6e730000000000000000000000604482015290519081900360640190fd5b610e9f613abb565b60008511610ef7576040805160e560020a62461bcd02815260206004820152601860248201527f61756374696f6e496473206c69737420697320656d7074790000000000000000604482015290519081900360640190fd5b601054851115610f77576040805160e560020a62461bcd02815260206004820152602660248201527f61756374696f6e496473206c697374206973206c6f6e676572207468616e206160448201527f6c6c6f7765640000000000000000000000000000000000000000000000000000606482015290519081900360840190fd5b60009350600092505b8483101561117357858584818110610f9457fe5b905060200201359150600082118015610faf57506010548211155b1515611005576040805160e560020a62461bcd02815260206004820152601860248201527f61756374696f6e496420646f6573206e6f742065786973740000000000000000604482015290519081900360640190fd5b600160008381526006602052604090206002015460ff16600181111561102757fe5b146110a1576040805160e560020a62461bcd028152602060048201526024808201527f63616e6e6f742077697468647261772066726f6d2072756e6e696e672061756360448201527f74696f6e00000000000000000000000000000000000000000000000000000000606482015290519081900360840190fd5b6000828152600660205260409020600201546101009004600160a060020a0316331415611118576040805160e560020a62461bcd02815260206004820152601f60248201527f61756374696f6e2077696e6e65722063616e206e6f7420776974686472617700604482015290519081900360640190fd5b50600081815260116020908152604080832033845290915281205490811115611168576000828152601160209081526040808320338452909152812055611165848263ffffffff613b9c16565b93505b600190920191610f80565b600084116111b9576040805160e560020a62461bcd0281526020600482015260136024820152600080516020614dc4833981519152604482015290519081900360640190fd5b6009546040805160e060020a63a9059cbb028152336004820152602481018790529051600160a060020a039092169163a9059cbb916044808201926020929091908290030181600087803b15801561121057600080fd5b505af1158015611224573d6000803e3d6000fd5b505050506040513d602081101561123a57600080fd5b5050505050505050565b600061125d600161097a846103e863ffffffff613a9816565b92915050565b600080600080600080611274614d24565b60008881526006602090815260408083208151608081018352815481526001808301549482019490945260028201549093919284019160ff909116908111156112b957fe5b60018111156112c457fe5b815260029190910154600160a060020a03610100909104811660209283015260008c81526011835260408082206060860180518516845294528120549054925193955093509182169116141561132b5760025461132890829063ffffffff613b9c16565b90505b888260400151600181111561133c57fe5b83516020850151606090950151929c919b50995092975095509350915050565b600d54600160a060020a031681565b600c54604080517f5c975abb0000000000000000000000000000000000000000000000000000000081529051600092600160a060020a031691635c975abb91600480830192602092919082900301818787803b1580156113ca57600080fd5b505af11580156113de573d6000803e3d6000fd5b505050506040513d60208110156113f457600080fd5b505115611439576040805160e560020a62461bcd0281526020600482015260126024820152600080516020614d84833981519152604482015290519081900360640190fd5b611441613abb565b600054600160a060020a031633146114a3576040805160e560020a62461bcd02815260206004820152601860248201527f63616c6c6572206973206e6f74207a6f6e65206f776e65720000000000000000604482015290519081900360640190fd5b60105415806114d45750600160105460009081526006602052604090206002015460ff1660018111156114d257fe5b145b151561154f576040805160e560020a62461bcd028152602060048201526024808201527f63616e6e6f742072656c65617365207768696c652061756374696f6e2072756e60448201527f6e696e6700000000000000000000000000000000000000000000000000000000606482015290519081900360840190fd5b5060035461155b613bae565b611563613c19565b6009546040805160e060020a63a9059cbb028152336004820152602481018490529051600160a060020a039092169163a9059cbb916044808201926020929091908290030181600087803b1580156115ba57600080fd5b505af11580156115ce573d6000803e3d6000fd5b505050506040513d60208110156115e457600080fd5b505050565b600c60009054906101000a9004600160a060020a0316600160a060020a0316635c975abb6040518163ffffffff1660e060020a028152600401602060405180830381600087803b15801561163c57600080fd5b505af1158015611650573d6000803e3d6000fd5b505050506040513d602081101561166657600080fd5b5051156116ab576040805160e560020a62461bcd0281526020600482015260126024820152600080516020614d84833981519152604482015290519081900360640190fd5b600a54600d546040805160e160020a6306e1085502815260a060020a90920460f060020a02600160f060020a031916600483015251600160a060020a0390921691630dc210aa916024808201926020929091908290030181600087803b15801561171457600080fd5b505af1158015611728573d6000803e3d6000fd5b505050506040513d602081101561173e57600080fd5b50511515611784576040805160e560020a62461bcd0281526020600482015260136024820152600080516020614da4833981519152604482015290519081900360640190fd5b8015156117db576040805160e560020a62461bcd02815260206004820152601a60248201527f636f6d6d656e7420686173682063616e6e6f7420626520307830000000000000604482015290519081900360640190fd5b6117e3613abb565b600054600160a060020a0316151561186a576040805160e560020a62461bcd028152602060048201526024808201527f63616e6e6f7420636f6d6d656e74206f6e207a6f6e6520776974686f7574206f60448201527f776e657200000000000000000000000000000000000000000000000000000000606482015290519081900360840190fd5b60075471010000000000000000000000000000000000900460a060020a02600160a060020a031916151561190e576040805160e560020a62461bcd02815260206004820152602560248201527f63616e6e6f7420636f6d6d656e74206f6e207a6f6e6520776974686f7574207460448201527f656c6c6572000000000000000000000000000000000000000000000000000000606482015290519081900360840190fd5b600054600160a060020a0316331415611996576040805160e560020a62461bcd028152602060048201526024808201527f7a6f6e65206f776e65722063616e6e6f7420636f6d6d656e74206f6e2068696d60448201527f73656c6600000000000000000000000000000000000000000000000000000000606482015290519081900360840190fd5b60008054600160a060020a0316815260136020908152604080832033845290915281205411611a35576040805160e560020a62461bcd02815260206004820152602d60248201527f75736572206e6f7420616c6c6f77656420746f20706c6163652061206365727460448201527f696669656420636f6d6d656e7400000000000000000000000000000000000000606482015290519081900360840190fd5b60008054600160a060020a039081168252601360209081526040808420338552825280842080546000190190558354909216835260158152908220805460018101825590835291200155565b60008054600160a060020a03168152601460209081526040918290208054835181840281018401909452808452606093928301828280156108f35760200282019190600052602060002090815481526001909101906020018083116108de575050505050905090565b60075460085460008054600160a060020a039081168252601260205260409091205460ff8416946101008504700100000000000000000000000000000000029471010000000000000000000000000000000000810460a060020a02947d010000000000000000000000000000000000000000000000000000000000820460f860020a029460f060020a909204600190810b949082900b9390926201000090920490911690565b600054600154600254600354600454600554600160a060020a0390951694909192939495565b336000908152600f6020526040812054908111611c0b576040805160e560020a62461bcd0281526020600482015260136024820152600080516020614dc4833981519152604482015290519081900360640190fd5b6000811115611c5157336000818152600f60205260408082208290555183156108fc0291849190818181858888f19350505050158015611c4f573d6000803e3d6000fd5b505b50565b600c60009054906101000a9004600160a060020a0316600160a060020a0316635c975abb6040518163ffffffff1660e060020a028152600401602060405180830381600087803b158015611ca757600080fd5b505af1158015611cbb573d6000803e3d6000fd5b505050506040513d6020811015611cd157600080fd5b505115611d16576040805160e560020a62461bcd0281526020600482015260126024820152600080516020614d84833981519152604482015290519081900360640190fd5b600a54600d546040805160e160020a6306e1085502815260a060020a90920460f060020a02600160f060020a031916600483015251600160a060020a0390921691630dc210aa916024808201926020929091908290030181600087803b158015611d7f57600080fd5b505af1158015611d93573d6000803e3d6000fd5b505050506040513d6020811015611da957600080fd5b50511515611def576040805160e560020a62461bcd0281526020600482015260136024820152600080516020614da4833981519152604482015290519081900360640190fd5b60003411611e47576040805160e560020a62461bcd02815260206004820152601560248201527f6e6f206574682073656e6420776974682063616c6c0000000000000000000000604482015290519081900360640190fd5b611e4f613abb565b600054600160a060020a03163314611eb1576040805160e560020a62461bcd02815260206004820152601c60248201527f6f6e6c79207a6f6e654f776e65722063616e206164642066756e647300000000604482015290519081900360640190fd5b60075460ff161515611f0d576040805160e560020a62461bcd02815260206004820152601960248201527f6e6f74207965742061646465642074656c6c657220696e666f00000000000000604482015290519081900360640190fd5b33600090815260126020526040902054611f2d903463ffffffff613b9c16565b33600090815260126020526040902055565b600c60009054906101000a9004600160a060020a0316600160a060020a0316635c975abb6040518163ffffffff1660e060020a028152600401602060405180830381600087803b158015611f9257600080fd5b505af1158015611fa6573d6000803e3d6000fd5b505050506040513d6020811015611fbc57600080fd5b505115612001576040805160e560020a62461bcd0281526020600482015260126024820152600080516020614d84833981519152604482015290519081900360640190fd5b600a54600d546040805160e160020a6306e1085502815260a060020a90920460f060020a02600160f060020a031916600483015251600160a060020a0390921691630dc210aa916024808201926020929091908290030181600087803b15801561206a57600080fd5b505af115801561207e573d6000803e3d6000fd5b505050506040513d602081101561209457600080fd5b505115156120da576040805160e560020a62461bcd0281526020600482015260136024820152600080516020614da4833981519152604482015290519081900360640190fd5b801515612131576040805160e560020a62461bcd02815260206004820152601a60248201527f636f6d6d656e7420686173682063616e6e6f7420626520307830000000000000604482015290519081900360640190fd5b612139613abb565b600054600160a060020a031615156121c0576040805160e560020a62461bcd028152602060048201526024808201527f63616e6e6f7420636f6d6d656e74206f6e207a6f6e6520776974686f7574206f60448201527f776e657200000000000000000000000000000000000000000000000000000000606482015290519081900360840190fd5b60075471010000000000000000000000000000000000900460a060020a02600160a060020a0319161515612264576040805160e560020a62461bcd02815260206004820152602560248201527f63616e6e6f7420636f6d6d656e74206f6e207a6f6e6520776974686f7574207460448201527f656c6c6572000000000000000000000000000000000000000000000000000000606482015290519081900360840190fd5b600054600160a060020a03163314156122ec576040805160e560020a62461bcd028152602060048201526024808201527f7a6f6e65206f776e65722063616e6e6f7420636f6d6d656e74206f6e2068696d60448201527f73656c6600000000000000000000000000000000000000000000000000000000606482015290519081900360840190fd5b60008054600160a060020a031681526014602090815260408220805460018101825590835291200155565b6040805178ffffffffffffffffffffffffffffffffffffffffffffffffff1984166020808301919091526c01000000000000000000000000600160a060020a0385160260278301528251601b818403018152603b909201928390528151600093918291908401908083835b602083106123a15780518252601f199092019160209182019101612382565b5181516020939093036101000a600019018019909116921691909117905260405192018290039091209695505050505050565b600c60009054906101000a9004600160a060020a0316600160a060020a0316635c975abb6040518163ffffffff1660e060020a028152600401602060405180830381600087803b15801561242757600080fd5b505af115801561243b573d6000803e3d6000fd5b505050506040513d602081101561245157600080fd5b505115612496576040805160e560020a62461bcd0281526020600482015260126024820152600080516020614d84833981519152604482015290519081900360640190fd5b600a54600d546040805160e160020a6306e1085502815260a060020a90920460f060020a02600160f060020a031916600483015251600160a060020a0390921691630dc210aa916024808201926020929091908290030181600087803b1580156124ff57600080fd5b505af1158015612513573d6000803e3d6000fd5b505050506040513d602081101561252957600080fd5b5051151561256f576040805160e560020a62461bcd0281526020600482015260136024820152600080516020614da4833981519152604482015290519081900360640190fd5b600c87146125c7576040805160e560020a62461bcd02815260206004820181905260248201527f657870656374656420706f736974696f6e20746f206265203130206279746573604482015290519081900360640190fd5b600d60169054906101000a90047901000000000000000000000000000000000000000000000000000278ffffffffffffffffffffffffffffffffffffffffffffffffff191661264889898080601f0160208091040260200160405190810160405280939291908181526020018383808284375060009450613c3f9350505050565b78ffffffffffffffffffffffffffffffffffffffffffffffffff1916146126b9576040805160e560020a62461bcd02815260206004820181905260248201527f706f736974696f6e206973206e6f7420696e736964652074686973207a6f6e65604482015290519081900360640190fd5b600a546040517f1d0a4831000000000000000000000000000000000000000000000000000000008152602060048201908152602482018a9052600160a060020a0390921691631d0a4831918b918b91819060440184848082843782019150509350505050602060405180830381600087803b15801561273757600080fd5b505af115801561274b573d6000803e3d6000fd5b505050506040513d602081101561276157600080fd5b505115156127df576040805160e560020a62461bcd02815260206004820152602360248201527f696e76616c696420706f736974696f6e2067656f68617368206368617261637460448201527f6572730000000000000000000000000000000000000000000000000000000000606482015290519081900360840190fd5b60018660ff16101580156127f7575060648660ff1611155b1515612873576040805160e560020a62461bcd02815260206004820152602260248201527f63757272656e6379206964206d75737420626520696e2072616e676520312d3160448201527f3030000000000000000000000000000000000000000000000000000000000000606482015290519081900360840190fd5b60f860020a82161561291b5761270e198460010b1215801561289a575061270f8460010b13155b1515612916576040805160e560020a62461bcd02815260206004820152602960248201527f73656c6c526174652073686f756c64206265206265747765656e202d3939393960448201527f20616e6420393939390000000000000000000000000000000000000000000000606482015290519081900360840190fd5b61299b565b600184900b1561299b576040805160e560020a62461bcd02815260206004820152602860248201527f63616e6e6f74207365742073656c6c52617465206966206e6f7420736574206160448201527f732073656c6c6572000000000000000000000000000000000000000000000000606482015290519081900360840190fd5b7f0200000000000000000000000000000000000000000000000000000000000000821615612a5f5761270e198360010b121580156129de575061270f8360010b13155b1515612a5a576040805160e560020a62461bcd02815260206004820152602860248201527f627579526174652073686f756c64206265206265747765656e202d393939392060448201527f616e642039393939000000000000000000000000000000000000000000000000606482015290519081900360840190fd5b612adf565b600183900b15612adf576040805160e560020a62461bcd02815260206004820152602660248201527f63616e6e6f74207365742062757952617465206966206e6f742073657420617360448201527f2062757965720000000000000000000000000000000000000000000000000000606482015290519081900360840190fd5b612ae7613abb565b600054600160a060020a03163314612b6f576040805160e560020a62461bcd02815260206004820152602360248201527f6f6e6c79207a6f6e65206f776e65722063616e206164642074656c6c6572206960448201527f6e666f0000000000000000000000000000000000000000000000000000000000606482015290519081900360840190fd5b6007805460ff191660ff88161770ffffffffffffffffffffffffffffffff001916610100700100000000000000000000000000000000880402177dffffffffffffffffffffffffffffffffffffffffffffffffffffffffffff1660f060020a61ffff600187810b821692909202929092179092556008805461ffff19169287900b909116919091179055604080516020601f8a01819004810282018101909252888152612c33918a908a90819084018382808284375060009450613caa9350505050565b600780547fffffff000000000000000000000000ffffffffffffffffffffffffffffffffff167101000000000000000000000000000000000060a060020a90930492909202919091177fffff00ffffffffffffffffffffffffffffffffffffffffffffffffffffffffff167d01000000000000000000000000000000000000000000000000000000000060f860020a8504021790556008805475ffffffffffffffffffffffffffffffffffffffff0000191662010000600160a060020a0384160217905560405133907fbc905ab91d97b56e60549df29f65a04af2e1cf4b6d65da4af42f8d559ee9d32090600090a25050505050505050565b600954600090600160a060020a03163314612db7576040805160e560020a62461bcd02815260206004820152602260248201527f63616e206f6e6c792062652063616c6c65642062792064746820636f6e74726160448201527f6374000000000000000000000000000000000000000000000000000000000000606482015290519081900360840190fd5b600c60009054906101000a9004600160a060020a0316600160a060020a0316635c975abb6040518163ffffffff1660e060020a028152600401602060405180830381600087803b158015612e0a57600080fd5b505af1158015612e1e573d6000803e3d6000fd5b505050506040513d6020811015612e3457600080fd5b505115612e79576040805160e560020a62461bcd0281526020600482015260126024820152600080516020614d84833981519152604482015290519081900360640190fd5b600a54600d546040805160e160020a6306e1085502815260a060020a90920460f060020a02600160f060020a031916600483015251600160a060020a0390921691630dc210aa916024808201926020929091908290030181600087803b158015612ee257600080fd5b505af1158015612ef6573d6000803e3d6000fd5b505050506040513d6020811015612f0c57600080fd5b50511515612f52576040805160e560020a62461bcd0281526020600482015260136024820152600080516020614da4833981519152604482015290519081900360640190fd5b612f5d826000613d0b565b9050600160f860020a031981167f40000000000000000000000000000000000000000000000000000000000000001480612fc05750600160f860020a031981167f4100000000000000000000000000000000000000000000000000000000000000145b80612ff45750600160f860020a031981167f4200000000000000000000000000000000000000000000000000000000000000145b806130285750600160f860020a031981167f4300000000000000000000000000000000000000000000000000000000000000145b151561307e576040805160e560020a62461bcd02815260206004820152601b60248201527f646964206e6f74206d61746368205a6f6e652066756e6374696f6e0000000000604482015290519081900360640190fd5b600160f860020a031981167f400000000000000000000000000000000000000000000000000000000000000014156130b557610d6f565b6130bd613abb565b600160f860020a031981167f410000000000000000000000000000000000000000000000000000000000000014156130fe576130f98484613d6c565b610d6f565b600160f860020a031981167f4200000000000000000000000000000000000000000000000000000000000000141561313a576130f98484613e8d565b600160f860020a031981167f43000000000000000000000000000000000000000000000000000000000000001415610d6f57610d6f848461405d565b336000908152600e60205260408120549081116131cb576040805160e560020a62461bcd0281526020600482015260136024820152600080516020614dc4833981519152604482015290519081900360640190fd5b6000811115611c5157336000818152600e60209081526040808320839055600954815160e060020a63a9059cbb0281526004810195909552602485018690529051600160a060020a039091169363a9059cbb9360448083019493928390030190829087803b1580156115ba57600080fd5b600d5460a060020a900460f060020a0281565b600c54600160a060020a031681565b600a54600160a060020a031681565b600c54604080517f5c975abb0000000000000000000000000000000000000000000000000000000081529051600092600160a060020a031691635c975abb91600480830192602092919082900301818787803b1580156132cc57600080fd5b505af11580156132e0573d6000803e3d6000fd5b505050506040513d60208110156132f657600080fd5b50511561333b576040805160e560020a62461bcd0281526020600482015260126024820152600080516020614d84833981519152604482015290519081900360640190fd5b600a54600d546040805160e160020a6306e1085502815260a060020a90920460f060020a02600160f060020a031916600483015251600160a060020a0390921691630dc210aa916024808201926020929091908290030181600087803b1580156133a457600080fd5b505af11580156133b8573d6000803e3d6000fd5b505050506040513d60208110156133ce57600080fd5b50511515613414576040805160e560020a62461bcd0281526020600482015260136024820152600080516020614da4833981519152604482015290519081900360640190fd5b33600160a060020a0384161415613475576040805160e560020a62461bcd02815260206004820152601860248201527f73656e6465722063616e6e6f7420616c736f20626520746f0000000000000000604482015290519081900360640190fd5b600082116134cd576040805160e560020a62461bcd02815260206004820152601d60248201527f616d6f756e7420746f2073656c6c2063616e6e6f74206265207a65726f000000604482015290519081900360640190fd5b6134d5613abb565b600054600160a060020a03163314613537576040805160e560020a62461bcd02815260206004820181905260248201527f63616e206f6e6c792062652063616c6c6564206279207a6f6e65206f776e6572604482015290519081900360640190fd5b60075460ff161515613593576040805160e560020a62461bcd02815260206004820152601960248201527f6e6f74207965742061646465642074656c6c657220696e666f00000000000000604482015290519081900360640190fd5b600854620100009004600160a060020a0316156136cd576135b382611244565b336000908152601260205260409020549091508282011115613645576040805160e560020a62461bcd02815260206004820152603960248201527f6e6f7420656e6f7567682066756e647320746f2073656c6c2065746820616d6f60448201527f756e7420706c7573207061792072656665727265722066656500000000000000606482015290519081900360840190fd5b336000908152601260205260409020546136679083830163ffffffff613a4516565b33600090815260126020908152604080832093909355600854620100009004600160a060020a03168252600f905220546136a7908263ffffffff613b9c16565b600854620100009004600160a060020a03166000908152600f6020526040902055613765565b33600090815260126020526040902054821115613734576040805160e560020a62461bcd02815260206004820152601e60248201527f63616e6e6f742073656c6c206d6f7265207468616e20696e2066756e64730000604482015290519081900360640190fd5b33600090815260126020526040902054613754908363ffffffff613a4516565b336000908152601260205260409020555b600d54604080517fcde60333000000000000000000000000000000000000000000000000000000008152600160f060020a031960f060020a60a060020a850402166004820152336024820152600160a060020a038681166044830152606482018690529151919092169163cde6033391608480830192600092919082900301818387803b1580156137f557600080fd5b505af1158015613809573d6000803e3d6000fd5b505060008054600160a060020a03908116825260136020908152604080842092891680855292909152808320805460010190555190935085156108fc0292508591818181858888f19350505050158015610d6f573d6000803e3d6000fd5b600f6020526000908152604090205481565b60126020526000908152604090205481565b601360209081526000928352604080842090915290825290205481565b600c60009054906101000a9004600160a060020a0316600160a060020a0316635c975abb6040518163ffffffff1660e060020a028152600401602060405180830381600087803b1580156138fb57600080fd5b505af115801561390f573d6000803e3d6000fd5b505050506040513d602081101561392557600080fd5b50511561396a576040805160e560020a62461bcd0281526020600482015260126024820152600080516020614d84833981519152604482015290519081900360640190fd5b613972613abb565b600054600160a060020a031633146139fa576040805160e560020a62461bcd02815260206004820152602360248201527f6f6e6c79207a6f6e65206f776e65722063616e206164642074656c6c6572206960448201527f6e666f0000000000000000000000000000000000000000000000000000000000606482015290519081900360840190fd5b613a02613c19565b565b600b54600160a060020a031681565b600080613a2c600161097a85606463ffffffff613a9816565b9150613a3e838363ffffffff613a4516565b9050915091565b60008083831115613a5557600080fd5b5050808203805b5092915050565b600080831515613a765760009150613a5c565b50828202828482811515613a8657fe5b0414613a9157600080fd5b9392505050565b600080808311613aa757600080fd5b8284811515613ab257fe5b04949350505050565b613ac3614d24565b6006600060105481526020019081526020016000206080604051908101604052908160008201548152602001600182015481526020016002820160009054906101000a900460ff166001811115613b1657fe5b6001811115613b2157fe5b8152600291909101546101009004600160a060020a031660209091015260105490915015801590613b615750600081604001516001811115613b5f57fe5b145b8015613b71575080602001514210155b15613b8357613b7e61423d565b611c51565b600054600160a060020a031615611c5157611c51614491565b600082820183811015613a9157600080fd5b60008054600160a060020a03168152601460205260408120613bcf91614d4c565b60008054600160a060020a03168152601560205260408120613bf091614d4c565b60008054600160a060020a03191681556001819055600281905560038190556004819055600555565b60006007556008805475ffffffffffffffffffffffffffffffffffffffffffff19169055565b60008082600701845110151515613ca0576040805160e560020a62461bcd02815260206004820152601060248201527f206e6f74206c6f6e6720656e6f75676800000000000000000000000000000000604482015290519081900360640190fd5b5050016020015190565b60008082600c01845110151515613ca0576040805160e560020a62461bcd02815260206004820152601060248201527f206e6f74206c6f6e6720656e6f75676800000000000000000000000000000000604482015290519081900360640190fd5b60008082600101845110151515613ca0576040805160e560020a62461bcd02815260206004820152601060248201527f206e6f74206c6f6e6720656e6f75676800000000000000000000000000000000604482015290519081900360640190fd5b600054600160a060020a031615613dcd576040805160e560020a62461bcd02815260206004820152601d60248201527f63616e206e6f7420636c61696d207a6f6e652077697468206f776e6572000000604482015290519081900360640190fd5b68056bc75e2d63100000811015613e54576040805160e560020a62461bcd02815260206004820152603160248201527f6e656564206174206c65617374206d696e696d756d207a6f6e65207374616b6560448201527f20616d6f756e7420283130302044544829000000000000000000000000000000606482015290519081900360840190fd5b60008054600160a060020a031916600160a060020a03939093169290921782554260018190556002829055600391909155600455600555565b600054600160a060020a03161515613f15576040805160e560020a62461bcd02815260206004820152603560248201527f63616e6e6f7420626964206f6e207a6f6e6520776974686f7574206f776e657260448201527f2c2075736520636c61696d467265655a6f6e6528290000000000000000000000606482015290519081900360840190fd5b6000601054118015613f47575060105460009081526006602052604081206002015460ff166001811115613f4557fe5b145b15613f5b57613f5682826146b9565b611c4f565b6005541515613fd557600154613f7a906202a30063ffffffff613b9c16565b4211613fd0576040805160e560020a62461bcd02815260206004820152601f60248201527f636f6f6c646f776e20706572696f6420646964206e6f7420656e642079657400604482015290519081900360640190fd5b614053565b601054600090815260066020526040902060010154613ffd906202a30063ffffffff613b9c16565b4211614053576040805160e560020a62461bcd02815260206004820152601f60248201527f636f6f6c646f776e20706572696f6420646964206e6f7420656e642079657400604482015290519081900360640190fd5b611c4f8282614aa7565b600080548190600160a060020a031615156140c2576040805160e560020a62461bcd02815260206004820152601160248201527f7a6f6e6520686173206e6f206f776e6572000000000000000000000000000000604482015290519081900360640190fd5b600054600160a060020a03858116911614614127576040805160e560020a62461bcd02815260206004820152601860248201527f63616c6c6572206973206e6f74207a6f6e65206f776e65720000000000000000604482015290519081900360640190fd5b60105415806141585750600160105460009081526006602052604090206002015460ff16600181111561415657fe5b145b15156141d4576040805160e560020a62461bcd02815260206004820152602360248201527f63616e6e6f7420746f70207570207768696c652061756374696f6e2072756e6e60448201527f696e670000000000000000000000000000000000000000000000000000000000606482015290519081900360840190fd5b60035491506141e9828463ffffffff613b9c16565b600381905560408051848152602081018390528151929350600160a060020a038716927f993857d1afedc692a1ea47cde199310a57b73c0583028ce14c84bffd4e7aa5ea929181900390910190a250505050565b60108054600090815260066020908152604080832060028082018054600160ff1990911617908190559554855260118452828520610100909604600160a060020a03168086529590935290832080549084905560045482549354929594919391928392839283926142ae9290610948565b6000549195509350600160a060020a0387811691161415614304576002546142dc908663ffffffff613b9c16565b6002556003546142f2908663ffffffff613b9c16565b60035542600455601054600555614404565b60008054600160a060020a03888116600160a060020a0319831617835560018a8101549055600288905560038890554260045560105460055516808252600e60205260409091205490925061435f908463ffffffff613b9c16565b600160a060020a0383166000908152600e602090815260408083209390935560128152828220805490839055600f909152919020549091506143a7908263ffffffff613b9c16565b600160a060020a0383166000908152600f60205260409020556143c8613c19565b604051600160a060020a03808816919084169030907f1d12264c14fc566e86950ff90e2b320c449b6b0a4f1afa0f1b0cd202e054bf1390600090a45b6009546040805160e060020a63a9059cbb028152600160a060020a0360048201819052602482018890529151919092169163a9059cbb9160448083019260209291908290030181600087803b15801561445c57600080fd5b505af1158015614470573d6000803e3d6000fd5b505050506040513d602081101561448657600080fd5b505050505050505050565b600454600254601054600092919083908190819015156144b357429550614507565b60105460009081526006602052604081209350600284015460ff1660018111156144d957fe5b14156144e85782549550614507565b6001600284015460ff1660018111156144fd57fe5b1415614507574295505b858510614513576146b1565b61451e858786610948565b600354919350915082106145ee5760035460005460408051888152602081018a90528082018490529051929450600160a060020a03909116917fcf07ead1fcfee76a926d09b2da5b5e475def868e5b56dd5f5aeea7d2d51cb4459181900360600190a260005460015460408051918252602082018990528181018790526060820185905251600160a060020a03909216917ff6a68c2607aef85af6ee933234f69340aa368755ce48cd4d5bc9c443f6e675669181900360800190a26145e1613bae565b6145e9613c19565b614659565b600354614601908363ffffffff613a4516565b600355600486905560005460408051878152602081018990528082018590529051600160a060020a03909216917fcf07ead1fcfee76a926d09b2da5b5e475def868e5b56dd5f5aeea7d2d51cb4459181900360600190a25b6009546040805160e060020a63a9059cbb028152600160a060020a0360048201819052602482018690529151919092169163a9059cbb9160448083019260209291908290030181600087803b15801561121057600080fd5b505050505050565b601054600090815260066020526040812060028101549091908190819081908190600160a060020a03898116610100909204161415614742576040805160e560020a62461bcd02815260206004820152601960248201527f68696768657374206269646465722063616e6e6f742062696400000000000000604482015290519081900360640190fd5b601054600090815260116020908152604080832060028a0154600160a060020a03610100909104811685529252822054915491965089811691161415614878576010546000908152601160209081526040808320600160a060020a038c1684529091529020546147b8908863ffffffff613b9c16565b60025490945085906147d0908663ffffffff613b9c16565b1161484b576040805160e560020a62461bcd02815260206004820152603160248201527f626964202b20616c7265616479207374616b6564206973206c6573732074686160448201527f6e2063757272656e742068696768657374000000000000000000000000000000606482015290519081900360840190fd5b6010546000908152601160209081526040808320600160a060020a038c1684529091529020849055614a68565b6010546000908152601160209081526040808320600160a060020a038c16845290915290205415156149b0576148ad87613a13565b9093509150848211614909576040805160e560020a62461bcd02815260206004820181905260248201527f626964206973206c657373207468616e2063757272656e742068696768657374604482015290519081900360640190fd5b6010546000908152601160209081526040808320600160a060020a03808d168552908352818420869055600954825160e060020a63a9059cbb0281526004810183905260248101899052925191169363a9059cbb93604480850194919392918390030190829087803b15801561497e57600080fd5b505af1158015614992573d6000803e3d6000fd5b505050506040513d60208110156149a857600080fd5b50614a689050565b6010546000908152601160209081526040808320600160a060020a038c1684529091529020546149e6908863ffffffff613b9c16565b9050848111614a3f576040805160e560020a62461bcd02815260206004820181905260248201527f626964206973206c657373207468616e2063757272656e742068696768657374604482015290519081900360640190fd5b6010546000908152601160209081526040808320600160a060020a038c16845290915290208190555b50505060029092018054600160a060020a039095166101000274ffffffffffffffffffffffffffffffffffffffff001990951694909417909355505050565b6000805481908190600160a060020a0386811691161415614b38576040805160e560020a62461bcd02815260206004820152602160248201527f7a6f6e656f776e65722063616e6e6f7420737461727420616e2061756374696f60448201527f6e00000000000000000000000000000000000000000000000000000000000000606482015290519081900360840190fd5b614b4184613a13565b60025491945092508211614bc4576040805160e560020a62461bcd028152602060048201526024808201527f626964206973206c6f776572207468616e2063757272656e74207a6f6e65207360448201527f74616b6500000000000000000000000000000000000000000000000000000000606482015290519081900360840190fd5b5060108054600101908190556040805160808101909152428082526020820190614bf7906201518063ffffffff613b9c16565b815260200160008152600160a060020a0387166020918201526000838152600682526040908190208351815591830151600180840191909155908301516002830180549192909160ff1916908381811115614c4e57fe5b0217905550606091909101516002909101805474ffffffffffffffffffffffffffffffffffffffff001916610100600160a060020a0393841602179055600082815260116020908152604080832089851684528252808320869055600954815160e060020a63a9059cbb0281526004810186905260248101899052915194169363a9059cbb93604480840194938390030190829087803b158015614cf157600080fd5b505af1158015614d05573d6000803e3d6000fd5b505050506040513d6020811015614d1b57600080fd5b50505050505050565b6040805160808101825260008082526020820181905290918201908152600060209091015290565b5080546000825590600052602060002090810190611c5191906108fb91905b80821115614d7f5760008155600101614d6b565b50905600636f6e7472616374206973207061757365640000000000000000000000000000636f756e7472792069732064697361626c6564000000000000000000000000006e6f7468696e6720746f20776974686472617700000000000000000000000000a165627a7a72305820d15fadf492e7f6d0943297d6ac41a87445270ddf45e18413152038fe0d476df60029a165627a7a72305820ab55cee73a32adf99d1fe8eb8031020d90bc5097e6f21c0c282a929534578ae20029",
  "source": "pragma solidity ^0.4.24;\n\nimport \"openzeppelin-solidity/contracts/ownership/Ownable.sol\";\n\nimport \"../dth/IDetherToken.sol\";\nimport \"../core/IUsers.sol\";\nimport \"../core/IControl.sol\";\nimport \"./IGeoRegistry.sol\";\n\n// will be deployed by this factory so we need the entire contract\nimport \"./Zone.sol\";\n\ncontract ZoneFactory is Ownable {\n\n  // ------------------------------------------------\n  //\n  // Variables Public\n  //\n  // ------------------------------------------------\n\n  //      geohash   zoneContractAddress or 0x0 if it doesnt exist\n  // TODO: now we can use computeCSC() to get CSC, do we need it? not really\n  mapping(bytes7 => address) public geohashToZone;\n  mapping(address => bytes7) public zoneToGeohash;\n\n  IDetherToken public dth;\n  IGeoRegistry public geo;\n  IUsers public users;\n  IControl public control;\n\n  // ------------------------------------------------\n  //\n  // Events\n  //\n  // ------------------------------------------------\n\n  event ZoneFactoryCreatedZone(address indexed zoneAddress, bytes7 indexed zoneGeohash, address indexed zoneOwner, uint dthStake);\n\n  // ------------------------------------------------\n  //\n  // Constructor\n  //\n  // ------------------------------------------------\n\n  constructor(address _dth, address _geo, address _users, address _control)\n    public\n  {\n    require(_dth != address(0), \"dth address cannot be 0x0\");\n    require(_geo != address(0), \"geo address cannot be 0x0\");\n    require(_users != address(0), \"users address cannot be 0x0\");\n    require(_control != address(0), \"control address cannot be 0x0\");\n\n    dth = IDetherToken(_dth);\n    geo = IGeoRegistry(_geo);\n    users = IUsers(_users);\n    control = IControl(_control);\n  }\n\n  // ------------------------------------------------\n  //\n  // Functions Private Getters\n  //\n  // ------------------------------------------------\n\n  function toBytes1(bytes _bytes, uint _start)\n    private\n    pure\n    returns (bytes1)\n  {\n    require(_bytes.length >= (_start + 1), \" not long enough\");\n    bytes1 tempBytes1;\n\n    assembly {\n        tempBytes1 := mload(add(add(_bytes, 0x20), _start))\n    }\n\n    return tempBytes1;\n  }\n\n  function toBytes2(bytes _bytes, uint _start)\n    private\n    pure\n    returns (bytes2)\n  {\n    require(_bytes.length >= (_start + 2), \" not long enough\");\n    bytes2 tempBytes2;\n\n    assembly {\n        tempBytes2 := mload(add(add(_bytes, 0x20), _start))\n    }\n\n    return tempBytes2;\n  }\n\n  function toBytes7(bytes _bytes, uint _start)\n    private\n    pure\n    returns (bytes7)\n  {\n    require(_bytes.length >= (_start + 7), \" not long enough\");\n    bytes7 tempBytes7;\n\n    assembly {\n        tempBytes7 := mload(add(add(_bytes, 0x20), _start))\n    }\n\n    return tempBytes7;\n  }\n\n  function slice(bytes _bytes, uint _start, uint _length)\n    private\n    pure\n    returns (bytes)\n  {\n    require(_bytes.length >= (_start + _length));\n    bytes memory tempBytes;\n    assembly {\n        switch iszero(_length)\n        case 0 {\n            tempBytes := mload(0x40)\n            let lengthmod := and(_length, 31)\n            let mc := add(add(tempBytes, lengthmod), mul(0x20, iszero(lengthmod)))\n            let end := add(mc, _length)\n            for {\n                let cc := add(add(add(_bytes, lengthmod), mul(0x20, iszero(lengthmod))), _start)\n            } lt(mc, end) {\n                mc := add(mc, 0x20)\n                cc := add(cc, 0x20)\n            } {\n                mstore(mc, mload(cc))\n            }\n            mstore(tempBytes, _length)\n            mstore(0x40, and(add(mc, 31), not(31)))\n        }\n        default {\n            tempBytes := mload(0x40)\n            mstore(0x40, add(tempBytes, 0x20))\n        }\n    }\n    return tempBytes;\n  }\n\n  // ------------------------------------------------\n  //\n  // Functions Public Getters\n  //\n  // ------------------------------------------------\n\n\n  function zoneExists(bytes7 _geohash)\n    external\n    view\n    returns (bool)\n  {\n    return geohashToZone[_geohash] != address(0);\n  }\n\n  // ------------------------------------------------\n  //\n  // Functions Setters Public\n  //\n  // ------------------------------------------------\n\n  function updateUserDailySold(bytes2 _countryCode, address _from, address _to, uint _amount)\n    external\n  {\n    require(zoneToGeohash[msg.sender] != bytes7(0), \"can only be called by a registered zone\");\n\n    users.updateDailySold(_countryCode, _from, _to, _amount);\n  }\n\n  // ERC223 magic\n  function tokenFallback(address _from, uint _value, bytes _data) // GAS COST +/- 3.763.729\n    public\n  {\n    require(msg.sender == address(dth), \"can only be called by dth contract\");\n\n    require(control.paused() == false, \"contract is paused\");\n    require(_data.length == 10, \"createAndClaim expects 10 bytes as data\");\n\n    // we only expect 1 function to be called, createAndClaim, encoded as bytes1(0x40)\n    require(toBytes1(_data, 0) == bytes1(0x40), \"incorrect first byte in data, expected 0x40\");\n\n    address sender = _from;\n    uint dthAmount = _value;\n\n    bytes2 country = toBytes2(_data, 1);\n    bytes7 geohash = toBytes7(_data, 3);\n\n    require(geo.countryIsEnabled(country), \"country is disabled\");\n    require(geo.zoneInsideCountry(country, bytes4(geohash)), \"zone is not inside country\");\n    require(geohashToZone[geohash] == address(0), \"zone already exists\");\n    \n    // create/deploy the new zone\n    geohashToZone[geohash] = new Zone(\n      country, geohash, sender, dthAmount,\n      address(dth), address(geo), address(users), address(control), address(this)\n    );\n\n    zoneToGeohash[geohashToZone[geohash]] = geohash;\n\n    // send all dth through to the new Zone contract\n    dth.transfer(geohashToZone[geohash], dthAmount, hex\"40\");\n\n    emit ZoneFactoryCreatedZone(geohashToZone[geohash], geohash, sender, dthAmount);\n  }\n}\n",
  "sourcePath": "/Users/trip/Projects/detherContracts/contracts/map/ZoneFactory.sol",
  "compiler": {
    "name": "solc",
    "version": "0.4.24+commit.e67f0147.Emscripten.clang"
  },
  "schemaVersion": "2.0.1",
  "updatedAt": "2019-01-10T09:36:39.997Z"
}