{
  "contractName": "Zone",
  "abi": [
    {
      "constant": true,
      "inputs": [],
      "name": "dth",
      "outputs": [
        {
          "name": "",
          "type": "address"
        }
      ],
      "payable": false,
      "stateMutability": "view",
      "type": "function"
    },
    {
      "constant": true,
      "inputs": [],
      "name": "geohash",
      "outputs": [
        {
          "name": "",
          "type": "bytes7"
        }
      ],
      "payable": false,
      "stateMutability": "view",
      "type": "function"
    },
    {
      "constant": true,
      "inputs": [],
      "name": "currentAuctionId",
      "outputs": [
        {
          "name": "",
          "type": "uint256"
        }
      ],
      "payable": false,
      "stateMutability": "view",
      "type": "function"
    },
    {
      "constant": true,
      "inputs": [
        {
          "name": "",
          "type": "uint256"
        },
        {
          "name": "",
          "type": "address"
        }
      ],
      "name": "auctionBids",
      "outputs": [
        {
          "name": "",
          "type": "uint256"
        }
      ],
      "payable": false,
      "stateMutability": "view",
      "type": "function"
    },
    {
      "constant": true,
      "inputs": [
        {
          "name": "",
          "type": "address"
        }
      ],
      "name": "withdrawableDth",
      "outputs": [
        {
          "name": "",
          "type": "uint256"
        }
      ],
      "payable": false,
      "stateMutability": "view",
      "type": "function"
    },
    {
      "constant": true,
      "inputs": [
        {
          "name": "",
          "type": "address"
        },
        {
          "name": "",
          "type": "uint256"
        }
      ],
      "name": "commentsFree",
      "outputs": [
        {
          "name": "",
          "type": "bytes32"
        }
      ],
      "payable": false,
      "stateMutability": "view",
      "type": "function"
    },
    {
      "constant": true,
      "inputs": [
        {
          "name": "",
          "type": "address"
        },
        {
          "name": "",
          "type": "uint256"
        }
      ],
      "name": "commentsCertified",
      "outputs": [
        {
          "name": "",
          "type": "bytes32"
        }
      ],
      "payable": false,
      "stateMutability": "view",
      "type": "function"
    },
    {
      "constant": true,
      "inputs": [],
      "name": "zoneFactory",
      "outputs": [
        {
          "name": "",
          "type": "address"
        }
      ],
      "payable": false,
      "stateMutability": "view",
      "type": "function"
    },
    {
      "constant": true,
      "inputs": [],
      "name": "country",
      "outputs": [
        {
          "name": "",
          "type": "bytes2"
        }
      ],
      "payable": false,
      "stateMutability": "view",
      "type": "function"
    },
    {
      "constant": true,
      "inputs": [],
      "name": "control",
      "outputs": [
        {
          "name": "",
          "type": "address"
        }
      ],
      "payable": false,
      "stateMutability": "view",
      "type": "function"
    },
    {
      "constant": true,
      "inputs": [],
      "name": "geo",
      "outputs": [
        {
          "name": "",
          "type": "address"
        }
      ],
      "payable": false,
      "stateMutability": "view",
      "type": "function"
    },
    {
      "constant": true,
      "inputs": [
        {
          "name": "",
          "type": "address"
        }
      ],
      "name": "withdrawableEth",
      "outputs": [
        {
          "name": "",
          "type": "uint256"
        }
      ],
      "payable": false,
      "stateMutability": "view",
      "type": "function"
    },
    {
      "constant": true,
      "inputs": [
        {
          "name": "",
          "type": "address"
        }
      ],
      "name": "funds",
      "outputs": [
        {
          "name": "",
          "type": "uint256"
        }
      ],
      "payable": false,
      "stateMutability": "view",
      "type": "function"
    },
    {
      "constant": true,
      "inputs": [
        {
          "name": "",
          "type": "address"
        },
        {
          "name": "",
          "type": "address"
        }
      ],
      "name": "canPlaceCertifiedComment",
      "outputs": [
        {
          "name": "",
          "type": "uint256"
        }
      ],
      "payable": false,
      "stateMutability": "view",
      "type": "function"
    },
    {
      "constant": true,
      "inputs": [],
      "name": "users",
      "outputs": [
        {
          "name": "",
          "type": "address"
        }
      ],
      "payable": false,
      "stateMutability": "view",
      "type": "function"
    },
    {
      "inputs": [
        {
          "name": "_countryCode",
          "type": "bytes2"
        },
        {
          "name": "_geohash",
          "type": "bytes7"
        },
        {
          "name": "_zoneOwner",
          "type": "address"
        },
        {
          "name": "_dthAmount",
          "type": "uint256"
        },
        {
          "name": "_dth",
          "type": "address"
        },
        {
          "name": "_geo",
          "type": "address"
        },
        {
          "name": "_users",
          "type": "address"
        },
        {
          "name": "_control",
          "type": "address"
        },
        {
          "name": "_zoneFactory",
          "type": "address"
        }
      ],
      "payable": false,
      "stateMutability": "nonpayable",
      "type": "constructor"
    },
    {
      "anonymous": false,
      "inputs": [
        {
          "indexed": true,
          "name": "zoneAddress",
          "type": "address"
        },
        {
          "indexed": true,
          "name": "countryCode",
          "type": "bytes2"
        },
        {
          "indexed": true,
          "name": "geohash",
          "type": "bytes7"
        },
        {
          "indexed": false,
          "name": "dthAmount",
          "type": "uint256"
        }
      ],
      "name": "ZoneCreated",
      "type": "event"
    },
    {
      "anonymous": false,
      "inputs": [
        {
          "indexed": true,
          "name": "zoneAddress",
          "type": "address"
        },
        {
          "indexed": true,
          "name": "oldOwner",
          "type": "address"
        },
        {
          "indexed": true,
          "name": "newOwner",
          "type": "address"
        }
      ],
      "name": "ZoneOwnerUpdated",
      "type": "event"
    },
    {
      "anonymous": false,
      "inputs": [
        {
          "indexed": true,
          "name": "owner",
          "type": "address"
        },
        {
          "indexed": false,
          "name": "lifeStart",
          "type": "uint256"
        },
        {
          "indexed": false,
          "name": "lifeEnd",
          "type": "uint256"
        },
        {
          "indexed": false,
          "name": "taxPaidTotal",
          "type": "uint256"
        },
        {
          "indexed": false,
          "name": "taxDebtOutstanding",
          "type": "uint256"
        }
      ],
      "name": "ZoneOwnerForeClosed",
      "type": "event"
    },
    {
      "anonymous": false,
      "inputs": [
        {
          "indexed": true,
          "name": "owner",
          "type": "address"
        },
        {
          "indexed": false,
          "name": "taxStart",
          "type": "uint256"
        },
        {
          "indexed": false,
          "name": "taxEnd",
          "type": "uint256"
        },
        {
          "indexed": false,
          "name": "taxAmount",
          "type": "uint256"
        }
      ],
      "name": "ZoneOwnerTaxesPaid",
      "type": "event"
    },
    {
      "anonymous": false,
      "inputs": [
        {
          "indexed": true,
          "name": "owner",
          "type": "address"
        },
        {
          "indexed": false,
          "name": "oldBalance",
          "type": "uint256"
        },
        {
          "indexed": false,
          "name": "newBalance",
          "type": "uint256"
        }
      ],
      "name": "ZoneOwnerTopUp",
      "type": "event"
    },
    {
      "anonymous": false,
      "inputs": [
        {
          "indexed": true,
          "name": "auctionId",
          "type": "address"
        },
        {
          "indexed": false,
          "name": "lifeStart",
          "type": "uint256"
        }
      ],
      "name": "ZoneAuctionStarted",
      "type": "event"
    },
    {
      "anonymous": false,
      "inputs": [
        {
          "indexed": true,
          "name": "auctionId",
          "type": "address"
        },
        {
          "indexed": false,
          "name": "lifeEnd",
          "type": "uint256"
        },
        {
          "indexed": true,
          "name": "newOwner",
          "type": "address"
        }
      ],
      "name": "ZoneAuctionEnded",
      "type": "event"
    },
    {
      "anonymous": false,
      "inputs": [
        {
          "indexed": true,
          "name": "auctionId",
          "type": "address"
        },
        {
          "indexed": true,
          "name": "bidder",
          "type": "address"
        },
        {
          "indexed": false,
          "name": "bidAmount",
          "type": "uint256"
        }
      ],
      "name": "ZoneAuctionBid",
      "type": "event"
    },
    {
      "anonymous": false,
      "inputs": [
        {
          "indexed": true,
          "name": "owner",
          "type": "address"
        }
      ],
      "name": "ZoneUpdatedTeller",
      "type": "event"
    },
    {
      "constant": true,
      "inputs": [
        {
          "name": "_geohash",
          "type": "bytes7"
        },
        {
          "name": "_addr",
          "type": "address"
        }
      ],
      "name": "computeCSC",
      "outputs": [
        {
          "name": "",
          "type": "bytes12"
        }
      ],
      "payable": false,
      "stateMutability": "pure",
      "type": "function"
    },
    {
      "constant": true,
      "inputs": [
        {
          "name": "_startTime",
          "type": "uint256"
        },
        {
          "name": "_endTime",
          "type": "uint256"
        },
        {
          "name": "_dthAmount",
          "type": "uint256"
        }
      ],
      "name": "calcHarbergerTax",
      "outputs": [
        {
          "name": "taxAmount",
          "type": "uint256"
        },
        {
          "name": "keepAmount",
          "type": "uint256"
        }
      ],
      "payable": false,
      "stateMutability": "view",
      "type": "function"
    },
    {
      "constant": true,
      "inputs": [
        {
          "name": "_value",
          "type": "uint256"
        }
      ],
      "name": "calcEntryFee",
      "outputs": [
        {
          "name": "burnAmount",
          "type": "uint256"
        },
        {
          "name": "bidAmount",
          "type": "uint256"
        }
      ],
      "payable": false,
      "stateMutability": "view",
      "type": "function"
    },
    {
      "constant": true,
      "inputs": [
        {
          "name": "_value",
          "type": "uint256"
        }
      ],
      "name": "calcReferrerFee",
      "outputs": [
        {
          "name": "referrerAmount",
          "type": "uint256"
        }
      ],
      "payable": false,
      "stateMutability": "view",
      "type": "function"
    },
    {
      "constant": true,
      "inputs": [
        {
          "name": "_auctionId",
          "type": "uint256"
        }
      ],
      "name": "auctionExists",
      "outputs": [
        {
          "name": "",
          "type": "bool"
        }
      ],
      "payable": false,
      "stateMutability": "view",
      "type": "function"
    },
    {
      "constant": true,
      "inputs": [],
      "name": "getZoneOwner",
      "outputs": [
        {
          "name": "",
          "type": "address"
        },
        {
          "name": "",
          "type": "uint256"
        },
        {
          "name": "",
          "type": "uint256"
        },
        {
          "name": "",
          "type": "uint256"
        },
        {
          "name": "",
          "type": "uint256"
        },
        {
          "name": "",
          "type": "uint256"
        }
      ],
      "payable": false,
      "stateMutability": "view",
      "type": "function"
    },
    {
      "constant": true,
      "inputs": [
        {
          "name": "_auctionId",
          "type": "uint256"
        }
      ],
      "name": "getAuction",
      "outputs": [
        {
          "name": "",
          "type": "uint256"
        },
        {
          "name": "",
          "type": "uint256"
        },
        {
          "name": "",
          "type": "uint256"
        },
        {
          "name": "",
          "type": "uint256"
        },
        {
          "name": "",
          "type": "address"
        },
        {
          "name": "",
          "type": "uint256"
        }
      ],
      "payable": false,
      "stateMutability": "view",
      "type": "function"
    },
    {
      "constant": true,
      "inputs": [],
      "name": "getLastAuction",
      "outputs": [
        {
          "name": "",
          "type": "uint256"
        },
        {
          "name": "",
          "type": "uint256"
        },
        {
          "name": "",
          "type": "uint256"
        },
        {
          "name": "",
          "type": "uint256"
        },
        {
          "name": "",
          "type": "address"
        },
        {
          "name": "",
          "type": "uint256"
        }
      ],
      "payable": false,
      "stateMutability": "view",
      "type": "function"
    },
    {
      "constant": true,
      "inputs": [],
      "name": "getTeller",
      "outputs": [
        {
          "name": "",
          "type": "uint8"
        },
        {
          "name": "",
          "type": "bytes16"
        },
        {
          "name": "",
          "type": "bytes12"
        },
        {
          "name": "",
          "type": "bytes1"
        },
        {
          "name": "",
          "type": "int16"
        },
        {
          "name": "",
          "type": "int16"
        },
        {
          "name": "",
          "type": "uint256"
        },
        {
          "name": "",
          "type": "address"
        }
      ],
      "payable": false,
      "stateMutability": "view",
      "type": "function"
    },
    {
      "constant": true,
      "inputs": [],
      "name": "getCertifiedComments",
      "outputs": [
        {
          "name": "",
          "type": "bytes32[]"
        }
      ],
      "payable": false,
      "stateMutability": "view",
      "type": "function"
    },
    {
      "constant": true,
      "inputs": [],
      "name": "getComments",
      "outputs": [
        {
          "name": "",
          "type": "bytes32[]"
        }
      ],
      "payable": false,
      "stateMutability": "view",
      "type": "function"
    },
    {
      "constant": false,
      "inputs": [
        {
          "name": "_from",
          "type": "address"
        },
        {
          "name": "_value",
          "type": "uint256"
        },
        {
          "name": "_data",
          "type": "bytes"
        }
      ],
      "name": "tokenFallback",
      "outputs": [],
      "payable": false,
      "stateMutability": "nonpayable",
      "type": "function"
    },
    {
      "constant": false,
      "inputs": [],
      "name": "release",
      "outputs": [],
      "payable": false,
      "stateMutability": "nonpayable",
      "type": "function"
    },
    {
      "constant": false,
      "inputs": [
        {
          "name": "_auctionId",
          "type": "uint256"
        }
      ],
      "name": "withdrawFromAuction",
      "outputs": [],
      "payable": false,
      "stateMutability": "nonpayable",
      "type": "function"
    },
    {
      "constant": false,
      "inputs": [
        {
          "name": "_auctionIds",
          "type": "uint256[]"
        }
      ],
      "name": "withdrawFromAuctions",
      "outputs": [],
      "payable": false,
      "stateMutability": "nonpayable",
      "type": "function"
    },
    {
      "constant": false,
      "inputs": [],
      "name": "withdrawDth",
      "outputs": [],
      "payable": false,
      "stateMutability": "nonpayable",
      "type": "function"
    },
    {
      "constant": false,
      "inputs": [],
      "name": "withdrawEth",
      "outputs": [],
      "payable": false,
      "stateMutability": "nonpayable",
      "type": "function"
    },
    {
      "constant": false,
      "inputs": [
        {
          "name": "_position",
          "type": "bytes"
        },
        {
          "name": "_currencyId",
          "type": "uint8"
        },
        {
          "name": "_messenger",
          "type": "bytes16"
        },
        {
          "name": "_sellRate",
          "type": "int16"
        },
        {
          "name": "_buyRate",
          "type": "int16"
        },
        {
          "name": "_settings",
          "type": "bytes1"
        },
        {
          "name": "_referrer",
          "type": "address"
        }
      ],
      "name": "addTeller",
      "outputs": [],
      "payable": false,
      "stateMutability": "nonpayable",
      "type": "function"
    },
    {
      "constant": false,
      "inputs": [],
      "name": "removeTeller",
      "outputs": [],
      "payable": false,
      "stateMutability": "nonpayable",
      "type": "function"
    },
    {
      "constant": false,
      "inputs": [],
      "name": "addFunds",
      "outputs": [],
      "payable": true,
      "stateMutability": "payable",
      "type": "function"
    },
    {
      "constant": false,
      "inputs": [
        {
          "name": "_to",
          "type": "address"
        },
        {
          "name": "_amount",
          "type": "uint256"
        }
      ],
      "name": "sellEth",
      "outputs": [],
      "payable": false,
      "stateMutability": "nonpayable",
      "type": "function"
    },
    {
      "constant": false,
      "inputs": [
        {
          "name": "_commentHash",
          "type": "bytes32"
        }
      ],
      "name": "addCertifiedComment",
      "outputs": [],
      "payable": false,
      "stateMutability": "nonpayable",
      "type": "function"
    },
    {
      "constant": false,
      "inputs": [
        {
          "name": "_commentHash",
          "type": "bytes32"
        }
      ],
      "name": "addComment",
      "outputs": [],
      "payable": false,
      "stateMutability": "nonpayable",
      "type": "function"
    }
  ],
  "bytecode": "0x608060405234801561001057600080fd5b50604051610120806200514583398101604090815281516020830151918301516060840151608085015160a086015160c087015160e08801516101009098015195979495939492939192909168056bc75e2d631000008610156100fa57604080517f08c379a000000000000000000000000000000000000000000000000000000000815260206004820152603360248201527f7a6f6e6520647468207374616b652073686f756c6c64206265206174206c656160448201527f7374206d696e696d756d20283130304454482900000000000000000000000000606482015290519081900360840190fd5b88600d60146101000a81548161ffff02191690837e010000000000000000000000000000000000000000000000000000000000009004021790555087600d60166101000a81548166ffffffffffffff02191690837901000000000000000000000000000000000000000000000000009004021790555084600960006101000a815481600160a060020a030219169083600160a060020a0316021790555083600a60006101000a815481600160a060020a030219169083600160a060020a0316021790555082600b60006101000a815481600160a060020a030219169083600160a060020a0316021790555081600c60006101000a815481600160a060020a030219169083600160a060020a0316021790555080600d60006101000a815481600160a060020a030219169083600160a060020a03160217905550866000800160006101000a815481600160a060020a030219169083600160a060020a03160217905550426000600101819055508560006002018190555085600060030181905550426000600401819055506000806005018190555087600160c860020a03191689600160f060020a03191630600160a060020a03167f7aff75f95b7d4af318f0d9d8bd9e9e4d8874626e860baa8cd01b3ab7190753d7896040518082815260200191505060405180910390a4604051600160a060020a0388169060009030907f1d12264c14fc566e86950ff90e2b320c449b6b0a4f1afa0f1b0cd202e054bf13908390a4505050505050505050614e0f80620003366000396000f3006080604052600436106101be5763ffffffff60e060020a60003504166301e57a3781146101c357806308e44f88146101f457806309948da5146102385780630c0b86ca1461029d5780630d624914146102c45780631504ceed146103155780631ecb0f67146103395780632c2f3d131461037057806335ecec8f146103915780633c0868f0146103b5578063400f7684146103e1578063422927ad146104055780636496a4411461041f5780636cea244b1461043f57806378bd7935146104575780637b9a73011461046f57806386d1a69f146104845780638b9c09a51461049957806391f3410c146104b15780639787d107146104c657806399640c8114610555578063a0ef91df146105a7578063a26759cb146105bc578063a74255b0146105c4578063ab5b8f1b146105dc578063aeaffbc514610639578063c0ee0b8a1461069e578063c732ff3e14610707578063d8b0b4991461071c578063d8de65871461074e578063d944e6a314610763578063dd955c4414610778578063e0df216c1461079c578063e2ae93fb146107bd578063e3653b49146107de578063efcb5ba614610805578063f20202751461081a578063fb01bb511461082f575b600080fd5b3480156101cf57600080fd5b506101d8610847565b60408051600160a060020a039092168252519081900360200190f35b34801561020057600080fd5b50610209610856565b6040805178ffffffffffffffffffffffffffffffffffffffffffffffffff199092168252519081900360200190f35b34801561024457600080fd5b5061024d610892565b60408051602080825283518183015283519192839290830191858101910280838360005b83811015610289578181015183820152602001610271565b505050509050019250505060405180910390f35b3480156102a957600080fd5b506102b26108fe565b60408051918252519081900360200190f35b3480156102d057600080fd5b506102d9610904565b604080519687526020870195909552858501939093526060850191909152600160a060020a0316608084015260a0830152519081900360c00190f35b34801561032157600080fd5b506102b2600435600160a060020a036024351661092b565b34801561034557600080fd5b50610357600435602435604435610948565b6040805192835260208301919091528051918290030190f35b34801561037c57600080fd5b506102b2600160a060020a03600435166109ae565b34801561039d57600080fd5b506102b2600160a060020a03600435166024356109c0565b3480156103c157600080fd5b506103cd6004356109f0565b604080519115158252519081900360200190f35b3480156103ed57600080fd5b506102b2600160a060020a0360043516602435610a03565b34801561041157600080fd5b5061041d600435610a1e565b005b34801561042b57600080fd5b5061041d6004803560248101910135610d75565b34801561044b57600080fd5b506102b2600435611244565b34801561046357600080fd5b506102d9600435611263565b34801561047b57600080fd5b506101d861135c565b34801561049057600080fd5b5061041d61136b565b3480156104a557600080fd5b5061041d6004356115e9565b3480156104bd57600080fd5b5061024d611a81565b3480156104d257600080fd5b506104db611aea565b6040805160ff90991689526fffffffffffffffffffffffffffffffff199097166020890152600160a060020a031990951687870152600160f860020a03199093166060870152600191820b820b6080870152810b900b60a085015260c0840152600160a060020a031660e083015251908190036101000190f35b34801561056157600080fd5b5061056a611b90565b60408051600160a060020a0390971687526020870195909552858501939093526060850191909152608084015260a0830152519081900360c00190f35b3480156105b357600080fd5b5061041d611bb6565b61041d611c54565b3480156105d057600080fd5b5061041d600435611f3f565b3480156105e857600080fd5b5061061c78ffffffffffffffffffffffffffffffffffffffffffffffffff1960043516600160a060020a0360243516612317565b60408051600160a060020a03199092168252519081900360200190f35b34801561064557600080fd5b5061041d602460048035828101929101359060ff9035166fffffffffffffffffffffffffffffffff1960443516606435600190810b90608435900b600160f860020a031960a43516600160a060020a0360c435166123d4565b3480156106aa57600080fd5b50604080516020600460443581810135601f810184900484028501840190955284845261041d948235600160a060020a0316946024803595369594606494920191908190840183828082843750949750612d2c9650505050505050565b34801561071357600080fd5b5061041d613176565b34801561072857600080fd5b5061073161323c565b60408051600160f060020a03199092168252519081900360200190f35b34801561075a57600080fd5b506101d861324f565b34801561076f57600080fd5b506101d861325e565b34801561078457600080fd5b5061041d600160a060020a036004351660243561326d565b3480156107a857600080fd5b506102b2600160a060020a0360043516613867565b3480156107c957600080fd5b506102b2600160a060020a0360043516613879565b3480156107ea57600080fd5b506102b2600160a060020a036004358116906024351661388b565b34801561081157600080fd5b5061041d6138a8565b34801561082657600080fd5b506101d8613a04565b34801561083b57600080fd5b50610357600435613a13565b600954600160a060020a031681565b600d5476010000000000000000000000000000000000000000000090047901000000000000000000000000000000000000000000000000000281565b60008054600160a060020a03168152601560209081526040918290208054835181840281018401909452808452606093928301828280156108f357602002820191906000526020600020905b815481526001909101906020018083116108de575b505050505090505b90565b60105481565b600080600080600080610918601054611263565b949b939a50919850965094509092509050565b601160209081526000928352604080842090915290825290205481565b60008061099262015180610986606481600161097a61096d8b8d63ffffffff613a4516565b8a9063ffffffff613a6316565b9063ffffffff613a6316565b9063ffffffff613a9816565b91506109a4838363ffffffff613a4516565b9050935093915050565b600e6020526000908152604090205481565b6014602052816000526040600020818154811015156109db57fe5b90600052602060002001600091509150505481565b6000908152600660205260408120541190565b6015602052816000526040600020818154811015156109db57fe5b600c54604080517f5c975abb0000000000000000000000000000000000000000000000000000000081529051600092600160a060020a031691635c975abb91600480830192602092919082900301818787803b158015610a7d57600080fd5b505af1158015610a91573d6000803e3d6000fd5b505050506040513d6020811015610aa757600080fd5b505115610aec576040805160e560020a62461bcd0281526020600482015260126024820152600080516020614d84833981519152604482015290519081900360640190fd5b600082118015610afe57506010548211155b1515610b54576040805160e560020a62461bcd02815260206004820152601860248201527f61756374696f6e496420646f6573206e6f742065786973740000000000000000604482015290519081900360640190fd5b610b5c613abb565b600160008381526006602052604090206002015460ff166001811115610b7e57fe5b14610bf9576040805160e560020a62461bcd02815260206004820152602760248201527f63616e6e6f74207769746864726177207768696c652061756374696f6e20697360448201527f2061637469766500000000000000000000000000000000000000000000000000606482015290519081900360840190fd5b6000828152600660205260409020600201546101009004600160a060020a0316331415610c70576040805160e560020a62461bcd02815260206004820152601f60248201527f61756374696f6e2077696e6e65722063616e206e6f7420776974686472617700604482015290519081900360640190fd5b600082815260116020908152604080832033845290915281205411610ccd576040805160e560020a62461bcd0281526020600482015260136024820152600080516020614dc4833981519152604482015290519081900360640190fd5b50600081815260116020908152604080832033808552908352818420805490859055600954835160e060020a63a9059cbb02815260048101939093526024830182905292519094600160a060020a039093169363a9059cbb936044808501949293928390030190829087803b158015610d4557600080fd5b505af1158015610d59573d6000803e3d6000fd5b505050506040513d6020811015610d6f57600080fd5b50505050565b600080600080600c60009054906101000a9004600160a060020a0316600160a060020a0316635c975abb6040518163ffffffff1660e060020a028152600401602060405180830381600087803b158015610dce57600080fd5b505af1158015610de2573d6000803e3d6000fd5b505050506040513d6020811015610df857600080fd5b505115610e3d576040805160e560020a62461bcd0281526020600482015260126024820152600080516020614d84833981519152604482015290519081900360640190fd5b601054600010610e97576040805160e560020a62461bcd02815260206004820152601560248201527f746865726520617265206e6f2061756374696f6e730000000000000000000000604482015290519081900360640190fd5b610e9f613abb565b60008511610ef7576040805160e560020a62461bcd02815260206004820152601860248201527f61756374696f6e496473206c69737420697320656d7074790000000000000000604482015290519081900360640190fd5b601054851115610f77576040805160e560020a62461bcd02815260206004820152602660248201527f61756374696f6e496473206c697374206973206c6f6e676572207468616e206160448201527f6c6c6f7765640000000000000000000000000000000000000000000000000000606482015290519081900360840190fd5b60009350600092505b8483101561117357858584818110610f9457fe5b905060200201359150600082118015610faf57506010548211155b1515611005576040805160e560020a62461bcd02815260206004820152601860248201527f61756374696f6e496420646f6573206e6f742065786973740000000000000000604482015290519081900360640190fd5b600160008381526006602052604090206002015460ff16600181111561102757fe5b146110a1576040805160e560020a62461bcd028152602060048201526024808201527f63616e6e6f742077697468647261772066726f6d2072756e6e696e672061756360448201527f74696f6e00000000000000000000000000000000000000000000000000000000606482015290519081900360840190fd5b6000828152600660205260409020600201546101009004600160a060020a0316331415611118576040805160e560020a62461bcd02815260206004820152601f60248201527f61756374696f6e2077696e6e65722063616e206e6f7420776974686472617700604482015290519081900360640190fd5b50600081815260116020908152604080832033845290915281205490811115611168576000828152601160209081526040808320338452909152812055611165848263ffffffff613b9c16565b93505b600190920191610f80565b600084116111b9576040805160e560020a62461bcd0281526020600482015260136024820152600080516020614dc4833981519152604482015290519081900360640190fd5b6009546040805160e060020a63a9059cbb028152336004820152602481018790529051600160a060020a039092169163a9059cbb916044808201926020929091908290030181600087803b15801561121057600080fd5b505af1158015611224573d6000803e3d6000fd5b505050506040513d602081101561123a57600080fd5b5050505050505050565b600061125d600161097a846103e863ffffffff613a9816565b92915050565b600080600080600080611274614d24565b60008881526006602090815260408083208151608081018352815481526001808301549482019490945260028201549093919284019160ff909116908111156112b957fe5b60018111156112c457fe5b815260029190910154600160a060020a03610100909104811660209283015260008c81526011835260408082206060860180518516845294528120549054925193955093509182169116141561132b5760025461132890829063ffffffff613b9c16565b90505b888260400151600181111561133c57fe5b83516020850151606090950151929c919b50995092975095509350915050565b600d54600160a060020a031681565b600c54604080517f5c975abb0000000000000000000000000000000000000000000000000000000081529051600092600160a060020a031691635c975abb91600480830192602092919082900301818787803b1580156113ca57600080fd5b505af11580156113de573d6000803e3d6000fd5b505050506040513d60208110156113f457600080fd5b505115611439576040805160e560020a62461bcd0281526020600482015260126024820152600080516020614d84833981519152604482015290519081900360640190fd5b611441613abb565b600054600160a060020a031633146114a3576040805160e560020a62461bcd02815260206004820152601860248201527f63616c6c6572206973206e6f74207a6f6e65206f776e65720000000000000000604482015290519081900360640190fd5b60105415806114d45750600160105460009081526006602052604090206002015460ff1660018111156114d257fe5b145b151561154f576040805160e560020a62461bcd028152602060048201526024808201527f63616e6e6f742072656c65617365207768696c652061756374696f6e2072756e60448201527f6e696e6700000000000000000000000000000000000000000000000000000000606482015290519081900360840190fd5b5060035461155b613bae565b611563613c19565b6009546040805160e060020a63a9059cbb028152336004820152602481018490529051600160a060020a039092169163a9059cbb916044808201926020929091908290030181600087803b1580156115ba57600080fd5b505af11580156115ce573d6000803e3d6000fd5b505050506040513d60208110156115e457600080fd5b505050565b600c60009054906101000a9004600160a060020a0316600160a060020a0316635c975abb6040518163ffffffff1660e060020a028152600401602060405180830381600087803b15801561163c57600080fd5b505af1158015611650573d6000803e3d6000fd5b505050506040513d602081101561166657600080fd5b5051156116ab576040805160e560020a62461bcd0281526020600482015260126024820152600080516020614d84833981519152604482015290519081900360640190fd5b600a54600d546040805160e160020a6306e1085502815260a060020a90920460f060020a02600160f060020a031916600483015251600160a060020a0390921691630dc210aa916024808201926020929091908290030181600087803b15801561171457600080fd5b505af1158015611728573d6000803e3d6000fd5b505050506040513d602081101561173e57600080fd5b50511515611784576040805160e560020a62461bcd0281526020600482015260136024820152600080516020614da4833981519152604482015290519081900360640190fd5b8015156117db576040805160e560020a62461bcd02815260206004820152601a60248201527f636f6d6d656e7420686173682063616e6e6f7420626520307830000000000000604482015290519081900360640190fd5b6117e3613abb565b600054600160a060020a0316151561186a576040805160e560020a62461bcd028152602060048201526024808201527f63616e6e6f7420636f6d6d656e74206f6e207a6f6e6520776974686f7574206f60448201527f776e657200000000000000000000000000000000000000000000000000000000606482015290519081900360840190fd5b60075471010000000000000000000000000000000000900460a060020a02600160a060020a031916151561190e576040805160e560020a62461bcd02815260206004820152602560248201527f63616e6e6f7420636f6d6d656e74206f6e207a6f6e6520776974686f7574207460448201527f656c6c6572000000000000000000000000000000000000000000000000000000606482015290519081900360840190fd5b600054600160a060020a0316331415611996576040805160e560020a62461bcd028152602060048201526024808201527f7a6f6e65206f776e65722063616e6e6f7420636f6d6d656e74206f6e2068696d60448201527f73656c6600000000000000000000000000000000000000000000000000000000606482015290519081900360840190fd5b60008054600160a060020a0316815260136020908152604080832033845290915281205411611a35576040805160e560020a62461bcd02815260206004820152602d60248201527f75736572206e6f7420616c6c6f77656420746f20706c6163652061206365727460448201527f696669656420636f6d6d656e7400000000000000000000000000000000000000606482015290519081900360840190fd5b60008054600160a060020a039081168252601360209081526040808420338552825280842080546000190190558354909216835260158152908220805460018101825590835291200155565b60008054600160a060020a03168152601460209081526040918290208054835181840281018401909452808452606093928301828280156108f35760200282019190600052602060002090815481526001909101906020018083116108de575050505050905090565b60075460085460008054600160a060020a039081168252601260205260409091205460ff8416946101008504700100000000000000000000000000000000029471010000000000000000000000000000000000810460a060020a02947d010000000000000000000000000000000000000000000000000000000000820460f860020a029460f060020a909204600190810b949082900b9390926201000090920490911690565b600054600154600254600354600454600554600160a060020a0390951694909192939495565b336000908152600f6020526040812054908111611c0b576040805160e560020a62461bcd0281526020600482015260136024820152600080516020614dc4833981519152604482015290519081900360640190fd5b6000811115611c5157336000818152600f60205260408082208290555183156108fc0291849190818181858888f19350505050158015611c4f573d6000803e3d6000fd5b505b50565b600c60009054906101000a9004600160a060020a0316600160a060020a0316635c975abb6040518163ffffffff1660e060020a028152600401602060405180830381600087803b158015611ca757600080fd5b505af1158015611cbb573d6000803e3d6000fd5b505050506040513d6020811015611cd157600080fd5b505115611d16576040805160e560020a62461bcd0281526020600482015260126024820152600080516020614d84833981519152604482015290519081900360640190fd5b600a54600d546040805160e160020a6306e1085502815260a060020a90920460f060020a02600160f060020a031916600483015251600160a060020a0390921691630dc210aa916024808201926020929091908290030181600087803b158015611d7f57600080fd5b505af1158015611d93573d6000803e3d6000fd5b505050506040513d6020811015611da957600080fd5b50511515611def576040805160e560020a62461bcd0281526020600482015260136024820152600080516020614da4833981519152604482015290519081900360640190fd5b60003411611e47576040805160e560020a62461bcd02815260206004820152601560248201527f6e6f206574682073656e6420776974682063616c6c0000000000000000000000604482015290519081900360640190fd5b611e4f613abb565b600054600160a060020a03163314611eb1576040805160e560020a62461bcd02815260206004820152601c60248201527f6f6e6c79207a6f6e654f776e65722063616e206164642066756e647300000000604482015290519081900360640190fd5b60075460ff161515611f0d576040805160e560020a62461bcd02815260206004820152601960248201527f6e6f74207965742061646465642074656c6c657220696e666f00000000000000604482015290519081900360640190fd5b33600090815260126020526040902054611f2d903463ffffffff613b9c16565b33600090815260126020526040902055565b600c60009054906101000a9004600160a060020a0316600160a060020a0316635c975abb6040518163ffffffff1660e060020a028152600401602060405180830381600087803b158015611f9257600080fd5b505af1158015611fa6573d6000803e3d6000fd5b505050506040513d6020811015611fbc57600080fd5b505115612001576040805160e560020a62461bcd0281526020600482015260126024820152600080516020614d84833981519152604482015290519081900360640190fd5b600a54600d546040805160e160020a6306e1085502815260a060020a90920460f060020a02600160f060020a031916600483015251600160a060020a0390921691630dc210aa916024808201926020929091908290030181600087803b15801561206a57600080fd5b505af115801561207e573d6000803e3d6000fd5b505050506040513d602081101561209457600080fd5b505115156120da576040805160e560020a62461bcd0281526020600482015260136024820152600080516020614da4833981519152604482015290519081900360640190fd5b801515612131576040805160e560020a62461bcd02815260206004820152601a60248201527f636f6d6d656e7420686173682063616e6e6f7420626520307830000000000000604482015290519081900360640190fd5b612139613abb565b600054600160a060020a031615156121c0576040805160e560020a62461bcd028152602060048201526024808201527f63616e6e6f7420636f6d6d656e74206f6e207a6f6e6520776974686f7574206f60448201527f776e657200000000000000000000000000000000000000000000000000000000606482015290519081900360840190fd5b60075471010000000000000000000000000000000000900460a060020a02600160a060020a0319161515612264576040805160e560020a62461bcd02815260206004820152602560248201527f63616e6e6f7420636f6d6d656e74206f6e207a6f6e6520776974686f7574207460448201527f656c6c6572000000000000000000000000000000000000000000000000000000606482015290519081900360840190fd5b600054600160a060020a03163314156122ec576040805160e560020a62461bcd028152602060048201526024808201527f7a6f6e65206f776e65722063616e6e6f7420636f6d6d656e74206f6e2068696d60448201527f73656c6600000000000000000000000000000000000000000000000000000000606482015290519081900360840190fd5b60008054600160a060020a031681526014602090815260408220805460018101825590835291200155565b6040805178ffffffffffffffffffffffffffffffffffffffffffffffffff1984166020808301919091526c01000000000000000000000000600160a060020a0385160260278301528251601b818403018152603b909201928390528151600093918291908401908083835b602083106123a15780518252601f199092019160209182019101612382565b5181516020939093036101000a600019018019909116921691909117905260405192018290039091209695505050505050565b600c60009054906101000a9004600160a060020a0316600160a060020a0316635c975abb6040518163ffffffff1660e060020a028152600401602060405180830381600087803b15801561242757600080fd5b505af115801561243b573d6000803e3d6000fd5b505050506040513d602081101561245157600080fd5b505115612496576040805160e560020a62461bcd0281526020600482015260126024820152600080516020614d84833981519152604482015290519081900360640190fd5b600a54600d546040805160e160020a6306e1085502815260a060020a90920460f060020a02600160f060020a031916600483015251600160a060020a0390921691630dc210aa916024808201926020929091908290030181600087803b1580156124ff57600080fd5b505af1158015612513573d6000803e3d6000fd5b505050506040513d602081101561252957600080fd5b5051151561256f576040805160e560020a62461bcd0281526020600482015260136024820152600080516020614da4833981519152604482015290519081900360640190fd5b600c87146125c7576040805160e560020a62461bcd02815260206004820181905260248201527f657870656374656420706f736974696f6e20746f206265203130206279746573604482015290519081900360640190fd5b600d60169054906101000a90047901000000000000000000000000000000000000000000000000000278ffffffffffffffffffffffffffffffffffffffffffffffffff191661264889898080601f0160208091040260200160405190810160405280939291908181526020018383808284375060009450613c3f9350505050565b78ffffffffffffffffffffffffffffffffffffffffffffffffff1916146126b9576040805160e560020a62461bcd02815260206004820181905260248201527f706f736974696f6e206973206e6f7420696e736964652074686973207a6f6e65604482015290519081900360640190fd5b600a546040517f1d0a4831000000000000000000000000000000000000000000000000000000008152602060048201908152602482018a9052600160a060020a0390921691631d0a4831918b918b91819060440184848082843782019150509350505050602060405180830381600087803b15801561273757600080fd5b505af115801561274b573d6000803e3d6000fd5b505050506040513d602081101561276157600080fd5b505115156127df576040805160e560020a62461bcd02815260206004820152602360248201527f696e76616c696420706f736974696f6e2067656f68617368206368617261637460448201527f6572730000000000000000000000000000000000000000000000000000000000606482015290519081900360840190fd5b60018660ff16101580156127f7575060648660ff1611155b1515612873576040805160e560020a62461bcd02815260206004820152602260248201527f63757272656e6379206964206d75737420626520696e2072616e676520312d3160448201527f3030000000000000000000000000000000000000000000000000000000000000606482015290519081900360840190fd5b60f860020a82161561291b5761270e198460010b1215801561289a575061270f8460010b13155b1515612916576040805160e560020a62461bcd02815260206004820152602960248201527f73656c6c526174652073686f756c64206265206265747765656e202d3939393960448201527f20616e6420393939390000000000000000000000000000000000000000000000606482015290519081900360840190fd5b61299b565b600184900b1561299b576040805160e560020a62461bcd02815260206004820152602860248201527f63616e6e6f74207365742073656c6c52617465206966206e6f7420736574206160448201527f732073656c6c6572000000000000000000000000000000000000000000000000606482015290519081900360840190fd5b7f0200000000000000000000000000000000000000000000000000000000000000821615612a5f5761270e198360010b121580156129de575061270f8360010b13155b1515612a5a576040805160e560020a62461bcd02815260206004820152602860248201527f627579526174652073686f756c64206265206265747765656e202d393939392060448201527f616e642039393939000000000000000000000000000000000000000000000000606482015290519081900360840190fd5b612adf565b600183900b15612adf576040805160e560020a62461bcd02815260206004820152602660248201527f63616e6e6f74207365742062757952617465206966206e6f742073657420617360448201527f2062757965720000000000000000000000000000000000000000000000000000606482015290519081900360840190fd5b612ae7613abb565b600054600160a060020a03163314612b6f576040805160e560020a62461bcd02815260206004820152602360248201527f6f6e6c79207a6f6e65206f776e65722063616e206164642074656c6c6572206960448201527f6e666f0000000000000000000000000000000000000000000000000000000000606482015290519081900360840190fd5b6007805460ff191660ff88161770ffffffffffffffffffffffffffffffff001916610100700100000000000000000000000000000000880402177dffffffffffffffffffffffffffffffffffffffffffffffffffffffffffff1660f060020a61ffff600187810b821692909202929092179092556008805461ffff19169287900b909116919091179055604080516020601f8a01819004810282018101909252888152612c33918a908a90819084018382808284375060009450613caa9350505050565b600780547fffffff000000000000000000000000ffffffffffffffffffffffffffffffffff167101000000000000000000000000000000000060a060020a90930492909202919091177fffff00ffffffffffffffffffffffffffffffffffffffffffffffffffffffffff167d01000000000000000000000000000000000000000000000000000000000060f860020a8504021790556008805475ffffffffffffffffffffffffffffffffffffffff0000191662010000600160a060020a0384160217905560405133907fbc905ab91d97b56e60549df29f65a04af2e1cf4b6d65da4af42f8d559ee9d32090600090a25050505050505050565b600954600090600160a060020a03163314612db7576040805160e560020a62461bcd02815260206004820152602260248201527f63616e206f6e6c792062652063616c6c65642062792064746820636f6e74726160448201527f6374000000000000000000000000000000000000000000000000000000000000606482015290519081900360840190fd5b600c60009054906101000a9004600160a060020a0316600160a060020a0316635c975abb6040518163ffffffff1660e060020a028152600401602060405180830381600087803b158015612e0a57600080fd5b505af1158015612e1e573d6000803e3d6000fd5b505050506040513d6020811015612e3457600080fd5b505115612e79576040805160e560020a62461bcd0281526020600482015260126024820152600080516020614d84833981519152604482015290519081900360640190fd5b600a54600d546040805160e160020a6306e1085502815260a060020a90920460f060020a02600160f060020a031916600483015251600160a060020a0390921691630dc210aa916024808201926020929091908290030181600087803b158015612ee257600080fd5b505af1158015612ef6573d6000803e3d6000fd5b505050506040513d6020811015612f0c57600080fd5b50511515612f52576040805160e560020a62461bcd0281526020600482015260136024820152600080516020614da4833981519152604482015290519081900360640190fd5b612f5d826000613d0b565b9050600160f860020a031981167f40000000000000000000000000000000000000000000000000000000000000001480612fc05750600160f860020a031981167f4100000000000000000000000000000000000000000000000000000000000000145b80612ff45750600160f860020a031981167f4200000000000000000000000000000000000000000000000000000000000000145b806130285750600160f860020a031981167f4300000000000000000000000000000000000000000000000000000000000000145b151561307e576040805160e560020a62461bcd02815260206004820152601b60248201527f646964206e6f74206d61746368205a6f6e652066756e6374696f6e0000000000604482015290519081900360640190fd5b600160f860020a031981167f400000000000000000000000000000000000000000000000000000000000000014156130b557610d6f565b6130bd613abb565b600160f860020a031981167f410000000000000000000000000000000000000000000000000000000000000014156130fe576130f98484613d6c565b610d6f565b600160f860020a031981167f4200000000000000000000000000000000000000000000000000000000000000141561313a576130f98484613e8d565b600160f860020a031981167f43000000000000000000000000000000000000000000000000000000000000001415610d6f57610d6f848461405d565b336000908152600e60205260408120549081116131cb576040805160e560020a62461bcd0281526020600482015260136024820152600080516020614dc4833981519152604482015290519081900360640190fd5b6000811115611c5157336000818152600e60209081526040808320839055600954815160e060020a63a9059cbb0281526004810195909552602485018690529051600160a060020a039091169363a9059cbb9360448083019493928390030190829087803b1580156115ba57600080fd5b600d5460a060020a900460f060020a0281565b600c54600160a060020a031681565b600a54600160a060020a031681565b600c54604080517f5c975abb0000000000000000000000000000000000000000000000000000000081529051600092600160a060020a031691635c975abb91600480830192602092919082900301818787803b1580156132cc57600080fd5b505af11580156132e0573d6000803e3d6000fd5b505050506040513d60208110156132f657600080fd5b50511561333b576040805160e560020a62461bcd0281526020600482015260126024820152600080516020614d84833981519152604482015290519081900360640190fd5b600a54600d546040805160e160020a6306e1085502815260a060020a90920460f060020a02600160f060020a031916600483015251600160a060020a0390921691630dc210aa916024808201926020929091908290030181600087803b1580156133a457600080fd5b505af11580156133b8573d6000803e3d6000fd5b505050506040513d60208110156133ce57600080fd5b50511515613414576040805160e560020a62461bcd0281526020600482015260136024820152600080516020614da4833981519152604482015290519081900360640190fd5b33600160a060020a0384161415613475576040805160e560020a62461bcd02815260206004820152601860248201527f73656e6465722063616e6e6f7420616c736f20626520746f0000000000000000604482015290519081900360640190fd5b600082116134cd576040805160e560020a62461bcd02815260206004820152601d60248201527f616d6f756e7420746f2073656c6c2063616e6e6f74206265207a65726f000000604482015290519081900360640190fd5b6134d5613abb565b600054600160a060020a03163314613537576040805160e560020a62461bcd02815260206004820181905260248201527f63616e206f6e6c792062652063616c6c6564206279207a6f6e65206f776e6572604482015290519081900360640190fd5b60075460ff161515613593576040805160e560020a62461bcd02815260206004820152601960248201527f6e6f74207965742061646465642074656c6c657220696e666f00000000000000604482015290519081900360640190fd5b600854620100009004600160a060020a0316156136cd576135b382611244565b336000908152601260205260409020549091508282011115613645576040805160e560020a62461bcd02815260206004820152603960248201527f6e6f7420656e6f7567682066756e647320746f2073656c6c2065746820616d6f60448201527f756e7420706c7573207061792072656665727265722066656500000000000000606482015290519081900360840190fd5b336000908152601260205260409020546136679083830163ffffffff613a4516565b33600090815260126020908152604080832093909355600854620100009004600160a060020a03168252600f905220546136a7908263ffffffff613b9c16565b600854620100009004600160a060020a03166000908152600f6020526040902055613765565b33600090815260126020526040902054821115613734576040805160e560020a62461bcd02815260206004820152601e60248201527f63616e6e6f742073656c6c206d6f7265207468616e20696e2066756e64730000604482015290519081900360640190fd5b33600090815260126020526040902054613754908363ffffffff613a4516565b336000908152601260205260409020555b600d54604080517fcde60333000000000000000000000000000000000000000000000000000000008152600160f060020a031960f060020a60a060020a850402166004820152336024820152600160a060020a038681166044830152606482018690529151919092169163cde6033391608480830192600092919082900301818387803b1580156137f557600080fd5b505af1158015613809573d6000803e3d6000fd5b505060008054600160a060020a03908116825260136020908152604080842092891680855292909152808320805460010190555190935085156108fc0292508591818181858888f19350505050158015610d6f573d6000803e3d6000fd5b600f6020526000908152604090205481565b60126020526000908152604090205481565b601360209081526000928352604080842090915290825290205481565b600c60009054906101000a9004600160a060020a0316600160a060020a0316635c975abb6040518163ffffffff1660e060020a028152600401602060405180830381600087803b1580156138fb57600080fd5b505af115801561390f573d6000803e3d6000fd5b505050506040513d602081101561392557600080fd5b50511561396a576040805160e560020a62461bcd0281526020600482015260126024820152600080516020614d84833981519152604482015290519081900360640190fd5b613972613abb565b600054600160a060020a031633146139fa576040805160e560020a62461bcd02815260206004820152602360248201527f6f6e6c79207a6f6e65206f776e65722063616e206164642074656c6c6572206960448201527f6e666f0000000000000000000000000000000000000000000000000000000000606482015290519081900360840190fd5b613a02613c19565b565b600b54600160a060020a031681565b600080613a2c600161097a85606463ffffffff613a9816565b9150613a3e838363ffffffff613a4516565b9050915091565b60008083831115613a5557600080fd5b5050808203805b5092915050565b600080831515613a765760009150613a5c565b50828202828482811515613a8657fe5b0414613a9157600080fd5b9392505050565b600080808311613aa757600080fd5b8284811515613ab257fe5b04949350505050565b613ac3614d24565b6006600060105481526020019081526020016000206080604051908101604052908160008201548152602001600182015481526020016002820160009054906101000a900460ff166001811115613b1657fe5b6001811115613b2157fe5b8152600291909101546101009004600160a060020a031660209091015260105490915015801590613b615750600081604001516001811115613b5f57fe5b145b8015613b71575080602001514210155b15613b8357613b7e61423d565b611c51565b600054600160a060020a031615611c5157611c51614491565b600082820183811015613a9157600080fd5b60008054600160a060020a03168152601460205260408120613bcf91614d4c565b60008054600160a060020a03168152601560205260408120613bf091614d4c565b60008054600160a060020a03191681556001819055600281905560038190556004819055600555565b60006007556008805475ffffffffffffffffffffffffffffffffffffffffffff19169055565b60008082600701845110151515613ca0576040805160e560020a62461bcd02815260206004820152601060248201527f206e6f74206c6f6e6720656e6f75676800000000000000000000000000000000604482015290519081900360640190fd5b5050016020015190565b60008082600c01845110151515613ca0576040805160e560020a62461bcd02815260206004820152601060248201527f206e6f74206c6f6e6720656e6f75676800000000000000000000000000000000604482015290519081900360640190fd5b60008082600101845110151515613ca0576040805160e560020a62461bcd02815260206004820152601060248201527f206e6f74206c6f6e6720656e6f75676800000000000000000000000000000000604482015290519081900360640190fd5b600054600160a060020a031615613dcd576040805160e560020a62461bcd02815260206004820152601d60248201527f63616e206e6f7420636c61696d207a6f6e652077697468206f776e6572000000604482015290519081900360640190fd5b68056bc75e2d63100000811015613e54576040805160e560020a62461bcd02815260206004820152603160248201527f6e656564206174206c65617374206d696e696d756d207a6f6e65207374616b6560448201527f20616d6f756e7420283130302044544829000000000000000000000000000000606482015290519081900360840190fd5b60008054600160a060020a031916600160a060020a03939093169290921782554260018190556002829055600391909155600455600555565b600054600160a060020a03161515613f15576040805160e560020a62461bcd02815260206004820152603560248201527f63616e6e6f7420626964206f6e207a6f6e6520776974686f7574206f776e657260448201527f2c2075736520636c61696d467265655a6f6e6528290000000000000000000000606482015290519081900360840190fd5b6000601054118015613f47575060105460009081526006602052604081206002015460ff166001811115613f4557fe5b145b15613f5b57613f5682826146b9565b611c4f565b6005541515613fd557600154613f7a906202a30063ffffffff613b9c16565b4211613fd0576040805160e560020a62461bcd02815260206004820152601f60248201527f636f6f6c646f776e20706572696f6420646964206e6f7420656e642079657400604482015290519081900360640190fd5b614053565b601054600090815260066020526040902060010154613ffd906202a30063ffffffff613b9c16565b4211614053576040805160e560020a62461bcd02815260206004820152601f60248201527f636f6f6c646f776e20706572696f6420646964206e6f7420656e642079657400604482015290519081900360640190fd5b611c4f8282614aa7565b600080548190600160a060020a031615156140c2576040805160e560020a62461bcd02815260206004820152601160248201527f7a6f6e6520686173206e6f206f776e6572000000000000000000000000000000604482015290519081900360640190fd5b600054600160a060020a03858116911614614127576040805160e560020a62461bcd02815260206004820152601860248201527f63616c6c6572206973206e6f74207a6f6e65206f776e65720000000000000000604482015290519081900360640190fd5b60105415806141585750600160105460009081526006602052604090206002015460ff16600181111561415657fe5b145b15156141d4576040805160e560020a62461bcd02815260206004820152602360248201527f63616e6e6f7420746f70207570207768696c652061756374696f6e2072756e6e60448201527f696e670000000000000000000000000000000000000000000000000000000000606482015290519081900360840190fd5b60035491506141e9828463ffffffff613b9c16565b600381905560408051848152602081018390528151929350600160a060020a038716927f993857d1afedc692a1ea47cde199310a57b73c0583028ce14c84bffd4e7aa5ea929181900390910190a250505050565b60108054600090815260066020908152604080832060028082018054600160ff1990911617908190559554855260118452828520610100909604600160a060020a03168086529590935290832080549084905560045482549354929594919391928392839283926142ae9290610948565b6000549195509350600160a060020a0387811691161415614304576002546142dc908663ffffffff613b9c16565b6002556003546142f2908663ffffffff613b9c16565b60035542600455601054600555614404565b60008054600160a060020a03888116600160a060020a0319831617835560018a8101549055600288905560038890554260045560105460055516808252600e60205260409091205490925061435f908463ffffffff613b9c16565b600160a060020a0383166000908152600e602090815260408083209390935560128152828220805490839055600f909152919020549091506143a7908263ffffffff613b9c16565b600160a060020a0383166000908152600f60205260409020556143c8613c19565b604051600160a060020a03808816919084169030907f1d12264c14fc566e86950ff90e2b320c449b6b0a4f1afa0f1b0cd202e054bf1390600090a45b6009546040805160e060020a63a9059cbb028152600160a060020a0360048201819052602482018890529151919092169163a9059cbb9160448083019260209291908290030181600087803b15801561445c57600080fd5b505af1158015614470573d6000803e3d6000fd5b505050506040513d602081101561448657600080fd5b505050505050505050565b600454600254601054600092919083908190819015156144b357429550614507565b60105460009081526006602052604081209350600284015460ff1660018111156144d957fe5b14156144e85782549550614507565b6001600284015460ff1660018111156144fd57fe5b1415614507574295505b858510614513576146b1565b61451e858786610948565b600354919350915082106145ee5760035460005460408051888152602081018a90528082018490529051929450600160a060020a03909116917fcf07ead1fcfee76a926d09b2da5b5e475def868e5b56dd5f5aeea7d2d51cb4459181900360600190a260005460015460408051918252602082018990528181018790526060820185905251600160a060020a03909216917ff6a68c2607aef85af6ee933234f69340aa368755ce48cd4d5bc9c443f6e675669181900360800190a26145e1613bae565b6145e9613c19565b614659565b600354614601908363ffffffff613a4516565b600355600486905560005460408051878152602081018990528082018590529051600160a060020a03909216917fcf07ead1fcfee76a926d09b2da5b5e475def868e5b56dd5f5aeea7d2d51cb4459181900360600190a25b6009546040805160e060020a63a9059cbb028152600160a060020a0360048201819052602482018690529151919092169163a9059cbb9160448083019260209291908290030181600087803b15801561121057600080fd5b505050505050565b601054600090815260066020526040812060028101549091908190819081908190600160a060020a03898116610100909204161415614742576040805160e560020a62461bcd02815260206004820152601960248201527f68696768657374206269646465722063616e6e6f742062696400000000000000604482015290519081900360640190fd5b601054600090815260116020908152604080832060028a0154600160a060020a03610100909104811685529252822054915491965089811691161415614878576010546000908152601160209081526040808320600160a060020a038c1684529091529020546147b8908863ffffffff613b9c16565b60025490945085906147d0908663ffffffff613b9c16565b1161484b576040805160e560020a62461bcd02815260206004820152603160248201527f626964202b20616c7265616479207374616b6564206973206c6573732074686160448201527f6e2063757272656e742068696768657374000000000000000000000000000000606482015290519081900360840190fd5b6010546000908152601160209081526040808320600160a060020a038c1684529091529020849055614a68565b6010546000908152601160209081526040808320600160a060020a038c16845290915290205415156149b0576148ad87613a13565b9093509150848211614909576040805160e560020a62461bcd02815260206004820181905260248201527f626964206973206c657373207468616e2063757272656e742068696768657374604482015290519081900360640190fd5b6010546000908152601160209081526040808320600160a060020a03808d168552908352818420869055600954825160e060020a63a9059cbb0281526004810183905260248101899052925191169363a9059cbb93604480850194919392918390030190829087803b15801561497e57600080fd5b505af1158015614992573d6000803e3d6000fd5b505050506040513d60208110156149a857600080fd5b50614a689050565b6010546000908152601160209081526040808320600160a060020a038c1684529091529020546149e6908863ffffffff613b9c16565b9050848111614a3f576040805160e560020a62461bcd02815260206004820181905260248201527f626964206973206c657373207468616e2063757272656e742068696768657374604482015290519081900360640190fd5b6010546000908152601160209081526040808320600160a060020a038c16845290915290208190555b50505060029092018054600160a060020a039095166101000274ffffffffffffffffffffffffffffffffffffffff001990951694909417909355505050565b6000805481908190600160a060020a0386811691161415614b38576040805160e560020a62461bcd02815260206004820152602160248201527f7a6f6e656f776e65722063616e6e6f7420737461727420616e2061756374696f60448201527f6e00000000000000000000000000000000000000000000000000000000000000606482015290519081900360840190fd5b614b4184613a13565b60025491945092508211614bc4576040805160e560020a62461bcd028152602060048201526024808201527f626964206973206c6f776572207468616e2063757272656e74207a6f6e65207360448201527f74616b6500000000000000000000000000000000000000000000000000000000606482015290519081900360840190fd5b5060108054600101908190556040805160808101909152428082526020820190614bf7906201518063ffffffff613b9c16565b815260200160008152600160a060020a0387166020918201526000838152600682526040908190208351815591830151600180840191909155908301516002830180549192909160ff1916908381811115614c4e57fe5b0217905550606091909101516002909101805474ffffffffffffffffffffffffffffffffffffffff001916610100600160a060020a0393841602179055600082815260116020908152604080832089851684528252808320869055600954815160e060020a63a9059cbb0281526004810186905260248101899052915194169363a9059cbb93604480840194938390030190829087803b158015614cf157600080fd5b505af1158015614d05573d6000803e3d6000fd5b505050506040513d6020811015614d1b57600080fd5b50505050505050565b6040805160808101825260008082526020820181905290918201908152600060209091015290565b5080546000825590600052602060002090810190611c5191906108fb91905b80821115614d7f5760008155600101614d6b565b50905600636f6e7472616374206973207061757365640000000000000000000000000000636f756e7472792069732064697361626c6564000000000000000000000000006e6f7468696e6720746f20776974686472617700000000000000000000000000a165627a7a72305820d15fadf492e7f6d0943297d6ac41a87445270ddf45e18413152038fe0d476df60029",
  "source": "pragma solidity ^0.4.24;\n\nimport \"openzeppelin-solidity/contracts/math/SafeMath.sol\";\n\nimport \"../dth/tokenfoundry/ERC223ReceivingContract.sol\";\nimport \"../dth/IDetherToken.sol\";// TODO: replace with zeppelin ERC20 abstract contract?\nimport \"../core/IUsers.sol\";\nimport \"../core/IControl.sol\";\nimport \"./IGeoRegistry.sol\";\nimport \"./IZoneFactory.sol\";\n// import \"./IZone.sol\"; TODO\n\ncontract Zone is ERC223ReceivingContract {\n  // ------------------------------------------------\n  //\n  // Library init\n  //\n  // ------------------------------------------------\n\n  using SafeMath for uint;\n\n  // ------------------------------------------------\n  //\n  // Enums\n  //\n  // ------------------------------------------------\n\n  enum AuctionState { Started, Ended }\n\n  // ------------------------------------------------\n  //\n  // Structs\n  //\n  // ------------------------------------------------\n\n  // NOTE:\n  // evm will convert to uint256 when doing calculations, so 1 time higher storage cost\n  // will be less than all the increased gas costs if we were to use smaller uints in the struct\n\n  struct ZoneOwner {\n    address addr;\n    uint startTime;\n    uint staked;\n    uint balance;\n    uint lastTaxTime;\n    uint auctionId;\n  }\n\n  struct Auction {\n    // since we do a lot of calcuations with these uints, it's best to leave them uint256\n    // evm will convert to uint256 anyways when doing calculations\n    uint startTime;\n    uint endTime;\n    AuctionState state;\n    address highestBidder;\n  }\n\n  struct Teller {\n    uint8 currencyId;  // 1 - 100 , see README\n    bytes16 messenger; // telegrame nickname\n    bytes12 position;  // 12 char geohash for location of teller\n    bytes1 settings;   // bitmask containing up to 8 boolean settings (only 2 used currently: isSeller, isBuyer)\n    // TODO: wouldn't it be wiser to use uint256, to make all calculations cost less\n    int16 buyRate;     // margin of tellers , -999 - +9999 , corresponding to -99,9% x 10  , 999,9% x 10\n    int16 sellRate;    // margin of tellers , -999 - +9999 , corresponding to -99,9% x 10  , 999,9% x 10\n    // 256 bits in total\n    address referrer;\n  }\n\n  // ------------------------------------------------\n  //\n  // Variables Private\n  //\n  // ------------------------------------------------\n\n  uint private constant MIN_STAKE = 100 * 1 ether; // DTH, which is also 18 decimals!\n  uint private constant BID_PERIOD = 24 * 1 hours;\n  uint private constant COOLDOWN_PERIOD = 48 * 1 hours;\n  uint private constant ENTRY_FEE_PERCENTAGE = 1; // 1%\n  uint private constant TAX_PERCENTAGE = 1; // 1%\n  uint private constant REFERRER_FEE_PERCENTAGE = 1; // 0.1%\n  address private constant ADDRESS_BURN = 0xFFfFfFffFFfffFFfFFfFFFFFffFFFffffFfFFFfF;\n\n  ZoneOwner private zoneOwner;\n\n  mapping(uint => Auction) private auctionIdToAuction;\n\n  Teller private teller;\n  bytes1 private constant isSellerBitMask = hex\"01\";\n  bytes1 private constant isBuyerBitMask = hex\"02\";\n\n  // ------------------------------------------------\n  //\n  // Variables Public\n  //\n  // ------------------------------------------------\n\n  IDetherToken public dth;\n  IGeoRegistry public geo;\n  IUsers public users;\n  IControl public control;\n  IZoneFactory public zoneFactory;\n\n  bytes2 public country;\n  bytes7 public geohash;\n\n  mapping(address => uint) public withdrawableDth;\n  mapping(address => uint) public withdrawableEth;\n\n  uint public currentAuctionId; // starts at 0, first auction will get id 1, etc.\n\n  //      auctionId       bidder     dthAmount\n  mapping(uint => mapping(address => uint)) public auctionBids;\n\n  //(prev)zoneOwner          ethAmount\n  mapping(address => uint) public funds;\n\n  mapping(address => mapping(address => uint)) public canPlaceCertifiedComment;\n\n  mapping(address => bytes32[]) public commentsFree;\n  mapping(address => bytes32[]) public commentsCertified;\n\n  // ------------------------------------------------\n  //\n  // Events\n  //\n  // ------------------------------------------------\n\n  event ZoneCreated(address indexed zoneAddress, bytes2 indexed countryCode, bytes7 indexed geohash, uint dthAmount);\n  event ZoneOwnerUpdated(address indexed zoneAddress, address indexed oldOwner, address indexed newOwner);\n  event ZoneOwnerForeClosed(address indexed owner, uint lifeStart, uint lifeEnd, uint taxPaidTotal, uint taxDebtOutstanding);\n  event ZoneOwnerTaxesPaid(address indexed owner, uint taxStart, uint taxEnd, uint taxAmount);\n  event ZoneOwnerTopUp(address indexed owner, uint oldBalance, uint newBalance);\n  event ZoneAuctionStarted(address indexed auctionId, uint lifeStart);\n  event ZoneAuctionEnded(address indexed auctionId, uint lifeEnd, address indexed newOwner);\n  event ZoneAuctionBid(address indexed auctionId, address indexed bidder, uint bidAmount); // NOTE: this includes current stake if zone owner bids\n  event ZoneUpdatedTeller(address indexed owner);\n\n  // ------------------------------------------------\n  //\n  // Constructor\n  //\n  // ------------------------------------------------\n\n  // executed by ZoneFactory.sol when this Zone does not yet exist (= not yet deployed)\n  constructor(\n    bytes2 _countryCode,\n    bytes7 _geohash,\n    address _zoneOwner,\n    uint _dthAmount,\n    address _dth,\n    address _geo,\n    address _users,\n    address _control,\n    address _zoneFactory\n  )\n    public\n  {\n    require(_dthAmount >= MIN_STAKE, \"zone dth stake shoulld be at least minimum (100DTH)\");\n\n    country = _countryCode;\n    geohash = _geohash;\n\n    dth = IDetherToken(_dth);\n    geo = IGeoRegistry(_geo);\n    users = IUsers(_users);\n    control = IControl(_control);\n    zoneFactory = IZoneFactory(_zoneFactory);\n\n    zoneOwner.addr = _zoneOwner;\n    zoneOwner.startTime = now;\n    zoneOwner.staked = _dthAmount;\n    zoneOwner.balance = _dthAmount;\n    zoneOwner.lastTaxTime = now;\n    zoneOwner.auctionId = 0; // was not gained by winning an auction\n\n    emit ZoneCreated(address(this), _countryCode, _geohash, _dthAmount);\n    emit ZoneOwnerUpdated(address(this), address(0), _zoneOwner);\n  }\n\n  // ------------------------------------------------\n  //\n  // Functions Getters Public\n  //\n  // ------------------------------------------------\n\n  function computeCSC(bytes7 _geohash, address _addr)\n    public\n    pure\n    returns (bytes12)\n  {\n    return bytes12(keccak256(abi.encodePacked(_geohash, _addr)));\n  }\n\n  function calcHarbergerTax(uint _startTime, uint _endTime, uint _dthAmount)\n    public\n    view\n    returns (uint taxAmount, uint keepAmount)\n  {\n    // TODO use smaller uint variables, hereby preventing under/overflows, so no need for SafeMath\n    // source: https://programtheblockchain.com/posts/2018/09/19/implementing-harberger-tax-deeds/\n    taxAmount = _dthAmount.mul(_endTime.sub(_startTime)).mul(TAX_PERCENTAGE).div(100).div(1 days);\n    keepAmount = _dthAmount.sub(taxAmount);\n  }\n\n  function calcEntryFee(uint _value)\n    public\n    view\n    returns (uint burnAmount, uint bidAmount)\n  {\n    burnAmount = _value.div(100).mul(ENTRY_FEE_PERCENTAGE); // 1%\n    bidAmount = _value.sub(burnAmount); // 99%\n  }\n\n  function calcReferrerFee(uint _value)\n    public\n    view\n    returns (uint referrerAmount)\n  {\n    referrerAmount = _value.div(1000).mul(REFERRER_FEE_PERCENTAGE); // 0.1%\n  }\n\n  function auctionExists(uint _auctionId)\n    external\n    view\n    returns (bool)\n  {\n    // if aucton does not exist we should get back zero, otherwise this field\n    // will contain a block.timestamp, set whe creating an Auction, in constructor() and bid()\n    return auctionIdToAuction[_auctionId].startTime > 0;\n  }\n\n  /// @notice get current zone owner data\n  function getZoneOwner()\n    external\n    view\n    returns (address, uint, uint, uint, uint, uint)\n  {\n    return (\n      zoneOwner.addr,        // address of current owner\n      zoneOwner.startTime,   // time this address became owner\n      zoneOwner.staked,      // \"price you sell at\"\n      zoneOwner.balance,     // will decrease whenever harberger taxes are paid\n      zoneOwner.lastTaxTime, // time until taxes have been paid\n      zoneOwner.auctionId    // if gained by winning auction, the auction id, otherwise zero\n    );\n  }\n\n  /// @notice get a specific auction\n  function getAuction(uint _auctionId)\n    public\n    view\n    returns (uint, uint, uint, uint, address, uint)\n  {\n    Auction memory auction = auctionIdToAuction[_auctionId];\n\n    uint highestBid = auctionBids[_auctionId][auction.highestBidder];\n    // for current zone owner his existing zone stake is added to his bid\n    if (auction.highestBidder == zoneOwner.addr) highestBid = highestBid.add(zoneOwner.staked);\n\n    return (\n      _auctionId,\n      uint(auction.state),\n      auction.startTime,\n      auction.endTime,\n      auction.highestBidder,\n      highestBid\n    );\n  }\n\n  /// @notice get the last auction\n  function getLastAuction()\n    external\n    view\n    returns (uint, uint, uint, uint, address, uint)\n  {\n    return getAuction(currentAuctionId);\n  }\n\n  function getTeller()\n    external\n    view\n    returns (uint8, bytes16, bytes12, bytes1, int16, int16, uint, address)\n  {\n    return (\n      teller.currencyId,\n      teller.messenger,\n      teller.position,\n      teller.settings,\n      teller.buyRate,\n      teller.sellRate,\n      funds[zoneOwner.addr],\n      teller.referrer\n    );\n  }\n\n  function getCertifiedComments()\n    external\n    view\n    returns (bytes32[])\n  {\n    return commentsCertified[zoneOwner.addr];\n  }\n\n  function getComments()\n    external\n    view\n    returns (bytes32[])\n  {\n    return commentsFree[zoneOwner.addr];\n  }\n\n  // ------------------------------------------------\n  //\n  // Functions Getters Private\n  //\n  // ------------------------------------------------\n\n  function toBytes1(bytes _bytes, uint _start)\n    private\n    pure\n    returns (bytes1) {\n      require(_bytes.length >= (_start + 1), \" not long enough\");\n      bytes1 tempBytes1;\n\n      assembly {\n          tempBytes1 := mload(add(add(_bytes, 0x20), _start))\n      }\n\n      return tempBytes1;\n  }\n  function toBytes7(bytes _bytes, uint _start)\n    private\n    pure\n    returns (bytes7) {\n      require(_bytes.length >= (_start + 7), \" not long enough\");\n      bytes7 tempBytes7;\n\n      assembly {\n          tempBytes7 := mload(add(add(_bytes, 0x20), _start))\n      }\n\n      return tempBytes7;\n  }\n  function toBytes12(bytes _bytes, uint _start)\n    private\n    pure\n    returns (bytes12) {\n      require(_bytes.length >= (_start + 12), \" not long enough\");\n      bytes12 tempBytes12;\n\n      assembly {\n          tempBytes12 := mload(add(add(_bytes, 0x20), _start))\n      }\n\n      return tempBytes12;\n  }\n\n  // ------------------------------------------------\n  //\n  // Functions Setters Private\n  //\n  // ------------------------------------------------\n\n  function _removeZoneOwner()\n    private\n  {\n    delete commentsFree[zoneOwner.addr];\n    delete commentsCertified[zoneOwner.addr];\n\n    zoneOwner.addr = address(0);\n    zoneOwner.startTime = 0;\n    zoneOwner.staked = 0;\n    zoneOwner.balance = 0;\n    zoneOwner.lastTaxTime = 0;\n    zoneOwner.auctionId = 0;\n  }\n\n  function _removeTeller()\n    private\n  {\n    // we dont remove comments here, so that if zoneowner readds or repositions his teller,\n    // his comments still exist.\n    teller.currencyId = 0;\n    teller.messenger = bytes16(0);\n    teller.position = bytes12(0);\n    teller.settings = bytes1(0);\n    teller.buyRate = 0;\n    teller.sellRate = 0;\n    teller.referrer = address(0);\n  }\n\n  function _handleTaxPayment()\n    private\n  {\n    uint taxEndTime; // set depending on current auction state\n    uint taxStartTime = zoneOwner.lastTaxTime; // always keep track of time until taxes are paid\n    uint taxableAmount = zoneOwner.staked;     // you pay taxes over \"the price you sell at\"\n\n    if (currentAuctionId == 0) {\n      taxEndTime = now;\n    } else {\n      Auction storage lastAuction = auctionIdToAuction[currentAuctionId];\n\n      // Auction state did not change in this transaction/block!!\n      // current Auction is in state Started or Ended\n      if (lastAuction.state == AuctionState.Started) {\n        // if there is a current auction, taxes need to be paid until auction start time\n        taxEndTime = lastAuction.startTime;\n      } else if (lastAuction.state == AuctionState.Ended) {\n        // if there is NO current auction, measure tax until \"now\"\n        taxEndTime = now;\n      }\n      // ANY auction has to be in one of those 2 states, first auction ever (constructor()) starts in state Ended\n    }\n\n    if (taxStartTime >= taxEndTime) {\n      return; // short-circuit: multiple txes in 1 block OR many blocks but in same Auction\n    }\n\n    uint taxAmount;\n    uint keepAmount;\n    (taxAmount, keepAmount) = calcHarbergerTax(taxStartTime, taxEndTime, taxableAmount);\n\n    if (taxAmount >= zoneOwner.balance) {\n      // zone owner DOES NOT have anough balance to be owner any longer\n\n      // set tax amount to max he can pay\n      // uint taxDebt = taxAmount.sub(zoneOwner.balance); // TODO: what to do with debt, just forget about it?\n      taxAmount = zoneOwner.balance;\n\n      emit ZoneOwnerTaxesPaid(zoneOwner.addr, taxStartTime, taxEndTime, taxAmount);\n      emit ZoneOwnerForeClosed(zoneOwner.addr, zoneOwner.startTime, taxEndTime, taxableAmount, taxAmount);\n\n      // reset zone owner to nobody, somebody can now call claimFreeZone() with 100DTH\n      _removeZoneOwner();\n      _removeTeller();\n    } else {\n      // zone onwer has enough balance to pay his harberger taxes\n\n      zoneOwner.balance = zoneOwner.balance.sub(taxAmount);\n      zoneOwner.lastTaxTime = taxEndTime;\n\n      emit ZoneOwnerTaxesPaid(zoneOwner.addr, taxStartTime, taxEndTime, taxAmount);\n    }\n\n    dth.transfer(ADDRESS_BURN, taxAmount);\n  }\n\n  function _handleAuctionEnd()\n    private\n  {\n    Auction storage lastAuction = auctionIdToAuction[currentAuctionId];\n\n    // 1. update current Auction state to Ended\n    lastAuction.state = AuctionState.Ended;\n\n    // 2. collect winning bidder address\n    address winningBidder = lastAuction.highestBidder;\n\n    // 3. collect winning bid amount\n    uint winningAmount = auctionBids[currentAuctionId][winningBidder];\n\n    // 4. reset winning bidders bid in Auction\n    auctionBids[currentAuctionId][winningBidder] = 0;\n\n    // 5. calc harberger tax of current zoneOwner\n    uint taxAmount;\n    uint keepAmount;\n    (taxAmount, keepAmount) = calcHarbergerTax(zoneOwner.lastTaxTime, lastAuction.startTime, zoneOwner.staked);\n\n    // 6. check if highest bidder is current zone owner or not\n    if (zoneOwner.addr == winningBidder) {\n      // 6a. highest bidder is current zone owner\n\n      // 6a.1 update zone owner info (current zone owner always has his stake amount added to all his bids)\n      zoneOwner.staked = zoneOwner.staked.add(winningAmount);\n      zoneOwner.balance = zoneOwner.balance.add(winningAmount);\n      zoneOwner.lastTaxTime = now;\n\n      // need to set it since it might've been zero\n      zoneOwner.auctionId = currentAuctionId; // the auctionId that gave the zoneOwner zone ownership\n    } else {\n      // 6b. winning bidder differs from current zone owner\n\n      address prevOwnerAddr = zoneOwner.addr;\n\n      // 6b.1 make the winnig bidder the new zoneOwner\n      zoneOwner.addr = winningBidder;\n      zoneOwner.startTime = lastAuction.endTime;\n      zoneOwner.staked = winningAmount; // entry fee is already deducted when user calls bid()\n      zoneOwner.balance = winningAmount;\n      zoneOwner.lastTaxTime = now;\n      zoneOwner.auctionId = currentAuctionId; // the auctionId that gave the zoneOwner zone ownership\n\n      // 6b.2 make left-over staked DTH of old zone owner withdrawable\n      withdrawableDth[prevOwnerAddr] = withdrawableDth[prevOwnerAddr].add(keepAmount);\n\n      // 6b.3 make added eth funds withdrawable\n      uint ethAmount = funds[prevOwnerAddr];\n      funds[prevOwnerAddr] = 0;\n      withdrawableEth[prevOwnerAddr] = withdrawableEth[prevOwnerAddr].add(ethAmount);\n\n      _removeTeller();\n\n      emit ZoneOwnerUpdated(address(this), prevOwnerAddr, winningBidder);\n    }\n\n    // 7. burn the tax amount\n    dth.transfer(ADDRESS_BURN, taxAmount);\n  }\n\n  /// @notice private function to update the current auction state\n  function _processState()\n    private\n  {\n    Auction memory lastAuction = auctionIdToAuction[currentAuctionId];\n\n    if (currentAuctionId != 0 && lastAuction.state == AuctionState.Started && now >= lastAuction.endTime) {\n      // current Auction is still set to Started and endTime has passed, we need to update it to Ended\n      _handleAuctionEnd();\n    } else if (zoneOwner.addr != address(0)) {\n      // there is currently a zone owner, check/handle his tax payment\n      _handleTaxPayment();\n    }\n  }\n\n  function _joinAuction(address _sender, uint _dthAmount)\n    private\n  {\n    Auction storage lastAuction = auctionIdToAuction[currentAuctionId];\n\n    //------------------------------------------------------------------------------//\n    // there is a running auction, lets see if we can join the auction with our bid //\n    //------------------------------------------------------------------------------//\n\n    require(_sender != lastAuction.highestBidder, \"highest bidder cannot bid\");\n\n    uint currentHighestBid = auctionBids[currentAuctionId][lastAuction.highestBidder];\n\n    if (_sender == zoneOwner.addr) {\n      uint dthAddedBidsAmount = auctionBids[currentAuctionId][_sender].add(_dthAmount); // NOTE: _dthAmount\n      // the current zone owner's stake also counts in his bid\n      require(zoneOwner.staked.add(dthAddedBidsAmount) > currentHighestBid, \"bid + already staked is less than current highest\");\n      auctionBids[currentAuctionId][_sender] = dthAddedBidsAmount;\n    } else {\n      // _sender is not the current zone owner\n      if (auctionBids[currentAuctionId][_sender] == 0) {\n        // this is the first bid of this challenger, deduct entry fee\n        (uint burnAmount, uint bidAmount) = calcEntryFee(_dthAmount);\n        require(bidAmount > currentHighestBid, \"bid is less than current highest\");\n        auctionBids[currentAuctionId][_sender] = bidAmount;\n        dth.transfer(ADDRESS_BURN, burnAmount);\n      } else {\n        // not the first bid, no entry fee\n        uint newUserTotalBid = auctionBids[currentAuctionId][_sender].add(_dthAmount);\n        require(newUserTotalBid > currentHighestBid, \"bid is less than current highest\");\n        auctionBids[currentAuctionId][_sender] = newUserTotalBid;\n      }\n    }\n\n    // it worked, _sender placed a bid\n    lastAuction.highestBidder = _sender;\n  }\n\n  function _createAuction(address _sender, uint _dthAmount)\n    private\n  {\n    require(_sender != zoneOwner.addr, \"zoneowner cannot start an auction\");\n\n    (uint burnAmount, uint bidAmount) = calcEntryFee(_dthAmount);\n    require(bidAmount > zoneOwner.staked, \"bid is lower than current zone stake\");\n\n    // save the new Auction\n    uint newAuctionId = ++currentAuctionId;\n\n    auctionIdToAuction[newAuctionId] = Auction({\n      state: AuctionState.Started,\n      startTime: now,\n      endTime: now.add(BID_PERIOD),\n      highestBidder: _sender // caller (challenger)\n    });\n\n    auctionBids[newAuctionId][_sender] = bidAmount;\n\n    dth.transfer(ADDRESS_BURN, burnAmount);\n  }\n\n  /// @notice private function to update the current auction state\n  function _bid(address _sender, uint _dthAmount) // GAS COST +/- 223.689\n    private\n  {\n    require(zoneOwner.addr != address(0), \"cannot bid on zone without owner, use claimFreeZone()\");\n\n    if (currentAuctionId > 0 && auctionIdToAuction[currentAuctionId].state == AuctionState.Started) {\n      _joinAuction(_sender, _dthAmount);\n    } else { // there currently is no running auction\n      if (zoneOwner.auctionId == 0) {\n        // current zone owner did not become owner by winning an auction, but by creating this zone or caliming it when it was free\n        require(now > zoneOwner.startTime.add(COOLDOWN_PERIOD), \"cooldown period did not end yet\");\n      } else {\n        // current zone owner became owner by winning an auction (which has ended)\n        require(now > auctionIdToAuction[currentAuctionId].endTime.add(COOLDOWN_PERIOD), \"cooldown period did not end yet\");\n      }\n      _createAuction(_sender, _dthAmount);\n    }\n  }\n\n  function _claimFreeZone(address _sender, uint _dthAmount) // GAS COSt +/- 177.040\n    private\n  {\n    require(zoneOwner.addr == address(0), \"can not claim zone with owner\");\n    require(_dthAmount >= MIN_STAKE, \"need at least minimum zone stake amount (100 DTH)\");\n\n    // NOTE: empty zone claim will not have entry fee deducted, its not bidding it's taking immediately\n    zoneOwner.addr = _sender;\n    zoneOwner.startTime = now;\n    zoneOwner.staked = _dthAmount;\n    zoneOwner.balance = _dthAmount;\n    zoneOwner.lastTaxTime = now;\n    zoneOwner.auctionId = 0; // since it was not gained wby winning an auction\n  }\n\n  function _topUp(address _sender, uint _dthAmount) // GAS COST +/- 104.201\n    private\n  {\n    require(zoneOwner.addr != address(0), \"zone has no owner\");\n    require(_sender == zoneOwner.addr, \"caller is not zone owner\");\n    require(currentAuctionId == 0 || auctionIdToAuction[currentAuctionId].state == AuctionState.Ended, \"cannot top up while auction running\");\n\n    uint oldBalance = zoneOwner.balance;\n    uint newBalance = oldBalance.add(_dthAmount);\n    zoneOwner.balance = newBalance;\n\n    emit ZoneOwnerTopUp(_sender, oldBalance, newBalance);\n  }\n\n  // ------------------------------------------------\n  //\n  // Functions Setters Public\n  //\n  // ------------------------------------------------\n\n  /////////////\n  //\n  //\n  // Zone ownership + Auction\n  //\n  //\n  /////////////\n\n  /// @notice ERC223 receiving function called by Dth contract when Eth is sent to this contract\n  /// @param _from Who send DTH to this contract\n  /// @param _value How much DTH was sent to this contract\n  /// @param _data Additional bytes data sent\n  function tokenFallback(address _from, uint _value, bytes _data)\n    public\n  {\n    require(msg.sender == address(dth), \"can only be called by dth contract\");\n    require(control.paused() == false, \"contract is paused\");\n    require(geo.countryIsEnabled(country), \"country is disabled\");\n\n    bytes1 func = toBytes1(_data, 0);\n\n    require(func == bytes1(0x40) || func == bytes1(0x41) || func == bytes1(0x42) || func == bytes1(0x43), \"did not match Zone function\");\n\n    if (func == bytes1(0x40)) { // zone was created by factory, sending through DTH\n      return; // just retun success\n    }\n\n    _processState();\n\n    if (func == bytes1(0x41)) { // claimFreeZone\n      _claimFreeZone(_from, _value);\n    } else if (func == bytes1(0x42)) { // bid\n      _bid(_from, _value);\n    } else if (func == bytes1(0x43)) { // topUp\n      _topUp(_from, _value);\n    }\n  }\n\n  /// @notice release zone ownership\n  /// @dev can only be called by current zone owner, when there is no running auction\n  function release() // GAS COST +/- 72.351\n    external\n  {\n    require(control.paused() == false, \"contract is paused\");\n    // allow also when country is disabled, otherwise no way for zone owner to get their eth/dth back\n\n    // zone owner could be removed if he does not have enough balance to pay his taxes\n    _processState();\n\n    require(msg.sender == zoneOwner.addr, \"caller is not zone owner\");\n    require(currentAuctionId == 0 || auctionIdToAuction[currentAuctionId].state == AuctionState.Ended, \"cannot release while auction running\");\n\n    uint ownerBalance = zoneOwner.balance;\n\n    _removeZoneOwner();\n    _removeTeller();\n\n    // if msg.sender is a contract, the DTH ERC223 contract will try to call tokenFallback\n    // on msg.sender, this could lead to a reentrancy. But we prevent this by resetting\n    // zoneOwner before we do dth.transfer(msg.sender)\n    dth.transfer(msg.sender, ownerBalance);\n  }\n\n  // offer three different withdraw functions, single auction, multiple auctions, all auctions\n\n  /// @notice withdraw losing bids from a specific auction\n  /// @param _auctionId The auction id\n  function withdrawFromAuction(uint _auctionId) // GAS COST +/- 125.070\n    external\n  {\n    require(control.paused() == false, \"contract is paused\");\n    // even when country is disabled, otherwise users cannot withdraw their bids\n\n    require(_auctionId > 0 && _auctionId <= currentAuctionId, \"auctionId does not exist\");\n\n    _processState();\n\n    require(auctionIdToAuction[_auctionId].state == AuctionState.Ended, \"cannot withdraw while auction is active\");\n    require(auctionIdToAuction[_auctionId].highestBidder != msg.sender, \"auction winner can not withdraw\");\n    require(auctionBids[_auctionId][msg.sender] > 0, \"nothing to withdraw\");\n\n    uint withdrawAmount = auctionBids[_auctionId][msg.sender];\n    auctionBids[_auctionId][msg.sender] = 0;\n\n    dth.transfer(msg.sender, withdrawAmount);\n  }\n\n  /// @notice withdraw from a given list of auction ids\n  function withdrawFromAuctions(uint[] _auctionIds) // GAS COST +/- 127.070\n    external\n  {\n    require(control.paused() == false, \"contract is paused\");\n    // even when country is disabled, can withdraw\n    require(currentAuctionId > 0, \"there are no auctions\");\n\n    _processState();\n\n    require(_auctionIds.length > 0, \"auctionIds list is empty\");\n    require(_auctionIds.length <= currentAuctionId, \"auctionIds list is longer than allowed\");\n\n    uint withdrawAmountTotal = 0;\n\n    for (uint idx = 0; idx < _auctionIds.length; idx++) {\n      uint auctionId = _auctionIds[idx];\n      require(auctionId > 0 && auctionId <= currentAuctionId, \"auctionId does not exist\");\n      require(auctionIdToAuction[auctionId].state == AuctionState.Ended, \"cannot withdraw from running auction\");\n      require(auctionIdToAuction[auctionId].highestBidder != msg.sender, \"auction winner can not withdraw\");\n      uint withdrawAmount = auctionBids[auctionId][msg.sender];\n      if (withdrawAmount > 0) {\n        // if user supplies the same auctionId multiple times in auctionIds,\n        // only the first one will get a withdrawal amount\n        auctionBids[auctionId][msg.sender] = 0;\n        withdrawAmountTotal = withdrawAmountTotal.add(withdrawAmount);\n      }\n    }\n\n    require(withdrawAmountTotal > 0, \"nothing to withdraw\");\n\n    dth.transfer(msg.sender, withdrawAmountTotal);\n  }\n\n  function withdrawDth()\n    external\n  {\n    uint dthWithdraw = withdrawableDth[msg.sender];\n    require(dthWithdraw > 0, \"nothing to withdraw\");\n\n    if (dthWithdraw > 0) {\n      withdrawableDth[msg.sender] = 0;\n      dth.transfer(msg.sender, dthWithdraw);\n    }\n  }\n\n  function withdrawEth()\n    external\n  {\n    uint ethWithdraw = withdrawableEth[msg.sender];\n    require(ethWithdraw > 0, \"nothing to withdraw\");\n\n    if (ethWithdraw > 0) {\n      withdrawableEth[msg.sender] = 0;\n      msg.sender.transfer(ethWithdraw);\n    }\n  }\n\n  /////////////\n  //\n  //\n  // TELLER\n  //\n  //\n  /////////////\n\n\n  // NOTE: we could just require only last 5 bytes of a bytes12 geohash, since\n  // the first 7 bytes will be the geohash of this zone. But by requiring the full geohash\n  // we can mkae more sure the user is talking to the right zone\n  function addTeller(bytes _position, uint8 _currencyId, bytes16 _messenger, int16 _sellRate, int16 _buyRate, bytes1 _settings, address _referrer) // GAS COST +/- 75.301\n    external\n  {\n    require(control.paused() == false, \"contract is paused\");\n    require(geo.countryIsEnabled(country), \"country is disabled\");\n    require(_position.length == 12, \"expected position to be 10 bytes\");\n    require(toBytes7(_position, 0) == geohash, \"position is not inside this zone\");\n    require(geo.validGeohashChars(_position), \"invalid position geohash characters\");\n\n    require(_currencyId >= 1 && _currencyId <= 100, \"currency id must be in range 1-100\");\n    // _messenger can be 0x0 if he has no telegram\n\n    if (_settings & isSellerBitMask != 0) { // seller bit is set => teller is a \"seller\"\n      require(_sellRate >= -9999 && _sellRate <= 9999, \"sellRate should be between -9999 and 9999\");\n    } else {\n      require(_sellRate == 0, \"cannot set sellRate if not set as seller\");\n    }\n\n    if (_settings & isBuyerBitMask != 0) { // buyer bit is set => teller is a \"buyer\"\n      require(_buyRate >= -9999 && _buyRate <= 9999, \"buyRate should be between -9999 and 9999\");\n    } else {\n      require(_buyRate == 0, \"cannot set buyRate if not set as buyer\");\n    }\n\n    _processState();\n\n    require(msg.sender == zoneOwner.addr, \"only zone owner can add teller info\");\n\n    teller.currencyId = _currencyId;\n    teller.messenger = _messenger;\n    teller.buyRate = _buyRate;\n    teller.sellRate = _sellRate;\n    teller.position = toBytes12(_position, 0);\n    teller.settings = _settings;\n    teller.referrer = _referrer;\n\n    emit ZoneUpdatedTeller(msg.sender);\n  }\n\n  function removeTeller()\n    external\n  {\n    require(control.paused() == false, \"contract is paused\");\n\n    _processState();\n\n    require(msg.sender == zoneOwner.addr, \"only zone owner can add teller info\");\n\n    _removeTeller();\n  }\n\n  // called by Teller, adding ETH to Teller funds\n  function addFunds() // GAS COST +/- 59.809\n    external\n    payable\n  {\n    require(control.paused() == false, \"contract is paused\");\n    require(geo.countryIsEnabled(country), \"country is disabled\");\n    require(msg.value > 0, \"no eth send with call\");\n\n    _processState();\n\n    require(msg.sender == zoneOwner.addr, \"only zoneOwner can add funds\");\n    require(teller.currencyId != 0, \"not yet added teller info\");\n\n    // register ETH sent to this contract\n    funds[msg.sender] = funds[msg.sender].add(msg.value);\n  }\n\n  // called by Teller, sending ETH from Zone to _to\n  function sellEth(address _to, uint _amount) // GAS COST +/- 147.310\n    external\n  {\n    require(control.paused() == false, \"contract is paused\");\n    require(geo.countryIsEnabled(country), \"country is disabled\");\n    require(msg.sender != _to, \"sender cannot also be to\");\n    require(_amount > 0, \"amount to sell cannot be zero\");\n\n    _processState();\n\n    require(msg.sender == zoneOwner.addr, \"can only be called by zone owner\");\n    require(teller.currencyId != 0, \"not yet added teller info\");\n\n    if (teller.referrer != address(0)) { // need to pay referrer fee\n      uint referrerAmount = calcReferrerFee(_amount);\n      require(funds[msg.sender] >= _amount + referrerAmount, \"not enough funds to sell eth amount plus pay referrer fee\");\n      funds[msg.sender] = funds[msg.sender].sub(_amount + referrerAmount);\n      withdrawableEth[teller.referrer] = withdrawableEth[teller.referrer].add(referrerAmount);\n    } else {\n      require(funds[msg.sender] >= _amount, \"cannot sell more than in funds\");\n      funds[msg.sender] = funds[msg.sender].sub(_amount);\n    }\n\n    zoneFactory.updateUserDailySold(country, msg.sender, _to, _amount); // MIGHT THROW if exceeds daily limit\n\n    canPlaceCertifiedComment[zoneOwner.addr][_to]++;\n\n    _to.transfer(_amount);\n  }\n\n  function addCertifiedComment(bytes32 _commentHash)\n    external\n  {\n    require(control.paused() == false, \"contract is paused\");\n    require(geo.countryIsEnabled(country), \"country is disabled\");\n    require(_commentHash != bytes32(0), \"comment hash cannot be 0x0\");\n\n    _processState();\n\n    require(zoneOwner.addr != address(0), \"cannot comment on zone without owner\");\n    require(teller.position != bytes12(0), \"cannot comment on zone without teller\");\n    require(msg.sender != zoneOwner.addr, \"zone owner cannot comment on himself\");\n\n    require(canPlaceCertifiedComment[zoneOwner.addr][msg.sender] > 0, \"user not allowed to place a certified comment\");\n    canPlaceCertifiedComment[zoneOwner.addr][msg.sender]--;\n\n    commentsCertified[zoneOwner.addr].push(_commentHash);\n  }\n\n  function addComment(bytes32 _commentHash)\n    external\n  {\n    require(control.paused() == false, \"contract is paused\");\n    require(geo.countryIsEnabled(country), \"country is disabled\");\n    require(_commentHash != bytes32(0), \"comment hash cannot be 0x0\");\n\n    _processState();\n\n    require(zoneOwner.addr != address(0), \"cannot comment on zone without owner\");\n    require(teller.position != bytes12(0), \"cannot comment on zone without teller\");\n    require(msg.sender != zoneOwner.addr, \"zone owner cannot comment on himself\");\n\n    commentsFree[zoneOwner.addr].push(_commentHash);\n  }\n}\n",
  "sourcePath": "/Users/trip/Projects/detherContracts/contracts/map/Zone.sol",
  "compiler": {
    "name": "solc",
    "version": "0.4.24+commit.e67f0147.Emscripten.clang"
  },
  "schemaVersion": "2.0.1",
  "updatedAt": "2019-01-10T09:36:40.025Z"
}