{
  "contractName": "DSMathWdiv",
  "abi": [
    {
      "constant": true,
      "inputs": [],
      "name": "WAD",
      "outputs": [
        {
          "name": "",
          "type": "uint256"
        }
      ],
      "payable": false,
      "stateMutability": "view",
      "type": "function"
    }
  ],
  "bytecode": "0x6080604052348015600f57600080fd5b50609f8061001e6000396000f300608060405260043610603e5763ffffffff7c01000000000000000000000000000000000000000000000000000000006000350416636a14602481146043575b600080fd5b348015604e57600080fd5b5060556067565b60408051918252519081900360200190f35b670de0b6b3a7640000815600a165627a7a7230582029e012da07b168596bf6de04628af9a3168db3e68b64845307f9e46dcb2cd1030029",
  "source": "pragma solidity ^0.4.24;\n\ncontract DSMathWdiv {\n  function add(uint x, uint y) internal pure returns (uint z) {\n    require((z = x + y) >= x);\n  }\n  function mul(uint x, uint y) internal pure returns (uint z) {\n    require(y == 0 || (z = x * y) / y == x);\n  }\n\n  uint public constant WAD = 10 ** 18;\n\n  function wdiv(uint x, uint y) internal pure returns (uint z) {\n    z = add(mul(x, WAD), y / 2) / y;\n  }\n}",
  "sourcePath": "/Users/trip/Projects/detherContracts/contracts/dappsys/DSMathWdiv.sol",
  "compiler": {
    "name": "solc",
    "version": "0.4.24+commit.e67f0147.Emscripten.clang"
  },
  "schemaVersion": "2.0.1",
  "updatedAt": "2019-01-10T09:36:39.974Z"
}