{
  "contractName": "ExchangeRateOracle",
  "abi": [
    {
      "constant": true,
      "inputs": [],
      "name": "WAD",
      "outputs": [
        {
          "name": "",
          "type": "uint256"
        }
      ],
      "payable": false,
      "stateMutability": "view",
      "type": "function"
    },
    {
      "constant": true,
      "inputs": [],
      "name": "mkrPriceFeed",
      "outputs": [
        {
          "name": "",
          "type": "address"
        }
      ],
      "payable": false,
      "stateMutability": "view",
      "type": "function"
    },
    {
      "inputs": [
        {
          "name": "mkrPriceFeed_",
          "type": "address"
        }
      ],
      "payable": false,
      "stateMutability": "nonpayable",
      "type": "constructor"
    },
    {
      "constant": true,
      "inputs": [],
      "name": "getWeiPriceOneUsd",
      "outputs": [
        {
          "name": "",
          "type": "uint256"
        }
      ],
      "payable": false,
      "stateMutability": "view",
      "type": "function"
    }
  ],
  "bytecode": "0x608060405234801561001057600080fd5b506040516020806102c7833981016040525160008054600160a060020a03909216600160a060020a0319909216919091179055610275806100526000396000f3006080604052600436106100565763ffffffff7c010000000000000000000000000000000000000000000000000000000060003504166350ccf36b811461005b5780636a14602414610082578063a60c589914610097575b600080fd5b34801561006757600080fd5b506100706100d5565b60408051918252519081900360200190f35b34801561008e57600080fd5b506100706101b1565b3480156100a357600080fd5b506100ac6101bd565b6040805173ffffffffffffffffffffffffffffffffffffffff9092168252519081900360200190f35b6000806000806000809054906101000a900473ffffffffffffffffffffffffffffffffffffffff1673ffffffffffffffffffffffffffffffffffffffff166359e02dd76040518163ffffffff167c01000000000000000000000000000000000000000000000000000000000281526004016040805180830381600087803b15801561015f57600080fd5b505af1158015610173573d6000803e3d6000fd5b505050506040513d604081101561018957600080fd5b50805160209091015190935091506101a9670de0b6b3a7640000846101d9565b949350505050565b670de0b6b3a764000081565b60005473ffffffffffffffffffffffffffffffffffffffff1681565b6000816101fa6101f185670de0b6b3a764000061020b565b60028504610239565b81151561020357fe5b049392505050565b600081158061022857505080820282828281151561022557fe5b04145b151561023357600080fd5b92915050565b8082018281101561023357600080fd00a165627a7a7230582053df1cff1cb8a9a727169245ec4171f8541b232c4869b62c44e2176e157889dc0029",
  "source": "pragma solidity ^0.4.24;\n\nimport \"../dappsys/DSMathWdiv.sol\";\nimport \"./IExchangeRateOracle.sol\";\nimport \"./IMedianizer.sol\";\n\ncontract ExchangeRateOracle is DSMathWdiv, IExchangeRateOracle {\n\n  IMedianizer public mkrPriceFeed;\n\n  constructor(address mkrPriceFeed_)\n    public\n  {\n    mkrPriceFeed = IMedianizer(mkrPriceFeed_);\n  }\n\n  /**\n   * @dev Return wei price of 1 USD\n   */\n  function getWeiPriceOneUsd() public view returns(uint) {\n    // get usd price of 1 eth from maker contract\n    bytes32 priceRaw;\n    bool success;\n    (priceRaw, success) = mkrPriceFeed.peek();\n\n    // convert \"1 eth = X usd\" to \"X eth = 1 usd\"\n    uint256 weiPriceOneUsd = wdiv(WAD, uint(priceRaw));\n\n    return weiPriceOneUsd;\n  }\n}\n",
  "sourcePath": "/Users/trip/Projects/detherContracts/contracts/oracle/ExchangeRateOracle.sol",
  "compiler": {
    "name": "solc",
    "version": "0.4.24+commit.e67f0147.Emscripten.clang"
  },
  "schemaVersion": "2.0.1",
  "updatedAt": "2019-01-10T09:36:39.991Z"
}