{
  "contractName": "Shops",
  "abi": [
    {
      "constant": true,
      "inputs": [],
      "name": "dth",
      "outputs": [
        {
          "name": "",
          "type": "address"
        }
      ],
      "payable": false,
      "stateMutability": "view",
      "type": "function"
    },
    {
      "constant": true,
      "inputs": [],
      "name": "arbitratorExtraData",
      "outputs": [
        {
          "name": "",
          "type": "bytes"
        }
      ],
      "payable": false,
      "stateMutability": "view",
      "type": "function"
    },
    {
      "constant": true,
      "inputs": [],
      "name": "AMOUNT_OF_CHOICES",
      "outputs": [
        {
          "name": "",
          "type": "uint8"
        }
      ],
      "payable": false,
      "stateMutability": "view",
      "type": "function"
    },
    {
      "constant": true,
      "inputs": [
        {
          "name": "",
          "type": "bytes12"
        }
      ],
      "name": "positionToShopAddress",
      "outputs": [
        {
          "name": "",
          "type": "address"
        }
      ],
      "payable": false,
      "stateMutability": "view",
      "type": "function"
    },
    {
      "constant": true,
      "inputs": [],
      "name": "RULING_OPTIONS",
      "outputs": [
        {
          "name": "",
          "type": "string"
        }
      ],
      "payable": false,
      "stateMutability": "view",
      "type": "function"
    },
    {
      "constant": true,
      "inputs": [],
      "name": "arbitrator",
      "outputs": [
        {
          "name": "",
          "type": "address"
        }
      ],
      "payable": false,
      "stateMutability": "view",
      "type": "function"
    },
    {
      "constant": true,
      "inputs": [
        {
          "name": "",
          "type": "uint256"
        }
      ],
      "name": "disputeTypes",
      "outputs": [
        {
          "name": "",
          "type": "string"
        }
      ],
      "payable": false,
      "stateMutability": "view",
      "type": "function"
    },
    {
      "constant": true,
      "inputs": [
        {
          "name": "",
          "type": "bytes7"
        },
        {
          "name": "",
          "type": "uint256"
        }
      ],
      "name": "zoneToShopAddresses",
      "outputs": [
        {
          "name": "",
          "type": "address"
        }
      ],
      "payable": false,
      "stateMutability": "view",
      "type": "function"
    },
    {
      "constant": true,
      "inputs": [],
      "name": "control",
      "outputs": [
        {
          "name": "",
          "type": "address"
        }
      ],
      "payable": false,
      "stateMutability": "view",
      "type": "function"
    },
    {
      "constant": true,
      "inputs": [],
      "name": "geo",
      "outputs": [
        {
          "name": "",
          "type": "address"
        }
      ],
      "payable": false,
      "stateMutability": "view",
      "type": "function"
    },
    {
      "constant": true,
      "inputs": [],
      "name": "users",
      "outputs": [
        {
          "name": "",
          "type": "address"
        }
      ],
      "payable": false,
      "stateMutability": "view",
      "type": "function"
    },
    {
      "constant": true,
      "inputs": [
        {
          "name": "",
          "type": "bytes2"
        }
      ],
      "name": "countryLicensePrice",
      "outputs": [
        {
          "name": "",
          "type": "uint256"
        }
      ],
      "payable": false,
      "stateMutability": "view",
      "type": "function"
    },
    {
      "inputs": [
        {
          "name": "_dth",
          "type": "address"
        },
        {
          "name": "_geo",
          "type": "address"
        },
        {
          "name": "_users",
          "type": "address"
        },
        {
          "name": "_control",
          "type": "address"
        },
        {
          "name": "_arbitrator",
          "type": "address"
        },
        {
          "name": "_arbitratorExtraData",
          "type": "bytes"
        }
      ],
      "payable": false,
      "stateMutability": "nonpayable",
      "type": "constructor"
    },
    {
      "anonymous": false,
      "inputs": [
        {
          "indexed": true,
          "name": "_metaEvidenceID",
          "type": "uint256"
        },
        {
          "indexed": false,
          "name": "_evidence",
          "type": "string"
        }
      ],
      "name": "MetaEvidence",
      "type": "event"
    },
    {
      "anonymous": false,
      "inputs": [
        {
          "indexed": true,
          "name": "_arbitrator",
          "type": "address"
        },
        {
          "indexed": true,
          "name": "_disputeID",
          "type": "uint256"
        },
        {
          "indexed": false,
          "name": "_metaEvidenceID",
          "type": "uint256"
        }
      ],
      "name": "Dispute",
      "type": "event"
    },
    {
      "anonymous": false,
      "inputs": [
        {
          "indexed": true,
          "name": "_arbitrator",
          "type": "address"
        },
        {
          "indexed": true,
          "name": "_disputeID",
          "type": "uint256"
        },
        {
          "indexed": true,
          "name": "_party",
          "type": "address"
        },
        {
          "indexed": false,
          "name": "_evidence",
          "type": "string"
        }
      ],
      "name": "Evidence",
      "type": "event"
    },
    {
      "anonymous": false,
      "inputs": [
        {
          "indexed": true,
          "name": "_arbitrator",
          "type": "address"
        },
        {
          "indexed": true,
          "name": "_disputeID",
          "type": "uint256"
        },
        {
          "indexed": false,
          "name": "_ruling",
          "type": "uint256"
        }
      ],
      "name": "Ruling",
      "type": "event"
    },
    {
      "constant": true,
      "inputs": [
        {
          "name": "_addr",
          "type": "address"
        }
      ],
      "name": "getShopByAddr",
      "outputs": [
        {
          "name": "",
          "type": "bytes12"
        },
        {
          "name": "",
          "type": "bytes16"
        },
        {
          "name": "",
          "type": "bytes16"
        },
        {
          "name": "",
          "type": "bytes32"
        },
        {
          "name": "",
          "type": "bytes16"
        },
        {
          "name": "",
          "type": "uint256"
        },
        {
          "name": "",
          "type": "bool"
        },
        {
          "name": "",
          "type": "uint256"
        }
      ],
      "payable": false,
      "stateMutability": "view",
      "type": "function"
    },
    {
      "constant": true,
      "inputs": [
        {
          "name": "_position",
          "type": "bytes12"
        }
      ],
      "name": "getShopByPos",
      "outputs": [
        {
          "name": "",
          "type": "bytes12"
        },
        {
          "name": "",
          "type": "bytes16"
        },
        {
          "name": "",
          "type": "bytes16"
        },
        {
          "name": "",
          "type": "bytes32"
        },
        {
          "name": "",
          "type": "bytes16"
        },
        {
          "name": "",
          "type": "uint256"
        },
        {
          "name": "",
          "type": "bool"
        },
        {
          "name": "",
          "type": "uint256"
        }
      ],
      "payable": false,
      "stateMutability": "view",
      "type": "function"
    },
    {
      "constant": true,
      "inputs": [
        {
          "name": "_zoneGeohash",
          "type": "bytes7"
        }
      ],
      "name": "getShopAddressesInZone",
      "outputs": [
        {
          "name": "",
          "type": "address[]"
        }
      ],
      "payable": false,
      "stateMutability": "view",
      "type": "function"
    },
    {
      "constant": true,
      "inputs": [
        {
          "name": "shopAddress",
          "type": "address"
        }
      ],
      "name": "shopByAddrExists",
      "outputs": [
        {
          "name": "",
          "type": "bool"
        }
      ],
      "payable": false,
      "stateMutability": "view",
      "type": "function"
    },
    {
      "constant": false,
      "inputs": [
        {
          "name": "_countryCode",
          "type": "bytes2"
        },
        {
          "name": "_priceDTH",
          "type": "uint256"
        }
      ],
      "name": "setCountryLicensePrice",
      "outputs": [],
      "payable": false,
      "stateMutability": "nonpayable",
      "type": "function"
    },
    {
      "constant": false,
      "inputs": [
        {
          "name": "_from",
          "type": "address"
        },
        {
          "name": "_value",
          "type": "uint256"
        },
        {
          "name": "_data",
          "type": "bytes"
        }
      ],
      "name": "tokenFallback",
      "outputs": [],
      "payable": false,
      "stateMutability": "nonpayable",
      "type": "function"
    },
    {
      "constant": false,
      "inputs": [],
      "name": "removeShop",
      "outputs": [],
      "payable": false,
      "stateMutability": "nonpayable",
      "type": "function"
    },
    {
      "constant": false,
      "inputs": [
        {
          "name": "_disputeTypeLink",
          "type": "string"
        }
      ],
      "name": "addDisputeType",
      "outputs": [],
      "payable": false,
      "stateMutability": "nonpayable",
      "type": "function"
    },
    {
      "constant": true,
      "inputs": [
        {
          "name": "_disputeID",
          "type": "uint256"
        }
      ],
      "name": "disputeExists",
      "outputs": [
        {
          "name": "",
          "type": "bool"
        }
      ],
      "payable": false,
      "stateMutability": "view",
      "type": "function"
    },
    {
      "constant": true,
      "inputs": [],
      "name": "getDisputeCreateCost",
      "outputs": [
        {
          "name": "",
          "type": "uint256"
        }
      ],
      "payable": false,
      "stateMutability": "view",
      "type": "function"
    },
    {
      "constant": true,
      "inputs": [
        {
          "name": "_disputeID",
          "type": "uint256"
        }
      ],
      "name": "getDisputeAppealCost",
      "outputs": [
        {
          "name": "",
          "type": "uint256"
        }
      ],
      "payable": false,
      "stateMutability": "view",
      "type": "function"
    },
    {
      "constant": true,
      "inputs": [
        {
          "name": "_disputeID",
          "type": "uint256"
        }
      ],
      "name": "getDispute",
      "outputs": [
        {
          "name": "",
          "type": "address"
        },
        {
          "name": "",
          "type": "address"
        },
        {
          "name": "",
          "type": "uint256"
        },
        {
          "name": "",
          "type": "uint256"
        },
        {
          "name": "",
          "type": "uint256"
        }
      ],
      "payable": false,
      "stateMutability": "view",
      "type": "function"
    },
    {
      "constant": false,
      "inputs": [
        {
          "name": "_shopAddress",
          "type": "address"
        },
        {
          "name": "_metaEvidenceId",
          "type": "uint256"
        },
        {
          "name": "_evidenceLink",
          "type": "string"
        }
      ],
      "name": "createDispute",
      "outputs": [],
      "payable": true,
      "stateMutability": "payable",
      "type": "function"
    },
    {
      "constant": false,
      "inputs": [
        {
          "name": "_disputeID",
          "type": "uint256"
        },
        {
          "name": "_evidenceLink",
          "type": "string"
        }
      ],
      "name": "appealDispute",
      "outputs": [],
      "payable": true,
      "stateMutability": "payable",
      "type": "function"
    },
    {
      "constant": false,
      "inputs": [
        {
          "name": "_disputeID",
          "type": "uint256"
        },
        {
          "name": "_ruling",
          "type": "uint256"
        }
      ],
      "name": "rule",
      "outputs": [],
      "payable": false,
      "stateMutability": "nonpayable",
      "type": "function"
    }
  ],
  "bytecode": "0x60806040523480156200001157600080fd5b506040516200391b3803806200391b83398101604090815281516020830151918301516060840151608085015160a0860151939592939192909101600160a060020a0386161515620000c457604080517f08c379a000000000000000000000000000000000000000000000000000000000815260206004820152601960248201527f64746820616464726573732063616e6e6f742062652030783000000000000000604482015290519081900360640190fd5b600160a060020a03851615156200013c57604080517f08c379a000000000000000000000000000000000000000000000000000000000815260206004820152601960248201527f67656f20616464726573732063616e6e6f742062652030783000000000000000604482015290519081900360640190fd5b600160a060020a0384161515620001b457604080517f08c379a000000000000000000000000000000000000000000000000000000000815260206004820152601b60248201527f757365727320616464726573732063616e6e6f74206265203078300000000000604482015290519081900360640190fd5b600160a060020a03831615156200022c57604080517f08c379a000000000000000000000000000000000000000000000000000000000815260206004820152601d60248201527f636f6e74726f6c20616464726573732063616e6e6f7420626520307830000000604482015290519081900360640190fd5b600160a060020a0382161515620002a457604080517f08c379a000000000000000000000000000000000000000000000000000000000815260206004820152601860248201527f61726269747261746f722063616e6e6f74206265203078300000000000000000604482015290519081900360640190fd5b60008054600160a060020a0319908116600160a060020a03898116919091179092556001805482168884161790556002805482168784161790556003805482168684161790556004805490911691841691909117905580516200030f9060059060208401906200031c565b50505050505050620003c1565b828054600181600116156101000203166002900490600052602060002090601f016020900481019282601f106200035f57805160ff19168380011785556200038f565b828001600101855582156200038f579182015b828111156200038f57825182559160200191906001019062000372565b506200039d929150620003a1565b5090565b620003be91905b808211156200039d5760008155600101620003a8565b90565b61354a80620003d16000396000f3006080604052600436106101455763ffffffff60e060020a60003504166301e57a37811461014a5780630c7ac7b61461017b5780630ea52eae146102055780631660cfdc1461028f5780632041ad69146102ed5780632e0b642214610317578063311a6c56146103425780633b23d6cd1461035d57806353f4c1dc1461037f5780635840486414610396578063626c47e8146103b75780636cc6cde1146103cc57806371e884a0146103e157806373912aac146103f95780637eb0c9481461040e57806386caeae81461042e5780639645313214610463578063acae13501461047b578063b5c84a55146104a0578063bc75b21414610512578063c0ee0b8a14610527578063c10f748914610590578063d8de6587146105b5578063d944e6a3146105ca578063e3a96cbd146105df578063f20202751461062e578063fb13ed3414610643575b600080fd5b34801561015657600080fd5b5061015f610665565b60408051600160a060020a039092168252519081900360200190f35b34801561018757600080fd5b50610190610674565b6040805160208082528351818301528351919283929083019185019080838360005b838110156101ca5781810151838201526020016101b2565b50505050905090810190601f1680156101f75780820380516001836020036101000a031916815260200191505b509250505060405180910390f35b34801561021157600080fd5b50610227600160a060020a031960043516610702565b60408051600160a060020a031990991689526fffffffffffffffffffffffffffffffff1997881660208a015295871688870152606088019490945291909416608086015260a085019390935291151560c084015260e083019190915251908190036101000190f35b604080516020600460443581810135601f81018490048402850184019095528484526102eb948235600160a060020a03169460248035953695946064949201919081908401838280828437509497506107589650505050505050565b005b3480156102f957600080fd5b50610305600435610e62565b60408051918252519081900360200190f35b34801561032357600080fd5b5061032c610f7e565b6040805160ff9092168252519081900360200190f35b34801561034e57600080fd5b506102eb600435602435610f83565b34801561036957600080fd5b5061015f600160a060020a031960043516611050565b6102eb60048035906024803590810191013561106b565b3480156103a257600080fd5b50610227600160a060020a0360043516611838565b3480156103c357600080fd5b50610190611937565b3480156103d857600080fd5b5061015f61196e565b3480156103ed57600080fd5b5061019060043561197d565b34801561040557600080fd5b506102eb6119f1565b34801561041a57600080fd5b506102eb6004803560248101910135611d3f565b34801561043a57600080fd5b5061044f600160a060020a0360043516611f19565b604080519115158252519081900360200190f35b34801561046f57600080fd5b5061044f600435611f46565b34801561048757600080fd5b5061015f600160c860020a031960043516602435611f63565b3480156104ac57600080fd5b506104c2600160c860020a031960043516611f9a565b60408051602080825283518183015283519192839290830191858101910280838360005b838110156104fe5781810151838201526020016104e6565b505050509050019250505060405180910390f35b34801561051e57600080fd5b50610305612011565b34801561053357600080fd5b50604080516020600460443581810135601f81018490048402850184019095528484526102eb948235600160a060020a03169460248035953695946064949201919081908401838280828437509497506121229650505050505050565b34801561059c57600080fd5b506102eb600160f060020a031960043516602435612a9d565b3480156105c157600080fd5b5061015f612ba2565b3480156105d657600080fd5b5061015f612bb1565b3480156105eb57600080fd5b506105f7600435612bc0565b60408051600160a060020a039687168152949095166020850152838501929092526060830152608082015290519081900360a00190f35b34801561063a57600080fd5b5061015f612cb8565b34801561064f57600080fd5b50610305600160f060020a031960043516612cc7565b600054600160a060020a031681565b6005805460408051602060026001851615610100026000190190941693909304601f810184900484028201840190925281815292918301828280156106fa5780601f106106cf576101008083540402835291602001916106fa565b820191906000526020600020905b8154815290600101906020018083116106dd57829003601f168201915b505050505081565b600160a060020a031981166000908152600860205260408120548190819081908190819081908190600160a060020a031661073c81611838565b9850985098509850985098509850985050919395975091939597565b6000806000806000600360009054906101000a9004600160a060020a0316600160a060020a0316635c975abb6040518163ffffffff1660e060020a028152600401602060405180830381600087803b1580156107b357600080fd5b505af11580156107c7573d6000803e3d6000fd5b505050506040513d60208110156107dd57600080fd5b505115610822576040805160e560020a62461bcd02815260206004820152601260248201526000805160206134bf833981519152604482015290519081900360640190fd5b6002546040805160e160020a63726931070281523360048201529051600092600160a060020a03169163e4d2620e91602480830192602092919082900301818787803b15801561087157600080fd5b505af1158015610885573d6000803e3d6000fd5b505050506040513d602081101561089b57600080fd5b5051116108e0576040805160e560020a62461bcd02815260206004820152601260248201526000805160206134ff833981519152604482015290519081900360640190fd5b6006548710610939576040805160e560020a62461bcd02815260206004820152601b60248201527f64697370757465207479706520646f6573206e6f742065786973740000000000604482015290519081900360640190fd5b8551600010610992576040805160e560020a62461bcd02815260206004820152601660248201527f65766964656e6365206c696e6b20697320656d70747900000000000000000000604482015290519081900360640190fd5b600160a060020a03881615156109f2576040805160e560020a62461bcd02815260206004820152601360248201527f73686f7020646f6573206e6f7420657869737400000000000000000000000000604482015290519081900360640190fd5b33600160a060020a0389161415610a79576040805160e560020a62461bcd02815260206004820152602b60248201527f73686f70206f776e65722063616e6e6f7420737461727420646973707574652060448201527f6f6e206f776e2073686f70000000000000000000000000000000000000000000606482015290519081900360840190fd5b600160a060020a0388166000908152600a602052604090206005015460ff1615610aed576040805160e560020a62461bcd02815260206004820152601a60248201527f73686f7020616c72656164792068617320612064697370757465000000000000604482015290519081900360640190fd5b610af5612011565b945034851115610b75576040805160e560020a62461bcd02815260206004820152602760248201527f73656e7420657468206973206c6f776572207468616e2061726269747261746960448201527f6f6e20636f737400000000000000000000000000000000000000000000000000606482015290519081900360840190fd5b60048054604080517fc13517e100000000000000000000000000000000000000000000000000000000815260029381018481526024820192835260058054600019600182161561010002011686900460448401819052600160a060020a039095169563c13517e1958c9591949293926064019084908015610c375780601f10610c0c57610100808354040283529160200191610c37565b820191906000526020600020905b815481529060010190602001808311610c1a57829003601f168201915b505093505050506020604051808303818588803b158015610c5757600080fd5b505af1158015610c6b573d6000803e3d6000fd5b50505050506040513d6020811015610c8257600080fd5b50516000818152600b602052604081206001808201805433600160a060020a031991821617909155825416600160a060020a038d16178255600282018b90556003820180549498509196509192909160ff19909116908302179055506003830180546000919061ff001916610100830217905550600160a060020a038089166000908152600a602090815260409182902060058101805460ff191660011790556006810188905560045483518c81529351919650889416927fc21357d76c2ee05713ed6e2edb9a5f60ab1e8748c56201385df30007f774f58d92908290030190a3600454604080516020808252895181830152895133948994600160a060020a03909116937fdccf2f8b2cc26eafcd61905cba744cff4b81d14740725f6376390dc6298a6a3c938d93919283929083019185019080838360005b83811015610dd4578181015183820152602001610dbc565b50505050905090810190601f168015610e015780820380516001836020036101000a031916815260200191505b509250505060405180910390a4610e1e853463ffffffff612cd916565b90506000811115610e5857604051339082156108fc029083906000818181858888f19350505050158015610e56573d6000803e3d6000fd5b505b5050505050505050565b60048054604080517ff23f16e6000000000000000000000000000000000000000000000000000000008152928301848152602484019182526005805460026000196001831615610100020190911604604486018190526000958695600160a060020a03169463f23f16e69489949390926064019084908015610f255780601f10610efa57610100808354040283529160200191610f25565b820191906000526020600020905b815481529060010190602001808311610f0857829003601f168201915b50509350505050602060405180830381600087803b158015610f4657600080fd5b505af1158015610f5a573d6000803e3d6000fd5b505050506040513d6020811015610f7057600080fd5b505191508190505b50919050565b600281565b600454600160a060020a0316331461100b576040805160e560020a62461bcd02815260206004820152602560248201527f43616e206f6e6c792062652063616c6c6564206279207468652061726269747260448201527f61746f722e000000000000000000000000000000000000000000000000000000606482015290519081900360840190fd5b604080518281529051839133917f394027a5fa6e098a1191094d1719d6929b9abc535fcc0c8f448d6a4e756222769181900360200190a361104c8282612cf0565b5050565b600860205260009081526040902054600160a060020a031681565b600080600080600360009054906101000a9004600160a060020a0316600160a060020a0316635c975abb6040518163ffffffff1660e060020a028152600401602060405180830381600087803b1580156110c457600080fd5b505af11580156110d8573d6000803e3d6000fd5b505050506040513d60208110156110ee57600080fd5b505115611133576040805160e560020a62461bcd02815260206004820152601260248201526000805160206134bf833981519152604482015290519081900360640190fd5b6002546040805160e160020a63726931070281523360048201529051600092600160a060020a03169163e4d2620e91602480830192602092919082900301818787803b15801561118257600080fd5b505af1158015611196573d6000803e3d6000fd5b505050506040513d60208110156111ac57600080fd5b5051116111f1576040805160e560020a62461bcd02815260206004820152601260248201526000805160206134ff833981519152604482015290519081900360640190fd5b60008511611249576040805160e560020a62461bcd02815260206004820152601660248201527f65766964656e6365206c696e6b20697320656d70747900000000000000000000604482015290519081900360640190fd5b6000878152600b602052604090208054909450600160a060020a031615156112bb576040805160e560020a62461bcd02815260206004820152601660248201527f6469737075746520646f6573206e6f7420657869737400000000000000000000604482015290519081900360640190fd5b60016112c688612e7b565b60028111156112d157fe5b14611326576040805160e560020a62461bcd02815260206004820152601960248201527f64697370757465206973206e6f742061707065616c61626c6500000000000000604482015290519081900360640190fd5b61132f87612f55565b9250600183600281111561133f57fe5b14156113d4576001840154600160a060020a031633146113cf576040805160e560020a62461bcd02815260206004820152602d60248201527f73686f702072756c656420746f2077696e2c206f6e6c79206368616c6c656e6760448201527f65722063616e2061707065616c00000000000000000000000000000000000000606482015290519081900360840190fd5b6114f9565b60028360028111156113e257fe5b141561146f578354600160a060020a031633146113cf576040805160e560020a62461bcd02815260206004820152602d60248201527f6368616c6c656e6765722072756c656420746f2077696e2c206f6e6c7920736860448201527f6f702063616e2061707065616c00000000000000000000000000000000000000606482015290519081900360840190fd5b6001840154600160a060020a031633146114f9576040805160e560020a62461bcd02815260206004820152602b60248201527f6e6f2072756c696e6720676976656e2c206f6e6c79206368616c6c656e67657260448201527f2063616e2061707065616c000000000000000000000000000000000000000000606482015290519081900360840190fd5b60048054604080517ff23f16e60000000000000000000000000000000000000000000000000000000081529283018a815260248401918252600580546002600019600183161561010002019091160460448601819052600160a060020a039094169463f23f16e6948d949293929160640190849080156115ba5780601f1061158f576101008083540402835291602001916115ba565b820191906000526020600020905b81548152906001019060200180831161159d57829003601f168201915b50509350505050602060405180830381600087803b1580156115db57600080fd5b505af11580156115ef573d6000803e3d6000fd5b505050506040513d602081101561160557600080fd5b5051915034821115611687576040805160e560020a62461bcd02815260206004820152602260248201527f73656e7420657468206973206c6f776572207468616e2061707065616c20636f60448201527f7374000000000000000000000000000000000000000000000000000000000000606482015290519081900360840190fd5b60048054604080517f49912f880000000000000000000000000000000000000000000000000000000081529283018a815260248401918252600580546002600019600183161561010002019091160460448601819052600160a060020a03909416946349912f889488948e949290916064909101908490801561174b5780601f106117205761010080835404028352916020019161174b565b820191906000526020600020905b81548152906001019060200180831161172e57829003601f168201915b505093505050506000604051808303818588803b15801561176b57600080fd5b505af115801561177f573d6000803e3d6000fd5b505060045460408051602080825281018b90523395508c9450600160a060020a0390921692507fdccf2f8b2cc26eafcd61905cba744cff4b81d14740725f6376390dc6298a6a3c918b918b91908190810184848082843760405192018290039550909350505050a46117f7823463ffffffff612cd916565b9050600081111561182f57604051339082156108fc029083906000818181858888f19350505050158015610e58573d6000803e3d6000fd5b50505050505050565b60008060008060008060008061184c613394565b50505050600160a060020a03959095166000908152600a60209081526040918290208251610100810184528154600160a060020a031960a060020a8202168083526fffffffffffffffffffffffffffffffff197001000000000000000000000000000000006c010000000000000000000000009093048302811695840186905260018501548302811696840187905260028501546060850181905260038601549093021660808401819052600485015460a08501819052600586015460ff16151560c0860181905260069096015460e0909501859052919c959b509599509097509395509293509190565b60408051808201909152601981527f53686f702077696e733b4368616c6c656e6765722077696e7300000000000000602082015281565b600454600160a060020a031681565b600680548290811061198b57fe5b600091825260209182902001805460408051601f60026000196101006001871615020190941693909304928301859004850281018501909152818152935090918301828280156106fa5780601f106106cf576101008083540402835291602001916106fa565b600354604080517f5c975abb0000000000000000000000000000000000000000000000000000000081529051600092600160a060020a031691635c975abb91600480830192602092919082900301818787803b158015611a5057600080fd5b505af1158015611a64573d6000803e3d6000fd5b505050506040513d6020811015611a7a57600080fd5b505115611abf576040805160e560020a62461bcd02815260206004820152601260248201526000805160206134bf833981519152604482015290519081900360640190fd5b6002546040805160e160020a63726931070281523360048201529051600092600160a060020a03169163e4d2620e91602480830192602092919082900301818787803b158015611b0e57600080fd5b505af1158015611b22573d6000803e3d6000fd5b505050506040513d6020811015611b3857600080fd5b505111611b7d576040805160e560020a62461bcd02815260206004820152601260248201526000805160206134ff833981519152604482015290519081900360640190fd5b336000908152600a602052604090205460a060020a02600160a060020a0319161515611bf3576040805160e560020a62461bcd02815260206004820152601860248201527f63616c6c657220646f6573206e6f74206f776e2073686f700000000000000000604482015290519081900360640190fd5b336000908152600a602052604090206005015460ff1615611c84576040805160e560020a62461bcd02815260206004820152602360248201527f63616e6e6f742072656d6f76652073686f70207768696c6520696e206469737060448201527f7574650000000000000000000000000000000000000000000000000000000000606482015290519081900360840190fd5b50336000818152600a602052604090206004015490611ca290613035565b60008054604080517fa9059cbb000000000000000000000000000000000000000000000000000000008152336004820152602481018590529051600160a060020a039092169263a9059cbb926044808401936020939083900390910190829087803b158015611d1057600080fd5b505af1158015611d24573d6000803e3d6000fd5b505050506040513d6020811015611d3a57600080fd5b505050565b600354604080517f8900bd220000000000000000000000000000000000000000000000000000000081523360048201529051600092600160a060020a031691638900bd2291602480830192602092919082900301818787803b158015611da457600080fd5b505af1158015611db8573d6000803e3d6000fd5b505050506040513d6020811015611dce57600080fd5b50511515611e26576040805160e560020a62461bcd02815260206004820152601960248201527f63616e206f6e6c792062652063616c6c65642062792043454f00000000000000604482015290519081900360640190fd5b60008211611e7e576040805160e560020a62461bcd02815260206004820152601a60248201527f646973707574652074797065206c696e6b20697320656d707479000000000000604482015290519081900360640190fd5b6006805460018181018084556000939093529190611ebf907ff652222313e28459528d920b65115c16c04f3efc82aaedc97be59f3f377c0d3f0186866133d8565b50039050807f61606860eb6c87306811e2695215385101daab53bd6ab4e9f9049aead9363c7d84846040518080602001828103825284848281815260200192508082843760405192018290039550909350505050a2505050565b600160a060020a03166000908152600a602052604090205460a060020a02600160a060020a031916151590565b6000908152600b6020526040902054600160a060020a0316151590565b600960205281600052604060002081815481101515611f7e57fe5b600091825260209091200154600160a060020a03169150829050565b600160c860020a0319811660009081526009602090815260409182902080548351818402810184019094528084526060939283018282801561200557602002820191906000526020600020905b8154600160a060020a03168152600190910190602001808311611fe7575b50505050509050919050565b600480546040517ff7434ea90000000000000000000000000000000000000000000000000000000081526020928101928352600580546002600019600183161561010002019091160460248301819052600094600160a060020a039094169363f7434ea9939091829160440190849080156120cd5780601f106120a2576101008083540402835291602001916120cd565b820191906000526020600020905b8154815290600101906020018083116120b057829003601f168201915b505092505050602060405180830381600087803b1580156120ed57600080fd5b505af1158015612101573d6000803e3d6000fd5b505050506040513d602081101561211757600080fd5b505160020290505b90565b60008054819081908190819081908190819081908190600160a060020a031633146121bd576040805160e560020a62461bcd02815260206004820152602260248201527f63616e206f6e6c792062652063616c6c65642062792064746820636f6e74726160448201527f6374000000000000000000000000000000000000000000000000000000000000606482015290519081900360840190fd5b600360009054906101000a9004600160a060020a0316600160a060020a0316635c975abb6040518163ffffffff1660e060020a028152600401602060405180830381600087803b15801561221057600080fd5b505af1158015612224573d6000803e3d6000fd5b505050506040513d602081101561223a57600080fd5b50511561227f576040805160e560020a62461bcd02815260206004820152601260248201526000805160206134bf833981519152604482015290519081900360640190fd5b8a51605f146122d8576040805160e560020a62461bcd02815260206004820181905260248201527f61646453686f7020657870656374732039352062797465732061732064617461604482015290519081900360640190fd5b8c99508b98506122e98b60006131c0565b97507fff0000000000000000000000000000000000000000000000000000000000000088167f3000000000000000000000000000000000000000000000000000000000000000146123aa576040805160e560020a62461bcd02815260206004820152602b60248201527f696e636f7272656374206669727374206279746520696e20646174612c20657860448201527f7065637465642030783330000000000000000000000000000000000000000000606482015290519081900360840190fd5b6123b58b6001613219565b96506123c28b6003613268565b95506123cf8b600f6132b7565b94506123dc8b601f6132b7565b93506123e98b602f613306565b92506123f68b604f6132b7565b600154604080517f0dc210aa000000000000000000000000000000000000000000000000000000008152600160f060020a03198b1660048201529051929450600160a060020a0390911691630dc210aa916024808201926020929091908290030181600087803b15801561246957600080fd5b505af115801561247d573d6000803e3d6000fd5b505050506040513d602081101561249357600080fd5b505115156124eb576040805160e560020a62461bcd02815260206004820152601360248201527f636f756e7472792069732064697361626c656400000000000000000000000000604482015290519081900360640190fd5b6002546040805160e160020a6372693107028152600160a060020a038d811660048301529151600093929092169163e4d2620e9160248082019260209290919082900301818787803b15801561254057600080fd5b505af1158015612554573d6000803e3d6000fd5b505050506040513d602081101561256a57600080fd5b5051116125af576040805160e560020a62461bcd02815260206004820152601260248201526000805160206134ff833981519152604482015290519081900360640190fd5b600160a060020a038a166000908152600a602052604090205460a060020a02600160a060020a0319161561262d576040805160e560020a62461bcd02815260206004820152601760248201527f63616c6c657220616c7265616479206861732073686f70000000000000000000604482015290519081900360640190fd5b600160a060020a03198616600090815260086020526040902054600160a060020a0316156126a5576040805160e560020a62461bcd02815260206004820152601f60248201527f73686f7020616c72656164792065786973747320617420706f736974696f6e00604482015290519081900360640190fd5b600154604080517fbf922fe2000000000000000000000000000000000000000000000000000000008152600160a060020a0319891660048201529051600160a060020a039092169163bf922fe2916024808201926020929091908290030181600087803b15801561271557600080fd5b505af1158015612729573d6000803e3d6000fd5b505050506040513d602081101561273f57600080fd5b505115156127bd576040805160e560020a62461bcd02815260206004820152602660248201527f696e76616c69642067656f68617368206368617261637465727320696e20706f60448201527f736974696f6e0000000000000000000000000000000000000000000000000000606482015290519081900360840190fd5b600154604080517fdf6b2c2c000000000000000000000000000000000000000000000000000000008152600160f060020a03198a1660048201527bffffffffffffffffffffffffffffffffffffffffffffffffffffffff19891660248201529051600160a060020a039092169163df6b2c2c916044808201926020929091908290030181600087803b15801561285257600080fd5b505af1158015612866573d6000803e3d6000fd5b505050506040513d602081101561287c57600080fd5b505115156128d4576040805160e560020a62461bcd02815260206004820152601a60248201527f7a6f6e65206973206e6f7420696e7369646520636f756e747279000000000000604482015290519081900360640190fd5b600160f060020a031987166000908152600760205260409020548c101561296b576040805160e560020a62461bcd02815260206004820152602860248201527f73656e6420647468206973206c657373207468616e2073686f70206c6963656e60448201527f7365207072696365000000000000000000000000000000000000000000000000606482015290519081900360840190fd5b50600160a060020a03989098166000818152600a6020908152604080832080546bffffffffffffffffffffffff191660a060020a8a04177fffffffff00000000000000000000000000000000ffffffffffffffffffffffff166c01000000000000000000000000700100000000000000000000000000000000998a900402178155600180820180546fffffffffffffffffffffffffffffffff19908116998b9004999099179055600282019690965560038101805490971697909c049690961790945560048a019890985560058901805460ff191690556006909801879055600160a060020a0319808516885260088352838820805482168a179055600160c860020a031990941687526009825291862080549283018155865290942090930180549093169093179091555050505050565b600354604080517f8900bd220000000000000000000000000000000000000000000000000000000081523360048201529051600160a060020a0390921691638900bd22916024808201926020929091908290030181600087803b158015612b0357600080fd5b505af1158015612b17573d6000803e3d6000fd5b505050506040513d6020811015612b2d57600080fd5b50511515612b85576040805160e560020a62461bcd02815260206004820152601960248201527f63616e206f6e6c792062652063616c6c65642062792043454f00000000000000604482015290519081900360640190fd5b600160f060020a0319909116600090815260076020526040902055565b600354600160a060020a031681565b600154600160a060020a031681565b6000806000806000612bd0613456565b6000878152600b6020908152604091829020825160a0810184528154600160a060020a0390811682526001830154169281019290925260028082015493830193909352600381015491929091606084019160ff90911690811115612c3057fe5b6002811115612c3b57fe5b81526020016003820160019054906101000a900460ff166002811115612c5d57fe5b6002811115612c6857fe5b815250509050806000015181602001518260400151612c868a612f55565b6002811115612c9157fe5b612c9a8b612e7b565b6002811115612ca557fe5b939b929a50909850965090945092505050565b600254600160a060020a031681565b60076020526000908152604090205481565b60008083831115612ce957600080fd5b5050900390565b6000806000806000856002811115612d0457fe5b6000888152600b602090815260408083208054600160a060020a03168452600a909252909120919650945092506001856002811115612d3f57fe5b1415612d665760058301805460ff1916905560006006840155612d6187613355565b61182f565b6002856002811115612d7457fe5b1415612e4b575050600481015460018301548354600160a060020a0391821691612d9e9116613035565b612da787613355565b60008054604080517fa9059cbb000000000000000000000000000000000000000000000000000000008152600160a060020a038581166004830152602482018790529151919092169263a9059cbb92604480820193602093909283900390910190829087803b158015612e1957600080fd5b505af1158015612e2d573d6000803e3d6000fd5b505050506040513d6020811015612e4357600080fd5b5061182f9050565b6000856002811115612e5957fe5b141561182f5760058301805460ff191690556000600684015561182f87613355565b6000818152600b6020526040812060026003820154610100900460ff166002811115612ea357fe5b1415612ebd576003810154610100900460ff169150610f78565b60048054604080517f10f169e800000000000000000000000000000000000000000000000000000000815292830186905251600160a060020a03909116916310f169e89160248083019260209291908290030181600087803b158015612f2257600080fd5b505af1158015612f36573d6000803e3d6000fd5b505050506040513d6020811015612f4c57600080fd5b50519392505050565b6000818152600b6020526040812060026003820154610100900460ff166002811115612f7d57fe5b1415612f9257600381015460ff169150610f78565b60048054604080517f1c3db16d00000000000000000000000000000000000000000000000000000000815292830186905251600160a060020a0390911691631c3db16d9160248083019260209291908290030181600087803b158015612ff757600080fd5b505af115801561300b573d6000803e3d6000fd5b505050506040513d602081101561302157600080fd5b5051600281111561302e57fe5b9392505050565b600160a060020a0381166000908152600a6020908152604080832080547bffffffffffffffffffffffffffffffffffffffffffffffffffffffff19811682556001820180546fffffffffffffffffffffffffffffffff199081169091556002830186905560038301805490911690556004820185905560058201805460ff19169055600690910184905560a060020a02600160a060020a031981811685526008845282852080549091169055600160c860020a03198116845260099092528220909180805b83548310156131b857838381548110151561311157fe5b600091825260209091200154600160a060020a03908116925086168214156131ad5783548490600019810190811061314557fe5b6000918252602090912001548454600160a060020a039091169150819085908590811061316e57fe5b60009182526020909120018054600160a060020a031916600160a060020a039290921691909117905583546131a7856000198301613484565b506131b8565b6001830192506130fa565b505050505050565b6000808260010184511015151561320f576040805160e560020a62461bcd02815260206004820152601060248201526000805160206134df833981519152604482015290519081900360640190fd5b5050016020015190565b6000808260020184511015151561320f576040805160e560020a62461bcd02815260206004820152601060248201526000805160206134df833981519152604482015290519081900360640190fd5b60008082600c0184511015151561320f576040805160e560020a62461bcd02815260206004820152601060248201526000805160206134df833981519152604482015290519081900360640190fd5b6000808260100184511015151561320f576040805160e560020a62461bcd02815260206004820152601060248201526000805160206134df833981519152604482015290519081900360640190fd5b6000808260200184511015151561320f576040805160e560020a62461bcd02815260206004820152601060248201526000805160206134df833981519152604482015290519081900360640190fd5b6000908152600b602052604081208054600160a060020a0319908116825560018201805490911690556002810191909155600301805461ffff19169055565b6040805161010081018252600080825260208201819052918101829052606081018290526080810182905260a0810182905260c0810182905260e081019190915290565b828054600181600116156101000203166002900490600052602060002090601f016020900481019282601f106134195782800160ff19823516178555613446565b82800160010185558215613446579182015b8281111561344657823582559160200191906001019061342b565b506134529291506134a4565b5090565b6040805160a08101825260008082526020820181905291810182905290606082019081526020016000905290565b815481835581811115611d3a57600083815260209020611d3a9181019083015b61211f91905b8082111561345257600081556001016134aa5600636f6e7472616374206973207061757365640000000000000000000000000000206e6f74206c6f6e6720656e6f7567680000000000000000000000000000000075736572206e6f74206365727469666965640000000000000000000000000000a165627a7a72305820af235160cf1a86853d9d8f4c396e5b34864df8ab1ebbe64dd6b4017339053c470029",
  "source": "pragma solidity ^0.4.24;\n\nimport \"openzeppelin-solidity/contracts/math/SafeMath.sol\";\nimport \"openzeppelin-solidity/contracts/ownership/Ownable.sol\";\n\nimport \"../dth/IDetherToken.sol\";\nimport \"../core/IUsers.sol\";\nimport \"../core/IControl.sol\";\nimport \"./IGeoRegistry.sol\";\nimport \"../kleros/IArbitrable.sol\";\nimport \"../kleros/Arbitrator.sol\";\n\ncontract Shops is IArbitrable {\n  // ------------------------------------------------\n  //\n  // Libraries\n  //\n  // ------------------------------------------------\n\n  using SafeMath for uint;\n\n  // ------------------------------------------------\n  //\n  // Enums\n  //\n  // ------------------------------------------------\n\n  enum Party {Shop, Challenger}\n  enum RulingOptions {NoRuling, ShopWins, ChallengerWins}\n  // enum DisputeStatus {Waiting, Appealable, Solved} // copied from Arbitrator.sol\n\n  // ------------------------------------------------\n  //\n  // Structs\n  //\n  // ------------------------------------------------\n\n  struct Shop {\n    bytes12 position; // 12 char geohash for location of teller\n    bytes16 category;\n    bytes16 name;\n    bytes32 description;\n    bytes16 opening;\n    uint staked;\n    bool hasDispute;\n    uint disputeID;\n  }\n\n  struct ShopDispute {\n    address shop;\n    address challenger;\n    uint disputeType;\n    RulingOptions ruling;\n    Arbitrator.DisputeStatus status;\n  }\n\n  // ------------------------------------------------\n  //\n  // Variables Public\n  //\n  // ------------------------------------------------\n\n  // links to other contracts\n  IDetherToken public dth;\n  IGeoRegistry public geo;\n  IUsers public users;\n  IControl public control;\n  Arbitrator public arbitrator; // <-- kleros\n\n  // kleros related\n  string public constant RULING_OPTIONS = \"Shop wins;Challenger wins\";\n  uint8 public constant AMOUNT_OF_CHOICES = 2;\n  bytes public arbitratorExtraData;\n  string[] public disputeTypes;\n\n  //      countryCode priceDTH\n  mapping(bytes2 =>   uint) public countryLicensePrice;\n\n  //      geohash12   shopAddress\n  mapping(bytes12 =>  address) public positionToShopAddress;\n\n  //      geohash7    shopAddresses\n  mapping(bytes7 =>   address[]) public zoneToShopAddresses;\n\n  // ------------------------------------------------\n  //\n  // Variables Private\n  //\n  // ------------------------------------------------\n\n  //      shopAddress shopStruct\n  mapping(address =>  Shop) private shopAddressToShop;\n\n  //      disputeId disputeStruct\n  mapping(uint =>   ShopDispute) private disputeIdToDispute;\n\n  // ------------------------------------------------\n  //\n  // Modifiers\n  //\n  // ------------------------------------------------\n\n  modifier onlyArbitrator {\n    require(msg.sender == address(arbitrator), \"Can only be called by the arbitrator.\");\n    _;\n  }\n\n  // ------------------------------------------------\n  //\n  // Events\n  //\n  // ------------------------------------------------\n\n  // ------------------------------------------------\n  //\n  // Constructor\n  //\n  // ------------------------------------------------\n\n  constructor(address _dth, address _geo, address _users, address _control, address _arbitrator, bytes _arbitratorExtraData)\n    public\n  {\n    require(_dth != address(0), \"dth address cannot be 0x0\");\n    require(_geo != address(0), \"geo address cannot be 0x0\");\n    require(_users != address(0), \"users address cannot be 0x0\");\n    require(_control != address(0), \"control address cannot be 0x0\");\n    require(_arbitrator != address(0), \"arbitrator cannot be 0x0\");\n\n    dth = IDetherToken(_dth);\n    geo = IGeoRegistry(_geo);\n    users = IUsers(_users);\n    control = IControl(_control);\n\n    // kleros\n    arbitrator = Arbitrator(_arbitrator);\n    arbitratorExtraData = _arbitratorExtraData;\n  }\n\n  // ------------------------------------------------\n  //\n  // Functions Getters Public\n  //\n  // ------------------------------------------------\n\n  function getShopByAddr(address _addr)\n    public\n    view\n    returns (bytes12, bytes16, bytes16, bytes32, bytes16, uint, bool, uint)\n  {\n    Shop memory shop = shopAddressToShop[_addr];\n\n    return (\n      shop.position,\n      shop.category,\n      shop.name,\n      shop.description,\n      shop.opening,\n      shop.staked,\n      shop.hasDispute,\n      shop.disputeID\n    );\n  }\n\n  function getShopByPos(bytes12 _position)\n    external\n    view\n    returns (bytes12, bytes16, bytes16, bytes32, bytes16, uint, bool, uint)\n  {\n    address shopAddr = positionToShopAddress[_position];\n    return getShopByAddr(shopAddr);\n  }\n\n  function getShopAddressesInZone(bytes7 _zoneGeohash)\n    external\n    view\n    returns (address[] memory)\n  {\n    return zoneToShopAddresses[_zoneGeohash];\n  }\n\n  function shopByAddrExists(address shopAddress)\n    external\n    view\n    returns (bool)\n  {\n    return shopAddressToShop[shopAddress].position != bytes12(0);\n  }\n\n  // ------------------------------------------------\n  //\n  // Functions Getters Private\n  //\n  // ------------------------------------------------\n\n  function toBytes1(bytes _bytes, uint _start)\n    private\n    pure\n    returns (bytes1) {\n      require(_bytes.length >= (_start + 1), \" not long enough\");\n      bytes1 tempBytes1;\n\n      assembly {\n          tempBytes1 := mload(add(add(_bytes, 0x20), _start))\n      }\n\n      return tempBytes1;\n  }\n  function toBytes2(bytes _bytes, uint _start)\n    private\n    pure\n    returns (bytes2) {\n      require(_bytes.length >= (_start + 2), \" not long enough\");\n      bytes2 tempBytes2;\n\n      assembly {\n          tempBytes2 := mload(add(add(_bytes, 0x20), _start))\n      }\n\n      return tempBytes2;\n  }\n  function toBytes4(bytes _bytes, uint _start)\n    private\n    pure\n    returns (bytes4) {\n      require(_bytes.length >= (_start + 4), \" not long enough\");\n      bytes4 tempBytes4;\n\n      assembly {\n          tempBytes4 := mload(add(add(_bytes, 0x20), _start))\n      }\n\n      return tempBytes4;\n  }\n  function toBytes7(bytes _bytes, uint _start)\n    private\n    pure\n    returns (bytes7) {\n      require(_bytes.length >= (_start + 7), \" not long enough\");\n      bytes7 tempBytes7;\n\n      assembly {\n          tempBytes7 := mload(add(add(_bytes, 0x20), _start))\n      }\n\n      return tempBytes7;\n  }\n  function toBytes12(bytes _bytes, uint _start)\n    private\n    pure\n    returns (bytes12) {\n      require(_bytes.length >= (_start + 12), \" not long enough\");\n      bytes12 tempBytes12;\n\n      assembly {\n          tempBytes12 := mload(add(add(_bytes, 0x20), _start))\n      }\n\n      return tempBytes12;\n  }\n  function toBytes16(bytes _bytes, uint _start)\n    private\n    pure\n    returns (bytes16) {\n      require(_bytes.length >= (_start + 16), \" not long enough\");\n      bytes16 tempBytes16;\n\n      assembly {\n          tempBytes16 := mload(add(add(_bytes, 0x20), _start))\n      }\n\n      return tempBytes16;\n  }\n  function toBytes32(bytes _bytes, uint _start)\n    private\n    pure\n    returns (bytes32) {\n      require(_bytes.length >= (_start + 32), \" not long enough\");\n      bytes32 tempBytes32;\n\n      assembly {\n          tempBytes32 := mload(add(add(_bytes, 0x20), _start))\n      }\n\n      return tempBytes32;\n  }\n\n  // ------------------------------------------------\n  //\n  // Functions Setters Public\n  //\n  // ------------------------------------------------\n\n  function setCountryLicensePrice(bytes2 _countryCode, uint _priceDTH)\n    external\n  {\n    require(control.isCEO(msg.sender), \"can only be called by CEO\");\n    countryLicensePrice[_countryCode] = _priceDTH;\n  }\n\n  function tokenFallback(address _from, uint _value, bytes _data)\n    public\n  {\n    require(msg.sender == address(dth), \"can only be called by dth contract\");\n\n    require(control.paused() == false, \"contract is paused\");\n\n    require(_data.length == 95, \"addShop expects 95 bytes as data\");\n\n    address sender = _from;\n    uint dthAmount = _value;\n\n    bytes1 fn = toBytes1(_data, 0);\n    require(fn == bytes1(0x30), \"incorrect first byte in data, expected 0x30\");\n\n    bytes2 country = toBytes2(_data, 1);\n    bytes12 position = toBytes12(_data, 3);\n    bytes16 category = toBytes16(_data, 15);\n    bytes16 name = toBytes16(_data, 31);\n    bytes32 description = toBytes32(_data, 47);\n    bytes16 opening = toBytes16(_data, 79);\n\n    require(geo.countryIsEnabled(country), \"country is disabled\");\n    require(users.getUserTier(sender) > 0, \"user not certified\");\n    require(shopAddressToShop[sender].position == bytes12(0), \"caller already has shop\");\n    require(positionToShopAddress[position] == address(0), \"shop already exists at position\");\n    require(geo.validGeohashChars12(position), \"invalid geohash characters in position\");\n    require(geo.zoneInsideCountry(country, bytes4(position)), \"zone is not inside country\");\n\n    require(_value >= countryLicensePrice[country], \"send dth is less than shop license price\");\n\n    // create new entry in storage\n    Shop storage shop = shopAddressToShop[sender];\n    shop.position = position; // a 12 character geohash\n    shop.category = category;\n    shop.name = name;\n    shop.description = description;\n    shop.opening = opening;\n    shop.staked = dthAmount;\n    shop.hasDispute = false;\n    shop.disputeID = 0; // dispute could have id 0..\n\n    // so we can get a shop based on its position\n    positionToShopAddress[position] = sender;\n\n    // a zone is a 7 character geohash, we keep track of all shops in a given zone\n    zoneToShopAddresses[bytes7(position)].push(sender);\n  }\n\n  function deleteShop(address shopAddress)\n    private\n  {\n    bytes12 position = shopAddressToShop[shopAddress].position;\n\n    delete shopAddressToShop[shopAddress];\n\n    positionToShopAddress[position] = address(0);\n\n    // it's safe to do a loop, the number of geohash12 in any geohash7 (33.554.432) is less than the max uint value\n    // however we would like to NOT loop,\n    // TODO: get rid of the loop by tracking the index of each shop address\n    address[] storage zoneShopAddresses = zoneToShopAddresses[bytes7(position)];\n    for (uint i = 0; i < zoneShopAddresses.length; i += 1) {\n      address zoneShopAddress = zoneShopAddresses[i];\n      if (zoneShopAddress == shopAddress) {\n        address lastShopAddress = zoneShopAddresses[zoneShopAddresses.length - 1];\n        zoneShopAddresses[i] = lastShopAddress;\n        zoneShopAddresses.length--;\n        break; // done\n      }\n    }\n  }\n\n  function removeShop()\n    external\n  {\n    require(control.paused() == false, \"contract is paused\");\n    require(users.getUserTier(msg.sender) > 0, \"user not certified\");\n    // if country is disabled, user can still remove his shop!\n\n    require(shopAddressToShop[msg.sender].position != bytes12(0), \"caller does not own shop\");\n    require(shopAddressToShop[msg.sender].hasDispute == false, \"cannot remove shop while in dispute\");\n\n    uint shopStake = shopAddressToShop[msg.sender].staked;\n\n    deleteShop(msg.sender);\n\n    dth.transfer(msg.sender, shopStake);\n  }\n\n  //\n  //\n  //\n  //\n  // Kleros Dispute Arbitration\n  //\n  //\n  //\n  //\n\n  // so we can add new types of dispute in the future\n  function addDisputeType(string _disputeTypeLink)\n    external\n  {\n    require(control.isCEO(msg.sender), \"can only be called by CEO\");\n    require(bytes(_disputeTypeLink).length > 0, \"dispute type link is empty\");\n\n    uint metaEvidenceId = disputeTypes.push(_disputeTypeLink) - 1;\n\n    emit MetaEvidence(metaEvidenceId, _disputeTypeLink);\n  }\n\n  function disputeExists(uint _disputeID)\n    external\n    view\n    returns (bool)\n  {\n    return disputeIdToDispute[_disputeID].shop != address(0);\n  }\n\n  function getDisputeCreateCost()\n    public\n    view\n    returns (uint)\n  {\n    return arbitrator.arbitrationCost(arbitratorExtraData) * 2;\n  }\n\n  function getDisputeAppealCost(uint _disputeID)\n    public\n    view\n    returns (uint)\n  {\n    uint a = arbitrator.appealCost(_disputeID, arbitratorExtraData);\n\n    return a;\n  }\n\n  function getDisputeStatus(uint _disputeID)\n    private\n    returns (Arbitrator.DisputeStatus disputeStatus)\n  {\n    ShopDispute storage dispute = disputeIdToDispute[_disputeID];\n\n    if (dispute.status == Arbitrator.DisputeStatus.Solved) {\n      // rule() in this contract was called, it set status to Solved and set the final Ruling\n      disputeStatus = dispute.status;\n    } else {\n      // dispute is not yet finalized, get current values from arbitrator contract\n      disputeStatus = arbitrator.disputeStatus(_disputeID); // returns Arbitrator.DisputeStatus\n    }\n  }\n\n  function getDisputeRuling(uint _disputeID)\n    private\n    returns (RulingOptions disputeRuling)\n  {\n    ShopDispute storage dispute = disputeIdToDispute[_disputeID];\n\n    if (dispute.status == Arbitrator.DisputeStatus.Solved) {\n      // rule() in this contract was called, it set status to Solved and set the final Ruling\n      disputeRuling = dispute.ruling;\n    } else {\n      // dispute is not yet finalized, get current values from arbitrator contract\n      disputeRuling = RulingOptions(arbitrator.currentRuling(_disputeID));\n    }\n  }\n\n  function getDispute(uint _disputeID)\n    public\n    view\n    returns (address, address, uint, uint, uint)\n  {\n    ShopDispute memory dispute = disputeIdToDispute[_disputeID];\n\n    return (\n      dispute.shop,\n      dispute.challenger,\n      dispute.disputeType,\n\n      // from arbitrator contract or this contract if finalized\n      uint(getDisputeRuling(_disputeID)),\n      uint(getDisputeStatus(_disputeID))\n    );\n  }\n\n  // called by somebody who wants to start a dispute with a shop\n  function createDispute(address _shopAddress, uint _metaEvidenceId, string _evidenceLink)\n    public\n    payable\n  {\n    require(control.paused() == false, \"contract is paused\");\n    require(users.getUserTier(msg.sender) > 0, \"user not certified\");\n\n    require(_metaEvidenceId < disputeTypes.length, \"dispute type does not exist\");\n    require(bytes(_evidenceLink).length > 0, \"evidence link is empty\");\n\n    require(_shopAddress != address(0), \"shop does not exist\");\n    require(msg.sender != _shopAddress, \"shop owner cannot start dispute on own shop\");\n    require(shopAddressToShop[_shopAddress].hasDispute == false, \"shop already has a dispute\");\n\n    uint arbitrationCost = getDisputeCreateCost();\n    require(msg.value >= arbitrationCost, \"sent eth is lower than arbitration cost\");\n\n    uint disputeID = arbitrator.createDispute.value(arbitrationCost)(AMOUNT_OF_CHOICES, arbitratorExtraData);\n\n    // create new Dispute\n    ShopDispute storage dispute = disputeIdToDispute[disputeID];\n    dispute.challenger = msg.sender;\n    dispute.shop = _shopAddress;\n    dispute.disputeType = _metaEvidenceId;\n    dispute.ruling = RulingOptions.NoRuling;\n    dispute.status = Arbitrator.DisputeStatus.Waiting;\n\n    Shop storage shop = shopAddressToShop[_shopAddress];\n    shop.hasDispute = true; // disputeID could theoretically be zero, so we need this to know if a dispute exists\n    shop.disputeID = disputeID;\n\n    emit Dispute(arbitrator, disputeID, _metaEvidenceId);\n    emit Evidence(arbitrator, disputeID, msg.sender, _evidenceLink);\n\n    uint excessEth = arbitrationCost.sub(msg.value);\n    if (excessEth > 0) msg.sender.transfer(excessEth);\n  }\n\n\n  function appealDispute(uint _disputeID, string _evidenceLink)\n    external\n    payable\n  {\n    require(control.paused() == false, \"contract is paused\");\n    require(users.getUserTier(msg.sender) > 0, \"user not certified\");\n\n    require(bytes(_evidenceLink).length > 0, \"evidence link is empty\");\n\n    ShopDispute storage dispute = disputeIdToDispute[_disputeID];\n    require(dispute.shop != address(0), \"dispute does not exist\");\n    require(getDisputeStatus(_disputeID) == Arbitrator.DisputeStatus.Appealable, \"dispute is not appealable\");\n\n    RulingOptions currentRuling = getDisputeRuling(_disputeID);\n    if (currentRuling == RulingOptions.ShopWins) {\n      require(msg.sender == dispute.challenger, \"shop ruled to win, only challenger can appeal\");\n    } else if (currentRuling == RulingOptions.ChallengerWins) {\n      require(msg.sender == dispute.shop, \"challenger ruled to win, only shop can appeal\");\n    } else {\n      require(msg.sender == dispute.challenger, \"no ruling given, only challenger can appeal\");\n    }\n\n    uint appealCost = arbitrator.appealCost(_disputeID, arbitratorExtraData);\n    require(msg.value >= appealCost, \"sent eth is lower than appeal cost\");\n\n    arbitrator.appeal.value(appealCost)(_disputeID, arbitratorExtraData);\n\n    emit Evidence(arbitrator, _disputeID, msg.sender, _evidenceLink);\n\n    uint excessEth = appealCost.sub(msg.value);\n    if (excessEth > 0) msg.sender.transfer(excessEth);\n  }\n\n  function deleteDispute(uint _disputeID)\n    private\n  {\n    delete disputeIdToDispute[_disputeID];\n  }\n\n  // called by rule() which is called by Kleros Arbitrator contract\n  function executeRuling(uint _disputeID, uint _ruling)\n    private\n  {\n    RulingOptions finalRuling = RulingOptions(_ruling);\n\n    ShopDispute storage dispute = disputeIdToDispute[_disputeID];\n    Shop storage shop = shopAddressToShop[dispute.shop];\n\n    if (finalRuling == RulingOptions.ShopWins) {\n      shop.hasDispute = false;\n      shop.disputeID = 0;\n\n      deleteDispute(_disputeID);\n    } else if (finalRuling == RulingOptions.ChallengerWins) {\n      uint shopStake = shop.staked;\n      address challenger = dispute.challenger;\n\n      deleteShop(dispute.shop);\n      deleteDispute(_disputeID);\n\n      dth.transfer(challenger, shopStake);\n    } else if (finalRuling == RulingOptions.NoRuling) {\n      shop.hasDispute = false;\n      shop.disputeID = 0;\n\n      deleteDispute(_disputeID);\n    }\n  }\n  function rule(uint _disputeID, uint _ruling)\n    public\n    onlyArbitrator\n  {\n    emit Ruling(Arbitrator(msg.sender), _disputeID, _ruling);\n\n    executeRuling(_disputeID,_ruling);\n  }\n}\n",
  "sourcePath": "/Users/trip/Projects/detherContracts/contracts/map/Shops.sol",
  "compiler": {
    "name": "solc",
    "version": "0.4.24+commit.e67f0147.Emscripten.clang"
  },
  "schemaVersion": "2.0.1",
  "updatedAt": "2019-01-26T10:13:49.862Z"
}