{
  "contractName": "TokenRegistry",
  "abi": [
    {
      "constant": true,
      "inputs": [],
      "name": "dth",
      "outputs": [
        {
          "name": "",
          "type": "address"
        }
      ],
      "payable": false,
      "stateMutability": "view",
      "type": "function"
    },
    {
      "constant": true,
      "inputs": [],
      "name": "stakeRequired",
      "outputs": [
        {
          "name": "",
          "type": "uint256"
        }
      ],
      "payable": false,
      "stateMutability": "view",
      "type": "function"
    },
    {
      "constant": true,
      "inputs": [
        {
          "name": "",
          "type": "address"
        }
      ],
      "name": "tokenOwner",
      "outputs": [
        {
          "name": "stakeAmount",
          "type": "uint256"
        },
        {
          "name": "walletAddress",
          "type": "address"
        },
        {
          "name": "index",
          "type": "uint256"
        },
        {
          "name": "indexOwnership",
          "type": "uint256"
        }
      ],
      "payable": false,
      "stateMutability": "view",
      "type": "function"
    },
    {
      "constant": false,
      "inputs": [],
      "name": "renounceOwnership",
      "outputs": [],
      "payable": false,
      "stateMutability": "nonpayable",
      "type": "function"
    },
    {
      "constant": true,
      "inputs": [],
      "name": "owner",
      "outputs": [
        {
          "name": "",
          "type": "address"
        }
      ],
      "payable": false,
      "stateMutability": "view",
      "type": "function"
    },
    {
      "constant": true,
      "inputs": [],
      "name": "isOwner",
      "outputs": [
        {
          "name": "",
          "type": "bool"
        }
      ],
      "payable": false,
      "stateMutability": "view",
      "type": "function"
    },
    {
      "constant": true,
      "inputs": [
        {
          "name": "",
          "type": "uint256"
        }
      ],
      "name": "tokenList",
      "outputs": [
        {
          "name": "tokenAddress",
          "type": "address"
        },
        {
          "name": "urlInfo",
          "type": "string"
        }
      ],
      "payable": false,
      "stateMutability": "view",
      "type": "function"
    },
    {
      "constant": false,
      "inputs": [
        {
          "name": "newOwner",
          "type": "address"
        }
      ],
      "name": "transferOwnership",
      "outputs": [],
      "payable": false,
      "stateMutability": "nonpayable",
      "type": "function"
    },
    {
      "inputs": [
        {
          "name": "",
          "type": "address"
        },
        {
          "name": "",
          "type": "uint256"
        }
      ],
      "payable": false,
      "stateMutability": "view",
      "type": "function",
      "constant": true,
      "name": "ownerships",
      "outputs": [
        {
          "name": "",
          "type": "address"
        }
      ]
    },
    {
      "anonymous": false,
      "inputs": [
        {
          "indexed": true,
          "name": "_dth",
          "type": "address"
        },
        {
          "indexed": true,
          "name": "_stakeRequired",
          "type": "uint256"
        }
      ],
      "name": "OwnershipTransferred",
      "type": "constructor",
      "payable": false,
      "stateMutability": "nonpayable"
    },
    {
      "constant": false,
      "inputs": [
        {
          "name": "previousOwner",
          "type": "address",
          "indexed": true
        },
        {
          "indexed": true,
          "name": "newOwner",
          "type": "address"
        }
      ],
      "name": "OwnershipTransferred",
      "outputs": [],
      "payable": false,
      "stateMutability": "nonpayable",
      "type": "event",
      "anonymous": false
    },
    {
      "constant": false,
      "inputs": [
        {
          "name": "newStake",
          "type": "uint256"
        }
      ],
      "name": "updateStakeRequired",
      "outputs": [
        {
          "components": [
            {
              "name": "tokenAddress",
              "type": "address"
            },
            {
              "name": "urlInfo",
              "type": "string"
            }
          ],
          "name": "",
          "type": "tuple[]"
        }
      ],
      "payable": false,
      "stateMutability": "nonpayable",
      "type": "function"
    },
    {
      "constant": true,
      "inputs": [],
      "name": "getTokenList",
      "outputs": [
        {
          "components": [
            {
              "name": "tokenAddress",
              "type": "address"
            },
            {
              "name": "urlInfo",
              "type": "string"
            },
            {
              "name": "index",
              "type": "uint256"
            }
          ],
          "name": "",
          "type": "tuple[]"
        }
      ],
      "payable": false,
      "stateMutability": "view",
      "type": "function"
    },
    {
      "constant": true,
      "inputs": [
        {
          "name": "tokenAddress",
          "type": "address"
        },
        {
          "name": "_value",
          "type": "uint256"
        },
        {
          "name": "_data",
          "type": "bytes"
        }
      ],
      "name": "getTokenOwner",
      "outputs": [
        {
          "components": [
            {
              "name": "stakeAmount",
              "type": "uint256"
            },
            {
              "name": "walletAddress",
              "type": "address"
            },
            {
              "name": "index",
              "type": "uint256"
            },
            {
              "name": "indexOwnership",
              "type": "uint256"
            }
          ],
          "name": "",
          "type": "tuple"
        }
      ],
      "payable": false,
      "stateMutability": "view",
      "type": "function"
    },
    {
      "constant": true,
      "inputs": [
        {
          "name": "owner",
          "type": "address"
        },
        {
          "name": "_value",
          "type": "uint256"
        },
        {
          "name": "_data",
          "type": "bytes"
        }
      ],
      "name": "getOwnerships",
      "outputs": [
        {
          "name": "",
          "type": "address[]"
        }
      ],
      "payable": false,
      "stateMutability": "view",
      "type": "function"
    },
    {
      "constant": false,
      "inputs": [
        {
          "name": "_from",
          "type": "address"
        },
        {
          "name": "_value",
          "type": "uint256"
        },
        {
          "name": "_data",
          "type": "bytes"
        }
      ],
      "name": "tokenFallback",
      "outputs": [],
      "payable": false,
      "stateMutability": "nonpayable",
      "type": "function"
    },
    {
      "constant": false,
      "inputs": [
        {
          "name": "tokenAddress",
          "type": "address"
        }
      ],
      "name": "delist",
      "outputs": [],
      "payable": false,
      "stateMutability": "nonpayable",
      "type": "function"
    }
  ],
  "bytecode": "0x60806040523480156200001157600080fd5b50604051604080620025eb83398101806040526200003391908101906200016d565b336000806101000a81548173ffffffffffffffffffffffffffffffffffffffff021916908373ffffffffffffffffffffffffffffffffffffffff1602179055506000809054906101000a900473ffffffffffffffffffffffffffffffffffffffff1673ffffffffffffffffffffffffffffffffffffffff16600073ffffffffffffffffffffffffffffffffffffffff167f8be0079c531659141344cd1fd0a4f28419497f9722a3daafe3b4186f6b6457e060405160405180910390a38060018190555081600260006101000a81548173ffffffffffffffffffffffffffffffffffffffff021916908373ffffffffffffffffffffffffffffffffffffffff160217905550505062000220565b6000815190506200015081620001ec565b92915050565b600081519050620001678162000206565b92915050565b600080604083850312156200018157600080fd5b600062000191858286016200013f565b9250506020620001a48582860162000156565b9150509250929050565b6000620001bb82620001c2565b9050919050565b600073ffffffffffffffffffffffffffffffffffffffff82169050919050565b6000819050919050565b620001f781620001ae565b81146200020357600080fd5b50565b6200021181620001e2565b81146200021d57600080fd5b50565b6123bb80620002306000396000f3fe608060405234801561001057600080fd5b5060043610610112576000357c0100000000000000000000000000000000000000000000000000000000900480638da5cb5b116100b4578063c0ee0b8a11610083578063c0ee0b8a14610283578063dc17c9ca1461029f578063f2fde38b146102cf578063fdf896da146102eb57610112565b80638da5cb5b146101fa5780638f32d59b146102185780639ead722214610236578063aca327961461026757610112565b80633ab69b62116100f05780633ab69b62146101715780636586811b146101a45780636b2cc75c146101d4578063715018a6146101f057610112565b806301e57a37146101175780630501010514610135578063273cbaa014610153575b600080fd5b61011f61031b565b60405161012c9190611fff565b60405180910390f35b61013d610341565b60405161014a91906120f5565b60405180910390f35b61015b610347565b6040516101689190611fc2565b60405180910390f35b61018b600480360361018691908101906119b0565b61049e565b60405161019b9493929190612110565b60405180910390f35b6101be60048036036101b991908101906119b0565b6104ee565b6040516101cb9190611fa0565b60405180910390f35b6101ee60048036036101e991908101906119b0565b6105bb565b005b6101f8610c78565b005b610202610d7e565b60405161020f9190611f2c565b60405180910390f35b610220610da7565b60405161022d9190611fe4565b60405180910390f35b610250600480360361024b9190810190611aa5565b610dfe565b60405161025e929190611f70565b60405180910390f35b610281600480360361027c9190810190611aa5565b610ee7565b005b61029d60048036036102989190810190611a15565b610f38565b005b6102b960048036036102b491908101906119b0565b61135b565b6040516102c691906120da565b60405180910390f35b6102e960048036036102e491908101906119b0565b611428565b005b610305600480360361030091908101906119d9565b61147b565b6040516103129190611f2c565b60405180910390f35b600260009054906101000a900473ffffffffffffffffffffffffffffffffffffffff1681565b60015481565b60606003805480602002602001604051908101604052809291908181526020016000905b8282101561049557838290600052602060002090600202016040518060400160405290816000820160009054906101000a900473ffffffffffffffffffffffffffffffffffffffff1673ffffffffffffffffffffffffffffffffffffffff1673ffffffffffffffffffffffffffffffffffffffff168152602001600182018054600181600116156101000203166002900480601f01602080910402602001604051908101604052809291908181526020018280546001816001161561010002031660029004801561047d5780601f106104525761010080835404028352916020019161047d565b820191906000526020600020905b81548152906001019060200180831161046057829003601f168201915b5050505050815250508152602001906001019061036b565b50505050905090565b60046020528060005260406000206000915090508060000154908060010160009054906101000a900473ffffffffffffffffffffffffffffffffffffffff16908060020154908060030154905084565b6060600560008373ffffffffffffffffffffffffffffffffffffffff1673ffffffffffffffffffffffffffffffffffffffff1681526020019081526020016000208054806020026020016040519081016040528092919081815260200182805480156105af57602002820191906000526020600020905b8160009054906101000a900473ffffffffffffffffffffffffffffffffffffffff1673ffffffffffffffffffffffffffffffffffffffff1681526020019060010190808311610565575b50505050509050919050565b600460008273ffffffffffffffffffffffffffffffffffffffff1673ffffffffffffffffffffffffffffffffffffffff16815260200190815260200160002060010160009054906101000a900473ffffffffffffffffffffffffffffffffffffffff1673ffffffffffffffffffffffffffffffffffffffff163373ffffffffffffffffffffffffffffffffffffffff161461068b576040517f08c379a00000000000000000000000000000000000000000000000000000000081526004016106829061201a565b60405180910390fd5b6000600460008373ffffffffffffffffffffffffffffffffffffffff1673ffffffffffffffffffffffffffffffffffffffff1681526020019081526020016000206002015490506000600460008473ffffffffffffffffffffffffffffffffffffffff1673ffffffffffffffffffffffffffffffffffffffff1681526020019081526020016000206003015490506000600460008573ffffffffffffffffffffffffffffffffffffffff1673ffffffffffffffffffffffffffffffffffffffff168152602001908152602001600020600001549050600560003373ffffffffffffffffffffffffffffffffffffffff1673ffffffffffffffffffffffffffffffffffffffff1681526020019081526020016000206001600560003373ffffffffffffffffffffffffffffffffffffffff1673ffffffffffffffffffffffffffffffffffffffff1681526020019081526020016000208054905003815481106107ef57fe5b9060005260206000200160009054906101000a900473ffffffffffffffffffffffffffffffffffffffff16600560003373ffffffffffffffffffffffffffffffffffffffff1673ffffffffffffffffffffffffffffffffffffffff168152602001908152602001600020838154811061086457fe5b9060005260206000200160006101000a81548173ffffffffffffffffffffffffffffffffffffffff021916908373ffffffffffffffffffffffffffffffffffffffff1602179055506003600160038054905003815481106108c157fe5b9060005260206000209060020201600384815481106108dc57fe5b90600052602060002090600202016000820160009054906101000a900473ffffffffffffffffffffffffffffffffffffffff168160000160006101000a81548173ffffffffffffffffffffffffffffffffffffffff021916908373ffffffffffffffffffffffffffffffffffffffff160217905550600182018160010190805460018160011615610100020316600290046109789291906116b7565b5090505082600460006003868154811061098e57fe5b906000526020600020906002020160000160009054906101000a900473ffffffffffffffffffffffffffffffffffffffff1673ffffffffffffffffffffffffffffffffffffffff1673ffffffffffffffffffffffffffffffffffffffff168152602001908152602001600020600201819055508160046000600560003373ffffffffffffffffffffffffffffffffffffffff1673ffffffffffffffffffffffffffffffffffffffff1681526020019081526020016000208581548110610a5057fe5b9060005260206000200160009054906101000a900473ffffffffffffffffffffffffffffffffffffffff1673ffffffffffffffffffffffffffffffffffffffff1673ffffffffffffffffffffffffffffffffffffffff168152602001908152602001600020600301819055506003805480919060019003610ad1919061173e565b50600560003373ffffffffffffffffffffffffffffffffffffffff1673ffffffffffffffffffffffffffffffffffffffff168152602001908152602001600020805480919060019003610b249190611770565b50600460008573ffffffffffffffffffffffffffffffffffffffff1673ffffffffffffffffffffffffffffffffffffffff1681526020019081526020016000206000808201600090556001820160006101000a81549073ffffffffffffffffffffffffffffffffffffffff0219169055600282016000905560038201600090555050600260009054906101000a900473ffffffffffffffffffffffffffffffffffffffff1673ffffffffffffffffffffffffffffffffffffffff1663a9059cbb33836040518363ffffffff167c0100000000000000000000000000000000000000000000000000000000028152600401610c1f929190611f47565b602060405180830381600087803b158015610c3957600080fd5b505af1158015610c4d573d6000803e3d6000fd5b505050506040513d601f19601f82011682018060405250610c719190810190611a7c565b5050505050565b610c80610da7565b610cbf576040517f08c379a0000000000000000000000000000000000000000000000000000000008152600401610cb69061209a565b60405180910390fd5b600073ffffffffffffffffffffffffffffffffffffffff166000809054906101000a900473ffffffffffffffffffffffffffffffffffffffff1673ffffffffffffffffffffffffffffffffffffffff167f8be0079c531659141344cd1fd0a4f28419497f9722a3daafe3b4186f6b6457e060405160405180910390a360008060006101000a81548173ffffffffffffffffffffffffffffffffffffffff021916908373ffffffffffffffffffffffffffffffffffffffff160217905550565b60008060009054906101000a900473ffffffffffffffffffffffffffffffffffffffff16905090565b60008060009054906101000a900473ffffffffffffffffffffffffffffffffffffffff1673ffffffffffffffffffffffffffffffffffffffff163373ffffffffffffffffffffffffffffffffffffffff1614905090565b60038181548110610e0b57fe5b90600052602060002090600202016000915090508060000160009054906101000a900473ffffffffffffffffffffffffffffffffffffffff1690806001018054600181600116156101000203166002900480601f016020809104026020016040519081016040528092919081815260200182805460018160011615610100020316600290048015610edd5780601f10610eb257610100808354040283529160200191610edd565b820191906000526020600020905b815481529060010190602001808311610ec057829003601f168201915b5050505050905082565b610eef610da7565b610f2e576040517f08c379a0000000000000000000000000000000000000000000000000000000008152600401610f259061209a565b60405180910390fd5b8060018190555050565b600260009054906101000a900473ffffffffffffffffffffffffffffffffffffffff1673ffffffffffffffffffffffffffffffffffffffff163373ffffffffffffffffffffffffffffffffffffffff1614610fc8576040517f08c379a0000000000000000000000000000000000000000000000000000000008152600401610fbf906120ba565b60405180910390fd5b60015482101561100d576040517f08c379a00000000000000000000000000000000000000000000000000000000081526004016110049061207a565b60405180910390fd5b600061101a8260006114c6565b9050600073ffffffffffffffffffffffffffffffffffffffff16600460008373ffffffffffffffffffffffffffffffffffffffff1673ffffffffffffffffffffffffffffffffffffffff16815260200190815260200160002060010160009054906101000a900473ffffffffffffffffffffffffffffffffffffffff1673ffffffffffffffffffffffffffffffffffffffff16146110ed576040517f08c379a00000000000000000000000000000000000000000000000000000000081526004016110e49061205a565b60405180910390fd5b60606110fe836014808651036114fd565b905060608190506000600360405180604001604052808673ffffffffffffffffffffffffffffffffffffffff168152602001848152509080600181540180825580915050906001820390600052602060002090600202016000909192909190915060008201518160000160006101000a81548173ffffffffffffffffffffffffffffffffffffffff021916908373ffffffffffffffffffffffffffffffffffffffff16021790555060208201518160010190805190602001906111c292919061179c565b50505090506000600560008973ffffffffffffffffffffffffffffffffffffffff1673ffffffffffffffffffffffffffffffffffffffff1681526020019081526020016000208590806001815401808255809150509060018203906000526020600020016000909192909190916101000a81548173ffffffffffffffffffffffffffffffffffffffff021916908373ffffffffffffffffffffffffffffffffffffffff160217905550905060405180608001604052808881526020018973ffffffffffffffffffffffffffffffffffffffff16815260200160018403815260200160018303815250600460008773ffffffffffffffffffffffffffffffffffffffff1673ffffffffffffffffffffffffffffffffffffffff1681526020019081526020016000206000820151816000015560208201518160010160006101000a81548173ffffffffffffffffffffffffffffffffffffffff021916908373ffffffffffffffffffffffffffffffffffffffff16021790555060408201518160020155606082015181600301559050505050505050505050565b61136361181c565b600460008373ffffffffffffffffffffffffffffffffffffffff1673ffffffffffffffffffffffffffffffffffffffff168152602001908152602001600020604051806080016040529081600082015481526020016001820160009054906101000a900473ffffffffffffffffffffffffffffffffffffffff1673ffffffffffffffffffffffffffffffffffffffff1673ffffffffffffffffffffffffffffffffffffffff168152602001600282015481526020016003820154815250509050919050565b611430610da7565b61146f576040517f08c379a00000000000000000000000000000000000000000000000000000000081526004016114669061209a565b60405180910390fd5b61147881611589565b50565b6005602052816000526040600020818154811061149457fe5b906000526020600020016000915091509054906101000a900473ffffffffffffffffffffffffffffffffffffffff1681565b600060148201835110156114d957600080fd5b60006c01000000000000000000000000836020860101510490508091505092915050565b60608183018451101561150f57600080fd5b606082156000811461152c5760405191506020820160405261157d565b6040519150601f8416801560200281840101858101878315602002848b0101015b8183101561156a578051835260208301925060208101905061154d565b50868552601f19601f8301166040525050505b50809150509392505050565b600073ffffffffffffffffffffffffffffffffffffffff168173ffffffffffffffffffffffffffffffffffffffff1614156115f9576040517f08c379a00000000000000000000000000000000000000000000000000000000081526004016115f09061203a565b60405180910390fd5b8073ffffffffffffffffffffffffffffffffffffffff166000809054906101000a900473ffffffffffffffffffffffffffffffffffffffff1673ffffffffffffffffffffffffffffffffffffffff167f8be0079c531659141344cd1fd0a4f28419497f9722a3daafe3b4186f6b6457e060405160405180910390a3806000806101000a81548173ffffffffffffffffffffffffffffffffffffffff021916908373ffffffffffffffffffffffffffffffffffffffff16021790555050565b828054600181600116156101000203166002900490600052602060002090601f016020900481019282601f106116f0578054855561172d565b8280016001018555821561172d57600052602060002091601f016020900482015b8281111561172c578254825591600101919060010190611711565b5b50905061173a919061185a565b5090565b81548183558181111561176b5760020281600202836000526020600020918201910161176a919061187f565b5b505050565b81548183558181111561179757818360005260206000209182019101611796919061185a565b5b505050565b828054600181600116156101000203166002900490600052602060002090601f016020900481019282601f106117dd57805160ff191683800117855561180b565b8280016001018555821561180b579182015b8281111561180a5782518255916020019190600101906117ef565b5b509050611818919061185a565b5090565b604051806080016040528060008152602001600073ffffffffffffffffffffffffffffffffffffffff16815260200160008152602001600081525090565b61187c91905b80821115611878576000816000905550600101611860565b5090565b90565b6118d291905b808211156118ce57600080820160006101000a81549073ffffffffffffffffffffffffffffffffffffffff02191690556001820160006118c591906118d5565b50600201611885565b5090565b90565b50805460018160011615610100020316600290046000825580601f106118fb575061191a565b601f016020900490600052602060002090810190611919919061185a565b5b50565b60008135905061192c8161233c565b92915050565b60008151905061194181612353565b92915050565b600082601f83011261195857600080fd5b813561196b61196682612182565b612155565b9150808252602083016020830185838301111561198757600080fd5b6119928382846122e9565b50505092915050565b6000813590506119aa8161236a565b92915050565b6000602082840312156119c257600080fd5b60006119d08482850161191d565b91505092915050565b600080604083850312156119ec57600080fd5b60006119fa8582860161191d565b9250506020611a0b8582860161199b565b9150509250929050565b600080600060608486031215611a2a57600080fd5b6000611a388682870161191d565b9350506020611a498682870161199b565b925050604084013567ffffffffffffffff811115611a6657600080fd5b611a7286828701611947565b9150509250925092565b600060208284031215611a8e57600080fd5b6000611a9c84828501611932565b91505092915050565b600060208284031215611ab757600080fd5b6000611ac58482850161199b565b91505092915050565b6000611ada8383611b09565b60208301905092915050565b6000611af28383611e7c565b905092915050565b611b038161228f565b82525050565b611b1281612247565b82525050565b611b2181612247565b82525050565b6000611b32826121c8565b611b3c8185612203565b9350611b47836121ae565b8060005b83811015611b78578151611b5f8882611ace565b9750611b6a836121e9565b925050600181019050611b4b565b5085935050505092915050565b6000611b90826121d3565b611b9a8185612214565b935083602082028501611bac856121bb565b8060005b85811015611be85784840389528151611bc98582611ae6565b9450611bd4836121f6565b925060208a01995050600181019050611bb0565b50829750879550505050505092915050565b611c0381612259565b82525050565b611c12816122a1565b82525050565b6000611c23826121de565b611c2d8185612225565b9350611c3d8185602086016122f8565b611c468161232b565b840191505092915050565b6000611c5c826121de565b611c668185612236565b9350611c768185602086016122f8565b611c7f8161232b565b840191505092915050565b6000611c97601d83612236565b91507f6f6e6c79206f776e657220636f756c642064656c69737420746f6b656e0000006000830152602082019050919050565b6000611cd7602683612236565b91507f4f776e61626c653a206e6577206f776e657220697320746865207a65726f206160008301527f64647265737300000000000000000000000000000000000000000000000000006020830152604082019050919050565b6000611d3d601c83612236565b91507f746f6b656e20697320616c7265616479206f6e20746865206c697374000000006000830152602082019050919050565b6000611d7d603383612236565b91507f746f6b656e2073656e642073686f756c64206265207375706572696f7220746f60008301527f20746865207374616b65207265717569726564000000000000000000000000006020830152604082019050919050565b6000611de3602083612236565b91507f4f776e61626c653a2063616c6c6572206973206e6f7420746865206f776e65726000830152602082019050919050565b6000611e23602383612236565b91507f746f6b656e2073686f756c6420636f6d652066726f6d2064746820636f6e747260008301527f61637400000000000000000000000000000000000000000000000000000000006020830152604082019050919050565b6000604083016000830151611e946000860182611b09565b5060208301518482036020860152611eac8282611c18565b9150508091505092915050565b608082016000820151611ecf6000850182611f0e565b506020820151611ee26020850182611b09565b506040820151611ef56040850182611f0e565b506060820151611f086060850182611f0e565b50505050565b611f1781612285565b82525050565b611f2681612285565b82525050565b6000602082019050611f416000830184611b18565b92915050565b6000604082019050611f5c6000830185611afa565b611f696020830184611f1d565b9392505050565b6000604082019050611f856000830185611b18565b8181036020830152611f978184611c51565b90509392505050565b60006020820190508181036000830152611fba8184611b27565b905092915050565b60006020820190508181036000830152611fdc8184611b85565b905092915050565b6000602082019050611ff96000830184611bfa565b92915050565b60006020820190506120146000830184611c09565b92915050565b6000602082019050818103600083015261203381611c8a565b9050919050565b6000602082019050818103600083015261205381611cca565b9050919050565b6000602082019050818103600083015261207381611d30565b9050919050565b6000602082019050818103600083015261209381611d70565b9050919050565b600060208201905081810360008301526120b381611dd6565b9050919050565b600060208201905081810360008301526120d381611e16565b9050919050565b60006080820190506120ef6000830184611eb9565b92915050565b600060208201905061210a6000830184611f1d565b92915050565b60006080820190506121256000830187611f1d565b6121326020830186611b18565b61213f6040830185611f1d565b61214c6060830184611f1d565b95945050505050565b6000604051905081810181811067ffffffffffffffff8211171561217857600080fd5b8060405250919050565b600067ffffffffffffffff82111561219957600080fd5b601f19601f8301169050602081019050919050565b6000602082019050919050565b6000602082019050919050565b600081519050919050565b600081519050919050565b600081519050919050565b6000602082019050919050565b6000602082019050919050565b600082825260208201905092915050565b600082825260208201905092915050565b600082825260208201905092915050565b600082825260208201905092915050565b600061225282612265565b9050919050565b60008115159050919050565b600073ffffffffffffffffffffffffffffffffffffffff82169050919050565b6000819050919050565b600061229a826122c5565b9050919050565b60006122ac826122b3565b9050919050565b60006122be82612265565b9050919050565b60006122d0826122d7565b9050919050565b60006122e282612265565b9050919050565b82818337600083830152505050565b60005b838110156123165780820151818401526020810190506122fb565b83811115612325576000848401525b50505050565b6000601f19601f8301169050919050565b61234581612247565b811461235057600080fd5b50565b61235c81612259565b811461236757600080fd5b50565b61237381612285565b811461237e57600080fd5b5056fea265627a7a723058200025df12dd349730b16d0fec3c8ffec305cd306be985836c6e49dcae81794ec86c6578706572696d656e74616cf50037",
  "source": "pragma solidity ^0.5.8;\npragma experimental ABIEncoderV2;\n\nimport 'openzeppelin-solidity/contracts/ownership/Ownable.sol';\nimport './DetherToken.sol';\nimport './bytesUtils.sol';\nimport './interfaces/IERC223ReceivingContract.sol';\n\ncontract TokenRegistry is Ownable, IERC223ReceivingContract, bytesUtils {\n\n  uint public stakeRequired; // staked amount needed to be listed\n  DetherToken public dth;\n\n\n  struct TokenOwner {\n    uint stakeAmount;\n    address walletAddress;\n    uint index;\n    uint indexOwnership;\n  }\n\n  struct TokenList {\n    address tokenAddress;\n    string urlInfo;\n  }\n\n  TokenList[] public tokenList;\n  mapping(address => TokenOwner) public tokenOwner;\n  mapping(address => address[]) public ownerships;\n\n  constructor(address _dth, uint _stakeRequired) public {\n    stakeRequired = _stakeRequired;\n    dth = DetherToken(_dth);\n  }\n\n  function updateStakeRequired(uint newStake) onlyOwner public {\n    stakeRequired = newStake;\n  }\n\n  function getTokenList()\n    public\n    view\n    returns ( TokenList[] memory)\n    {\n      return tokenList;\n    }\n  \n  function getTokenOwner(address tokenAddress)\n    public\n    view\n    returns (TokenOwner memory)\n    {\n      return tokenOwner[tokenAddress];\n    }\n\n  function getOwnerships(address owner) public view\n    returns (address[] memory)\n    {\n      return ownerships[owner];\n    }\n  // TO DO CHECK ERC20/ERC23\n  function tokenFallback(address _from, uint _value, bytes memory _data) public {     // gasUsed = 278291\n    // require than the token fallback is triggered from the dth token contract\n    require(msg.sender == address(dth),'token should come from dth contract');\n    require(_value >= stakeRequired,'token send should be superior to the stake required');\n    //TODO: require mapping non initialized with this value\n\n    address _tokenAddress = toAddress(_data, 0);\n    require(tokenOwner[_tokenAddress].walletAddress == address(0x0), 'token is already on the list');\n    bytes memory _urlInfo = slice(_data, 20, _data.length - 20);\n    string memory _url = string(_urlInfo);\n    uint _index = tokenList.push(TokenList({\n      tokenAddress: _tokenAddress,\n      urlInfo: _url\n    }));\n\n    // listing ownership\n    uint _indexOwnership = ownerships[_from].push(_tokenAddress);\n\n    tokenOwner[_tokenAddress] = TokenOwner({\n      stakeAmount: _value,\n      walletAddress: _from,\n      index: _index - 1,\n      indexOwnership: _indexOwnership - 1\n    });\n\n  }\n\n  function delist(address tokenAddress) public {\n    require(msg.sender == tokenOwner[tokenAddress].walletAddress, 'only owner could delist token');\n\n    uint indexToRemove = tokenOwner[tokenAddress].index;\n    uint indexToRemoveOwnership = tokenOwner[tokenAddress].indexOwnership;\n    uint stakeToGiveback = tokenOwner[tokenAddress].stakeAmount;\n\n    ownerships[msg.sender][indexToRemoveOwnership] = ownerships[msg.sender][ownerships[msg.sender].length - 1];  // remove from address ownership\n\n    // unlist\n    tokenList[indexToRemove] = tokenList[tokenList.length - 1];\n    tokenOwner[tokenList[indexToRemove].tokenAddress].index = indexToRemove;\n\n    tokenOwner[ownerships[msg.sender][indexToRemoveOwnership]].indexOwnership = indexToRemoveOwnership;   // remove from address ownership\n\n    tokenList.length--;\n    ownerships[msg.sender].length--;     // remove from address ownership\n\n\n\n\n    // refund token\n    delete tokenOwner[tokenAddress];\n    dth.transfer(msg.sender, stakeToGiveback);\n\n    // uint index_to_remove = tokensAndStake[id].index;\n    // uint stake_to_giveback = tokensAndStake[id].stakeAmount;\n\n    // tokensAndStake[id].tokenAuthorized = false;\n    // bytes32 id_to_move = keccak256(tokenList[tokenList.length - 1]);\n    // tokensAndStake[id_to_move].index = index_to_remove;\n    // tokenList[index_to_remove] = tokenList[tokenList.length - 1];\n    // tokenList.length--;\n    // dth.transfer(msg.sender, stake_to_giveback);\n}\n\n}",
  "sourcePath": "/Users/mehdi/code/dether/stakingInterface/solidity/contracts/TokenRegistry.sol",
  "compiler": {
    "name": "solc",
    "version": "0.5.8+commit.23d335f2.Emscripten.clang"
  },
  "schemaVersion": "3.0.9",
  "updatedAt": "2019-06-13T11:59:10.380Z",
  "devdoc": {
    "methods": {
      "isOwner()": {
        "details": "Returns true if the caller is the current owner."
      },
      "owner()": {
        "details": "Returns the address of the current owner."
      },
      "renounceOwnership()": {
        "details": "Leaves the contract without owner. It will not be possible to call `onlyOwner` functions anymore. Can only be called by the current owner.     * > Note: Renouncing ownership will leave the contract without an owner, thereby removing any functionality that is only available to the owner."
      },
      "transferOwnership(address)": {
        "details": "Transfers ownership of the contract to a new account (`newOwner`). Can only be called by the current owner."
      }
    }
  },
  "userdoc": {
    "methods": {}
  }
}