{
  "contractName": "Zone",
  "abi": [
    {
      "constant": true,
      "inputs": [],
      "name": "dth",
      "outputs": [
        {
          "name": "",
          "type": "address"
        }
      ],
      "payable": false,
      "stateMutability": "view",
      "type": "function"
    },
    {
      "constant": true,
      "inputs": [],
      "name": "geohash",
      "outputs": [
        {
          "name": "",
          "type": "bytes7"
        }
      ],
      "payable": false,
      "stateMutability": "view",
      "type": "function"
    },
    {
      "constant": true,
      "inputs": [],
      "name": "currentAuctionId",
      "outputs": [
        {
          "name": "",
          "type": "uint256"
        }
      ],
      "payable": false,
      "stateMutability": "view",
      "type": "function"
    },
    {
      "constant": true,
      "inputs": [
        {
          "name": "",
          "type": "uint256"
        },
        {
          "name": "",
          "type": "address"
        }
      ],
      "name": "auctionBids",
      "outputs": [
        {
          "name": "",
          "type": "uint256"
        }
      ],
      "payable": false,
      "stateMutability": "view",
      "type": "function"
    },
    {
      "constant": true,
      "inputs": [
        {
          "name": "",
          "type": "address"
        }
      ],
      "name": "withdrawableDth",
      "outputs": [
        {
          "name": "",
          "type": "uint256"
        }
      ],
      "payable": false,
      "stateMutability": "view",
      "type": "function"
    },
    {
      "constant": true,
      "inputs": [
        {
          "name": "",
          "type": "address"
        },
        {
          "name": "",
          "type": "uint256"
        }
      ],
      "name": "commentsFree",
      "outputs": [
        {
          "name": "",
          "type": "bytes32"
        }
      ],
      "payable": false,
      "stateMutability": "view",
      "type": "function"
    },
    {
      "constant": true,
      "inputs": [
        {
          "name": "",
          "type": "address"
        },
        {
          "name": "",
          "type": "uint256"
        }
      ],
      "name": "commentsCertified",
      "outputs": [
        {
          "name": "",
          "type": "bytes32"
        }
      ],
      "payable": false,
      "stateMutability": "view",
      "type": "function"
    },
    {
      "constant": true,
      "inputs": [],
      "name": "zoneFactory",
      "outputs": [
        {
          "name": "",
          "type": "address"
        }
      ],
      "payable": false,
      "stateMutability": "view",
      "type": "function"
    },
    {
      "constant": true,
      "inputs": [],
      "name": "country",
      "outputs": [
        {
          "name": "",
          "type": "bytes2"
        }
      ],
      "payable": false,
      "stateMutability": "view",
      "type": "function"
    },
    {
      "constant": true,
      "inputs": [],
      "name": "control",
      "outputs": [
        {
          "name": "",
          "type": "address"
        }
      ],
      "payable": false,
      "stateMutability": "view",
      "type": "function"
    },
    {
      "constant": true,
      "inputs": [],
      "name": "geo",
      "outputs": [
        {
          "name": "",
          "type": "address"
        }
      ],
      "payable": false,
      "stateMutability": "view",
      "type": "function"
    },
    {
      "constant": true,
      "inputs": [
        {
          "name": "",
          "type": "address"
        }
      ],
      "name": "withdrawableEth",
      "outputs": [
        {
          "name": "",
          "type": "uint256"
        }
      ],
      "payable": false,
      "stateMutability": "view",
      "type": "function"
    },
    {
      "constant": true,
      "inputs": [
        {
          "name": "",
          "type": "address"
        }
      ],
      "name": "funds",
      "outputs": [
        {
          "name": "",
          "type": "uint256"
        }
      ],
      "payable": false,
      "stateMutability": "view",
      "type": "function"
    },
    {
      "constant": true,
      "inputs": [
        {
          "name": "",
          "type": "address"
        },
        {
          "name": "",
          "type": "address"
        }
      ],
      "name": "canPlaceCertifiedComment",
      "outputs": [
        {
          "name": "",
          "type": "uint256"
        }
      ],
      "payable": false,
      "stateMutability": "view",
      "type": "function"
    },
    {
      "constant": true,
      "inputs": [],
      "name": "users",
      "outputs": [
        {
          "name": "",
          "type": "address"
        }
      ],
      "payable": false,
      "stateMutability": "view",
      "type": "function"
    },
    {
      "anonymous": false,
      "inputs": [
        {
          "indexed": true,
          "name": "zoneAddress",
          "type": "address"
        },
        {
          "indexed": true,
          "name": "countryCode",
          "type": "bytes2"
        },
        {
          "indexed": true,
          "name": "geohash",
          "type": "bytes7"
        },
        {
          "indexed": false,
          "name": "dthAmount",
          "type": "uint256"
        }
      ],
      "name": "ZoneCreated",
      "type": "event"
    },
    {
      "anonymous": false,
      "inputs": [
        {
          "indexed": true,
          "name": "zoneAddress",
          "type": "address"
        },
        {
          "indexed": true,
          "name": "oldOwner",
          "type": "address"
        },
        {
          "indexed": true,
          "name": "newOwner",
          "type": "address"
        }
      ],
      "name": "ZoneOwnerUpdated",
      "type": "event"
    },
    {
      "anonymous": false,
      "inputs": [
        {
          "indexed": true,
          "name": "owner",
          "type": "address"
        },
        {
          "indexed": false,
          "name": "lifeStart",
          "type": "uint256"
        },
        {
          "indexed": false,
          "name": "lifeEnd",
          "type": "uint256"
        },
        {
          "indexed": false,
          "name": "taxPaidTotal",
          "type": "uint256"
        },
        {
          "indexed": false,
          "name": "taxDebtOutstanding",
          "type": "uint256"
        }
      ],
      "name": "ZoneOwnerForeClosed",
      "type": "event"
    },
    {
      "anonymous": false,
      "inputs": [
        {
          "indexed": true,
          "name": "owner",
          "type": "address"
        },
        {
          "indexed": false,
          "name": "taxStart",
          "type": "uint256"
        },
        {
          "indexed": false,
          "name": "taxEnd",
          "type": "uint256"
        },
        {
          "indexed": false,
          "name": "taxAmount",
          "type": "uint256"
        }
      ],
      "name": "ZoneOwnerTaxesPaid",
      "type": "event"
    },
    {
      "anonymous": false,
      "inputs": [
        {
          "indexed": true,
          "name": "owner",
          "type": "address"
        },
        {
          "indexed": false,
          "name": "oldBalance",
          "type": "uint256"
        },
        {
          "indexed": false,
          "name": "newBalance",
          "type": "uint256"
        }
      ],
      "name": "ZoneOwnerTopUp",
      "type": "event"
    },
    {
      "anonymous": false,
      "inputs": [
        {
          "indexed": true,
          "name": "auctionId",
          "type": "address"
        },
        {
          "indexed": false,
          "name": "lifeStart",
          "type": "uint256"
        }
      ],
      "name": "ZoneAuctionStarted",
      "type": "event"
    },
    {
      "anonymous": false,
      "inputs": [
        {
          "indexed": true,
          "name": "auctionId",
          "type": "address"
        },
        {
          "indexed": false,
          "name": "lifeEnd",
          "type": "uint256"
        },
        {
          "indexed": true,
          "name": "newOwner",
          "type": "address"
        }
      ],
      "name": "ZoneAuctionEnded",
      "type": "event"
    },
    {
      "anonymous": false,
      "inputs": [
        {
          "indexed": true,
          "name": "auctionId",
          "type": "address"
        },
        {
          "indexed": true,
          "name": "bidder",
          "type": "address"
        },
        {
          "indexed": false,
          "name": "bidAmount",
          "type": "uint256"
        }
      ],
      "name": "ZoneAuctionBid",
      "type": "event"
    },
    {
      "anonymous": false,
      "inputs": [
        {
          "indexed": true,
          "name": "owner",
          "type": "address"
        }
      ],
      "name": "ZoneUpdatedTeller",
      "type": "event"
    },
    {
      "constant": false,
      "inputs": [
        {
          "name": "_countryCode",
          "type": "bytes2"
        },
        {
          "name": "_geohash",
          "type": "bytes7"
        },
        {
          "name": "_zoneOwner",
          "type": "address"
        },
        {
          "name": "_dthAmount",
          "type": "uint256"
        },
        {
          "name": "_dth",
          "type": "address"
        },
        {
          "name": "_geo",
          "type": "address"
        },
        {
          "name": "_users",
          "type": "address"
        },
        {
          "name": "_control",
          "type": "address"
        },
        {
          "name": "_zoneFactory",
          "type": "address"
        }
      ],
      "name": "init",
      "outputs": [],
      "payable": false,
      "stateMutability": "nonpayable",
      "type": "function"
    },
    {
      "constant": true,
      "inputs": [
        {
          "name": "_geohash",
          "type": "bytes7"
        },
        {
          "name": "_addr",
          "type": "address"
        }
      ],
      "name": "computeCSC",
      "outputs": [
        {
          "name": "",
          "type": "bytes12"
        }
      ],
      "payable": false,
      "stateMutability": "pure",
      "type": "function"
    },
    {
      "constant": true,
      "inputs": [
        {
          "name": "_startTime",
          "type": "uint256"
        },
        {
          "name": "_endTime",
          "type": "uint256"
        },
        {
          "name": "_dthAmount",
          "type": "uint256"
        }
      ],
      "name": "calcHarbergerTax",
      "outputs": [
        {
          "name": "taxAmount",
          "type": "uint256"
        },
        {
          "name": "keepAmount",
          "type": "uint256"
        }
      ],
      "payable": false,
      "stateMutability": "view",
      "type": "function"
    },
    {
      "constant": true,
      "inputs": [
        {
          "name": "_value",
          "type": "uint256"
        }
      ],
      "name": "calcEntryFee",
      "outputs": [
        {
          "name": "burnAmount",
          "type": "uint256"
        },
        {
          "name": "bidAmount",
          "type": "uint256"
        }
      ],
      "payable": false,
      "stateMutability": "view",
      "type": "function"
    },
    {
      "constant": true,
      "inputs": [
        {
          "name": "_value",
          "type": "uint256"
        }
      ],
      "name": "calcReferrerFee",
      "outputs": [
        {
          "name": "referrerAmount",
          "type": "uint256"
        }
      ],
      "payable": false,
      "stateMutability": "view",
      "type": "function"
    },
    {
      "constant": true,
      "inputs": [
        {
          "name": "_auctionId",
          "type": "uint256"
        }
      ],
      "name": "auctionExists",
      "outputs": [
        {
          "name": "",
          "type": "bool"
        }
      ],
      "payable": false,
      "stateMutability": "view",
      "type": "function"
    },
    {
      "constant": true,
      "inputs": [],
      "name": "getZoneOwner",
      "outputs": [
        {
          "name": "",
          "type": "address"
        },
        {
          "name": "",
          "type": "uint256"
        },
        {
          "name": "",
          "type": "uint256"
        },
        {
          "name": "",
          "type": "uint256"
        },
        {
          "name": "",
          "type": "uint256"
        },
        {
          "name": "",
          "type": "uint256"
        }
      ],
      "payable": false,
      "stateMutability": "view",
      "type": "function"
    },
    {
      "constant": true,
      "inputs": [
        {
          "name": "_auctionId",
          "type": "uint256"
        }
      ],
      "name": "getAuction",
      "outputs": [
        {
          "name": "",
          "type": "uint256"
        },
        {
          "name": "",
          "type": "uint256"
        },
        {
          "name": "",
          "type": "uint256"
        },
        {
          "name": "",
          "type": "uint256"
        },
        {
          "name": "",
          "type": "address"
        },
        {
          "name": "",
          "type": "uint256"
        }
      ],
      "payable": false,
      "stateMutability": "view",
      "type": "function"
    },
    {
      "constant": true,
      "inputs": [],
      "name": "getLastAuction",
      "outputs": [
        {
          "name": "",
          "type": "uint256"
        },
        {
          "name": "",
          "type": "uint256"
        },
        {
          "name": "",
          "type": "uint256"
        },
        {
          "name": "",
          "type": "uint256"
        },
        {
          "name": "",
          "type": "address"
        },
        {
          "name": "",
          "type": "uint256"
        }
      ],
      "payable": false,
      "stateMutability": "view",
      "type": "function"
    },
    {
      "constant": true,
      "inputs": [],
      "name": "getTeller",
      "outputs": [
        {
          "name": "",
          "type": "uint8"
        },
        {
          "name": "",
          "type": "bytes16"
        },
        {
          "name": "",
          "type": "bytes12"
        },
        {
          "name": "",
          "type": "bytes1"
        },
        {
          "name": "",
          "type": "int16"
        },
        {
          "name": "",
          "type": "int16"
        },
        {
          "name": "",
          "type": "uint256"
        },
        {
          "name": "",
          "type": "address"
        }
      ],
      "payable": false,
      "stateMutability": "view",
      "type": "function"
    },
    {
      "constant": true,
      "inputs": [],
      "name": "getCertifiedComments",
      "outputs": [
        {
          "name": "",
          "type": "bytes32[]"
        }
      ],
      "payable": false,
      "stateMutability": "view",
      "type": "function"
    },
    {
      "constant": true,
      "inputs": [],
      "name": "getComments",
      "outputs": [
        {
          "name": "",
          "type": "bytes32[]"
        }
      ],
      "payable": false,
      "stateMutability": "view",
      "type": "function"
    },
    {
      "constant": false,
      "inputs": [
        {
          "name": "_from",
          "type": "address"
        },
        {
          "name": "_value",
          "type": "uint256"
        },
        {
          "name": "_data",
          "type": "bytes"
        }
      ],
      "name": "tokenFallback",
      "outputs": [],
      "payable": false,
      "stateMutability": "nonpayable",
      "type": "function"
    },
    {
      "constant": false,
      "inputs": [],
      "name": "release",
      "outputs": [],
      "payable": false,
      "stateMutability": "nonpayable",
      "type": "function"
    },
    {
      "constant": false,
      "inputs": [
        {
          "name": "_auctionId",
          "type": "uint256"
        }
      ],
      "name": "withdrawFromAuction",
      "outputs": [],
      "payable": false,
      "stateMutability": "nonpayable",
      "type": "function"
    },
    {
      "constant": false,
      "inputs": [
        {
          "name": "_auctionIds",
          "type": "uint256[]"
        }
      ],
      "name": "withdrawFromAuctions",
      "outputs": [],
      "payable": false,
      "stateMutability": "nonpayable",
      "type": "function"
    },
    {
      "constant": false,
      "inputs": [],
      "name": "withdrawDth",
      "outputs": [],
      "payable": false,
      "stateMutability": "nonpayable",
      "type": "function"
    },
    {
      "constant": false,
      "inputs": [],
      "name": "withdrawEth",
      "outputs": [],
      "payable": false,
      "stateMutability": "nonpayable",
      "type": "function"
    },
    {
      "constant": false,
      "inputs": [
        {
          "name": "_position",
          "type": "bytes"
        },
        {
          "name": "_currencyId",
          "type": "uint8"
        },
        {
          "name": "_messenger",
          "type": "bytes16"
        },
        {
          "name": "_sellRate",
          "type": "int16"
        },
        {
          "name": "_buyRate",
          "type": "int16"
        },
        {
          "name": "_settings",
          "type": "bytes1"
        },
        {
          "name": "_referrer",
          "type": "address"
        }
      ],
      "name": "addTeller",
      "outputs": [],
      "payable": false,
      "stateMutability": "nonpayable",
      "type": "function"
    },
    {
      "constant": false,
      "inputs": [],
      "name": "removeTeller",
      "outputs": [],
      "payable": false,
      "stateMutability": "nonpayable",
      "type": "function"
    },
    {
      "constant": false,
      "inputs": [],
      "name": "addFunds",
      "outputs": [],
      "payable": true,
      "stateMutability": "payable",
      "type": "function"
    },
    {
      "constant": false,
      "inputs": [
        {
          "name": "_to",
          "type": "address"
        },
        {
          "name": "_amount",
          "type": "uint256"
        }
      ],
      "name": "sellEth",
      "outputs": [],
      "payable": false,
      "stateMutability": "nonpayable",
      "type": "function"
    },
    {
      "constant": false,
      "inputs": [
        {
          "name": "_commentHash",
          "type": "bytes32"
        }
      ],
      "name": "addCertifiedComment",
      "outputs": [],
      "payable": false,
      "stateMutability": "nonpayable",
      "type": "function"
    },
    {
      "constant": false,
      "inputs": [
        {
          "name": "_commentHash",
          "type": "bytes32"
        }
      ],
      "name": "addComment",
      "outputs": [],
      "payable": false,
      "stateMutability": "nonpayable",
      "type": "function"
    }
  ],
  "bytecode": "0x60806040526009805460ff1916905534801561001a57600080fd5b5061541f8061002a6000396000f3006080604052600436106101c95763ffffffff60e060020a60003504166301e57a3781146101ce57806308e44f88146101ff57806309948da5146102315780630c0b86ca146102965780630d624914146102bd5780631504ceed1461030e5780631ecb0f67146103325780632c2f3d131461036957806335ecec8f1461038a5780633c0868f0146103ae578063400f7684146103da578063422927ad146103fe5780636496a441146104185780636cea244b1461043857806378bd7935146104505780637b9a73011461046857806386d1a69f1461047d5780638b9c09a51461049257806391f3410c146104aa5780639787d107146104bf57806398369c791461054e57806399640c81146105ac578063a0ef91df146105fe578063a26759cb14610613578063a74255b01461061b578063ab5b8f1b14610633578063aeaffbc51461067e578063c0ee0b8a146106e3578063c732ff3e1461074c578063d8b0b49914610761578063d8de658714610793578063d944e6a3146107a8578063dd955c44146107bd578063e0df216c146107e1578063e2ae93fb14610802578063e3653b4914610823578063efcb5ba61461084a578063f20202751461085f578063fb01bb5114610874575b600080fd5b3480156101da57600080fd5b506101e361088c565b60408051600160a060020a039092168252519081900360200190f35b34801561020b57600080fd5b506102146108a0565b60408051600160c860020a03199092168252519081900360200190f35b34801561023d57600080fd5b506102466108dc565b60408051602080825283518183015283519192839290830191858101910280838360005b8381101561028257818101518382015260200161026a565b505050509050019250505060405180910390f35b3480156102a257600080fd5b506102ab610948565b60408051918252519081900360200190f35b3480156102c957600080fd5b506102d261094e565b604080519687526020870195909552858501939093526060850191909152600160a060020a0316608084015260a0830152519081900360c00190f35b34801561031a57600080fd5b506102ab600435600160a060020a0360243516610975565b34801561033e57600080fd5b50610350600435602435604435610992565b6040805192835260208301919091528051918290030190f35b34801561037557600080fd5b506102ab600160a060020a03600435166109f8565b34801561039657600080fd5b506102ab600160a060020a0360043516602435610a0a565b3480156103ba57600080fd5b506103c6600435610a3a565b604080519115158252519081900360200190f35b3480156103e657600080fd5b506102ab600160a060020a0360043516602435610a4d565b34801561040a57600080fd5b50610416600435610a68565b005b34801561042457600080fd5b506104166004803560248101910135610e07565b34801561044457600080fd5b506102ab60043561132a565b34801561045c57600080fd5b506102d2600435611349565b34801561047457600080fd5b506101e361146a565b34801561048957600080fd5b50610416611479565b34801561049e57600080fd5b5061041660043561173f565b3480156104b657600080fd5b50610246611c24565b3480156104cb57600080fd5b506104d4611c8d565b6040805160ff90991689526fffffffffffffffffffffffffffffffff199097166020890152600160a060020a031990951687870152600160f860020a03199093166060870152600191820b820b6080870152810b900b60a085015260c0840152600160a060020a031660e083015251908190036101000190f35b34801561055a57600080fd5b50610416600160f060020a031960043516600160c860020a031960243516600160a060020a036044358116906064359060843581169060a43581169060c43581169060e4358116906101043516611d33565b3480156105b857600080fd5b506105c161205e565b60408051600160a060020a0390971687526020870195909552858501939093526060850191909152608084015260a0830152519081900360c00190f35b34801561060a57600080fd5b50610416612084565b610416612173565b34801561062757600080fd5b506104166004356124ab565b34801561063f57600080fd5b50610661600160c860020a031960043516600160a060020a03602435166128d0565b60408051600160a060020a03199092168252519081900360200190f35b34801561068a57600080fd5b50610416602460048035828101929101359060ff9035166fffffffffffffffffffffffffffffffff1960443516606435600190810b90608435900b600160f860020a031960a43516600160a060020a0360c4351661297b565b3480156106ef57600080fd5b50604080516020600460443581810135601f8101849004840285018401909552848452610416948235600160a060020a031694602480359536959460649492019190819084018382808284375094975061330e9650505050505050565b34801561075857600080fd5b506104166137aa565b34801561076d57600080fd5b506107766138c5565b60408051600160f060020a03199092168252519081900360200190f35b34801561079f57600080fd5b506101e36138d8565b3480156107b457600080fd5b506101e36138e7565b3480156107c957600080fd5b50610416600160a060020a03600435166024356138f6565b3480156107ed57600080fd5b506102ab600160a060020a0360043516613f34565b34801561080e57600080fd5b506102ab600160a060020a0360043516613f46565b34801561082f57600080fd5b506102ab600160a060020a0360043581169060243516613f58565b34801561085657600080fd5b50610416613f75565b34801561086b57600080fd5b506101e361411e565b34801561088057600080fd5b5061035060043561412d565b6009546101009004600160a060020a031681565b600d5476010000000000000000000000000000000000000000000090047901000000000000000000000000000000000000000000000000000281565b60008054600160a060020a031681526015602090815260409182902080548351818402810184019094528084526060939283018282801561093d57602002820191906000526020600020905b81548152600190910190602001808311610928575b505050505090505b90565b60105481565b600080600080600080610962601054611349565b949b939a50919850965094509092509050565b601160209081526000928352604080842090915290825290205481565b6000806109dc620151806109d060648160016109c46109b78b8d63ffffffff61415f16565b8a9063ffffffff61417d16565b9063ffffffff61417d16565b9063ffffffff6141b216565b91506109ee838363ffffffff61415f16565b9050935093915050565b600e6020526000908152604090205481565b601460205281600052604060002081815481101515610a2557fe5b90600052602060002001600091509150505481565b6000908152600660205260408120541190565b601560205281600052604060002081815481101515610a2557fe5b60095460009060ff161515600114610ab8576040805160e560020a62461bcd02815260206004820152601c60248201526000805160206153b4833981519152604482015290519081900360640190fd5b600c60009054906101000a9004600160a060020a0316600160a060020a0316635c975abb6040518163ffffffff1660e060020a028152600401602060405180830381600087803b158015610b0b57600080fd5b505af1158015610b1f573d6000803e3d6000fd5b505050506040513d6020811015610b3557600080fd5b505115610b7a576040805160e560020a62461bcd0281526020600482015260126024820152600080516020615374833981519152604482015290519081900360640190fd5b600082118015610b8c57506010548211155b1515610be2576040805160e560020a62461bcd02815260206004820152601860248201527f61756374696f6e496420646f6573206e6f742065786973740000000000000000604482015290519081900360640190fd5b610bea6141d5565b600160008381526006602052604090206002015460ff166001811115610c0c57fe5b14610c87576040805160e560020a62461bcd02815260206004820152602760248201527f63616e6e6f74207769746864726177207768696c652061756374696f6e20697360448201527f2061637469766500000000000000000000000000000000000000000000000000606482015290519081900360840190fd5b6000828152600660205260409020600201546101009004600160a060020a0316331415610cfe576040805160e560020a62461bcd02815260206004820152601f60248201527f61756374696f6e2077696e6e65722063616e206e6f7420776974686472617700604482015290519081900360640190fd5b600082815260116020908152604080832033845290915281205411610d5b576040805160e560020a62461bcd02815260206004820152601360248201526000805160206153d4833981519152604482015290519081900360640190fd5b50600081815260116020908152604080832033808552908352818420805490859055600954835160e060020a63a9059cbb02815260048101939093526024830182905292519094610100909304600160a060020a03169363a9059cbb936044808501949293928390030190829087803b158015610dd757600080fd5b505af1158015610deb573d6000803e3d6000fd5b505050506040513d6020811015610e0157600080fd5b50505050565b60095460009081908190819060ff161515600114610e5d576040805160e560020a62461bcd02815260206004820152601c60248201526000805160206153b4833981519152604482015290519081900360640190fd5b600c60009054906101000a9004600160a060020a0316600160a060020a0316635c975abb6040518163ffffffff1660e060020a028152600401602060405180830381600087803b158015610eb057600080fd5b505af1158015610ec4573d6000803e3d6000fd5b505050506040513d6020811015610eda57600080fd5b505115610f1f576040805160e560020a62461bcd0281526020600482015260126024820152600080516020615374833981519152604482015290519081900360640190fd5b601054600010610f79576040805160e560020a62461bcd02815260206004820152601560248201527f746865726520617265206e6f2061756374696f6e730000000000000000000000604482015290519081900360640190fd5b610f816141d5565b60008511610fd9576040805160e560020a62461bcd02815260206004820152601860248201527f61756374696f6e496473206c69737420697320656d7074790000000000000000604482015290519081900360640190fd5b601054851115611059576040805160e560020a62461bcd02815260206004820152602660248201527f61756374696f6e496473206c697374206973206c6f6e676572207468616e206160448201527f6c6c6f7765640000000000000000000000000000000000000000000000000000606482015290519081900360840190fd5b60009350600092505b848310156112555785858481811061107657fe5b90506020020135915060008211801561109157506010548211155b15156110e7576040805160e560020a62461bcd02815260206004820152601860248201527f61756374696f6e496420646f6573206e6f742065786973740000000000000000604482015290519081900360640190fd5b600160008381526006602052604090206002015460ff16600181111561110957fe5b14611183576040805160e560020a62461bcd028152602060048201526024808201527f63616e6e6f742077697468647261772066726f6d2072756e6e696e672061756360448201527f74696f6e00000000000000000000000000000000000000000000000000000000606482015290519081900360840190fd5b6000828152600660205260409020600201546101009004600160a060020a03163314156111fa576040805160e560020a62461bcd02815260206004820152601f60248201527f61756374696f6e2077696e6e65722063616e206e6f7420776974686472617700604482015290519081900360640190fd5b5060008181526011602090815260408083203384529091528120549081111561124a576000828152601160209081526040808320338452909152812055611247848263ffffffff61424d16565b93505b600190920191611062565b6000841161129b576040805160e560020a62461bcd02815260206004820152601360248201526000805160206153d4833981519152604482015290519081900360640190fd5b6009546040805160e060020a63a9059cbb028152336004820152602481018790529051610100909204600160a060020a03169163a9059cbb916044808201926020929091908290030181600087803b1580156112f657600080fd5b505af115801561130a573d6000803e3d6000fd5b505050506040513d602081101561132057600080fd5b5050505050505050565b600061134360016109c4846103e863ffffffff6141b216565b92915050565b60008060008060008061135a615314565b60008881526006602090815260408083208151608081018352815481526001808301549482019490945260028201549093919284019160ff9091169081111561139f57fe5b60018111156113aa57fe5b815260029190910154600160a060020a03610100909104811660209283015260008c81526011835260408082206060860151909316825291909252812054919350909150826040015160018111156113fe57fe5b14801561141d57506000546060830151600160a060020a039081169116145b156114395760025461143690829063ffffffff61424d16565b90505b888260400151600181111561144a57fe5b83516020850151606090950151929c919b50995092975095509350915050565b600d54600160a060020a031681565b60095460009060ff1615156001146114c9576040805160e560020a62461bcd02815260206004820152601c60248201526000805160206153b4833981519152604482015290519081900360640190fd5b600c60009054906101000a9004600160a060020a0316600160a060020a0316635c975abb6040518163ffffffff1660e060020a028152600401602060405180830381600087803b15801561151c57600080fd5b505af1158015611530573d6000803e3d6000fd5b505050506040513d602081101561154657600080fd5b50511561158b576040805160e560020a62461bcd0281526020600482015260126024820152600080516020615374833981519152604482015290519081900360640190fd5b6115936141d5565b600054600160a060020a031633146115f5576040805160e560020a62461bcd02815260206004820152601860248201527f63616c6c6572206973206e6f74207a6f6e65206f776e65720000000000000000604482015290519081900360640190fd5b60105415806116265750600160105460009081526006602052604090206002015460ff16600181111561162457fe5b145b15156116a1576040805160e560020a62461bcd028152602060048201526024808201527f63616e6e6f742072656c65617365207768696c652061756374696f6e2072756e60448201527f6e696e6700000000000000000000000000000000000000000000000000000000606482015290519081900360840190fd5b506003546116ad61425f565b6116b5614316565b6009546040805160e060020a63a9059cbb028152336004820152602481018490529051610100909204600160a060020a03169163a9059cbb916044808201926020929091908290030181600087803b15801561171057600080fd5b505af1158015611724573d6000803e3d6000fd5b505050506040513d602081101561173a57600080fd5b505050565b60095460ff16151560011461178c576040805160e560020a62461bcd02815260206004820152601c60248201526000805160206153b4833981519152604482015290519081900360640190fd5b600c60009054906101000a9004600160a060020a0316600160a060020a0316635c975abb6040518163ffffffff1660e060020a028152600401602060405180830381600087803b1580156117df57600080fd5b505af11580156117f3573d6000803e3d6000fd5b505050506040513d602081101561180957600080fd5b50511561184e576040805160e560020a62461bcd0281526020600482015260126024820152600080516020615374833981519152604482015290519081900360640190fd5b600a54600d546040805160e160020a6306e1085502815260a060020a90920460f060020a02600160f060020a031916600483015251600160a060020a0390921691630dc210aa916024808201926020929091908290030181600087803b1580156118b757600080fd5b505af11580156118cb573d6000803e3d6000fd5b505050506040513d60208110156118e157600080fd5b50511515611927576040805160e560020a62461bcd0281526020600482015260136024820152600080516020615394833981519152604482015290519081900360640190fd5b80151561197e576040805160e560020a62461bcd02815260206004820152601a60248201527f636f6d6d656e7420686173682063616e6e6f7420626520307830000000000000604482015290519081900360640190fd5b6119866141d5565b600054600160a060020a03161515611a0d576040805160e560020a62461bcd028152602060048201526024808201527f63616e6e6f7420636f6d6d656e74206f6e207a6f6e6520776974686f7574206f60448201527f776e657200000000000000000000000000000000000000000000000000000000606482015290519081900360840190fd5b60075471010000000000000000000000000000000000900460a060020a02600160a060020a0319161515611ab1576040805160e560020a62461bcd02815260206004820152602560248201527f63616e6e6f7420636f6d6d656e74206f6e207a6f6e6520776974686f7574207460448201527f656c6c6572000000000000000000000000000000000000000000000000000000606482015290519081900360840190fd5b600054600160a060020a0316331415611b39576040805160e560020a62461bcd028152602060048201526024808201527f7a6f6e65206f776e65722063616e6e6f7420636f6d6d656e74206f6e2068696d60448201527f73656c6600000000000000000000000000000000000000000000000000000000606482015290519081900360840190fd5b60008054600160a060020a0316815260136020908152604080832033845290915281205411611bd8576040805160e560020a62461bcd02815260206004820152602d60248201527f75736572206e6f7420616c6c6f77656420746f20706c6163652061206365727460448201527f696669656420636f6d6d656e7400000000000000000000000000000000000000606482015290519081900360840190fd5b60008054600160a060020a039081168252601360209081526040808420338552825280842080546000190190558354909216835260158152908220805460018101825590835291200155565b60008054600160a060020a031681526014602090815260409182902080548351818402810184019094528084526060939283018282801561093d576020028201919060005260206000209081548152600190910190602001808311610928575050505050905090565b60075460085460008054600160a060020a039081168252601260205260409091205460ff8416946101008504700100000000000000000000000000000000029471010000000000000000000000000000000000810460a060020a02947d010000000000000000000000000000000000000000000000000000000000820460f860020a029460f060020a909204600190810b949082900b9390926201000090920490911690565b60095460ff1615611d8e576040805160e560020a62461bcd02815260206004820152601c60248201527f636f6e747261637420616c726561647920696e697469616c697a656400000000604482015290519081900360640190fd5b68056bc75e2d63100000861015611e15576040805160e560020a62461bcd02815260206004820152603360248201527f7a6f6e6520647468207374616b652073686f756c6c64206265206174206c656160448201527f7374206d696e696d756d20283130304454482900000000000000000000000000606482015290519081900360840190fd5b88600d60146101000a81548161ffff021916908360f060020a9004021790555087600d60166101000a81548166ffffffffffffff02191690837901000000000000000000000000000000000000000000000000009004021790555084600960016101000a815481600160a060020a030219169083600160a060020a0316021790555083600a60006101000a815481600160a060020a030219169083600160a060020a0316021790555082600b60006101000a815481600160a060020a030219169083600160a060020a0316021790555081600c60006101000a815481600160a060020a030219169083600160a060020a0316021790555080600d60006101000a815481600160a060020a030219169083600160a060020a03160217905550866000800160006101000a815481600160a060020a030219169083600160a060020a0316021790555042600060010181905550856000600201819055508560006003018190555042600060040181905550600080600501819055508778ffffffffffffffffffffffffffffffffffffffffffffffffff1916897dffffffffffffffffffffffffffffffffffffffffffffffffffffffffffff191630600160a060020a03167f7aff75f95b7d4af318f0d9d8bd9e9e4d8874626e860baa8cd01b3ab7190753d7896040518082815260200191505060405180910390a4604051600160a060020a0388169060009030907f1d12264c14fc566e86950ff90e2b320c449b6b0a4f1afa0f1b0cd202e054bf13908390a450506009805460ff1916600117905550505050505050565b600054600154600254600354600454600554600160a060020a0390951694909192939495565b60095460009060ff1615156001146120d4576040805160e560020a62461bcd02815260206004820152601c60248201526000805160206153b4833981519152604482015290519081900360640190fd5b50336000908152600f602052604081205490811161212a576040805160e560020a62461bcd02815260206004820152601360248201526000805160206153d4833981519152604482015290519081900360640190fd5b600081111561217057336000818152600f60205260408082208290555183156108fc0291849190818181858888f1935050505015801561216e573d6000803e3d6000fd5b505b50565b60095460ff1615156001146121c0576040805160e560020a62461bcd02815260206004820152601c60248201526000805160206153b4833981519152604482015290519081900360640190fd5b600c60009054906101000a9004600160a060020a0316600160a060020a0316635c975abb6040518163ffffffff1660e060020a028152600401602060405180830381600087803b15801561221357600080fd5b505af1158015612227573d6000803e3d6000fd5b505050506040513d602081101561223d57600080fd5b505115612282576040805160e560020a62461bcd0281526020600482015260126024820152600080516020615374833981519152604482015290519081900360640190fd5b600a54600d546040805160e160020a6306e1085502815260a060020a90920460f060020a02600160f060020a031916600483015251600160a060020a0390921691630dc210aa916024808201926020929091908290030181600087803b1580156122eb57600080fd5b505af11580156122ff573d6000803e3d6000fd5b505050506040513d602081101561231557600080fd5b5051151561235b576040805160e560020a62461bcd0281526020600482015260136024820152600080516020615394833981519152604482015290519081900360640190fd5b600034116123b3576040805160e560020a62461bcd02815260206004820152601560248201527f6e6f206574682073656e6420776974682063616c6c0000000000000000000000604482015290519081900360640190fd5b6123bb6141d5565b600054600160a060020a0316331461241d576040805160e560020a62461bcd02815260206004820152601c60248201527f6f6e6c79207a6f6e654f776e65722063616e206164642066756e647300000000604482015290519081900360640190fd5b60075460ff161515612479576040805160e560020a62461bcd02815260206004820152601960248201527f6e6f74207965742061646465642074656c6c657220696e666f00000000000000604482015290519081900360640190fd5b33600090815260126020526040902054612499903463ffffffff61424d16565b33600090815260126020526040902055565b60095460ff1615156001146124f8576040805160e560020a62461bcd02815260206004820152601c60248201526000805160206153b4833981519152604482015290519081900360640190fd5b600c60009054906101000a9004600160a060020a0316600160a060020a0316635c975abb6040518163ffffffff1660e060020a028152600401602060405180830381600087803b15801561254b57600080fd5b505af115801561255f573d6000803e3d6000fd5b505050506040513d602081101561257557600080fd5b5051156125ba576040805160e560020a62461bcd0281526020600482015260126024820152600080516020615374833981519152604482015290519081900360640190fd5b600a54600d546040805160e160020a6306e1085502815260a060020a90920460f060020a02600160f060020a031916600483015251600160a060020a0390921691630dc210aa916024808201926020929091908290030181600087803b15801561262357600080fd5b505af1158015612637573d6000803e3d6000fd5b505050506040513d602081101561264d57600080fd5b50511515612693576040805160e560020a62461bcd0281526020600482015260136024820152600080516020615394833981519152604482015290519081900360640190fd5b8015156126ea576040805160e560020a62461bcd02815260206004820152601a60248201527f636f6d6d656e7420686173682063616e6e6f7420626520307830000000000000604482015290519081900360640190fd5b6126f26141d5565b600054600160a060020a03161515612779576040805160e560020a62461bcd028152602060048201526024808201527f63616e6e6f7420636f6d6d656e74206f6e207a6f6e6520776974686f7574206f60448201527f776e657200000000000000000000000000000000000000000000000000000000606482015290519081900360840190fd5b60075471010000000000000000000000000000000000900460a060020a02600160a060020a031916151561281d576040805160e560020a62461bcd02815260206004820152602560248201527f63616e6e6f7420636f6d6d656e74206f6e207a6f6e6520776974686f7574207460448201527f656c6c6572000000000000000000000000000000000000000000000000000000606482015290519081900360840190fd5b600054600160a060020a03163314156128a5576040805160e560020a62461bcd028152602060048201526024808201527f7a6f6e65206f776e65722063616e6e6f7420636f6d6d656e74206f6e2068696d60448201527f73656c6600000000000000000000000000000000000000000000000000000000606482015290519081900360840190fd5b60008054600160a060020a031681526014602090815260408220805460018101825590835291200155565b60408051600160c860020a031984166020808301919091526c01000000000000000000000000600160a060020a0385160260278301528251601b818403018152603b909201928390528151600093918291908401908083835b602083106129485780518252601f199092019160209182019101612929565b5181516020939093036101000a600019018019909116921691909117905260405192018290039091209695505050505050565b60095460ff1615156001146129c8576040805160e560020a62461bcd02815260206004820152601c60248201526000805160206153b4833981519152604482015290519081900360640190fd5b600c60009054906101000a9004600160a060020a0316600160a060020a0316635c975abb6040518163ffffffff1660e060020a028152600401602060405180830381600087803b158015612a1b57600080fd5b505af1158015612a2f573d6000803e3d6000fd5b505050506040513d6020811015612a4557600080fd5b505115612a8a576040805160e560020a62461bcd0281526020600482015260126024820152600080516020615374833981519152604482015290519081900360640190fd5b600a54600d546040805160e160020a6306e1085502815260a060020a90920460f060020a02600160f060020a031916600483015251600160a060020a0390921691630dc210aa916024808201926020929091908290030181600087803b158015612af357600080fd5b505af1158015612b07573d6000803e3d6000fd5b505050506040513d6020811015612b1d57600080fd5b50511515612b63576040805160e560020a62461bcd0281526020600482015260136024820152600080516020615394833981519152604482015290519081900360640190fd5b600c8714612bbb576040805160e560020a62461bcd02815260206004820181905260248201527f657870656374656420706f736974696f6e20746f206265203130206279746573604482015290519081900360640190fd5b600d60169054906101000a90047901000000000000000000000000000000000000000000000000000278ffffffffffffffffffffffffffffffffffffffffffffffffff1916612c3c89898080601f01602080910402602001604051908101604052809392919081815260200183838082843750600094506143a09350505050565b600160c860020a03191614612c9b576040805160e560020a62461bcd02815260206004820181905260248201527f706f736974696f6e206973206e6f7420696e736964652074686973207a6f6e65604482015290519081900360640190fd5b600a546040517f1d0a4831000000000000000000000000000000000000000000000000000000008152602060048201908152602482018a9052600160a060020a0390921691631d0a4831918b918b91819060440184848082843782019150509350505050602060405180830381600087803b158015612d1957600080fd5b505af1158015612d2d573d6000803e3d6000fd5b505050506040513d6020811015612d4357600080fd5b50511515612dc1576040805160e560020a62461bcd02815260206004820152602360248201527f696e76616c696420706f736974696f6e2067656f68617368206368617261637460448201527f6572730000000000000000000000000000000000000000000000000000000000606482015290519081900360840190fd5b60018660ff1610158015612dd9575060648660ff1611155b1515612e55576040805160e560020a62461bcd02815260206004820152602260248201527f63757272656e6379206964206d75737420626520696e2072616e676520312d3160448201527f3030000000000000000000000000000000000000000000000000000000000000606482015290519081900360840190fd5b60f860020a821615612efd5761270e198460010b12158015612e7c575061270f8460010b13155b1515612ef8576040805160e560020a62461bcd02815260206004820152602960248201527f73656c6c526174652073686f756c64206265206265747765656e202d3939393960448201527f20616e6420393939390000000000000000000000000000000000000000000000606482015290519081900360840190fd5b612f7d565b600184900b15612f7d576040805160e560020a62461bcd02815260206004820152602860248201527f63616e6e6f74207365742073656c6c52617465206966206e6f7420736574206160448201527f732073656c6c6572000000000000000000000000000000000000000000000000606482015290519081900360840190fd5b7f02000000000000000000000000000000000000000000000000000000000000008216156130415761270e198360010b12158015612fc0575061270f8360010b13155b151561303c576040805160e560020a62461bcd02815260206004820152602860248201527f627579526174652073686f756c64206265206265747765656e202d393939392060448201527f616e642039393939000000000000000000000000000000000000000000000000606482015290519081900360840190fd5b6130c1565b600183900b156130c1576040805160e560020a62461bcd02815260206004820152602660248201527f63616e6e6f74207365742062757952617465206966206e6f742073657420617360448201527f2062757965720000000000000000000000000000000000000000000000000000606482015290519081900360840190fd5b6130c96141d5565b600054600160a060020a03163314613151576040805160e560020a62461bcd02815260206004820152602360248201527f6f6e6c79207a6f6e65206f776e65722063616e206164642074656c6c6572206960448201527f6e666f0000000000000000000000000000000000000000000000000000000000606482015290519081900360840190fd5b6007805460ff191660ff88161770ffffffffffffffffffffffffffffffff001916610100700100000000000000000000000000000000880402177dffffffffffffffffffffffffffffffffffffffffffffffffffffffffffff1660f060020a61ffff600187810b821692909202929092179092556008805461ffff19169287900b909116919091179055604080516020601f8a01819004810282018101909252888152613215918a908a9081908401838280828437506000945061440b9350505050565b600780547fffffff000000000000000000000000ffffffffffffffffffffffffffffffffff167101000000000000000000000000000000000060a060020a90930492909202919091177fffff00ffffffffffffffffffffffffffffffffffffffffffffffffffffffffff167d01000000000000000000000000000000000000000000000000000000000060f860020a8504021790556008805475ffffffffffffffffffffffffffffffffffffffff0000191662010000600160a060020a0384160217905560405133907fbc905ab91d97b56e60549df29f65a04af2e1cf4b6d65da4af42f8d559ee9d32090600090a25050505050505050565b60095460009060ff16151560011461335e576040805160e560020a62461bcd02815260206004820152601c60248201526000805160206153b4833981519152604482015290519081900360640190fd5b6009546101009004600160a060020a031633146133eb576040805160e560020a62461bcd02815260206004820152602260248201527f63616e206f6e6c792062652063616c6c65642062792064746820636f6e74726160448201527f6374000000000000000000000000000000000000000000000000000000000000606482015290519081900360840190fd5b600c60009054906101000a9004600160a060020a0316600160a060020a0316635c975abb6040518163ffffffff1660e060020a028152600401602060405180830381600087803b15801561343e57600080fd5b505af1158015613452573d6000803e3d6000fd5b505050506040513d602081101561346857600080fd5b5051156134ad576040805160e560020a62461bcd0281526020600482015260126024820152600080516020615374833981519152604482015290519081900360640190fd5b600a54600d546040805160e160020a6306e1085502815260a060020a90920460f060020a02600160f060020a031916600483015251600160a060020a0390921691630dc210aa916024808201926020929091908290030181600087803b15801561351657600080fd5b505af115801561352a573d6000803e3d6000fd5b505050506040513d602081101561354057600080fd5b50511515613586576040805160e560020a62461bcd0281526020600482015260136024820152600080516020615394833981519152604482015290519081900360640190fd5b61359182600061446c565b9050600160f860020a031981167f400000000000000000000000000000000000000000000000000000000000000014806135f45750600160f860020a031981167f4100000000000000000000000000000000000000000000000000000000000000145b806136285750600160f860020a031981167f4200000000000000000000000000000000000000000000000000000000000000145b8061365c5750600160f860020a031981167f4300000000000000000000000000000000000000000000000000000000000000145b15156136b2576040805160e560020a62461bcd02815260206004820152601b60248201527f646964206e6f74206d61746368205a6f6e652066756e6374696f6e0000000000604482015290519081900360640190fd5b600160f860020a031981167f400000000000000000000000000000000000000000000000000000000000000014156136e957610e01565b6136f16141d5565b600160f860020a031981167f410000000000000000000000000000000000000000000000000000000000000014156137325761372d84846144cd565b610e01565b600160f860020a031981167f4200000000000000000000000000000000000000000000000000000000000000141561376e5761372d84846145ee565b600160f860020a031981167f43000000000000000000000000000000000000000000000000000000000000001415610e0157610e0184846147be565b60095460009060ff1615156001146137fa576040805160e560020a62461bcd02815260206004820152601c60248201526000805160206153b4833981519152604482015290519081900360640190fd5b50336000908152600e6020526040812054908111613850576040805160e560020a62461bcd02815260206004820152601360248201526000805160206153d4833981519152604482015290519081900360640190fd5b600081111561217057336000818152600e60209081526040808320839055600954815160e060020a63a9059cbb0281526004810195909552602485018690529051610100909104600160a060020a03169363a9059cbb9360448083019493928390030190829087803b15801561171057600080fd5b600d5460a060020a900460f060020a0281565b600c54600160a060020a031681565b600a54600160a060020a031681565b60095460009060ff161515600114613946576040805160e560020a62461bcd02815260206004820152601c60248201526000805160206153b4833981519152604482015290519081900360640190fd5b600c60009054906101000a9004600160a060020a0316600160a060020a0316635c975abb6040518163ffffffff1660e060020a028152600401602060405180830381600087803b15801561399957600080fd5b505af11580156139ad573d6000803e3d6000fd5b505050506040513d60208110156139c357600080fd5b505115613a08576040805160e560020a62461bcd0281526020600482015260126024820152600080516020615374833981519152604482015290519081900360640190fd5b600a54600d546040805160e160020a6306e1085502815260a060020a90920460f060020a02600160f060020a031916600483015251600160a060020a0390921691630dc210aa916024808201926020929091908290030181600087803b158015613a7157600080fd5b505af1158015613a85573d6000803e3d6000fd5b505050506040513d6020811015613a9b57600080fd5b50511515613ae1576040805160e560020a62461bcd0281526020600482015260136024820152600080516020615394833981519152604482015290519081900360640190fd5b33600160a060020a0384161415613b42576040805160e560020a62461bcd02815260206004820152601860248201527f73656e6465722063616e6e6f7420616c736f20626520746f0000000000000000604482015290519081900360640190fd5b60008211613b9a576040805160e560020a62461bcd02815260206004820152601d60248201527f616d6f756e7420746f2073656c6c2063616e6e6f74206265207a65726f000000604482015290519081900360640190fd5b613ba26141d5565b600054600160a060020a03163314613c04576040805160e560020a62461bcd02815260206004820181905260248201527f63616e206f6e6c792062652063616c6c6564206279207a6f6e65206f776e6572604482015290519081900360640190fd5b60075460ff161515613c60576040805160e560020a62461bcd02815260206004820152601960248201527f6e6f74207965742061646465642074656c6c657220696e666f00000000000000604482015290519081900360640190fd5b600854620100009004600160a060020a031615613d9a57613c808261132a565b336000908152601260205260409020549091508282011115613d12576040805160e560020a62461bcd02815260206004820152603960248201527f6e6f7420656e6f7567682066756e647320746f2073656c6c2065746820616d6f60448201527f756e7420706c7573207061792072656665727265722066656500000000000000606482015290519081900360840190fd5b33600090815260126020526040902054613d349083830163ffffffff61415f16565b33600090815260126020908152604080832093909355600854620100009004600160a060020a03168252600f90522054613d74908263ffffffff61424d16565b600854620100009004600160a060020a03166000908152600f6020526040902055613e32565b33600090815260126020526040902054821115613e01576040805160e560020a62461bcd02815260206004820152601e60248201527f63616e6e6f742073656c6c206d6f7265207468616e20696e2066756e64730000604482015290519081900360640190fd5b33600090815260126020526040902054613e21908363ffffffff61415f16565b336000908152601260205260409020555b600d54604080517fcde60333000000000000000000000000000000000000000000000000000000008152600160f060020a031960f060020a60a060020a850402166004820152336024820152600160a060020a038681166044830152606482018690529151919092169163cde6033391608480830192600092919082900301818387803b158015613ec257600080fd5b505af1158015613ed6573d6000803e3d6000fd5b505060008054600160a060020a03908116825260136020908152604080842092891680855292909152808320805460010190555190935085156108fc0292508591818181858888f19350505050158015610e01573d6000803e3d6000fd5b600f6020526000908152604090205481565b60126020526000908152604090205481565b601360209081526000928352604080842090915290825290205481565b60095460ff161515600114613fc2576040805160e560020a62461bcd02815260206004820152601c60248201526000805160206153b4833981519152604482015290519081900360640190fd5b600c60009054906101000a9004600160a060020a0316600160a060020a0316635c975abb6040518163ffffffff1660e060020a028152600401602060405180830381600087803b15801561401557600080fd5b505af1158015614029573d6000803e3d6000fd5b505050506040513d602081101561403f57600080fd5b505115614084576040805160e560020a62461bcd0281526020600482015260126024820152600080516020615374833981519152604482015290519081900360640190fd5b61408c6141d5565b600054600160a060020a03163314614114576040805160e560020a62461bcd02815260206004820152602360248201527f6f6e6c79207a6f6e65206f776e65722063616e206164642074656c6c6572206960448201527f6e666f0000000000000000000000000000000000000000000000000000000000606482015290519081900360840190fd5b61411c614316565b565b600b54600160a060020a031681565b60008061414660016109c485606463ffffffff6141b216565b9150614158838363ffffffff61415f16565b9050915091565b6000808383111561416f57600080fd5b5050808203805b5092915050565b6000808315156141905760009150614176565b508282028284828115156141a057fe5b04146141ab57600080fd5b9392505050565b6000808083116141c157600080fd5b82848115156141cc57fe5b04949350505050565b600054600160a060020a0316156141ee576141ee61499e565b6000601054118015614220575060105460009081526006602052604081206002015460ff16600181111561421e57fe5b145b801561424057506010546000908152600660205260409020600101544210155b1561411c5761411c6149f2565b6000828201838110156141ab57600080fd5b60008054600160a060020a031681526014602052604081206142809161533c565b60008054600160a060020a031681526015602052604081206142a19161533c565b60035460008054600160a060020a03168152600e60205260409020546142cc9163ffffffff61424d16565b60008054600160a060020a03168152600e60205260409020556142ed614316565b60008054600160a060020a03191681556001819055600281905560038190556004819055600555565b60008054600160a060020a0316815260126020908152604080832054600f9092529091205461434a9163ffffffff61424d16565b60008054600160a060020a039081168252600f602090815260408084209490945582549091168252601290529081208190556007556008805475ffffffffffffffffffffffffffffffffffffffffffff19169055565b60008082600701845110151515614401576040805160e560020a62461bcd02815260206004820152601060248201527f206e6f74206c6f6e6720656e6f75676800000000000000000000000000000000604482015290519081900360640190fd5b5050016020015190565b60008082600c01845110151515614401576040805160e560020a62461bcd02815260206004820152601060248201527f206e6f74206c6f6e6720656e6f75676800000000000000000000000000000000604482015290519081900360640190fd5b60008082600101845110151515614401576040805160e560020a62461bcd02815260206004820152601060248201527f206e6f74206c6f6e6720656e6f75676800000000000000000000000000000000604482015290519081900360640190fd5b600054600160a060020a03161561452e576040805160e560020a62461bcd02815260206004820152601d60248201527f63616e206e6f7420636c61696d207a6f6e652077697468206f776e6572000000604482015290519081900360640190fd5b68056bc75e2d631000008110156145b5576040805160e560020a62461bcd02815260206004820152603160248201527f6e656564206174206c65617374206d696e696d756d207a6f6e65207374616b6560448201527f20616d6f756e7420283130302044544829000000000000000000000000000000606482015290519081900360840190fd5b60008054600160a060020a031916600160a060020a03939093169290921782554260018190556002829055600391909155600455600555565b600054600160a060020a03161515614676576040805160e560020a62461bcd02815260206004820152603560248201527f63616e6e6f7420626964206f6e207a6f6e6520776974686f7574206f776e657260448201527f2c2075736520636c61696d467265655a6f6e6528290000000000000000000000606482015290519081900360840190fd5b60006010541180156146a8575060105460009081526006602052604081206002015460ff1660018111156146a657fe5b145b156146bc576146b78282614a6f565b61216e565b6005541515614736576001546146db906202a30063ffffffff61424d16565b4211614731576040805160e560020a62461bcd02815260206004820152601f60248201527f636f6f6c646f776e20706572696f6420646964206e6f7420656e642079657400604482015290519081900360640190fd5b6147b4565b60105460009081526006602052604090206001015461475e906202a30063ffffffff61424d16565b42116147b4576040805160e560020a62461bcd02815260206004820152601f60248201527f636f6f6c646f776e20706572696f6420646964206e6f7420656e642079657400604482015290519081900360640190fd5b61216e8282614e64565b600080548190600160a060020a03161515614823576040805160e560020a62461bcd02815260206004820152601160248201527f7a6f6e6520686173206e6f206f776e6572000000000000000000000000000000604482015290519081900360640190fd5b600054600160a060020a03858116911614614888576040805160e560020a62461bcd02815260206004820152601860248201527f63616c6c6572206973206e6f74207a6f6e65206f776e65720000000000000000604482015290519081900360640190fd5b60105415806148b95750600160105460009081526006602052604090206002015460ff1660018111156148b757fe5b145b1515614935576040805160e560020a62461bcd02815260206004820152602360248201527f63616e6e6f7420746f70207570207768696c652061756374696f6e2072756e6e60448201527f696e670000000000000000000000000000000000000000000000000000000000606482015290519081900360840190fd5b600354915061494a828463ffffffff61424d16565b600381905560408051848152602081018390528151929350600160a060020a038716927f993857d1afedc692a1ea47cde199310a57b73c0583028ce14c84bffd4e7aa5ea929181900390910190a250505050565b6000806000806149ac6150eb565b600454919550935084116149bf57610e01565b6004546002546149d191908690610992565b600354919350915082106149e75761372d61514b565b610e018285856151ba565b601080546000908152600660209081526040808320600281018054600160ff1990911617908190559454845260118352818420600160a060020a03610100909604861680865293529083205492549093161415614a52576146b781615288565b600282015461216e906101009004600160a060020a0316826152bd565b601054600090815260066020526040812060028101549091908190819081908190600160a060020a03898116610100909204161415614af8576040805160e560020a62461bcd02815260206004820152601960248201527f68696768657374206269646465722063616e6e6f742062696400000000000000604482015290519081900360640190fd5b601054600090815260116020908152604080832060028a0154600160a060020a03610100909104811685529252822054915491965089811691161415614c2e576010546000908152601160209081526040808320600160a060020a038c168452909152902054614b6e908863ffffffff61424d16565b6002549094508590614b86908663ffffffff61424d16565b11614c01576040805160e560020a62461bcd02815260206004820152603160248201527f626964202b20616c7265616479207374616b6564206973206c6573732074686160448201527f6e2063757272656e742068696768657374000000000000000000000000000000606482015290519081900360840190fd5b6010546000908152601160209081526040808320600160a060020a038c1684529091529020849055614e25565b6010546000908152601160209081526040808320600160a060020a038c1684529091529020541515614d6d57614c638761412d565b9093509150848211614cbf576040805160e560020a62461bcd02815260206004820181905260248201527f626964206973206c657373207468616e2063757272656e742068696768657374604482015290519081900360640190fd5b6010546000908152601160209081526040808320600160a060020a03808d168552908352818420869055600954825160e060020a63a9059cbb028152600481018390526024810189905292516101009091049091169363a9059cbb93604480850194919392918390030190829087803b158015614d3b57600080fd5b505af1158015614d4f573d6000803e3d6000fd5b505050506040513d6020811015614d6557600080fd5b50614e259050565b6010546000908152601160209081526040808320600160a060020a038c168452909152902054614da3908863ffffffff61424d16565b9050848111614dfc576040805160e560020a62461bcd02815260206004820181905260248201527f626964206973206c657373207468616e2063757272656e742068696768657374604482015290519081900360640190fd5b6010546000908152601160209081526040808320600160a060020a038c16845290915290208190555b50505060029092018054600160a060020a039095166101000274ffffffffffffffffffffffffffffffffffffffff001990951694909417909355505050565b6000805481908190600160a060020a0386811691161415614ef5576040805160e560020a62461bcd02815260206004820152602160248201527f7a6f6e656f776e65722063616e6e6f7420737461727420616e2061756374696f60448201527f6e00000000000000000000000000000000000000000000000000000000000000606482015290519081900360840190fd5b614efe8461412d565b60025491945092508211614f81576040805160e560020a62461bcd028152602060048201526024808201527f626964206973206c6f776572207468616e2063757272656e74207a6f6e65207360448201527f74616b6500000000000000000000000000000000000000000000000000000000606482015290519081900360840190fd5b5060108054600101908190556040805160808101909152428082526020820190614fb4906201518063ffffffff61424d16565b815260200160008152600160a060020a0387166020918201526000838152600682526040908190208351815591830151600180840191909155908301516002830180549192909160ff191690838181111561500b57fe5b0217905550606091909101516002909101805474ffffffffffffffffffffffffffffffffffffffff001916610100600160a060020a0393841681029190911790915560008381526011602090815260408083208a861684528252808320879055600954815160e060020a63a9059cbb02815260048101879052602481018a905291519490049094169363a9059cbb9360448083019491928390030190829087803b1580156150b857600080fd5b505af11580156150cc573d6000803e3d6000fd5b505050506040513d60208110156150e257600080fd5b50505050505050565b6000806000601054118015615120575060105460009081526006602052604081206002015460ff16600181111561511e57fe5b145b156151405750506010546000908152600660205260409020546001615147565b5042905060005b9091565b60038054600090915561515c61425f565b6009546040805160e060020a63a9059cbb028152600160a060020a03600482018190526024820185905291516101009093049091169163a9059cbb916044808201926020929091908290030181600087803b15801561171057600080fd5b6003546151cd908463ffffffff61415f16565b60035580156151f3576010546000908152600660205260409020600101546004556151f9565b60048290555b6009546040805160e060020a63a9059cbb028152600160a060020a03600482018190526024820187905291516101009093049091169163a9059cbb916044808201926020929091908290030181600087803b15801561525757600080fd5b505af115801561526b573d6000803e3d6000fd5b505050506040513d602081101561528157600080fd5b5050505050565b60025461529b908263ffffffff61424d16565b6002556003546152b1908263ffffffff61424d16565b60035550601054600555565b60006152c761425f565b5060105460008181526006602052604081206001908101548254600160a060020a031916600160a060020a0396909616959095179091558390556004929092556002819055600355600555565b6040805160808101825260008082526020820181905290918201908152600060209091015290565b5080546000825590600052602060002090810190612170919061094591905b8082111561536f576000815560010161535b565b50905600636f6e7472616374206973207061757365640000000000000000000000000000636f756e7472792069732064697361626c656400000000000000000000000000636f6e7472616374206e6f742079657420696e697469616c697a6564000000006e6f7468696e6720746f20776974686472617700000000000000000000000000a165627a7a723058204cd1e5d091858918cde33f2a3b09483873429a159bb00b7e902311076bd9cb830029",
  "source": "pragma solidity ^0.4.24;\n\nimport \"openzeppelin-solidity/contracts/math/SafeMath.sol\";\n\nimport \"../dth/tokenfoundry/ERC223ReceivingContract.sol\";\nimport \"../dth/IDetherToken.sol\";// TODO: replace with zeppelin ERC20 abstract contract?\nimport \"../core/IUsers.sol\";\nimport \"../core/IControl.sol\";\nimport \"./IGeoRegistry.sol\";\nimport \"./IZoneFactory.sol\";\nimport \"./IZone.sol\";\n\ncontract Zone is ERC223ReceivingContract, IZone {\n  // ------------------------------------------------\n  //\n  // Library init\n  //\n  // ------------------------------------------------\n\n  using SafeMath for uint;\n\n  // ------------------------------------------------\n  //\n  // Enums\n  //\n  // ------------------------------------------------\n\n  enum AuctionState { Started, Ended }\n\n  // ------------------------------------------------\n  //\n  // Structs\n  //\n  // ------------------------------------------------\n\n  // NOTE:\n  // evm will convert to uint256 when doing calculations, so 1 time higher storage cost\n  // will be less than all the increased gas costs if we were to use smaller uints in the struct\n\n  struct ZoneOwner {\n    address addr;\n    uint startTime;\n    uint staked;\n    uint balance;\n    uint lastTaxTime;\n    uint auctionId;\n  }\n\n  struct Auction {\n    // since we do a lot of calcuations with these uints, it's best to leave them uint256\n    // evm will convert to uint256 anyways when doing calculations\n    uint startTime;\n    uint endTime;\n    AuctionState state;\n    address highestBidder;\n  }\n\n  struct Teller {\n    uint8 currencyId;  // 1 - 100 , see README\n    bytes16 messenger; // telegrame nickname\n    bytes12 position;  // 12 char geohash for location of teller\n    bytes1 settings;   // bitmask containing up to 8 boolean settings (only 2 used currently: isSeller, isBuyer)\n    // TODO: wouldn't it be wiser to use uint256, to make all calculations cost less\n    int16 buyRate;     // margin of tellers , -999 - +9999 , corresponding to -99,9% x 10  , 999,9% x 10\n    int16 sellRate;    // margin of tellers , -999 - +9999 , corresponding to -99,9% x 10  , 999,9% x 10\n    // 256 bits in total\n    address referrer;\n  }\n\n  // ------------------------------------------------\n  //\n  // Variables Private\n  //\n  // ------------------------------------------------\n\n  uint private constant MIN_STAKE = 100 * 1 ether; // DTH, which is also 18 decimals!\n  uint private constant BID_PERIOD = 24 * 1 hours;\n  uint private constant COOLDOWN_PERIOD = 48 * 1 hours;\n  uint private constant ENTRY_FEE_PERCENTAGE = 1; // 1%\n  uint private constant TAX_PERCENTAGE = 1; // 1%\n  uint private constant REFERRER_FEE_PERCENTAGE = 1; // 0.1%\n  address private constant ADDRESS_BURN = 0xFFfFfFffFFfffFFfFFfFFFFFffFFFffffFfFFFfF;\n\n  ZoneOwner private zoneOwner;\n\n  mapping(uint => Auction) private auctionIdToAuction;\n\n  Teller private teller;\n  bytes1 private constant isSellerBitMask = hex\"01\";\n  bytes1 private constant isBuyerBitMask = hex\"02\";\n\n  // ------------------------------------------------\n  //\n  // Variables Public\n  //\n  // ------------------------------------------------\n\n  bool inited = false;\n\n  IDetherToken public dth;\n  IGeoRegistry public geo;\n  IUsers public users;\n  IControl public control;\n  IZoneFactory public zoneFactory;\n\n  bytes2 public country;\n  bytes7 public geohash;\n\n  mapping(address => uint) public withdrawableDth;\n  mapping(address => uint) public withdrawableEth;\n\n  uint public currentAuctionId; // starts at 0, first auction will get id 1, etc.\n\n  //      auctionId       bidder     dthAmount\n  mapping(uint => mapping(address => uint)) public auctionBids;\n\n  //(prev)zoneOwner          ethAmount\n  mapping(address => uint) public funds;\n\n  mapping(address => mapping(address => uint)) public canPlaceCertifiedComment;\n\n  mapping(address => bytes32[]) public commentsFree;\n  mapping(address => bytes32[]) public commentsCertified;\n\n  // ------------------------------------------------\n  //\n  // Events\n  //\n  // ------------------------------------------------\n\n  event ZoneCreated(address indexed zoneAddress, bytes2 indexed countryCode, bytes7 indexed geohash, uint dthAmount);\n  event ZoneOwnerUpdated(address indexed zoneAddress, address indexed oldOwner, address indexed newOwner);\n  event ZoneOwnerForeClosed(address indexed owner, uint lifeStart, uint lifeEnd, uint taxPaidTotal, uint taxDebtOutstanding);\n  event ZoneOwnerTaxesPaid(address indexed owner, uint taxStart, uint taxEnd, uint taxAmount);\n  event ZoneOwnerTopUp(address indexed owner, uint oldBalance, uint newBalance);\n  event ZoneAuctionStarted(address indexed auctionId, uint lifeStart);\n  event ZoneAuctionEnded(address indexed auctionId, uint lifeEnd, address indexed newOwner);\n  event ZoneAuctionBid(address indexed auctionId, address indexed bidder, uint bidAmount); // NOTE: this includes current stake if zone owner bids\n  event ZoneUpdatedTeller(address indexed owner);\n\n  // ------------------------------------------------\n  //\n  // Modifiers\n  //\n  // ------------------------------------------------\n\n  modifier onlyWhenInited() { require(inited == true, \"contract not yet initialized\"); _; }\n  modifier onlyWhenNotInited() { require(inited == false, \"contract already initialized\"); _; }\n\n  // ------------------------------------------------\n  //\n  // Constructor\n  //\n  // ------------------------------------------------\n\n  // executed by ZoneFactory.sol when this Zone does not yet exist (= not yet deployed)\n  function init(\n    bytes2 _countryCode,\n    bytes7 _geohash,\n    address _zoneOwner,\n    uint _dthAmount,\n    address _dth,\n    address _geo,\n    address _users,\n    address _control,\n    address _zoneFactory\n  )\n    onlyWhenNotInited\n    external\n  {\n    require(_dthAmount >= MIN_STAKE, \"zone dth stake shoulld be at least minimum (100DTH)\");\n\n    country = _countryCode;\n    geohash = _geohash;\n\n    dth = IDetherToken(_dth);\n    geo = IGeoRegistry(_geo);\n    users = IUsers(_users);\n    control = IControl(_control);\n    zoneFactory = IZoneFactory(_zoneFactory);\n\n    zoneOwner.addr = _zoneOwner;\n    zoneOwner.startTime = now;\n    zoneOwner.staked = _dthAmount;\n    zoneOwner.balance = _dthAmount;\n    zoneOwner.lastTaxTime = now;\n    zoneOwner.auctionId = 0; // was not gained by winning an auction\n\n    emit ZoneCreated(address(this), _countryCode, _geohash, _dthAmount);\n    emit ZoneOwnerUpdated(address(this), address(0), _zoneOwner);\n\n    inited = true;\n  }\n\n  // ------------------------------------------------\n  //\n  // Functions Getters Public\n  //\n  // ------------------------------------------------\n\n  function computeCSC(bytes7 _geohash, address _addr)\n    public\n    pure\n    returns (bytes12)\n  {\n    return bytes12(keccak256(abi.encodePacked(_geohash, _addr)));\n  }\n\n  function calcHarbergerTax(uint _startTime, uint _endTime, uint _dthAmount)\n    public\n    view\n    returns (uint taxAmount, uint keepAmount)\n  {\n    // TODO use smaller uint variables, hereby preventing under/overflows, so no need for SafeMath\n    // source: https://programtheblockchain.com/posts/2018/09/19/implementing-harberger-tax-deeds/\n    taxAmount = _dthAmount.mul(_endTime.sub(_startTime)).mul(TAX_PERCENTAGE).div(100).div(1 days);\n    keepAmount = _dthAmount.sub(taxAmount);\n  }\n\n  function calcEntryFee(uint _value)\n    public\n    view\n    returns (uint burnAmount, uint bidAmount)\n  {\n    burnAmount = _value.div(100).mul(ENTRY_FEE_PERCENTAGE); // 1%\n    bidAmount = _value.sub(burnAmount); // 99%\n  }\n\n  function calcReferrerFee(uint _value)\n    public\n    view\n    returns (uint referrerAmount)\n  {\n    referrerAmount = _value.div(1000).mul(REFERRER_FEE_PERCENTAGE); // 0.1%\n  }\n\n  function auctionExists(uint _auctionId)\n    external\n    view\n    returns (bool)\n  {\n    // if aucton does not exist we should get back zero, otherwise this field\n    // will contain a block.timestamp, set whe creating an Auction, in constructor() and bid()\n    return auctionIdToAuction[_auctionId].startTime > 0;\n  }\n\n  /// @notice get current zone owner data\n  function getZoneOwner()\n    external\n    view\n    returns (address, uint, uint, uint, uint, uint)\n  {\n    return (\n      zoneOwner.addr,        // address of current owner\n      zoneOwner.startTime,   // time this address became owner\n      zoneOwner.staked,      // \"price you sell at\"\n      zoneOwner.balance,     // will decrease whenever harberger taxes are paid\n      zoneOwner.lastTaxTime, // time until taxes have been paid\n      zoneOwner.auctionId    // if gained by winning auction, the auction id, otherwise zero\n    );\n  }\n\n  /// @notice get a specific auction\n  function getAuction(uint _auctionId)\n    public\n    view\n    returns (uint, uint, uint, uint, address, uint)\n  {\n    Auction memory auction = auctionIdToAuction[_auctionId];\n\n    uint highestBid = auctionBids[_auctionId][auction.highestBidder];\n\n    // for current zone owner his existing zone stake is added to his bid\n    if (auction.state == AuctionState.Started &&\n        auction.highestBidder == zoneOwner.addr)\n    {\n      highestBid = highestBid.add(zoneOwner.staked);\n    }\n\n    return (\n      _auctionId,\n      uint(auction.state),\n      auction.startTime,\n      auction.endTime,\n      auction.highestBidder,\n      highestBid\n    );\n  }\n\n  /// @notice get the last auction\n  function getLastAuction()\n    external\n    view\n    returns (uint, uint, uint, uint, address, uint)\n  {\n    return getAuction(currentAuctionId);\n  }\n\n  function getTeller()\n    external\n    view\n    returns (uint8, bytes16, bytes12, bytes1, int16, int16, uint, address)\n  {\n    return (\n      teller.currencyId,\n      teller.messenger,\n      teller.position,\n      teller.settings,\n      teller.buyRate,\n      teller.sellRate,\n      funds[zoneOwner.addr],\n      teller.referrer\n    );\n  }\n\n  function getCertifiedComments()\n    external\n    view\n    returns (bytes32[])\n  {\n    return commentsCertified[zoneOwner.addr];\n  }\n\n  function getComments()\n    external\n    view\n    returns (bytes32[])\n  {\n    return commentsFree[zoneOwner.addr];\n  }\n\n  // ------------------------------------------------\n  //\n  // Functions Getters Private\n  //\n  // ------------------------------------------------\n\n  function toBytes1(bytes _bytes, uint _start)\n    private\n    pure\n    returns (bytes1) {\n      require(_bytes.length >= (_start + 1), \" not long enough\");\n      bytes1 tempBytes1;\n\n      assembly {\n          tempBytes1 := mload(add(add(_bytes, 0x20), _start))\n      }\n\n      return tempBytes1;\n  }\n  function toBytes7(bytes _bytes, uint _start)\n    private\n    pure\n    returns (bytes7) {\n      require(_bytes.length >= (_start + 7), \" not long enough\");\n      bytes7 tempBytes7;\n\n      assembly {\n          tempBytes7 := mload(add(add(_bytes, 0x20), _start))\n      }\n\n      return tempBytes7;\n  }\n  function toBytes12(bytes _bytes, uint _start)\n    private\n    pure\n    returns (bytes12) {\n      require(_bytes.length >= (_start + 12), \" not long enough\");\n      bytes12 tempBytes12;\n\n      assembly {\n          tempBytes12 := mload(add(add(_bytes, 0x20), _start))\n      }\n\n      return tempBytes12;\n  }\n\n  // ------------------------------------------------\n  //\n  // Functions Setters Private\n  //\n  // ------------------------------------------------\n\n  function _removeZoneOwner()\n    private\n  {\n    delete commentsFree[zoneOwner.addr];\n    delete commentsCertified[zoneOwner.addr];\n\n    withdrawableDth[zoneOwner.addr] = withdrawableDth[zoneOwner.addr].add(zoneOwner.balance);\n\n    _removeTeller(); // we do it here since it needs zoneOwner.addr\n\n    zoneOwner.addr = address(0);\n    zoneOwner.startTime = 0;\n    zoneOwner.staked = 0;\n    zoneOwner.balance = 0;\n    zoneOwner.lastTaxTime = 0;\n    zoneOwner.auctionId = 0;\n  }\n\n  function _removeTeller()\n    private\n  {\n    // we dont remove comments here, so that if zoneowner readds or repositions his teller,\n    // his comments still exist.\n\n    withdrawableEth[zoneOwner.addr] = withdrawableEth[zoneOwner.addr].add(funds[zoneOwner.addr]);\n    funds[zoneOwner.addr] = 0;\n\n    teller.currencyId = 0;\n    teller.messenger = bytes16(0);\n    teller.position = bytes12(0);\n    teller.settings = bytes1(0);\n    teller.buyRate = 0;\n    teller.sellRate = 0;\n    teller.referrer = address(0);\n  }\n\n  function _forecloseZoneOwner()\n    private\n  {\n    uint zoneOwnerBalance = zoneOwner.balance;\n    zoneOwner.balance = 0;\n\n    _removeZoneOwner();\n\n    dth.transfer(ADDRESS_BURN, zoneOwnerBalance);\n  }\n\n  function _payTaxZoneOwner(uint taxAmount, uint taxEndTime, bool inAuction)\n    private\n  {\n    zoneOwner.balance = zoneOwner.balance.sub(taxAmount);\n\n    if (inAuction) {\n      // even though zone owner needs to pay taxes until auction.startTime,\n      // we set zoneOwner.lastTaxTime to auction.endTime since the zone owner\n      // does not have to pay taxes over the time when an auction is running\n      zoneOwner.lastTaxTime = auctionIdToAuction[currentAuctionId].endTime;\n    } else {\n      zoneOwner.lastTaxTime = taxEndTime;\n    }\n\n    dth.transfer(ADDRESS_BURN, taxAmount);\n  }\n\n  function _getTaxEndTime()\n    private\n    view\n    returns (uint taxEndTime, bool inAuction)\n  {\n    if (currentAuctionId > 0 && auctionIdToAuction[currentAuctionId].state == AuctionState.Started) {\n      taxEndTime = auctionIdToAuction[currentAuctionId].startTime;\n      inAuction = true;\n    } else {\n      taxEndTime = now;\n      inAuction = false;\n    }\n  }\n\n  function _handleTaxPayment()\n    private\n  {\n    (uint taxEndTime, bool inAuction) = _getTaxEndTime();\n\n    if (zoneOwner.lastTaxTime >= taxEndTime) {\n      return; // short-circuit: multiple txes in 1 block OR many blocks but in same Auction\n    }\n\n    (uint taxAmount, uint keepAmount) = calcHarbergerTax(zoneOwner.lastTaxTime, taxEndTime, zoneOwner.staked);\n\n    if (taxAmount >= zoneOwner.balance) {\n      _forecloseZoneOwner();\n    } else {\n      _payTaxZoneOwner(taxAmount, taxEndTime, inAuction);\n    }\n  }\n\n  function _extendZoneOwner(uint _winningBidAmount)\n    private\n  {\n    zoneOwner.staked = zoneOwner.staked.add(_winningBidAmount);\n    zoneOwner.balance = zoneOwner.balance.add(_winningBidAmount);\n\n    // need to set it since it might've been zero\n    zoneOwner.auctionId = currentAuctionId; // the auctionId that gave the zoneOwner zone ownership\n  }\n\n  function _changeZoneOwner(address _newZoneOwner, uint _winningBidAmount)\n    private\n  {\n    _removeZoneOwner();\n\n    uint auctionEndTime = auctionIdToAuction[currentAuctionId].endTime;\n\n    zoneOwner.addr = _newZoneOwner;\n    zoneOwner.startTime = auctionEndTime;\n    zoneOwner.lastTaxTime = auctionEndTime;\n    zoneOwner.staked = _winningBidAmount; // entry fee is already deducted when user calls bid()\n    zoneOwner.balance = _winningBidAmount;\n    zoneOwner.auctionId = currentAuctionId; // the auctionId that gave the zoneOwner zone ownership\n  }\n\n  function _endAuction()\n    private\n  {\n    Auction storage lastAuction = auctionIdToAuction[currentAuctionId];\n\n    lastAuction.state = AuctionState.Ended;\n\n    uint highestBid = auctionBids[currentAuctionId][lastAuction.highestBidder];\n\n    if (zoneOwner.addr == lastAuction.highestBidder) {\n      _extendZoneOwner(highestBid);\n    } else {\n      _changeZoneOwner(lastAuction.highestBidder, highestBid);\n    }\n  }\n\n  /// @notice private function to update the current auction state\n  function _processState()\n    private\n  {\n    if (zoneOwner.addr != address(0)) {\n      // there is currently a zone owner, check/handle his tax payment\n      _handleTaxPayment();\n    }\n\n    if (currentAuctionId > 0 &&\n        auctionIdToAuction[currentAuctionId].state == AuctionState.Started &&\n        now >= auctionIdToAuction[currentAuctionId].endTime)\n    {\n      // current Auction is still set to Started and endTime has passed, we need to update it to Ended\n      _endAuction();\n    }\n  }\n\n  function _joinAuction(address _sender, uint _dthAmount)\n    private\n  {\n    Auction storage lastAuction = auctionIdToAuction[currentAuctionId];\n\n    //------------------------------------------------------------------------------//\n    // there is a running auction, lets see if we can join the auction with our bid //\n    //------------------------------------------------------------------------------//\n\n    require(_sender != lastAuction.highestBidder, \"highest bidder cannot bid\");\n\n    uint currentHighestBid = auctionBids[currentAuctionId][lastAuction.highestBidder];\n\n    if (_sender == zoneOwner.addr) {\n      uint dthAddedBidsAmount = auctionBids[currentAuctionId][_sender].add(_dthAmount); // NOTE: _dthAmount\n      // the current zone owner's stake also counts in his bid\n      require(zoneOwner.staked.add(dthAddedBidsAmount) > currentHighestBid, \"bid + already staked is less than current highest\");\n      auctionBids[currentAuctionId][_sender] = dthAddedBidsAmount;\n    } else {\n      // _sender is not the current zone owner\n      if (auctionBids[currentAuctionId][_sender] == 0) {\n        // this is the first bid of this challenger, deduct entry fee\n        (uint burnAmount, uint bidAmount) = calcEntryFee(_dthAmount);\n        require(bidAmount > currentHighestBid, \"bid is less than current highest\");\n        auctionBids[currentAuctionId][_sender] = bidAmount;\n        dth.transfer(ADDRESS_BURN, burnAmount);\n      } else {\n        // not the first bid, no entry fee\n        uint newUserTotalBid = auctionBids[currentAuctionId][_sender].add(_dthAmount);\n        require(newUserTotalBid > currentHighestBid, \"bid is less than current highest\");\n        auctionBids[currentAuctionId][_sender] = newUserTotalBid;\n      }\n    }\n\n    // it worked, _sender placed a bid\n    lastAuction.highestBidder = _sender;\n  }\n\n  function _createAuction(address _sender, uint _dthAmount)\n    private\n  {\n    require(_sender != zoneOwner.addr, \"zoneowner cannot start an auction\");\n\n    (uint burnAmount, uint bidAmount) = calcEntryFee(_dthAmount);\n    require(bidAmount > zoneOwner.staked, \"bid is lower than current zone stake\");\n\n    // save the new Auction\n    uint newAuctionId = ++currentAuctionId;\n\n    auctionIdToAuction[newAuctionId] = Auction({\n      state: AuctionState.Started,\n      startTime: now,\n      endTime: now.add(BID_PERIOD),\n      highestBidder: _sender // caller (challenger)\n    });\n\n    auctionBids[newAuctionId][_sender] = bidAmount;\n\n    dth.transfer(ADDRESS_BURN, burnAmount);\n  }\n\n  /// @notice private function to update the current auction state\n  function _bid(address _sender, uint _dthAmount) // GAS COST +/- 223.689\n    private\n  {\n    require(zoneOwner.addr != address(0), \"cannot bid on zone without owner, use claimFreeZone()\");\n\n    if (currentAuctionId > 0 && auctionIdToAuction[currentAuctionId].state == AuctionState.Started) {\n      _joinAuction(_sender, _dthAmount);\n    } else { // there currently is no running auction\n      if (zoneOwner.auctionId == 0) {\n        // current zone owner did not become owner by winning an auction, but by creating this zone or caliming it when it was free\n        require(now > zoneOwner.startTime.add(COOLDOWN_PERIOD), \"cooldown period did not end yet\");\n      } else {\n        // current zone owner became owner by winning an auction (which has ended)\n        require(now > auctionIdToAuction[currentAuctionId].endTime.add(COOLDOWN_PERIOD), \"cooldown period did not end yet\");\n      }\n      _createAuction(_sender, _dthAmount);\n    }\n  }\n\n  function _claimFreeZone(address _sender, uint _dthAmount) // GAS COSt +/- 177.040\n    private\n  {\n    require(zoneOwner.addr == address(0), \"can not claim zone with owner\");\n    require(_dthAmount >= MIN_STAKE, \"need at least minimum zone stake amount (100 DTH)\");\n\n    // NOTE: empty zone claim will not have entry fee deducted, its not bidding it's taking immediately\n    zoneOwner.addr = _sender;\n    zoneOwner.startTime = now;\n    zoneOwner.staked = _dthAmount;\n    zoneOwner.balance = _dthAmount;\n    zoneOwner.lastTaxTime = now;\n    zoneOwner.auctionId = 0; // since it was not gained wby winning an auction\n  }\n\n  function _topUp(address _sender, uint _dthAmount) // GAS COST +/- 104.201\n    private\n  {\n    require(zoneOwner.addr != address(0), \"zone has no owner\");\n    require(_sender == zoneOwner.addr, \"caller is not zone owner\");\n    require(currentAuctionId == 0 || auctionIdToAuction[currentAuctionId].state == AuctionState.Ended, \"cannot top up while auction running\");\n\n    uint oldBalance = zoneOwner.balance;\n    uint newBalance = oldBalance.add(_dthAmount);\n    zoneOwner.balance = newBalance;\n\n    emit ZoneOwnerTopUp(_sender, oldBalance, newBalance);\n  }\n\n  // ------------------------------------------------\n  //\n  // Functions Setters Public\n  //\n  // ------------------------------------------------\n\n  /////////////\n  //\n  //\n  // Zone ownership + Auction\n  //\n  //\n  /////////////\n\n  /// @notice ERC223 receiving function called by Dth contract when Eth is sent to this contract\n  /// @param _from Who send DTH to this contract\n  /// @param _value How much DTH was sent to this contract\n  /// @param _data Additional bytes data sent\n  function tokenFallback(address _from, uint _value, bytes _data)\n    onlyWhenInited\n    public\n  {\n    require(msg.sender == address(dth), \"can only be called by dth contract\");\n    require(control.paused() == false, \"contract is paused\");\n    require(geo.countryIsEnabled(country), \"country is disabled\");\n\n    bytes1 func = toBytes1(_data, 0);\n\n    require(func == bytes1(0x40) || func == bytes1(0x41) || func == bytes1(0x42) || func == bytes1(0x43), \"did not match Zone function\");\n\n    if (func == bytes1(0x40)) { // zone was created by factory, sending through DTH\n      return; // just retun success\n    }\n\n    _processState();\n\n    if (func == bytes1(0x41)) { // claimFreeZone\n      _claimFreeZone(_from, _value);\n    } else if (func == bytes1(0x42)) { // bid\n      _bid(_from, _value);\n    } else if (func == bytes1(0x43)) { // topUp\n      _topUp(_from, _value);\n    }\n  }\n\n  /// @notice release zone ownership\n  /// @dev can only be called by current zone owner, when there is no running auction\n  function release() // GAS COST +/- 72.351\n    onlyWhenInited\n    external\n  {\n    require(control.paused() == false, \"contract is paused\");\n    // allow also when country is disabled, otherwise no way for zone owner to get their eth/dth back\n\n    // zone owner could be removed if he does not have enough balance to pay his taxes\n    _processState();\n\n    require(msg.sender == zoneOwner.addr, \"caller is not zone owner\");\n    require(currentAuctionId == 0 || auctionIdToAuction[currentAuctionId].state == AuctionState.Ended, \"cannot release while auction running\");\n\n    uint ownerBalance = zoneOwner.balance;\n\n    _removeZoneOwner();\n    _removeTeller();\n\n    // if msg.sender is a contract, the DTH ERC223 contract will try to call tokenFallback\n    // on msg.sender, this could lead to a reentrancy. But we prevent this by resetting\n    // zoneOwner before we do dth.transfer(msg.sender)\n    dth.transfer(msg.sender, ownerBalance);\n  }\n\n  // offer three different withdraw functions, single auction, multiple auctions, all auctions\n\n  /// @notice withdraw losing bids from a specific auction\n  /// @param _auctionId The auction id\n  function withdrawFromAuction(uint _auctionId) // GAS COST +/- 125.070\n    onlyWhenInited\n    external\n  {\n    require(control.paused() == false, \"contract is paused\");\n    // even when country is disabled, otherwise users cannot withdraw their bids\n\n    require(_auctionId > 0 && _auctionId <= currentAuctionId, \"auctionId does not exist\");\n\n    _processState();\n\n    require(auctionIdToAuction[_auctionId].state == AuctionState.Ended, \"cannot withdraw while auction is active\");\n    require(auctionIdToAuction[_auctionId].highestBidder != msg.sender, \"auction winner can not withdraw\");\n    require(auctionBids[_auctionId][msg.sender] > 0, \"nothing to withdraw\");\n\n    uint withdrawAmount = auctionBids[_auctionId][msg.sender];\n    auctionBids[_auctionId][msg.sender] = 0;\n\n    dth.transfer(msg.sender, withdrawAmount);\n  }\n\n  /// @notice withdraw from a given list of auction ids\n  function withdrawFromAuctions(uint[] _auctionIds) // GAS COST +/- 127.070\n    onlyWhenInited\n    external\n  {\n    require(control.paused() == false, \"contract is paused\");\n    // even when country is disabled, can withdraw\n    require(currentAuctionId > 0, \"there are no auctions\");\n\n    _processState();\n\n    require(_auctionIds.length > 0, \"auctionIds list is empty\");\n    require(_auctionIds.length <= currentAuctionId, \"auctionIds list is longer than allowed\");\n\n    uint withdrawAmountTotal = 0;\n\n    for (uint idx = 0; idx < _auctionIds.length; idx++) {\n      uint auctionId = _auctionIds[idx];\n      require(auctionId > 0 && auctionId <= currentAuctionId, \"auctionId does not exist\");\n      require(auctionIdToAuction[auctionId].state == AuctionState.Ended, \"cannot withdraw from running auction\");\n      require(auctionIdToAuction[auctionId].highestBidder != msg.sender, \"auction winner can not withdraw\");\n      uint withdrawAmount = auctionBids[auctionId][msg.sender];\n      if (withdrawAmount > 0) {\n        // if user supplies the same auctionId multiple times in auctionIds,\n        // only the first one will get a withdrawal amount\n        auctionBids[auctionId][msg.sender] = 0;\n        withdrawAmountTotal = withdrawAmountTotal.add(withdrawAmount);\n      }\n    }\n\n    require(withdrawAmountTotal > 0, \"nothing to withdraw\");\n\n    dth.transfer(msg.sender, withdrawAmountTotal);\n  }\n\n  function withdrawDth()\n    onlyWhenInited\n    external\n  {\n    uint dthWithdraw = withdrawableDth[msg.sender];\n    require(dthWithdraw > 0, \"nothing to withdraw\");\n\n    if (dthWithdraw > 0) {\n      withdrawableDth[msg.sender] = 0;\n      dth.transfer(msg.sender, dthWithdraw);\n    }\n  }\n\n  function withdrawEth()\n    onlyWhenInited\n    external\n  {\n    uint ethWithdraw = withdrawableEth[msg.sender];\n    require(ethWithdraw > 0, \"nothing to withdraw\");\n\n    if (ethWithdraw > 0) {\n      withdrawableEth[msg.sender] = 0;\n      msg.sender.transfer(ethWithdraw);\n    }\n  }\n\n  /////////////\n  //\n  //\n  // TELLER\n  //\n  //\n  /////////////\n\n\n  // NOTE: we could just require only last 5 bytes of a bytes12 geohash, since\n  // the first 7 bytes will be the geohash of this zone. But by requiring the full geohash\n  // we can mkae more sure the user is talking to the right zone\n  function addTeller(bytes _position, uint8 _currencyId, bytes16 _messenger, int16 _sellRate, int16 _buyRate, bytes1 _settings, address _referrer) // GAS COST +/- 75.301\n    onlyWhenInited\n    external\n  {\n    require(control.paused() == false, \"contract is paused\");\n    require(geo.countryIsEnabled(country), \"country is disabled\");\n    require(_position.length == 12, \"expected position to be 10 bytes\");\n    require(toBytes7(_position, 0) == geohash, \"position is not inside this zone\");\n    require(geo.validGeohashChars(_position), \"invalid position geohash characters\");\n\n    require(_currencyId >= 1 && _currencyId <= 100, \"currency id must be in range 1-100\");\n    // _messenger can be 0x0 if he has no telegram\n\n    if (_settings & isSellerBitMask != 0) { // seller bit is set => teller is a \"seller\"\n      require(_sellRate >= -9999 && _sellRate <= 9999, \"sellRate should be between -9999 and 9999\");\n    } else {\n      require(_sellRate == 0, \"cannot set sellRate if not set as seller\");\n    }\n\n    if (_settings & isBuyerBitMask != 0) { // buyer bit is set => teller is a \"buyer\"\n      require(_buyRate >= -9999 && _buyRate <= 9999, \"buyRate should be between -9999 and 9999\");\n    } else {\n      require(_buyRate == 0, \"cannot set buyRate if not set as buyer\");\n    }\n\n    _processState();\n\n    require(msg.sender == zoneOwner.addr, \"only zone owner can add teller info\");\n\n    teller.currencyId = _currencyId;\n    teller.messenger = _messenger;\n    teller.buyRate = _buyRate;\n    teller.sellRate = _sellRate;\n    teller.position = toBytes12(_position, 0);\n    teller.settings = _settings;\n    teller.referrer = _referrer;\n\n    emit ZoneUpdatedTeller(msg.sender);\n  }\n\n  function removeTeller()\n    onlyWhenInited\n    external\n  {\n    require(control.paused() == false, \"contract is paused\");\n\n    _processState();\n\n    require(msg.sender == zoneOwner.addr, \"only zone owner can add teller info\");\n\n    _removeTeller();\n  }\n\n  // called by Teller, adding ETH to Teller funds\n  function addFunds() // GAS COST +/- 59.809\n    onlyWhenInited\n    external\n    payable\n  {\n    require(control.paused() == false, \"contract is paused\");\n    require(geo.countryIsEnabled(country), \"country is disabled\");\n    require(msg.value > 0, \"no eth send with call\");\n\n    _processState();\n\n    require(msg.sender == zoneOwner.addr, \"only zoneOwner can add funds\");\n    require(teller.currencyId != 0, \"not yet added teller info\");\n\n    // register ETH sent to this contract\n    funds[msg.sender] = funds[msg.sender].add(msg.value);\n  }\n\n  // called by Teller, sending ETH from Zone to _to\n  function sellEth(address _to, uint _amount) // GAS COST +/- 147.310\n    onlyWhenInited\n    external\n  {\n    // NOTE: even users which are not registered in tier 1/2 -> sms/kyc, are allowed to sell eth\n    require(control.paused() == false, \"contract is paused\");\n    require(geo.countryIsEnabled(country), \"country is disabled\");\n    require(msg.sender != _to, \"sender cannot also be to\");\n    require(_amount > 0, \"amount to sell cannot be zero\");\n\n    _processState();\n\n    require(msg.sender == zoneOwner.addr, \"can only be called by zone owner\");\n    require(teller.currencyId != 0, \"not yet added teller info\");\n\n    if (teller.referrer != address(0)) { // need to pay referrer fee\n      uint referrerAmount = calcReferrerFee(_amount);\n      require(funds[msg.sender] >= _amount + referrerAmount, \"not enough funds to sell eth amount plus pay referrer fee\");\n      funds[msg.sender] = funds[msg.sender].sub(_amount + referrerAmount);\n      withdrawableEth[teller.referrer] = withdrawableEth[teller.referrer].add(referrerAmount);\n    } else {\n      require(funds[msg.sender] >= _amount, \"cannot sell more than in funds\");\n      funds[msg.sender] = funds[msg.sender].sub(_amount);\n    }\n\n    zoneFactory.updateUserDailySold(country, msg.sender, _to, _amount); // MIGHT THROW if exceeds daily limit\n\n    canPlaceCertifiedComment[zoneOwner.addr][_to]++;\n\n    _to.transfer(_amount);\n  }\n\n  function addCertifiedComment(bytes32 _commentHash)\n    onlyWhenInited\n    external\n  {\n    require(control.paused() == false, \"contract is paused\");\n    require(geo.countryIsEnabled(country), \"country is disabled\");\n    require(_commentHash != bytes32(0), \"comment hash cannot be 0x0\");\n\n    _processState();\n\n    require(zoneOwner.addr != address(0), \"cannot comment on zone without owner\");\n    require(teller.position != bytes12(0), \"cannot comment on zone without teller\");\n    require(msg.sender != zoneOwner.addr, \"zone owner cannot comment on himself\");\n\n    require(canPlaceCertifiedComment[zoneOwner.addr][msg.sender] > 0, \"user not allowed to place a certified comment\");\n    canPlaceCertifiedComment[zoneOwner.addr][msg.sender]--;\n\n    commentsCertified[zoneOwner.addr].push(_commentHash);\n  }\n\n  function addComment(bytes32 _commentHash)\n    onlyWhenInited\n    external\n  {\n    require(control.paused() == false, \"contract is paused\");\n    require(geo.countryIsEnabled(country), \"country is disabled\");\n    require(_commentHash != bytes32(0), \"comment hash cannot be 0x0\");\n\n    _processState();\n\n    require(zoneOwner.addr != address(0), \"cannot comment on zone without owner\");\n    require(teller.position != bytes12(0), \"cannot comment on zone without teller\");\n    require(msg.sender != zoneOwner.addr, \"zone owner cannot comment on himself\");\n\n    commentsFree[zoneOwner.addr].push(_commentHash);\n  }\n}\n",
  "sourcePath": "/Users/trip/Projects/detherContracts/contracts/map/Zone.sol",
  "compiler": {
    "name": "solc",
    "version": "0.4.24+commit.e67f0147.Emscripten.clang"
  },
  "schemaVersion": "2.0.1",
  "updatedAt": "2019-01-24T12:15:25.642Z"
}