{
  "contractName": "ZoneFactory",
  "abi": [
    {
      "constant": true,
      "inputs": [],
      "name": "dth",
      "outputs": [
        {
          "name": "",
          "type": "address"
        }
      ],
      "payable": false,
      "stateMutability": "view",
      "type": "function"
    },
    {
      "constant": true,
      "inputs": [
        {
          "name": "",
          "type": "address"
        }
      ],
      "name": "zoneToGeohash",
      "outputs": [
        {
          "name": "",
          "type": "bytes7"
        }
      ],
      "payable": false,
      "stateMutability": "view",
      "type": "function"
    },
    {
      "constant": true,
      "inputs": [
        {
          "name": "",
          "type": "bytes7"
        }
      ],
      "name": "geohashToZone",
      "outputs": [
        {
          "name": "",
          "type": "address"
        }
      ],
      "payable": false,
      "stateMutability": "view",
      "type": "function"
    },
    {
      "constant": false,
      "inputs": [],
      "name": "renounceOwnership",
      "outputs": [],
      "payable": false,
      "stateMutability": "nonpayable",
      "type": "function"
    },
    {
      "constant": true,
      "inputs": [],
      "name": "owner",
      "outputs": [
        {
          "name": "",
          "type": "address"
        }
      ],
      "payable": false,
      "stateMutability": "view",
      "type": "function"
    },
    {
      "constant": true,
      "inputs": [],
      "name": "isOwner",
      "outputs": [
        {
          "name": "",
          "type": "bool"
        }
      ],
      "payable": false,
      "stateMutability": "view",
      "type": "function"
    },
    {
      "constant": true,
      "inputs": [],
      "name": "zoneImplementation",
      "outputs": [
        {
          "name": "",
          "type": "address"
        }
      ],
      "payable": false,
      "stateMutability": "view",
      "type": "function"
    },
    {
      "constant": true,
      "inputs": [],
      "name": "control",
      "outputs": [
        {
          "name": "",
          "type": "address"
        }
      ],
      "payable": false,
      "stateMutability": "view",
      "type": "function"
    },
    {
      "constant": true,
      "inputs": [],
      "name": "geo",
      "outputs": [
        {
          "name": "",
          "type": "address"
        }
      ],
      "payable": false,
      "stateMutability": "view",
      "type": "function"
    },
    {
      "constant": true,
      "inputs": [],
      "name": "users",
      "outputs": [
        {
          "name": "",
          "type": "address"
        }
      ],
      "payable": false,
      "stateMutability": "view",
      "type": "function"
    },
    {
      "constant": false,
      "inputs": [
        {
          "name": "newOwner",
          "type": "address"
        }
      ],
      "name": "transferOwnership",
      "outputs": [],
      "payable": false,
      "stateMutability": "nonpayable",
      "type": "function"
    },
    {
      "inputs": [
        {
          "name": "_dth",
          "type": "address"
        },
        {
          "name": "_geo",
          "type": "address"
        },
        {
          "name": "_users",
          "type": "address"
        },
        {
          "name": "_control",
          "type": "address"
        },
        {
          "name": "_zoneImplementation",
          "type": "address"
        }
      ],
      "payable": false,
      "stateMutability": "nonpayable",
      "type": "constructor"
    },
    {
      "anonymous": false,
      "inputs": [
        {
          "indexed": true,
          "name": "zoneAddress",
          "type": "address"
        },
        {
          "indexed": true,
          "name": "zoneGeohash",
          "type": "bytes7"
        },
        {
          "indexed": true,
          "name": "zoneOwner",
          "type": "address"
        },
        {
          "indexed": false,
          "name": "dthStake",
          "type": "uint256"
        }
      ],
      "name": "ZoneFactoryCreatedZone",
      "type": "event"
    },
    {
      "anonymous": false,
      "inputs": [
        {
          "indexed": true,
          "name": "previousOwner",
          "type": "address"
        },
        {
          "indexed": true,
          "name": "newOwner",
          "type": "address"
        }
      ],
      "name": "OwnershipTransferred",
      "type": "event"
    },
    {
      "constant": true,
      "inputs": [
        {
          "name": "_geohash",
          "type": "bytes7"
        }
      ],
      "name": "zoneExists",
      "outputs": [
        {
          "name": "",
          "type": "bool"
        }
      ],
      "payable": false,
      "stateMutability": "view",
      "type": "function"
    },
    {
      "constant": false,
      "inputs": [
        {
          "name": "_countryCode",
          "type": "bytes2"
        },
        {
          "name": "_from",
          "type": "address"
        },
        {
          "name": "_to",
          "type": "address"
        },
        {
          "name": "_amount",
          "type": "uint256"
        }
      ],
      "name": "updateUserDailySold",
      "outputs": [],
      "payable": false,
      "stateMutability": "nonpayable",
      "type": "function"
    },
    {
      "constant": false,
      "inputs": [
        {
          "name": "_from",
          "type": "address"
        },
        {
          "name": "_value",
          "type": "uint256"
        },
        {
          "name": "_data",
          "type": "bytes"
        }
      ],
      "name": "tokenFallback",
      "outputs": [],
      "payable": false,
      "stateMutability": "nonpayable",
      "type": "function"
    }
  ],
  "bytecode": "0x608060405234801561001057600080fd5b5060405160a0806112b98339810160408181528251602084015191840151606085015160809095015160008054600160a060020a0319163317808255939694959294939192600160a060020a0392909216917f8be0079c531659141344cd1fd0a4f28419497f9722a3daafe3b4186f6b6457e0908290a3600160a060020a03851615156100fe57604080517f08c379a000000000000000000000000000000000000000000000000000000000815260206004820152601960248201527f64746820616464726573732063616e6e6f742062652030783000000000000000604482015290519081900360640190fd5b600160a060020a038416151561017557604080517f08c379a000000000000000000000000000000000000000000000000000000000815260206004820152601960248201527f67656f20616464726573732063616e6e6f742062652030783000000000000000604482015290519081900360640190fd5b600160a060020a03831615156101ec57604080517f08c379a000000000000000000000000000000000000000000000000000000000815260206004820152601b60248201527f757365727320616464726573732063616e6e6f74206265203078300000000000604482015290519081900360640190fd5b600160a060020a038216151561026357604080517f08c379a000000000000000000000000000000000000000000000000000000000815260206004820152601d60248201527f636f6e74726f6c20616464726573732063616e6e6f7420626520307830000000604482015290519081900360640190fd5b60038054600160a060020a0319908116600160a060020a03978816179091556004805482169587169590951790945560058054851693861693909317909255600680548416918516919091179055600780549092169216919091179055610fea806102cf6000396000f3006080604052600436106100cf5763ffffffff7c010000000000000000000000000000000000000000000000000000000060003504166301e57a3781146100d457806313f54caa146101055780631b4dab7314610143578063715018a6146101655780638da5cb5b1461017c5780638f32d59b14610191578063ab292266146101ba578063c0ee0b8a146101cf578063c6fcb00814610238578063cde603331461025a578063d8de658714610291578063d944e6a3146102a6578063f2020275146102bb578063f2fde38b146102d0575b600080fd5b3480156100e057600080fd5b506100e96102f1565b60408051600160a060020a039092168252519081900360200190f35b34801561011157600080fd5b50610126600160a060020a0360043516610300565b60408051600160c860020a03199092168252519081900360200190f35b34801561014f57600080fd5b506100e9600160c860020a03196004351661032e565b34801561017157600080fd5b5061017a610349565b005b34801561018857600080fd5b506100e96103b3565b34801561019d57600080fd5b506101a66103c2565b604080519115158252519081900360200190f35b3480156101c657600080fd5b506100e96103d3565b3480156101db57600080fd5b50604080516020600460443581810135601f810184900484028501840190955284845261017a948235600160a060020a03169460248035953695946064949201919081908401838280828437509497506103e29650505050505050565b34801561024457600080fd5b506101a6600160c860020a031960043516610bd8565b34801561026657600080fd5b5061017a600160f060020a031960043516600160a060020a0360243581169060443516606435610bff565b34801561029d57600080fd5b506100e9610d55565b3480156102b257600080fd5b506100e9610d64565b3480156102c757600080fd5b506100e9610d73565b3480156102dc57600080fd5b5061017a600160a060020a0360043516610d82565b600354600160a060020a031681565b6002602052600090815260409020547901000000000000000000000000000000000000000000000000000281565b600160205260009081526040902054600160a060020a031681565b6103516103c2565b151561035c57600080fd5b60008054604051600160a060020a03909116907f8be0079c531659141344cd1fd0a4f28419497f9722a3daafe3b4186f6b6457e0908390a36000805473ffffffffffffffffffffffffffffffffffffffff19169055565b600054600160a060020a031690565b600054600160a060020a0316331490565b600754600160a060020a031681565b6003546000908190819081908190600160a060020a03163314610475576040805160e560020a62461bcd02815260206004820152602260248201527f63616e206f6e6c792062652063616c6c65642062792064746820636f6e74726160448201527f6374000000000000000000000000000000000000000000000000000000000000606482015290519081900360840190fd5b600660009054906101000a9004600160a060020a0316600160a060020a0316635c975abb6040518163ffffffff167c0100000000000000000000000000000000000000000000000000000000028152600401602060405180830381600087803b1580156104e157600080fd5b505af11580156104f5573d6000803e3d6000fd5b505050506040513d602081101561050b57600080fd5b505115610562576040805160e560020a62461bcd02815260206004820152601260248201527f636f6e7472616374206973207061757365640000000000000000000000000000604482015290519081900360640190fd5b8551600a146105e1576040805160e560020a62461bcd02815260206004820152602760248201527f637265617465416e64436c61696d20657870656374732031302062797465732060448201527f6173206461746100000000000000000000000000000000000000000000000000606482015290519081900360840190fd5b7f400000000000000000000000000000000000000000000000000000000000000061060d876000610da1565b7fff0000000000000000000000000000000000000000000000000000000000000016146106aa576040805160e560020a62461bcd02815260206004820152602b60248201527f696e636f7272656374206669727374206279746520696e20646174612c20657860448201527f7065637465642030783430000000000000000000000000000000000000000000606482015290519081900360840190fd5b8794508693506106bb866001610e0c565b92506106c8866003610e6d565b60048054604080517f0dc210aa000000000000000000000000000000000000000000000000000000008152600160f060020a031988169381019390935251929450600160a060020a031691630dc210aa916024808201926020929091908290030181600087803b15801561073b57600080fd5b505af115801561074f573d6000803e3d6000fd5b505050506040513d602081101561076557600080fd5b505115156107bd576040805160e560020a62461bcd02815260206004820152601360248201527f636f756e7472792069732064697361626c656400000000000000000000000000604482015290519081900360640190fd5b60048054604080517fdf6b2c2c000000000000000000000000000000000000000000000000000000008152600160f060020a03198716938101939093527fffffffff000000000000000000000000000000000000000000000000000000008516602484015251600160a060020a039091169163df6b2c2c9160448083019260209291908290030181600087803b15801561085657600080fd5b505af115801561086a573d6000803e3d6000fd5b505050506040513d602081101561088057600080fd5b505115156108d8576040805160e560020a62461bcd02815260206004820152601a60248201527f7a6f6e65206973206e6f7420696e7369646520636f756e747279000000000000604482015290519081900360640190fd5b600160c860020a03198216600090815260016020526040902054600160a060020a031615610950576040805160e560020a62461bcd02815260206004820152601360248201527f7a6f6e6520616c72656164792065786973747300000000000000000000000000604482015290519081900360640190fd5b60075461096590600160a060020a0316610ece565b60035460048054600554600654604080517f98369c79000000000000000000000000000000000000000000000000000000008152600160f060020a03198b1695810195909552600160c860020a031989166024860152600160a060020a038c81166044870152606486018c9052958616608486015292851660a485015290841660c4840152831660e48301523061010483015251929350908316916398369c79916101248082019260009290919082900301818387803b158015610a2857600080fd5b505af1158015610a3c573d6000803e3d6000fd5b505050600160c860020a0319831660009081526001602081815260408084208054600160a060020a0380891673ffffffffffffffffffffffffffffffffffffffff1990921682179092558086526002845282862080547901000000000000000000000000000000000000000000000000008b0466ffffffffffffff1990911617905560035483517fbe45fd620000000000000000000000000000000000000000000000000000000081526004810192909252602482018c90526060604483015260648201959095527f4000000000000000000000000000000000000000000000000000000000000000608482015291519316945063be45fd629360a480830194928390030190829087803b158015610b5357600080fd5b505af1158015610b67573d6000803e3d6000fd5b505050506040513d6020811015610b7d57600080fd5b5050604080518581529051600160a060020a0380881692600160c860020a0319861692918516917fc193d4e9a746fdc66bc534f0841cda7adfc97419f44b616421cb122d8670e7be9181900360200190a45050505050505050565b600160c860020a031916600090815260016020526040902054600160a060020a0316151590565b3360009081526002602052604090205479010000000000000000000000000000000000000000000000000002600160c860020a0319161515610cb1576040805160e560020a62461bcd02815260206004820152602760248201527f63616e206f6e6c792062652063616c6c6564206279206120726567697374657260448201527f6564207a6f6e6500000000000000000000000000000000000000000000000000606482015290519081900360840190fd5b600554604080517ffb89df53000000000000000000000000000000000000000000000000000000008152600160f060020a031987166004820152600160a060020a0386811660248301528581166044830152606482018590529151919092169163fb89df5391608480830192600092919082900301818387803b158015610d3757600080fd5b505af1158015610d4b573d6000803e3d6000fd5b5050505050505050565b600654600160a060020a031681565b600454600160a060020a031681565b600554600160a060020a031681565b610d8a6103c2565b1515610d9557600080fd5b610d9e81610f41565b50565b60008082600101845110151515610e02576040805160e560020a62461bcd02815260206004820152601060248201527f206e6f74206c6f6e6720656e6f75676800000000000000000000000000000000604482015290519081900360640190fd5b5050016020015190565b60008082600201845110151515610e02576040805160e560020a62461bcd02815260206004820152601060248201527f206e6f74206c6f6e6720656e6f75676800000000000000000000000000000000604482015290519081900360640190fd5b60008082600701845110151515610e02576040805160e560020a62461bcd02815260206004820152601060248201527f206e6f74206c6f6e6720656e6f75676800000000000000000000000000000000604482015290519081900360640190fd5b6040517f3d602d80600a3d3981f3363d3d373d3d3d363d7300000000000000000000000081526c010000000000000000000000008202601482018190527f5af43d82803e903d91602b57fd5bf30000000000000000000000000000000000602883015260009160378184f0949350505050565b600160a060020a0381161515610f5657600080fd5b60008054604051600160a060020a03808516939216917f8be0079c531659141344cd1fd0a4f28419497f9722a3daafe3b4186f6b6457e091a36000805473ffffffffffffffffffffffffffffffffffffffff1916600160a060020a03929092169190911790555600a165627a7a7230582056accf3f4286659a8f5b3430c56b2aac3cad9615454d86c32bb0fc77fa68336d0029",
  "source": "pragma solidity ^0.4.24;\n\nimport \"openzeppelin-solidity/contracts/ownership/Ownable.sol\";\n\nimport \"../dth/IDetherToken.sol\";\nimport \"../core/IUsers.sol\";\nimport \"../core/IControl.sol\";\nimport \"./IGeoRegistry.sol\";\nimport \"./IZone.sol\";\n\nimport \"../eip1167/CloneFactory.sol\";\n\ncontract ZoneFactory is Ownable, CloneFactory {\n\n  // ------------------------------------------------\n  //\n  // Variables Public\n  //\n  // ------------------------------------------------\n\n  //      geohash   zoneContractAddress or 0x0 if it doesnt exist\n  // TODO: now we can use computeCSC() to get CSC, do we need it? not really\n  mapping(bytes7 => address) public geohashToZone;\n  mapping(address => bytes7) public zoneToGeohash;\n\n  IDetherToken public dth;\n  IGeoRegistry public geo;\n  IUsers public users;\n  IControl public control;\n\n  address public zoneImplementation;\n\n  // ------------------------------------------------\n  //\n  // Events\n  //\n  // ------------------------------------------------\n\n  event ZoneFactoryCreatedZone(address indexed zoneAddress, bytes7 indexed zoneGeohash, address indexed zoneOwner, uint dthStake);\n\n  // ------------------------------------------------\n  //\n  // Constructor\n  //\n  // ------------------------------------------------\n\n  constructor(address _dth, address _geo, address _users, address _control, address _zoneImplementation)\n    public\n  {\n    require(_dth != address(0), \"dth address cannot be 0x0\");\n    require(_geo != address(0), \"geo address cannot be 0x0\");\n    require(_users != address(0), \"users address cannot be 0x0\");\n    require(_control != address(0), \"control address cannot be 0x0\");\n\n    dth = IDetherToken(_dth);\n    geo = IGeoRegistry(_geo);\n    users = IUsers(_users);\n    control = IControl(_control);\n\n    zoneImplementation = _zoneImplementation;\n  }\n\n  // ------------------------------------------------\n  //\n  // Functions Private Getters\n  //\n  // ------------------------------------------------\n\n  function toBytes1(bytes _bytes, uint _start)\n    private\n    pure\n    returns (bytes1)\n  {\n    require(_bytes.length >= (_start + 1), \" not long enough\");\n    bytes1 tempBytes1;\n\n    assembly {\n        tempBytes1 := mload(add(add(_bytes, 0x20), _start))\n    }\n\n    return tempBytes1;\n  }\n\n  function toBytes2(bytes _bytes, uint _start)\n    private\n    pure\n    returns (bytes2)\n  {\n    require(_bytes.length >= (_start + 2), \" not long enough\");\n    bytes2 tempBytes2;\n\n    assembly {\n        tempBytes2 := mload(add(add(_bytes, 0x20), _start))\n    }\n\n    return tempBytes2;\n  }\n\n  function toBytes7(bytes _bytes, uint _start)\n    private\n    pure\n    returns (bytes7)\n  {\n    require(_bytes.length >= (_start + 7), \" not long enough\");\n    bytes7 tempBytes7;\n\n    assembly {\n        tempBytes7 := mload(add(add(_bytes, 0x20), _start))\n    }\n\n    return tempBytes7;\n  }\n\n  function slice(bytes _bytes, uint _start, uint _length)\n    private\n    pure\n    returns (bytes)\n  {\n    require(_bytes.length >= (_start + _length));\n    bytes memory tempBytes;\n    assembly {\n        switch iszero(_length)\n        case 0 {\n            tempBytes := mload(0x40)\n            let lengthmod := and(_length, 31)\n            let mc := add(add(tempBytes, lengthmod), mul(0x20, iszero(lengthmod)))\n            let end := add(mc, _length)\n            for {\n                let cc := add(add(add(_bytes, lengthmod), mul(0x20, iszero(lengthmod))), _start)\n            } lt(mc, end) {\n                mc := add(mc, 0x20)\n                cc := add(cc, 0x20)\n            } {\n                mstore(mc, mload(cc))\n            }\n            mstore(tempBytes, _length)\n            mstore(0x40, and(add(mc, 31), not(31)))\n        }\n        default {\n            tempBytes := mload(0x40)\n            mstore(0x40, add(tempBytes, 0x20))\n        }\n    }\n    return tempBytes;\n  }\n\n  // ------------------------------------------------\n  //\n  // Functions Public Getters\n  //\n  // ------------------------------------------------\n\n\n  function zoneExists(bytes7 _geohash)\n    external\n    view\n    returns (bool)\n  {\n    return geohashToZone[_geohash] != address(0);\n  }\n\n  // ------------------------------------------------\n  //\n  // Functions Setters Public\n  //\n  // ------------------------------------------------\n\n  function updateUserDailySold(bytes2 _countryCode, address _from, address _to, uint _amount)\n    external\n  {\n    require(zoneToGeohash[msg.sender] != bytes7(0), \"can only be called by a registered zone\");\n\n    users.updateDailySold(_countryCode, _from, _to, _amount);\n  }\n\n  // ERC223 magic\n  function tokenFallback(address _from, uint _value, bytes _data) // GAS COST +/- 3.763.729\n    public\n  {\n    require(msg.sender == address(dth), \"can only be called by dth contract\");\n\n    require(control.paused() == false, \"contract is paused\");\n    require(_data.length == 10, \"createAndClaim expects 10 bytes as data\");\n\n    // we only expect 1 function to be called, createAndClaim, encoded as bytes1(0x40)\n    require(toBytes1(_data, 0) == bytes1(0x40), \"incorrect first byte in data, expected 0x40\");\n\n    address sender = _from;\n    uint dthAmount = _value;\n\n    bytes2 country = toBytes2(_data, 1);\n    bytes7 geohash = toBytes7(_data, 3);\n\n    require(geo.countryIsEnabled(country), \"country is disabled\");\n    require(geo.zoneInsideCountry(country, bytes4(geohash)), \"zone is not inside country\");\n    require(geohashToZone[geohash] == address(0), \"zone already exists\");\n\n    // create/deploy the new zone\n    address newZone = createClone(zoneImplementation);\n    IZone(newZone).init(\n      country, geohash, sender, dthAmount,\n      address(dth), address(geo), address(users), address(control), address(this)\n    );\n\n    // store references\n    geohashToZone[geohash] = newZone;\n    zoneToGeohash[newZone] = geohash;\n\n    // send all dth through to the new Zone contract\n    dth.transfer(newZone, dthAmount, hex\"40\");\n\n    emit ZoneFactoryCreatedZone(newZone, geohash, sender, dthAmount);\n  }\n}\n",
  "sourcePath": "/Users/trip/Projects/detherContracts/contracts/map/ZoneFactory.sol",
  "compiler": {
    "name": "solc",
    "version": "0.4.24+commit.e67f0147.Emscripten.clang"
  },
  "schemaVersion": "2.0.1",
  "updatedAt": "2019-01-24T12:15:25.530Z"
}